:020000040800F2
:1000000088070020A1020008673700081D3100089A
:100010006537000811170008F53E000800000000D1
:100020000000000000000000000000007F3A00080F
:10003000131700080000000069370008813A000823
:10004000BB020008BB020008BB020008BB0200089C
:10005000BB020008BB020008BB020008BB0200088C
:10006000BB020008BB020008BB020008BB0200087C
:10007000BB020008BB020008BB020008BB0200086C
:10008000BB02000800000000BB020008BB02000821
:10009000BB020008BB020008BB020008BB0200084C
:1000A000BB020008BB020008BB020008BB0200083C
:1000B000BB020008BB020008BB020008BB0200082C
:1000C000BB020008BB020008BB020008BB0200081C
:1000D000BB020008BB020008BB020008BB0200080C
:1000E000BB020008BB020008BB020008BB020008FC
:1000F000BB020008BB020008BB02000800000000B1
:1001000000000000BB02000800000000BB02000865
:10011000BB02000800000000BB020008BB02000890
:10012000BB020008BB020008BB020008BB020008BB
:10013000BB0200080000000000000000BB02000835
:10014000BB020008BB020008000000000000000025
:10015000000000000000000000000000000000009F
:10016000000000000000000000000000BB020008CA
:10017000BB020008000000000000000000000000BA
:1001800000000000BB0200080000000000000000AA
:10019000000000000000000000000000000000005F
:1001A0000000000000000000BB020008BB020008C5
:1001B000BB020008BB020008BB02000800000000F0
:1001C00000000000BB02000800000000000000006A
:1001D000BB020008BB02000800F002F800F050F873
:1001E0000AA090E8000C82448344AAF10107DA4592
:1001F00001D100F045F8AFF2090EBAE80F0013F094
:10020000010F18BFFB1A43F0010318472C570000D9
:100210004C570000103A24BF78C878C1FAD852076A
:1002200024BF30C830C144BF04680C607047000070
:100230000023002400250026103A28BF78C1FBD8EF
:10024000520728BF30C148BF0B607047662904F0D1
:100250003682642900F08880002070471FB504F0C2
:1002600029FA9DE8030000F089F900F06FFC040012
:100270000020002104F0AEF8E0601FBD10B510BDF5
:1002800000F082FD1146FFF7E9FF03F0B1FF00F037
:10029000A0FD03B4FFF7F2FF03BC00F011FE000065
:1002A0000948804709480047FEE7FEE7FEE7FEE70A
:1002B000FEE7FEE7FEE7FEE7FEE7FEE70448054946
:1002C000054A064B70470000ED3A0008D9010008C6
:1002D0008801002088070020880300208803002070
:1002E00070B5064600F02EF9056806F10B0020F007
:1002F0000704B4429CBF002070BD2B466A68BAB1A7
:100300001068A04210D304F1080188423CBF506835
:10031000586007D35168101941601168091B0160CA
:1003200058601460101D70BD13465268002AE7D152
:100330002146284600F00EF90028DED170BD0000ED
:100340000FB41CB5074B06AA7B446946009005987C
:1003500000F0DFFB0020694600F0EEFB1CBC5DF8FE
:1003600014FB0000ED0700002DE9F04106460024D3
:1003700010687529314616A510D0AFF3008000280B
:1003800002DA404213A507E031688A0701D512A5B9
:1003900002E0490704D511A5012401E0AFF3008074
:1003A00000210A2206F1240709E0B0FBF2FCB0FBB1
:1003B000F2F302FB1C00303078541846491C002828
:1003C000F3D123462A463046BDE8F04100F033B968
:1003D000000000002D0000002B00000020000000A5
:1003E0002DE9F0474FF0000A89460446C0F820A0E6
:1003F0002046E1688847002876D0252806D0D4E931
:1004000001219047206A401C2062F1E7E168204604
:1004100000258847C4F81CA006460027C4F818A089
:100420002A2E09D0304603F08EFD38B304EB87083E
:10043000303EC8F8186019E059F8041B204604EB58
:1004400087029161E1688847012F064618D1E0696B
:10045000002820DA25F020051DE0D8F8180000EB70
:10046000800006EB40003038C8F818002046E168EC
:100470008847064603F067FD0028EED1012F0AD019
:100480002E2E08D12046E16888477F1C0646022FA1
:1004900045F02005C4DBA069002803DA404245F09E
:1004A0000105A061E80701D025F01005B6B1A6F15D
:1004B0004100192802D8203645F400654A463146E5
:1004C000204625604D46FFF7C1FE58B1012806D0F1
:1004D000ED1D25F0070000F1080989E704E005F1AA
:1004E000040985E730468AE7206ABDE8F0874FF0C7
:1004F000000200B5134694469646203922BFA0E874
:100500000C50A0E80C50B1F12001BFF4F7AF09077F
:1005100028BFA0E80C5048BF0CC05DF804EB890070
:1005200028BF40F8042B08BF704748BF20F8022BB3
:1005300011F0804F18BF00F8012B704770477047CB
:1005400070470000004870472C010020704770473A
:100550007047704738B504460A4600206946AFF335
:100560000080002808BF38BD02460099204600F0F0
:10057000F1FA012038BD012000F0FEBBF8B5AFF361
:100580000080054600200C46102000BF0646A81932
:10059000A0420DD9324669460020AFF30080070023
:1005A00008BF00F0E9FB0098A04218BF0546C41937
:1005B000FFF7C8FF05600746F01D20F00700461949
:1005C000284600F00AF8B44208BFF8BDA21B314625
:1005D0003868BDE8F84000F0BDBA00210160C0E90C
:1005E000011070471020704770B50446051FFFF7D3
:1005F000A9FF0068002C14BF446870BD002C18BF10
:10060000AC423CBF20466468F8D301680A18AA428D
:1006100018BF456003D12A68054611440160286867
:100620004119A1421CBF6C6070BD6168696021689E
:100630000844286070BD2DE9F0470D469946924662
:10064000044600F124080168880604D5E06921F019
:100650001001216000E00120A84201DD471B00E0FD
:100660000027A1697A1902EB0900081AA061207815
:10067000C00602D42046AFF30080002608E0D4E98B
:1006800001211AF806009047206A401C761C20625F
:100690004E45F4DB2078C0060AD52046AFF3008033
:1006A00006E0D4E9012130209047206A401C2062F6
:1006B000381EA7F10107F4DC07E0D4E9012118F89E
:1006C00005009047206A401C2062281EA5F1010504
:1006D000F3DC2046AFF300802078000602D502202C
:1006E000BDE8F0870120FBE770472DE9FF4F0C467E
:1006F0001E464FF0FF378BB0D2E90001DDF8608075
:100700000A908A46C1F30A5505B93D4600210846BC
:100710004FF00000BAF1000F00F4400005DA00EBE2
:1007200080004FF4400101EA50004FEA9059B9F1BE
:10073000010F00DDB9460A9850EA4A000ED044F68F
:100740001050A5F2FF3545432F14B8F1000F1ED00D
:100750007542291E1EDDC9F100021CE0B8F1010F2F
:100760004FF0000001D0302103E0F24305E02154B6
:10077000401CB042FBDB30460022002121540B9983
:10078000C1F80880C1E900200FB0BDE8F08FBD1BA3
:100790006D1CDEE74A4600DA694206A800F07AFAE4
:1007A00006AB93E8070003AB83E8070050460A99BD
:1007B00000F0ACFB8DE80700A0F500501F3800905A
:1007C0000398002D0ADD42F21F014A460844002327
:1007D00003A90390684600F015FE09E0A0F500505B
:1007E0004A461F38002303A90390684600F01FFE05
:1007F0008DE807000004000C03D04FF0FF304108E3
:1008000000E01046B8F1000F03D000220092154618
:100810001EE0751E05D400F0B7F9303262556D1E2A
:10082000F9D5B3460122084302D000227F1C04E020
:100830002078302801D100227F1E002A099784D019
:100840001DE0112D07DA00F09FF9303262556D1C62
:1008500050EA0102F5D1084302D00098C8B10EE079
:100860000021681E05E0235C625C63542254401E34
:10087000491C8142F7DBAB46A81B401E09900020B3
:1008800004F80B000B98099AC0F80880C0E9002B07
:100890007AE711264FF0000857E72DE9F04F884618
:1008A0000446D21D22F0070191B0D1E90001CDE943
:1008B0000A0103F020FB02460B98C00F01D02D2047
:1008C00007E02068810701D52B2002E0202101EA02
:1008D000C000032A099001D0072A05DB03464146E0
:1008E000204600F097F90BE12078800601D5E069F9
:1008F00000E00620B8F1650F814606D0B8F1660F1A
:1009000018D0B8F1670F70D131E00020B9F1110FA4
:10091000009001DB112301E009F101030AAA01A9FA
:100920000CA8FFF7E2FEDDE90C70002609F10105D5
:10093000834647E001204B4600904FF000470AAA4B
:1009400001A90CA8FFF7D1FEDDE90DB00C995D46B9
:10095000002610B909F101000D18B9EB050003D408
:10096000C0F1FF3609F10105A5EB09002BE0B9F153
:10097000010F01DA4FF001090020B9F1110F0090C9
:10098000484601DD112300E003460AAA01A90CA88C
:10099000FFF7ABFEDDE90C704D460026834620785C
:1009A00000070AD4AB4500DA5D4601A8012D04DD3D
:1009B000411911F8011C302907D04F4502DA17F10F
:1009C000040F04DA012082460FE06D1EEEE7002FCF
:1009D00002DCED1B3E4403E0781CA84200DD7D1CD8
:1009E000B81B00F1010A4FF000472078000703D43C
:1009F000AA4501DB4FF0FF3A0021B7F1004F0DF19E
:100A000043088DF8431024D002202B23002F01DA55
:100A10007F422D230A21021EA0F1010000DC5FB1FC
:100A200097FBF1FC97FBF1F201FB1C7C17460CF1E4
:100A3000300C08F801CDEEE7A8F101000370218821
:100A4000090501D5452100E06521A0F1010800F864
:100A5000011C09980FA9A1EB0807FF1D00B1012097
:100A6000411901EBEA70A1693844081A401EA061DF
:100A70002078C00602D42046AFF30080099828B140
:100A8000D4E901219047206A401C20622078C006EA
:100A900022D52046AFF300801EE0002E04DBB345D4
:100AA00002DD01A8805D00E03020D4E901219047FB
:100AB000206A401C2062761CAAF101005FEA000A4D
:100AC0000AD100F043F8C0680168405CD4E9012114
:100AD0009047206A401C2062281EA5F10105DCDC3D
:100AE00007E0D4E9012118F8010B9047206A401C67
:100AF0002062381EA7F10107F3DC2046AFF3008027
:100B0000032011B041E6000001694A1C0261087827
:100B1000704700B58FB0CDE901310021059105493D
:100B20007944CDE9031011466846FFF759FC0FB030
:100B300000BD0000E5FFFFFF0A6802F8010B0A6034
:100B400070470000004870472401002000487047AB
:100B500044010020034640688C46002818BF8842A4
:100B60003CBF03464068F8D318681844884207D051
:100B70000CF1030020F00700001D411A521A014633
:100B8000081D0A60FFF730BD30B5B0F10A024FEA28
:100B9000900E71F100034EEA817EB0EB0E0061EB26
:100BA00091014FEA101E4EEA017E10EB0E0041EB60
:100BB00011114FEA102E4EEA016E10EB0E0041EBC0
:100BC00011214FEA104E4EEA014E10EB0E0041EBA0
:100BD0001141401841F100014FEAD00040EA417054
:100BE0004FEAD10110EB80054FEA810444EA90748A
:100BF00044EB01046D1944EB0404521BA3414FF074
:100C0000000348BF0A3200D530BD401C41F100014D
:100C100030BD00002DE9F0411F460446032601685F
:100C2000072A01F4006004DB08B116A505E016A54B
:100C300003E008B115A500E015A521F01000206023
:100C4000A069C01EA0610FB1401EA0612046AFF395
:100C500000804FB1D4E9012138469047206A401CFA
:100C60002062C01C206206E0206AFAE7D4E9012174
:100C700015F8010B9047761EF8D22046AFF300809E
:100C8000BDE8F0814E414E006E616E00494E460057
:100C9000696E66002DE9F047814616468AB03548F0
:100CA00078440DC88DE80D0032487844801C03ACB0
:100CB0000DC884E80D0041F69B300844372190FBB5
:100CC000F1F290FBF1F5A5F1800501FB12041B3C4C
:100CD00002D56442012000E00020DFF898A08046A1
:100CE0000027FA44AAF1BE0A0EE0E0070AD0324615
:100CF000684607EB470101230AEB810100F097FBEF
:100D00008DE8070064107F1C002CEED1194F7F4442
:100D1000AE3F19E0E80715D007EB04100DF1180AF3
:100D200090E80E008AE80E00C068F04201D19819E0
:100D300008903246012306A903A800F078FB03AB14
:100D400083E807006D10641C002DE3D14FF0010310
:100D500032466946B8F1000F03A802D000F052FBFA
:100D600001E000F064FBC9E90001C9F808200AB0FD
:100D7000BDE8F0877C4C000010B500F039F8BDE804
:100D8000104000F02FB870477546FFF7DBFEAE4607
:100D900005006946534620F00700854618B020B587
:100DA000FFF78CFABDE820404FF000064FF0000737
:100DB0004FF000084FF0000B21F00701AC46ACE803
:100DC000C009ACE8C009ACE8C009ACE8C0098D4670
:100DD000704710B50446AFF300802046BDE81040D0
:100DE000FFF757BA002801D000F06AB8704700003A
:100DF00010B5012805D0002103A000F067F80120FC
:100E000010BD09A1F8E7000053494752544D454D24
:100E10003A204F7574206F662068656170206D659B
:100E20006D6F7279000000003A2048656170206D96
:100E3000656D6F727920636F72727570746564008E
:100E40004FF0013C50F8042B51F8043B9A4221D159
:100E5000A2EB0C03934313EACC1317D150F8042BE5
:100E600051F8043B9A4215D1A2EB0C03934313EAC9
:100E7000CC130BD150F8042B51F8043B9A4209D102
:100E8000A2EB0C03934313EACC13DBD04FF000002A
:100E9000704700BFD01A01BAB1FA81F101F0180110
:100EA00022FA01F0CB40C1F12001DBB2C0B2C01A7E
:100EB0002CFA01F3D11A914311EAC311E6D170471C
:100EC00001491820ABBEFEE72600020070B50546BA
:100ED0000C460A2000E06D1C00F011F835B12878AE
:100EE0000028F8D102E0641C00F009F814B1207861
:100EF0000028F8D1BDE870400A20AFF3008008B5A3
:100F000069468DF800000320ABBE08BD5FEA400CC7
:100F100008BF91F0000F4FEA8C234FEAC12243EA49
:100F200051514FEA1C5018BF00F5F0404FEA300015
:100F300018BF41F000415FEA6C5C00F02980BCF111
:100F4000FF3F08BF40F080407047130C06BF1204FB
:100F50004FF0100C4FF0000C130E04BF12020CF1F6
:100F6000080C130F04BF12010CF1040C930F04BF03
:100F700092000CF1020CD30F04BF52000CF1010CD3
:100F800011464FF00002A0F11F00A0EB0C007047CB
:100F900011F0004F08BF704731F000413FF4D5AF6A
:100FA0000B0C06BF09044FF0100C4FF0000C0B0E99
:100FB00004BF09020CF1080C0B0F04BF09010CF16E
:100FC000040C8B0F04BF89000CF1020CCB0F04BF83
:100FD00049000CF1010CCCF12003A0EB0C0022FA2B
:100FE00003F302FA0CF241EA030100F10100704739
:100FF00020F07F4C80EA030023F07F47ACEB07032F
:1010000003F57C5300F0004003F1FF032DE9804914
:101010004FEA154B09B44FEA144325EA0B4E24EA74
:1010200003480FF2042606EB132749083E785FEACF
:10103000320203FB0667C7F5000707FB06F64FEA17
:1010400054374FEAD64606F1020607FB066CCCF190
:10105000005C4FEA1C472CEA074C07FB06F40CFB2C
:1010600006F504EB15464FEA961634BF00204FF004
:1010700000404FEAD13706FB07FC4FEA1C4C0CFB43
:101080000BF7D21B03FB0CF761EB07010CFB0EF710
:10109000B0EB074072EB17420CFB08F734BFA2EB32
:1010A0000742B2EB074261EB17414FEA0C444FEAAB
:1010B000910706FB07FC4FEA1C4C0CFB0BF7B0EB4F
:1010C000C74072EB573203FB0CF734BFA2EBC742A9
:1010D000B2EBC74261EB57310CFB0EF7B0EBC70028
:1010E00072EB57720CFB08F734BFA2EBC702B2EBEE
:1010F000C70261EB5771039F4FEA816141EA921188
:1011000004EBCC044FEAD1374FEA826206FB07FCBE
:1011100042EA90124FEA80604FEA1C4C0CFB0BF73E
:10112000D21B03FB0CF761EB07010CFB0EF7B0EBD6
:10113000074072EB17420CFB08F734BFA2EB0742E3
:10114000B2EB074261EB17414FEA8C554FEA91072A
:1011500004EB9C2406FB07FC4FEA1C4C0CFB0BF732
:10116000B0EBC74072EB573203FB0CF734BFA2EB76
:10117000C742B2EBC74261EB57310CFB0EF7B0EB45
:10118000C70072EB57720CFB08F734BFA2EBC70223
:10119000B2EBC70261EB577115EB4C254FEA816149
:1011A00041EA92114FEA82624FEAD13742EA901245
:1011B00006FB07FC44F100044FEA80604FEA1C4C38
:1011C0000CFB0BF7D21B03FB0CF761EB07010CFBCD
:1011D0000EF7B0EB074072EB17420CFB08F734BF79
:1011E000A2EB0742B2EB074261EB174115EB1C156E
:1011F0004FEA813141EA92414FEA823242EA90421B
:101200004FEA80304FEA0C7644F1000448EA034389
:101210004EEA0B484FF0000EB2EB080C71EB0307DF
:1012200024BF624639464EEB0E0E4FF0000B0018FD
:10123000524149414BEB0B0BB2EB080C71EB03072E
:101240007BF1000B24BF624639464EEB0E0E4FF089
:10125000000B0018524149414BEB0B0BB2EB080C51
:1012600071EB03077BF1000B24BF624639464EEB5E
:101270000E0E51EA020718BF46F0010616EB0E7675
:1012800055F1000254F1000103D5BDE88901BDE824
:101290000088BDE88901BDE80048B619524141EB1C
:1012A0000101A3F10103704780807F7E7D7C7B7A02
:1012B0007978777676757473727171706F6E6E6D02
:1012C0006C6C6B6A6A6968686766666564646363A8
:1012D00062616160605F5F5E5E5D5D5C5C5B5B5A2E
:1012E0005A5959585857575656555555545453539B
:1012F00052525251515050504F4F4F4E4E4D4D4DF6
:101300004C4C4C4B4B4B4A4A4A4949494848484740
:10131000474747464646454545444444444343437E
:101320004342424242414141002B9C4630D4770027
:101330002BD01CB54FEA370703B44FF010004FF025
:101340001001BAF1000F06D0BCF1000FDCBF40F075
:10135000080040F008014FF000000FBCBDE810404D
:101360000BF1010BBBF1010F08BF5FEA170722BFAA
:1013700012F1010211F101014FF0004143F10003AC
:1013800000F0004043EA00007047F9D35708D0E767
:1013900046EA064613F1400F4FEA16461FDD13F1E9
:1013A000200FDFBF16430A46002120335B42BED028
:1013B000C3F1200746EA064602FA07F74FEA164647
:1013C00046EA0706C3F1200722FA03F201FA07F7FB
:1013D00021FA03F14FF0000342EA0702A7E746EAC9
:1013E000020646EA06464FEA164646EA0106BCBF32
:1013F00046EA0646360C4FF000034FF000024FF06D
:10140000000194E72DE9804C9A46934670B491E828
:10141000380007C831EA400C48BF34EA430C03D512
:10142000FFF7E6FDFFF780FFF0BCBDE8008C2DE97B
:10143000804C9A46934670B491E8380007C810F083
:10144000804F08BF13F0804F03D100F005F8FFF77D
:101450006BFFF0BCBDE8008C20F07F4780EA030002
:1014600023F07F4C07EB0C03A3F57C5300F0004006
:10147000A3F1FE0392F0000F00F0B38095F0000F8F
:1014800000F077802DE901494FEA11404FEA1446F8
:1014900021EA004800FB06FC24EA064708FB06F6A2
:1014A00007FB08F800FB07F718EB06484CEB164C57
:1014B0004FEA124B18EB07484FEA15464CEB174022
:1014C00022EA0B4E0BFB06FC25EA06470EFB06F64E
:1014D00007FB0EFE0BFB07F71EEB064E4CEB164C04
:1014E0004FF000061EEB074E4CEB174B18EB0B08AA
:1014F00040F1000018EB0E0B58EB000840F1000023
:101500008F1A4FF000013CBFC943661B14BFB5EBF7
:10151000040C00213CBFC943F61B4FEA17444EEAB6
:101520008E0E27EA04454FEA1C4704FB07622CEAAB
:10153000074C05FB07F70CFB05F604FB0CFC16EB50
:10154000074642EB174216EB0C4642EB1C421BEBE4
:10155000060658EB0202414146EA9E0601D5BDE867
:101560000189B619524141EB0101A3F10103BDE824
:1015700001894FEA14454FEA114724EA054621EA5A
:10158000074C05FB07F406FB07F70CFB06F105FB10
:101590000CFC11EB074144EB17444FEA124711EBE7
:1015A0000C4144EB1C4422EA074C05FB07F206FB06
:1015B00007F70CFB06F605FB0CFC16EB074642EBA7
:1015C000174216EB0C4642EB1C456A1854F1000119
:1015D00048BF7047B619524141EB0101A3F1010325
:1015E000704795F0000F37D04FEA11424FEA144789
:1015F00021EA024624EA074C02FB07F106FB07F743
:101600000CFB06F402FB0CFC14EB074441EB174106
:101610004FEA154714EB0C4441EB1C4125EA074CFB
:1016200002FB07F506FB07F70CFB06F602FB0CFCBA
:1016300016EB074645EB174516EB0C4645EB1C42EF
:10164000121951F1000148BF7047B619524141EBE0
:101650000101A3F1010370474FEA14454FEA114716
:1016600024EA054621EA074C05FB07F106FB07F7CC
:101670000CFB06F24FF0000605FB0CFC12EB0742D8
:1016800041EB174112EB0C4251EB1C4148BF704734
:10169000921841EB0101A3F10103704770B50446B4
:1016A0000068816811F0010F2DD18168174A11423D
:1016B0001AD18168D5432940491C816000F03EFD64
:1016C00006461BE0816811F0010F03D181682940B3
:1016D000491C816000F032FD801B02280ED9206871
:1016E0000068C043C00709D0E06D40F01000E0651D
:1016F000206E40F001002066012070BD2068016866
:10170000C943C907DED1002070BD00003F00008042
:10171000FEE77047002240F6B83306E00021491C7E
:1017200089B29942FBD3521C92B28242F6D37047DF
:1017300072B6FEE72DE9F84F00270446009790F8AF
:101740005800DFF8D8930D46B846012811D001267D
:1017500084F85860206801F0B9FE60B1E06D40F097
:101760002000E0655FF0010784F858803846BDE846
:10177000F88F0220FBE7D5E900210C23206803EA5B
:1017800091131844036B01F01F014FF01F0C0CFA6A
:1017900001FCC2F3846223EA0C038A40134303630F
:1017A000206801F093FE8246206801F08BFE5AEA21
:1017B00000003CD1AA6829682068B2F1004F37D0F8
:1017C00001F088FE2068416921F0004141612068F4
:1017D0006969C268C2F3C102520091402A69042AB1
:1017E00031D000EB82002B68026EDFF834C303F0C7
:1017F000F84302EA0C020B431A4342F0004101662F
:1018000020682A69A96900EB8200026E22F08072CA
:101810000A430266297F22682869012910D0002125
:1018200002EB8000026E22F000720A4302667DE045
:10183000002201F04FFE2068416941F00041C5E7F8
:101840004FF00071ECE7002101F036FE4003206804
:101850004FF0000172D001F02FFE90FAA0F0B0FA24
:1018600080F1286842036ED090FAA0F0B0FA80F0C0
:10187000814204D100221146206801F03AFE012184
:10188000206801F019FE400320684FF001015DD08F
:1018900001F012FE90FAA0F0B0FA80F1286842033D
:1018A00059D090FAA0F0B0FA80F0814204D1002221
:1018B0000121206801F01DFE0221206801F0FCFDDD
:1018C000400320684FF0020148D001F0F5FD90FA86
:1018D000A0F0B0FA80F12868420344D090FAA0F05A
:1018E000B0FA80F0814204D100220221206801F088
:1018F00000FE0321206801F0DFFD400320684FF067
:10190000030133D001F0D8FD90FAA0F0B0FA80F1D5
:10191000286842032FD090FAA0F0B0FA80F08142FC
:1019200004D100220321206801F0E3FD20688168D2
:1019300011F0010F22D0A8E000E004E001F0BCFDAE
:10194000C0F384618DE7C0F3846091E701F0B4FDDA
:10195000C0F38461A2E7C0F38460A6E701F0ACFDA8
:10196000C0F38461B7E7C0F38460BBE701F0A4FD76
:10197000C0F38461CCE7C0F38460D0E7EB682968EA
:101980004B4550F8B03FC1F3120101D10B4300E0C9
:101990008B430360E868484577D1286841031CD031
:1019A00090FAA0F1B1FA81F1491C01F01F01092957
:1019B0004FEA403132D8002912D000BF90FAA0F18E
:1019C000B1FA81F101F1010101F01F0106FA01F6FE
:1019D00009D100BFC0F3846109E0C0F38461E3E78B
:1019E000C0F38461EEE790FAA0F1B1FA81F101F160
:1019F000010101F01F0146EA816102D1C0F3846058
:101A000003E090FAA0F0B0FA80F000F1010000F0DD
:101A10001F0000EB400041EA005132E000290ED0E7
:101A200090FAA0F1B1FA81F101F1010101F01F0179
:101A300006FA01F606D100BFC0F3846106E0C0F3E8
:101A40008461F1E790FAA0F1B1FA81F101F10101AD
:101A500001F01F0146EA816102D1C0F3846003E016
:101A600090FAA0F0B0FA80F000F1010000F01F0041
:101A70002C4A00EB400002EB005041EA000141F02B
:101A80000071AA68206801F025FD27482A680242F3
:101A90003FF46AAE25488168254B01F0E0719A4217
:101AA00002D0244B9A421CD10B021AD42268B2F104
:101AB000A04F7FF459AE826841F4000122F0E07239
:101AC0000A4382601C481D490068B0FBF1F0401CCD
:101AD00000EB4000800000E0401E00900028FBD199
:101AE00042E6174D174BAA4207D1CD0105D4226813
:101AF0009A42F5D041F0807109E0134DAA42EFD12E
:101B00004A02EDD422689A42EAD041F48001826808
:101B100022F0E0720A43826026E6000000007F4067
:101B200000F0FF03000020FE0000088000030050CA
:101B3000000021C31000C0900C000020400D0300E5
:101B4000000052C700010050000084CB0068006C08
:101B500070470000F8B54FF0000504002E460095D0
:101B600002D0E06D10B107E00120F8BD204600F082
:101B7000EFF8266684F8586020688168C1F34071E8
:101B800019B181686A4A1140816020688168C1F397
:101B9000007189B98168674A114041F080518160C4
:101BA000654866490068B0FBF1F04000801C00E029
:101BB000401E00900028FBD120688168C1F30071AD
:101BC00041B9E16D41F01001E165216E41F0010183
:101BD0002166012501F07AFCE16DC90600D430B11F
:101BE000E06D40F01000E06501252846F8BDE06D8D
:101BF00020F4807040F00200E0652068806810F0FA
:101C0000010F11D14FF0A04080684D4900F0010054
:101C1000896801F00101084306D14A486168826879
:101C200022F47C120A438260E168E06B627F084321
:101C3000A16841EA4231084394F8241040EA014087
:101C4000012904D1218D404A02EB41410843E16A58
:101C500029B101F47871226B014342EA0100216845
:101C6000CA683A4B1A400243CA6020680169626B35
:101C700021F0406111430161206801F027FC064614
:101C8000206801F01FFC30432ED1207F94F83810DB
:101C9000800340EA41022068C16844F2020399438C
:101CA0001143C16020690028206801690AD041F40D
:101CB00080310161206850F8C01F22696FF30D0167
:101CC000114307E021F480310161206850F8C01F02
:101CD0006FF30D01016094F8400001280CD02068DA
:101CE000016921F001010161606901282068016B2F
:101CF00021F00F0111D013E0D4E911010843D4E918
:101D000013121143084321680A6940F2FC739A4395
:101D1000104340F001000861E6E7226A521E1143B9
:101D20000163E06D20F0020040F00100E0655CE737
:101D3000C0FFFF5FC0FFFF7F0C000020400D0300CD
:101D400000010050000300500000FEFF0740F0FFBC
:101D500010B598B00446142111A8FEF7C8FB442121
:101D60006846FEF7C4FB15492068884223D1C401A8
:101D7000400500940F90684600F0D0FA08B1FFF7D4
:101D8000D7FC0F48C16C41F40051C164C16C01F42F
:101D900000511691C16C41F00201C164C06C11A9DF
:101DA00000F0020016900320CDE9114000201390AE
:101DB000044800F095F818B010BD00000001005074
:101DC00000100240000400482DE9F0410446384864
:101DD000806800F01F05206801F078FB18B102212F
:101DE0000846BDE8F08194F8580001280CD0012085
:101DF00084F858002046FFF751FC01004FF0000323
:101E000004D084F85830EBE70220EAE7E06D40F6B2
:101E10000162904340F48070E065264A20684FF0EC
:101E2000A046904201D1374600E00746874200D0E5
:101E30001DB9E76D27F48017E765E76DFF0404D54A
:101E4000276E27F00607276600E023661C27076039
:101E500084F858302068904201D1334600E00346B0
:101E6000834215D0A5B1052D12D0092D10D0E36DF8
:101E700043F48013E365904200D13046C06880018E
:101E8000AED5E06D20F4005040F48050E065A7E747
:101E9000C268920105D5E26D22F4005242F48052EC
:101EA000E2658268044B1A40121D826098E70000C8
:101EB0000003005000010050C0FFFF7F70B50446D2
:101EC00000F03CF90546601C02D004484068044418
:101ED00000F034F9401BA042FAD370BD000000208E
:101EE0002DE9F04FDFF82092002301260324A9F109
:101EF000040B85B00F2709F1040AABF1040EFAE0D8
:101F000006FA03F52A407CD091F804C00CF0030CCB
:101F1000BCF1010F02D0BCF1020F26D1D0F808C0ED
:101F2000CDF800C04FEA430C04FA0CF8CDF810C00D
:101F3000DDF800C02CEA080CCDF800C0D1F80C8008
:101F4000DDF810C008FA0CF8DDF800C048EA0C080B
:101F5000C0F80880D0F804C02CEA050C0D79C5F350
:101F600000159D4045EA0C0545600D79ED43AD0730
:101F70000ED0C5684FEA430804FA08FC25EA0C05B0
:101F8000D1F808C00CFA08FC4CEA050CC0F80CC0EB
:101F90000D7905F00305022D16D1DD0800EB850C47
:101FA000CDF808C0DCF820805D074FEAD56C07FA51
:101FB0000CF528EA05080D6905FA0CF5DDF808C0EE
:101FC00045EA0805CCF8205005684FEA430CCDF8E7
:101FD00008C004FA0CFC25EA0C0591F804C00CF0CA
:101FE0000308DDF808C008FA0CF848EA0508C0F84C
:101FF00000804D6815F4403F7CD0444DD5F860C05A
:1020000000E077E04CF0010CC5F860C02D6E23F0C5
:10201000030C05F0010500953D4D65440295AD6842
:102020004FEA837C4FEA1C7807FA08FC25EA0C0586
:10203000B0F1904F06D0DFF8DCC0604505D14FF01D
:10204000010C20E04FF0000C1DE0DFF8CCC0604533
:1020500002D14FF0020C16E0DFF8C0C0604502D19B
:102060004FF0030C0FE0DFF8B8C0604502D14FF02D
:10207000040C08E0DFF8ACC0604502D14FF0050C5D
:1020800001E04FF0060C0CFA08FC4CEA050C029D2E
:10209000C5F808C0D9F80050CC46D1F80480954363
:1020A0005FEAC82800D51543CCF80050DAF8005094
:1020B000D446D1F8048095435FEA882800D51543BB
:1020C000CCF80050DBF80050DC46D1F80480954392
:1020D0005FEA883800D51543CCF80050DEF8005090
:1020E000F446D1F8048095435FEAC83800D515431B
:1020F000CCF800505B1C0A6832FA03F57FF400AF9D
:1021000005B0BDE8F08F0000080401400010024057
:10211000000001400004004800080048000C00488E
:1021200000100048001400480069084000D0012059
:1021300070470AB1816170478162704701488068C9
:102140007047000000000020024881684268114486
:10215000816070470000002010B50024032000F0CB
:1021600065F80F2000F008F808B1012401E000F044
:1021700025F8204610BD000070B50E4E054600241F
:10218000706898B14FF47A71B1FBF0F00A490968B0
:10219000B1FBF0F000F032FD40B9102D06D2002264
:1021A0002946501E00F022F8356000E00124204648
:1021B00070BD0000000000200C0000200A4882B022
:1021C000016E41F001010166016E01F00101009113
:1021D000816D41F080518165806D00F080500090EC
:1021E00002B000F093B8000000100240F0B40E4BB3
:1021F0001B680C46C3F30223C3F10705042D00D965
:102200000425191D072901D2002300E0DB1E012649
:1022100006FA05F1491E214099409E40761E16405F
:102220003143F0BC01F07FBE0CED00E0064900F048
:10223000070208684FF6FF03184040EA0220034AED
:1022400010430860704700000CED00E00000FA0544
:102250002B492C4B0A6832214A432B4940B1B0F537
:10226000007F086829D020F4C06040F480602CE032
:102270000868C0F34120022804D051F8800F20F4F0
:10228000807022E0D1F8800020F48070C1F88000D6
:10229000086820F4C06040F400700860B2FBF3F0FE
:1022A000401C00E0401E4A69520501D50028F9D1C2
:1022B000486940050AD503207047C0F34120022831
:1022C00006D051F8800F40F48070086000207047FD
:1022D000D1F8800040F48070C1F88000086820F4D4
:1022E000C06040F400700860B2FBF3F0401C00E0F6
:1022F000401E4A695205DBD50028F9D1D8E7000015
:102300000C00002040420F0000700040024881682D
:1023100041F4804181607047007000402DE9F8432E
:102320000446006800269D4D00035ED5A86D002779
:10233000C00008D4A86D40F08050A865A86D0127A2
:1023400000F080500090DFF85892D9F8001041F466
:102350008071C9F80010FFF7F1FE804606E000BF6B
:10236000FFF7ECFEA0EB080002282BD8D9F80000FC
:10237000C005F5D5D5F8900010F4407014D0216C4C
:10238000814211D0D5F89000D5F8901020F440701B
:1023900041F48031C5F89010D5F8901021F48031C7
:1023A000C5F89010C5F89000C00711D0FFF7C6FE21
:1023B000804641F2883907E0FFF7C0FEA0EB080134
:1023C000494501D903260BE0D5F890008007F3D5E5
:1023D000D5F89000216C20F440700843C5F89000B7
:1023E0001FB1A86D20F08050A8652078C00707D0E5
:1023F000D5F88800616820F003000843C5F888001C
:102400002078800707D5D5F88800A16820F00C0057
:102410000843C5F888002078400707D5D5F888001C
:10242000E16820F030000843C5F8880020780007F4
:1024300007D5D5F88800216920F0C0000843C5F809
:1024400088002078800607D5D5F88800616920F4D7
:1024500040600843C5F888002078400607D5D5F8C5
:102460008800A16920F440500843C5F8880020780E
:10247000000607D5D5F88800E16920F440400843FC
:10248000C5F888002088C00507D5D5F88800216ADE
:1024900020F440300843C5F888002088800507D51F
:1024A000D5F88800616A20F440200843C5F8880008
:1024B000208840050FD5D5F88800A16A20F4401087
:1024C0000843C5F88800A06AB0F5801F03D1E8680A
:1024D00040F48010E860208800050FD5D5F888000A
:1024E000E16A20F440000843C5F88800E06AB0F5CE
:1024F000800F03D1E86840F48010E8602088C004B1
:102500000FD5D5F88800216B20F040700843C5F83E
:102510008800206BB0F1807F03D1E86840F4801020
:10252000E86020884FF0006180040ED5D5F888005F
:10253000626B20F040601043C5F88800606B8842F1
:1025400003D1E86840F48010E860208840040ED58C
:10255000D5F88800A26B20F040601043C5F88800D1
:10256000A06B884203D1E86840F48010E8602088BE
:1025700000040FD5D5F88800E16B20F040500843E7
:10258000C5F88800E06BB0F1805F03D1E86840F4E3
:102590008030E8603046BDE8F8830000001002405B
:1025A000007000402DE9F0470E4605004FF000078F
:1025B00025D0DFF8AC81D8F8000000F00F00B04261
:1025C0000CD2D8F8001021F00F013143C8F80010E8
:1025D000D8F8000000F00F00B04210D12968614C1B
:1025E000C80741F2883A5AD06868DFF87C9103281E
:1025F00008D0022820682DD0400500282CDB0120BF
:10260000BDE8F08720688001F9D5E06800F003029A
:10261000E068C0F30310401C032A19D0534A00BFDE
:10262000B2FBF0F0E268C2F306225043E268C2F364
:102630004162521C5200B0FBF2F0484517D9A06825
:1026400010F0F00F0CD0880711D5A86840B10EE04B
:10265000474AE5E78003D0E700F092F8484506D9FD
:10266000A06820F0F00040F08000A0608027A06803
:10267000696820F003000843A060FFF75FFD814612
:1026800006E000BFFFF75AFDA0EB090151453AD81B
:10269000A068696800F00C00B0EB810FF2D12868E7
:1026A000810714D5400703D5A06840F4E060A0601E
:1026B0002878000705D5A06820F4605040F4E06059
:1026C000A060A068A96820F0F000084304E0802F13
:1026D00003D1A06820F0F000A060D8F800104046B8
:1026E00001F00F01B14216D9016821F00F01314309
:1026F0000160FFF723FD074607E000BFFFF71EFD5F
:10270000C11B514501D903207AE7D8F8000000F039
:102710000F00B042F2D12878400705D5A068E968DB
:1027200020F4E0600843A0602878000706D5A06880
:10273000296920F4605040EAC100A06000F020F850
:10274000A1680C4AC1F30311515C01F01F01C8409C
:102750000949086009480068BDE8F047FFF70CBD6B
:10276000002002400010024000B4C4040024F40021
:1027700000366E01C24600080C0000200000002058
:10278000184910B58868C0F381021748012A0BD098
:102790008A68164BC2F38102022A06D08A68C2F305
:1027A0008102032A03D0002010BD184610BDCA685C
:1027B00002F00304CA68C2F30312521C032C02D0B5
:1027C000B0FBF2F001E0B3FBF2F0CA68C968C2F3F3
:1027D00006225043C1F34161491C4900B0FBF1F0AE
:1027E00010BD0000001002400024F40000366E010D
:1027F0002DE9F84304007AD02078FA4DC00747D07D
:10280000A868E96800F00C0001F003010C2802D070
:10281000082817D001E0032914D06068B0F5803F84
:1028200017D0B0F5A02F286817D020F4803028608A
:10283000286820F4802028606068E0B1FFF77EFC03
:10284000064614E02868800322D560680028D2D0AC
:102850001EE0286840F48030EDE740F480202860D6
:10286000F7E700BFFFF76AFC801B642870D8286870
:102870008003F7D50CE0FFF761FC064605E000BFDA
:10288000FFF75CFC801B6428F0D828688003F7D42D
:10289000207880074CD5A868E96800F00C0001F0AA
:1028A00003010C2802D004280DD001E002290AD02F
:1028B000E068002828682BD040F480702860FFF77B
:1028C0003DFC064619E02868400502D5E06800286E
:1028D00091D06868217C20F0FE4040EA0160686089
:1028E000C1480068FFF748FC002800D120E076E1ED
:1028F000FFF724FC801B0228B8D828684005F7D5CC
:102900006868217C20F0FE4040EA016068600FE0CA
:1029100020F480702860FFF711FC064605E000BF38
:10292000FFF70CFC801B0228A0D828684005F7D4CC
:102930002078000729D560690028D5F8940013D0C5
:1029400040F00100C5F89400FFF7F8FB064606E0EA
:1029500090E000BFFFF7F2FB801B022886D8D5F875
:1029600094008007F6D510E020F00100C5F894002F
:10297000FFF7E4FB064604E0FFF7E0FB801B0228BC
:1029800078D8D5F894008007F6D42078400761D530
:10299000A86D0026C00008D4A86D40F08050A8653E
:1029A000A86D012600F08050009090480168C9058C
:1029B00011D40168804641F480710160FFF7BEFBCD
:1029C000074604E0FFF7BAFBC01B022852D8D8F82C
:1029D0000000C005F6D5A068012815D00528D5F857
:1029E000900016D020F00100C5F89000D5F89000B6
:1029F00020F00400C5F89000A06841F28838B8B112
:102A0000FFF79CFB07460EE0D5F8900040F0010070
:102A1000F0E740F00400C5F89000F5E7FFF78EFB03
:102A2000C11B414526D8D5F890008007F6D50CE0AB
:102A3000FFF784FB074604E0FFF780FBC11B41451D
:102A400018D8D5F890008007F6D41EB1A86D20F0F4
:102A50008050A8652078800629D5A0690028D5F87F
:102A6000980013D040F00100C5F89800FFF766FB0E
:102A7000064606E077E000BFFFF760FB801B0228F8
:102A800077D8D5F898008007F6D510E020F001003F
:102A9000C5F89800FFF752FB064604E0FFF74EFB2F
:102AA000801B022865D8D5F898008007F6D4E06925
:102AB000F0B3A968C1F38101032961D00228286815
:102AC00020F0807028600BD0E86820F00300E860F8
:102AD000E86847490840E860FFF730FB04464BE0F0
:102AE000FFF72CFB064604E0FFF728FB801B0228BB
:102AF0003FD828688001F7D4F4E908016FF00F028D
:102B000002EB01110843218A5204490802EB4151AA
:102B1000A26841EA02210843217D4FF07E42490824
:102B200002EB41610843217B40EAC160E96800E0B3
:102B300062E0304A11400843E860286840F0807045
:102B40002860E86840F08070E860FFF7F7FA044614
:102B500005E000BFFFF7F2FA001B022809D8286839
:102B60008001F7D548E004E0FFF7E8FA001B0228EF
:102B700002D90320BDE8F88328688001F4D43BE043
:102B80000128F7D0E868226A00F00301914226D1BB
:102B9000616A00F0F0020901103991421FD1A26A66
:102BA00000F4FE41B1EB022F19D194F82C2000F073
:102BB0007841B1EBC26F12D1218E00F4C0024908F6
:102BC0004905A1F50011914209D194F8341000F0A3
:102BD000C06049084906A1F1007181420CD0012072
:102BE000C8E7000000100240000000200070004014
:102BF000FFFFEEFE0C809F010020BBE710B5401EDA
:102C0000B0F1807F01D3012010BD4FF0E02460615E
:102C10000F21601701F087F90020A06107202061D3
:102C2000002010BDF0B590F83C20012A4AD00122C6
:102C300080F83C20CA688B6822F440721A434B68C3
:102C400022F480621A430B6822F400621A430B6973
:102C500022F480521A434B6922F400521A430B6B40
:102C600022F480421A430B8B22F4702242EA034280
:102C7000154C03680026154DA34201D0AB4203D189
:102C8000CF6922F080523A43A34201D0AB4214D123
:102C90000F8D22F4700242EA07520F6A22F080720E
:102CA0003A434F6A22F000723A43A34201D0AB424A
:102CB00003D1C96A22F000520A435A6480F83C608A
:102CC0000020F0BD0220F0BD002C01400034014086
:102CD000F0B590F83C20012A3AD0012580F83C500C
:102CE000022280F83D2003685A689C68194E1A4FEA
:102CF000B34201D0BB4204D122F4700C4A6842EACC
:102D00000C02DFF858C002EA0C02D1F800C04CEA0D
:102D1000020CC3F804C00268B2420DD0B2F1804F79
:102D20000AD00F4B9A4207D00E4B9A4204D0BA42B7
:102D300002D00D4B9A4204D1896824F080031943D4
:102D4000916080F83D50002180F83C100846F0BDAD
:102D50000220F0BD002C0140003401408FFFFFFD38
:102D600000040040000800400040014010B504008D
:102D700003D094F83D0010B107E0012010BD002001
:102D800084F83C00204600F023F8022084F83D003F
:102D9000211D206800F0B2FE012084F8480084F86C
:102DA0003E0084F83F0084F8400084F8410084F835
:102DB000420084F8430084F8440084F8450084F815
:102DC000460084F8470084F83D00002010BD000054
:102DD00008B500680649884208D10648016E41F4EA
:102DE00080210166006E00F48020009008BD000084
:102DF000004801400010024030B587B0044614215D
:102E00006846FDF774FB2468164D0023164902221C
:102E10004FF09040AC420ED1CC6C44F00104CC6435
:102E2000C96C01F00101059140218DE80E00CDE94A
:102E30000332694611E00D4DAC4210D1CC6C44F028
:102E40000104CC64C96C01F00101059180218DE879
:102E50000E000121CDE903316946FFF741F807B0C3
:102E600030BD000000040040001002400048014056
:102E700070B5044690F83C0000260D4601280BD0A2
:102E8000012084F83C000C2A4AD007DC82B1042AD5
:102E900020D0082A06D131E0022070BD102A53D07C
:102EA000142A63D00126002084F83C00304670BD0F
:102EB000206800F089FE2068816941F00801816185
:102EC0002068816921F004018161206881692A6993
:102ED000114311E0206800F0C5FE2068816941F4CB
:102EE000006181612068816921F4806181612068CD
:102EF00081692A6941EA02218161D4E7206800F0F2
:102F0000F9FE2068C16941F00801C1612068C1690A
:102F100021F00401C1612068C1692A69114311E0EF
:102F2000206800F02FFF2068C16941F40061C16191
:102F30002068C16921F48061C1612068C1692A6982
:102F400041EA0221C161AEE7206800F063FF20681A
:102F5000016D41F0080101652068016D21F0040157
:102F600001652068016D2A69114311E0206800F0B5
:102F700089FF2068016D41F4006101652068016DE1
:102F800021F4806101652068016D2A6941EA02210E
:102F9000016588E710B5040003D094F83D0010B136
:102FA00007E0012010BD002084F83C00204600F01E
:102FB00023F8022084F83D00211D206800F09EFDCA
:102FC000012084F8480084F83E0084F83F0084F82B
:102FD000400084F8410084F8420084F8430084F8FB
:102FE000440084F8450084F8460084F8470084F8DB
:102FF0003D00002010BD000008B500680649884269
:1030000008D10648816D41F002018165806D00F0B4
:103010000200009008BD00000004004000100240C3
:1030200030B50446022269B1042912D0082917D00C
:103030000C291CD0102921D094F84300012824D059
:10304000012030BD94F83E000128F9D184F83E20DB
:103050001DE094F83F000128F2D184F83F2016E0EB
:1030600094F840000128EBD184F840200FE094F858
:1030700041000128E4D184F8412008E094F842009E
:103080000128DDD184F8422001E084F843200122A8
:10309000206800F08BFD194B20681949194A9842A5
:1030A00009D0884207D0904205D0174DA84202D0DF
:1030B000164DA84203D1456C45F40045456420688F
:1030C00098420CD0B0F1804F09D0114B984206D0F5
:1030D000104B984203D0884201D0904207D18168BA
:1030E0000D4A1140062906D0B1F5803F03D0016892
:1030F00041F001010160002030BD0000002C0140C2
:1031000000340140004001400044014000480140BB
:10311000000400400008004007000100FEE7000036
:1031200000B585B014216846FDF7E1F94FF6FF7050
:10313000009000200321CDE9020101906946024878
:10314000FEF7CEFE05B000BD0008004800B585B012
:1031500014216846FDF7CBF94FF6FF70009001206F
:103160000190032003900020029069460248FEF778
:10317000B7FE05B000BD00000008004870B500248F
:1031800006462146204600F0FBF800F031F94FF4E6
:103190009635304600F000F9641CAC42F9D370BD9E
:1031A00030B587B014216846FDF7A1F91E48C16CFF
:1031B00041F00401C164C16C01F004010591C16CCE
:1031C00041F00101C164C16C01F001010591C16CC4
:1031D00041F00201C164C06C012500F002000590BD
:1031E0004FF44870CDE90005002403946946029429
:1031F0000E48FEF775FE280203940090CDE90154B5
:103200004FF0904469462046FEF76AFEFFF79EFFA6
:10321000A06940F48070A06104481830016841F44E
:103220000871016007B030BD001002400004004882
:10323000203AD2B2034B02EB420203EB021200F03F
:1032400019B80000D2460008F0B50E460746002522
:1032500040F23F1407E021463846FFF7E9FF103CF3
:103260006D1CA4B2761C3278002A01D0142DF2D342
:10327000F0BD00002DE9F04791468A46002604463D
:1032800000F07EF8DFF84080012700BF00F0B0F8C2
:103290005FF0000539F8160007FA05F108424046CC
:1032A00001D1408800E0008800F076F86D1C102DF8
:1032B000F0D3641CE4B25146204600F061F8761C5D
:1032C000182EE3D3BDE8F0871200002010B5FFF7F9
:1032D00067FF002000F014F8084CA080A088A0F53B
:1032E0000241303906D000F0C9FA002000F008F899
:1032F000A08010BD00F039FAF7E7000012000020AE
:1033000070B51D490A6842F400720A600A6842F406
:1033100080720A60184C103C226842F02002226041
:10332000164A1060086840F02000086000BF00BF27
:1033300000BF206840F020002060206840F48070CA
:103340002060FFF7EDFE4FF09041886A40F48070F6
:10335000886200BF00BF00BF0848001F006885B238
:10336000886940F480708861FFF7F0FE206840F4BF
:1033700000702060284670BD2804004814080048EA
:1033800010B50C460146202000F060F82146BDE84B
:103390001040212000F05AB8134A116841F400711E
:1033A0001160114910390B6843F480730B600B688E
:1033B00043F020030B600D4B1860106840F02000B4
:1033C000106000BF00BF00BF086840F02000086028
:1033D000086840F48070086000BF00BF00BF086844
:1033E00040F4007008607047280400481408004842
:1033F0001449086840F400700860086840F4807060
:10340000086010481038026842F0200202600E4B3B
:1034100022221A600A6842F020020A6000BF00BF40
:1034200000BF016841F020010160016841F4807132
:10343000016000BF00BF00BF016841F4007101607E
:10344000704700002804004814080048184B10B5C5
:103450001A6842F400721A601A6842F480721A60A4
:10346000134A103A146844F020041460114C206090
:10347000186840F02000186000BF00BF00BF10684F
:1034800040F020001060106840F4807010602160EF
:10349000186840F02000186000BF00BF00BF10682F
:1034A00040F020001060106840F48070106010BD83
:1034B000280400481408004800EB8100006E00F06A
:1034C000F84070478068C0F3C00070478068C0F360
:1034D00080007047042303EAD15310B518444369B0
:1034E000C1F3045107248C40A3438A401343436132
:1034F00010BD00EB8100016E21F000411143016617
:103500007047000030B589B020216846FCF7EFFF16
:1035100019481849002401604902C0E90114C46037
:1035200004250461C0E9054504774477012101625F
:1035300080F82440C462046380F83840C46380F893
:103540004040FEF707FB08B1FEF7F2F80B48009089
:103550000620CDE901047F200594CDE903056946E5
:103560000548FEF7E7F8002801D0FEF7E1F809B0BA
:1035700030BD000000010050200000200080F03E1F
:10358000F0B587B014216846FCF7B1FF2D48C16C37
:1035900041F00401C164C16C01F004010591C16CEA
:1035A00041F02001C164C16C01F020010591C16CA2
:1035B00041F00101C164C16C01F001010591C16CD0
:1035C00041F00201C164C16C01F002010591C16CBE
:1035D00041F00801C164C06C1B4E00F008004FF4BC
:1035E0007F440590002221463046FEF7A2FD174F8A
:1035F000002204213846FEF79CFD0125CDE9004557
:1036000000240294694630460394FEF769FCCDE934
:10361000005469464FF090400295FEF761FC072088
:103620008DE8310069460A48FEF75AFC04200090F4
:10363000CDE90154694638460394FEF751FC07B0C2
:10364000F0BD00000010024000080048000C0048D7
:103650000004004810B594B01C210DA8FCF747FFEA
:1036600034216846FCF743FF20481F4900240160CD
:103670004F21C0E9011441F28731C0E903144461CC
:103680008461FFF773FB08B1FEF752F81748FFF7A4
:1036900081FC08B1FEF74CF860200D900A20CDE9BE
:1036A0000E0410941194129400220DA90F48139443
:1036B000FFF7DEFB08B1FEF73BF800944FF4005033
:1036C000CDE90440019402940394069469460748A6
:1036D0000C94FFF7A7FA08B1FEF72AF80348FFF7A2
:1036E0008BFB14B010BD000000480140D800002042
:1036F00010B58AB00024079408941C2168460994E8
:10370000FCF7F5FE1648154901604F21C0E9011488
:1037100042F20F71C0E903148461FFF73BFC08B16A
:10372000FEF706F8079407A90D480994FFF7D0FAA9
:1037300008B1FDF7FDFF602000900A20CDE90104EB
:103740000022694606480494FFF792FB08B1FDF792
:10375000EFFF0348FFF750FB0AB010BD0004004024
:103760008C000020FEE7FEE7704730B50121002005
:10377000FFF76CFE4FF47A70FDF7CCFF00210120BB
:10378000FFF764FE41F290711020FFF75FFE4FF4E7
:103790001C516020FFF75AFE01216120FFF756FE01
:1037A00002214620FFF752FE48F210011320FFF7D6
:1037B0004DFE48F2FE011220FFF748FE4FF4A061D3
:1037C0000220FFF743FE41F230010320FFF73EFEE7
:1037D00040F2033421463020FFF738FE21463120E5
:1037E000FFF734FE21463220FFF730FEE51E294662
:1037F0003320FFF72BFE03213420FFF727FE21465D
:103800003520FFF723FE14213620FFF71FFE214647
:103810003720FFF71BFE21463820FFF717FE214611
:103820003920FFF713FE29463A20FFF70FFE032148
:103830003B20FFF70BFE21463C20FFF707FE4FF42D
:10384000A0513D20FFF702FE4FF400719220FFF7D8
:10385000FDFD21469320FFF7F9FD40F60D01902074
:10386000FFF7F4FD41F218010320FFF7EFFDBDE87B
:10387000304040F273110720FFF7E8BD10B543F266
:103880000801E320FFF7E2FD1221E720FFF7DEFD4C
:1038900041F23121EF20FFF7D9FD00210120FFF790
:1038A000D5FD4FF4E0610220FFF7D0FD41F2300179
:1038B0000320FFF7CBFD00210420FFF7C7FD40F2F6
:1038C00007210820FFF7C2FD00210920FFF7BEFDF8
:1038D00000210A20FFF7BAFD00210C20FFF7B6FDFA
:1038E00000210D20FFF7B2FD00210F20FFF7AEFDF4
:1038F00000211020FFF7AAFD07211120FFF7A6FDE8
:1039000000211220FFF7A2FD00211320FFF79EFDEA
:10391000C820FEF7D3FA41F290611020FFF796FD20
:1039200040F227211120FFF791FD3220FEF7C6FA61
:103930001D211220FFF78AFD3220FEF7BFFA4FF457
:1039400000611320FFF782FD14212920FFF77EFD7F
:103950000B212B20FFF77AFD3220FEF7AFFA002172
:103960002020FFF773FD00212120FFF76FFD0721C5
:103970003020FFF76BFD40F207713120FFF766FD45
:1039800006213220FFF762FD40F204713520FFF777
:103990005DFD41F604713620FFF758FD0421372004
:1039A000FFF754FD00213820FFF750FD40F206716B
:1039B0003920FFF74BFD40F201713C20FFF746FD37
:1039C0000F213D20FFF742FD00215020FFF73EFD73
:1039D000EF215120FFF73AFD00215220FFF736FD7D
:1039E00040F23F115320FFF731FD4FF41C5160208E
:1039F000FFF72CFD01216120FFF728FD00216A203F
:103A0000FFF724FD00218020FFF720FD0021812009
:103A1000FFF71CFD00218220FFF718FD0021832005
:103A2000FFF714FD00218420FFF710FD0021852001
:103A3000FFF70CFD10219020FFF708FD00219220D8
:103A4000FFF704FD03219320FFF700FD4FF4887179
:103A50009520FFF7FBFC00219720FFF7F7FC0021E2
:103A60009820FFF7F3FC41F218010320FFF7EEFC6A
:103A7000BDE8104040F273110720FFF7E7BC704724
:103A8000FEF762BB10B594B038216846FCF72FFDF5
:103A900014210EA8FCF72BFD4FF40070FEF7D8FBA5
:103AA000012000900004019002200324CDE90704C6
:103AB0001421CDE90A100C900D9009946846FEF788
:103AC00097FE08B172B6FEE70F20CDE90E04002084
:103AD00010901190129002210EA8FEF763FD0028AD
:103AE00001D072B6FEE714B010BD000002480168B4
:103AF00041F470010160704788ED00E02DE9F0436A
:103B00000268234B234D244E244C4FF080499842A9
:103B100007D0484505D0A84203D0B04201D0A0420A
:103B200003D122F070074A683A431D4FDFF874C092
:103B3000DFF8748098420DD048450BD0A84209D0D8
:103B4000B04207D0A04205D0B84203D0604501D0B2
:103B5000404503D122F44075CA682A434D6922F0DA
:103B600080022A4302608A68C2620A6882629842BE
:103B700007D0A04205D0B84203D0604501D04045EF
:103B800001D10969016301214161BDE8F0830000B1
:103B9000002C0140000400400008004000340140B7
:103BA00000400140004401400048014010B501F0D0
:103BB0001F030121046A99408C430462016A9A4000
:103BC0001143016210BD00002DE9F043026A22F0AA
:103BD00001020262056A436882691C4C25F00205F5
:103BE00022400C6822F0030214438A68194E2A43CB
:103BF000174D194FDFF864C0DFF86490A84207D072
:103C0000B04205D0B84203D0604501D0484506D146
:103C100022F00808CA6842EA080222F00402A84218
:103C200007D0B04205D0B84203D0604501D0484526
:103C300005D14D6923F440731D438B692B434360C9
:103C40008461496841630262BDE8F0838FFFFEFF33
:103C5000002C01400034014000400140004401407C
:103C600000480140F0B5026A22F010020262056AC3
:103C700042688369194C1B4E23400C6823F440733F
:103C800043EA042425F020038D6843EA0513144D0C
:103C9000A84201D0B04206D1CF6823F0800343EAA6
:103CA000071323F04003A8420AD0B04208D00E4DBB
:103CB000A84205D00D4DA84202D00D4DA84207D113
:103CC0004D6922F4406242EA85028D6942EA85022A
:103CD00042608461496881630362F0BDFF8FFFFE2B
:103CE000002C0140003401400040014000440140EC
:103CF00000480140F0B5026A22F480720262056A4F
:103D00004368C269194C1B4E22400C6822F0030222
:103D1000144325F400728D6842EA0522144DA8422E
:103D200001D0B04206D1CF6822F4006242EA0722F5
:103D300022F48062A8420AD0B04208D00E4DA842B8
:103D400005D00E4DA84202D00D4DA84207D14D69B5
:103D500023F4405343EA05138D6943EA0513436096
:103D6000C4614968C1630262F0BD00008FFFFEFFBD
:103D7000002C01400034014000400140004401405B
:103D800000480140F0B5026A22F480520262056ADE
:103D90004268C369194C1B4E23400C6823F44073DE
:103DA00043EA042425F400538D6843EA0533144D97
:103DB000A84201D0B04206D1CF6823F4004343EAC1
:103DC000073323F48043A8420AD0B04208D00E4DF6
:103DD000A84205D00D4DA84202D00D4DA84207D1F2
:103DE0004D6922F4404242EA85128D6942EA851209
:103DF0004260C461496801640362F0BDFF8FFFFE49
:103E0000002C0140003401400040014000440140CA
:103E10000048014030B5026A22F480320262046A2E
:103E20004268036D114D2B400D681D4324F400338F
:103E30000C8943EA04430E4CA0420BD00D4CA04227
:103E400008D00D4CA04205D00C4CA04202D00C4C26
:103E5000A04204D14C6922F4803242EA042242603A
:103E6000056549688164036230BD00008FFFFEFF75
:103E7000002C01400034014000400140004401405A
:103E80000048014030B5026A22F480120262046ADE
:103E90004268036D114D24F400142B400D6843EA71
:103EA00005230D8944EA05540D4DA8420BD00D4D54
:103EB000A84208D00C4DA84205D00C4DA84202D013
:103EC0000B4DA84204D14D6922F4802242EA85229A
:103ED000426003654968C164046230BDFF8FFFFE24
:103EE000002C0140003401400040014000440140EA
:103EF00000480140FEE703B401984100009850EAF1
:103F0000C12018BF04204A0D18BF40F0010040F244
:103F1000FF72B2EB515F08BF40F00200012808BFFA
:103F2000052002B070470907090E002804DB00F1E4
:103F3000E02080F80014704700F00F0000F1E0204E
:103F400080F8141D704730380A2801D201207047CC
:103F50000020704710B5012801D0012200E00022A6
:103F60004FF47F410748FEF7E4F8074C0122042193
:103F70002046FEF7DEF820460022BDE8104004216E
:103F8000FEF7D7B800080048000C004810B501291A
:103F900001D0012200E0002201460848FEF7C9F8DE
:103FA000074C012204212046FEF7C3F820460022D8
:103FB000BDE810400421FEF7BCB80000000800482E
:103FC000000C004870B5194C194A1A4D60681A4E19
:103FD00041680A40012A0ED0C90712D190ED020BA8
:103FE0009FED161B51EC100B53EC112B00F014FA43
:103FF00008D1002016E02A680169516340693168E0
:10400000486370BD60680179C907FAD190ED020B71
:104010009FED0C1B51EC100B53EC112B00F0FCF935
:10402000EFD1642029684863E9E700001800002008
:10403000010000808C000020D8000020000000005B
:10404000000000006666666666660A403EB51D4C66
:1040500060680068C10719D01B49084001282ED1AB
:104060001AA10020FFF7F0F860681BA102696846FA
:10407000FCF766F969463020FFF7E6F860681CA196
:1040800042696846FCF75CF9694615E01EA100200C
:10409000FFF7DAF860681FA190ED020B684653EC59
:1040A000102BFCF74DF969463020FFF7CDF860681A
:1040B0000079C00704D01BA16020FFF7C5F83EBD02
:1040C0001DA1F9E718000020010000802020202019
:1040D0002020205061746100202020205041363A79
:1040E00025642525202020202020202000000000FD
:1040F000202020205041373A2564252520202020EB
:10410000202020200000000020202020202020440B
:10411000617461002020202020563A252E326656F8
:104120000000000020202020204D6F64653A4D41A2
:104130004E5520202020200020202020204D6F647C
:10414000653A4155544F20202020200010B50446E8
:10415000FDF73AFE2046FDF7F9FC00F099F99FEDD6
:10416000071B53EC112B00F0A7F99FED061B53EC36
:10417000112B00F0A1F941EC100B10BD66666666CC
:1041800066660A40000000000000303F08B5FFF7F7
:104190009DF80020FEF7F2FF4FF6FF70ADF800002B
:1041A000BDF80010044801800021ADF80010BDF8F2
:1041B0000010418008BD00001200002010B5002052
:1041C000FFF7C8FE094C60680079C00703D10121E0
:1041D0000802FFF7DBFE60680078C00705D1012107
:1041E000BDE810404802FFF7D1BE10BD1800002006
:1041F000FDF7B2FFFFF746FCFFF7C2F9FFF782F9C0
:10420000FFF776FAFFF726FA00F064F800F08AF874
:10421000FCE7000070B52D4D01212846FDF784FF15
:104220002B4C4FF0904670B102212846FDF77CFFE1
:1042300048B104212846FDF777FF20B1012130461F
:10424000FDF772FFD8B92078012818D1002020701E
:104250000A20FDF733FE01212846FDF765FFA8B1CE
:1042600002212846FDF760FF90B104212846FDF7A2
:104270005BFF78B101213046FDF756FF60B10121A7
:104280002846FDF751FF012808D01DE0012070BD30
:10429000022070BD032070BD042070BD022128469D
:1042A000FDF742FF01280FD104212846FDF73CFF0E
:1042B000012809D101213046FDF736FF012803D13D
:1042C000207808B901202070002070BD000400484B
:1042D0001000002010B5FFF759FF0020FFF73AFE4D
:1042E00000210B48FEF79CFE00210A48FEF798FECD
:1042F0001820FBF7F5FF08499FED080B48600A21DD
:10430000016141610021416080ED020B016010BD3F
:104310008C000020D80000201800002000000000C1
:104320000000000010B5FFF775FF274C012808D0EA
:104330000A222649022809D0032818D004282BD1A4
:1043400026E060680168491C016025E060684368F8
:104350000B40012B06D103680B40012B02D10169F0
:104360000A3101610169642916D1026114E06068B3
:1043700043680B40012B06D103680B40012B02D18F
:1043800041690A3141614169642905D1426103E013
:1043900060684168491C416020680521B0FBF1F26A
:1043A00001FB1201401C206029B90948FFF7CEFE2D
:1043B000606880ED020BFFF705FEFFF747FEBDE8E2
:1043C0001040FFF7FBBE0000180000200100008035
:1043D0002000002010B500290AD00878002807D056
:1043E00005487844FCF72CFD002801D0002010BDC2
:1043F0000248784410BD0000761500006E150000DC
:10440000491058BFC1F140415B1058BFC3F1404350
:104410008B42EFF30080704751EA030C17D41CF570
:10442000801F58BFBCF5801F00F10680994218BF5D
:10443000704708BF9042704707D711F5801F58BFDB
:1044400013F5801F19D499427047894270471CF5B3
:10445000801F08D5BCF5801FF7D58B4218BF704769
:1044600008BF824270474FF4001C1CEB410F38BF5D
:104470001CEB430F01D28B42704770B500F0C6F8B9
:10448000922449004FF000514FF08053FFF7B8BF1E
:10449000B0FA80F310FA03F10AD0C3F11D0303F55B
:1044A00080634FEA41504FEA035202EBD12170473B
:1044B0004FF0000070470000DFF848C170B51CEAFB
:1044C000111E1EBF1CEA13159EEA0C0F95EA0C0F75
:1044D00000F06F8081EA030423EA4C134EEAD47E95
:1044E00021EA4C1141F4801143F48013AE44A1FB46
:1044F000024CA0FB0365AEF17F7E361955EB0C052F
:10450000A1FB034C4CF10003A0FB021C16EB0C06B4
:10451000654153F10003094218BF46F0010613F448
:10452000007F0BD14FEA03314FEA0530340341EAF3
:10453000155140EA16506FF003020AE04FEAC3211A
:104540004FEAC520F40241EA555140EA56506FF057
:10455000020202EB2E4201EB025585EACE710AD02F
:104560005FEA440C18BF24F0004450F1000041F110
:10457000000120EAD47040F2FE7C624500D270BD9A
:10458000A84214BF4FF080444FF04044002E08BFB3
:104590000024BEF1806FA8BFA1F1C041BDE870400A
:1045A00080F282804FF0000001F1C04101F0004133
:1045B00070479EEA0C0F0CEA131518BF95EA0C0F12
:1045C00006D04FF0000081EA030E0EF0004170BDEE
:1045D00000F01CF88900013E00F007B800F009B8AF
:1045E0004FEA430C5FEA5C5C08D081EA030100F00B
:1045F0005BB84FEA410C5FEA5C5CF6D14FF000001B
:10460000014970470000FF070000F87F0EF1020E1D
:104610002EF0030E5EF8046B364205D4012A43EBFC
:10462000030515F5001F12D8012841EB010C1CF5FC
:10463000001F0CD80ED14FEAD17C15F5001F0CEBF2
:104640004C0C0CF1020C08BF4CEBD37C04E04FF097
:10465000080C01E04FEAD37C0CEB4C0526FA05F67A
:1046600006F00706B6F1040C06D20EEB860CBDE888
:1046700070404CF0010C6047DFE80CF0090B0202BF
:104680004FF000414FF00000A1F5002170BD194628
:104690001046012851EB010418BFD4F5001484BF63
:1046A000002001F0004170BD0808A0F500114FEA9C
:1046B000310170474FF04070E1EE100A7047FCF78F
:1046C000ECB800000000000000000102030406072F
:1046D00008090000000000000000000000000000C9
:1046E00000000000000000000000000000000000CA
:1046F00000000000000000000000000000000000BA
:1047000000000000800180018001800180018001A3
:104710008001800180018001800180018001000012
:104720000000800180010000000000000000000087
:10473000000000000000CC00CC00CC00CC00CC007D
:10474000CC0000000000000000000000000000009D
:104750000000000000000000000000000000000059
:104760000000000000000000000000000000600CDD
:10477000600C600C30063006FE1FFE1F3006380746
:104780001803FE1FFE1F180318038C018C018C01F7
:10479000000000008000E003F80F9C0E8C1C8C18B9
:1047A0008C009800F801E007800E801C8C188C1893
:1047B0009C18B80CF00FE00380008000000000009F
:1047C00000000000000000000E181B0C110C110668
:1047D0001106110311039B018E01C038C06C6044A7
:1047E0006044304430441844186C0C380000000019
:1047F00000000000E001F003380718061806300337
:10480000F001F000F8009C310E33061E061C061C59
:10481000063FFC73F02100000000000000000000D3
:104820000000000000000C000C000C000C000C004C
:104830000C0000000000000000000000000000006C
:104840000000000000000000000000000000000068
:1048500000000000000200038001C000C0006000F2
:104860006000300030003000300030003000300098
:10487000300060006000C000C00080010003000242
:104880000000000020006000C000800180010003E3
:1048900000030006000600060006000600060006EB
:1048A00000060003000380018001C00060002000BA
:1048B0000000000000000000000000000000C00038
:1048C000C000D806F807E0013003380700000000F8
:1048D00000000000000000000000000000000000D8
:1048E0000000000000000000000000000000800147
:1048F0008001800180018001FC3FFC3F800180013C
:104900008001800180010000000000000000000024
:104910000000000000000000000000000000000097
:104920000000000000000000000000000000000087
:1049300000000000800180010001000180000000F3
:104940000000000000000000000000000000000067
:1049500000000000000000000000E007E007000089
:104960000000000000000000000000000000000047
:104970000000000000000000000000000000000037
:104980000000000000000000000000000000000027
:1049900000000000C000C000000000000000000097
:1049A00000000000000C000C0006000600060003DA
:1049B000000300038003800180018001C000C0006B
:1049C000C000600060000000000000000000000067
:1049D00000000000E003F007380E180C0C180C184B
:1049E0000C180C180C180C180C180C180C18180CA7
:1049F000380EF007E0030000000000000000000097
:104A00000000000000018001C001F0019801880150
:104A1000800180018001800180018001800180018E
:104A20008001800180010000000000000000000003
:104A300000000000E003F80F180C0C180C18001808
:104A40000018000C000600038001C0006000300068
:104A50001800FC1FFC1F0000000000000000000008
:104A600000000000E001F807180E0C0C0C0C000C04
:104A70000006C003C007000C001800180C180C1822
:104A8000180CF807E0030000000000000000000020
:104A900000000000000C000E000F000F800DC00C85
:104AA000600C600C300C180C0C0CFC3FFC3F000C34
:104AB000000C000C000C00000000000000000000D2
:104AC00000000000F80FF80F180018000C00EC03AD
:104AD000FC071C0E001C0018001800180C181C0CF9
:104AE000180EF807E00300000000000000000000BE
:104AF00000000000C007F00F381C181818000C0048
:104B0000CC03EC0F3C0E1C1C0C180C180C18181CB9
:104B1000380EF007E0030000000000000000000075
:104B200000000000FC1FFC1F000C00060006000334
:104B300080038001C001C000E000600060007000E0
:104B400030003000300000000000000000000000D5
:104B500000000000E003F007380E180C180C180CC9
:104B60003806F007F007180C0C180C180C180C1865
:104B7000380CF80FE0030000000000000000000007
:104B800000000000E003F007380E1C0C0C180C1895
:104B90000C181C1C381EF81BE0190018000C000C27
:104BA0001C0EF807F00100000000000000000000EB
:104BB0000000000000000000000000000000800174
:104BC0008001000000000000000000000000000064
:104BD00000008001800100000000000000000000D3
:104BE0000000000000000000000000000000800144
:104BF0008001000000000000000000000000000034
:104C00000000800180010001000180000000000020
:104C10000000000000000000000000000000000094
:104C200000000010001C800FE003F8001800F800DE
:104C3000E003800F001C00100000000000000000D6
:104C40000000000000000000000000000000000064
:104C50000000F81F000000000000F81F0000000026
:104C60000000000000000000000000000000000044
:104C70000000000000000000000000000000000034
:104C8000000008003800F001C007001F0018001FD6
:104C9000C007F0013800080000000000000000001C
:104CA00000000000E003F80F180C0C180C18001896
:104CB000000C000600038001C000C000C00000001E
:104CC0000000C000C0000000000000000000000064
:104CD000000000000000E00718180420C229224A42
:104CE000114409440944094409221113E20C024009
:104CF00004201818E0070000000000000000000079
:104D00000000000080038003C006C006C006600CDF
:104D1000600C301830183018F83FF83F1C700C60E9
:104D20000C6006C006C0000000000000000000008B
:104D300000000000FC03FC0F0C0C0C180C180C18E5
:104D40000C0CFC07FC0F0C180C300C300C300C3029
:104D50000C18FC1FFC070000000000000000000011
:104D600000000000C007F01F38381C300C700660CF
:104D700006000600060006000600060006600C702D
:104D80001C30F01FE00700000000000000000000E1
:104D900000000000FE03FE0F060E0618061806307F
:104DA0000630063006300630063006300618061883
:104DB000060EFE0FFE0300000000000000000000D1
:104DC00000000000FC3FFC3F0C000C000C000C003D
:104DD0000C00FC1FFC1F0C000C000C000C000C0055
:104DE0000C00FC3FFC3F0000000000000000000041
:104DF00000000000F83FF83F1800180018001800E5
:104E00001800F81FF81F18001800180018001800E4
:104E1000180018001800000000000000000000004A
:104E200000000000E00FF83F3C780E6006E007C08D
:104E30000300030003FE03FE03C007C006C00EC04C
:104E40003CF0F83FE00F0000000000000000000010
:104E5000000000000C300C300C300C300C300C30EA
:104E60000C30FC3FFC3F0C300C300C300C300C3064
:104E70000C300C300C30000000000000000000007E
:104E8000000000008001800180018001800180011C
:104E9000800180018001800180018001800180010A
:104EA000800180018001000000000000000000007F
:104EB00000000000000600060006000600060006CE
:104EC0000006000600060006000600061806180682
:104ED0003807F003E00100000000000000000000BF
:104EE0000000000006300618060C060606038601C0
:104EF000C60066007600DE008E0106030606060C7C
:104F000006180630066000000000000000000000E7
:104F10000000000018001800180018001800180001
:104F200018001800180018001800180018001800C1
:104F30001800F81FF81F000000000000000000002B
:104F4000000000000EE01EF01EF01EF036D836D82D
:104F500036D836D866CC66CC66CCC6C6C6C6C6C6FB
:104F6000C6C686C386C30000000000000000000023
:104F7000000000000C301C303C303C306C306C3099
:104F8000CC30CC308C310C330C330C360C360C3C22
:104F90000C3C0C380C300000000000000000000049
:104FA00000000000E007F81F1C380E70066003C008
:104FB00003C003C003C003C003C003C006600E707B
:104FC0001C38F81FE007000000000000000000008F
:104FD00000000000FC0FFC1F0C380C300C300C30B3
:104FE0000C300C18FC1FFC070C000C000C000C0013
:104FF0000C000C000C00000000000000000000008D
:1050000000000000E007F81F1C380E70066003E087
:1050100003C003C003C003C003C007E006630E3F24
:105020001C3CF83FE0F700C000000000000000005A
:1050300000000000FE0FFE1F063806300630063066
:105040000638FE1FFE0706030606060C061806189D
:10505000063006300660000000000000000000007E
:1050600000000000E003F80F1C0C0C180C180C00DA
:105070001C00F803E00F001E0038063006300E302A
:105080001C1CF80FE00700000000000000000000FA
:1050900000000000FE7FFE7F800180018001800112
:1050A00080018001800180018001800180018001F8
:1050B000800180018001000000000000000000006D
:1050C000000000000C300C300C300C300C300C3078
:1050D0000C300C300C300C300C300C300C300C30F0
:1050E0001818F81FE0070000000000000000000092
:1050F0000000000003600630063006300C180C1863
:105100000C18180C180C380E3006300670076003A7
:105110006003C001C00100000000000000000000AA
:10512000000000000360C361C361C361663366337E
:1051300066336633663366336C1B6C1B6C1B2C1A30
:105140003C1E380E380E0000000000000000000079
:10515000000000000FE00C7018303018700C600E6A
:10516000C00780038003C003E006700C301C1818D1
:105170000C300E6007E0000000000000000000009E
:105180000000000003C006600C301C383818300CDA
:105190006006E007C003800180018001800180017A
:1051A000800180018001000000000000000000007C
:1051B00000000000FC7FFC7F006000300018000C45
:1051C000000600038001C0006000300018000C00E1
:1051D0000600FE7FFE7F00000000000000000000CF
:1051E00000000000E003E003600060006000600079
:1051F00060006000600060006000600060006000AF
:10520000600060006000600060006000E003E00398
:105210000000000030003000600060006000C0004E
:10522000C000C000C00180018001800100030003B4
:10523000000300060006000000000000000000005F
:1052400000000000E003E00300030003000300038C
:105250000003000300030003000300030003000336
:10526000000300030003000300030003E003E00366
:10527000000000000000C001C00160036003600383
:1052800030063006180C180C00000000000000006A
:10529000000000000000000000000000000000000E
:1052A00000000000000000000000000000000000FE
:1052B00000000000000000000000000000000000EE
:1052C00000000000FFFFFFFF0000000000000000E2
:1052D000000000000C000C000C000C000C000C0086
:1052E00000000000000000000000000000000000BE
:1052F00000000000000000000000000000000000AE
:105300000000000000000000000000000000F003AA
:10531000F8071C0C0C0C000FF00FF80C0C0C0C0C0C
:105320001C0FF80FF0180000000000000000000043
:105330000000000018001800180018001800D8031A
:10534000F80F380C181818181818181818181818F2
:10535000380CF80FD8030000000000000000000027
:105360000000000000000000000000000000C0037A
:10537000F007300E180C1800180018001800180C50
:10538000300EF007C0030000000000000000000025
:105390000000000000180018001800180018C01BBA
:1053A000F01F301C18181818181818181818181882
:1053B000301CF01FC01B00000000000000000000B7
:1053C0000000000000000000000000000000C0031A
:1053D000F00F300C1818F81FF81F180018003818B4
:1053E000301CF00FC00700000000000000000000AB
:1053F00000000000800FC00FC000C000C000F00718
:10540000F007C000C000C000C000C000C000C00065
:10541000C000C000C000000000000000000000004C
:105420000000000000000000000000000000E00D8F
:10543000F80F180E0C0C0C0C0C0C0C0C0C0C0C0CAF
:10544000180EF80FE00D000C0C0C1C06F807F0010C
:105450000000000018001800180018001800D807F5
:10546000F80F381C181818181818181818181818C1
:10547000181818181818000000000000000000009C
:1054800000000000C000C000000000000000C000DC
:10549000C000C000C000C000C000C000C000C0000C
:1054A000C000C000C00000000000000000000000BC
:1054B00000000000C000C000000000000000C000AC
:1054C000C000C000C000C000C000C000C000C000DC
:1054D000C000C000C000C000C000C000F8007800DC
:1054E000000000000C000C000C000C000C000C0C68
:1054F0000C060C038C01CC006C00FC009C018C039E
:105500000C030C060C0C0000000000000000000062
:1055100000000000C000C000C000C000C000C0000B
:10552000C000C000C000C000C000C000C000C0007B
:10553000C000C000C000000000000000000000002B
:1055400000000000000000000000000000007C3CA3
:10555000FF7EC7E383C183C183C183C183C183C18C
:1055600083C183C183C1000000000000000000006F
:10557000000000000000000000000000000098078C
:10558000F80F381C181818181818181818181818A0
:10559000181818181818000000000000000000007B
:1055A0000000000000000000000000000000C00338
:1055B000F00F300C18181818181818181818181890
:1055C000300CF00FC00300000000000000000000DD
:1055D0000000000000000000000000000000D803F0
:1055E000F80F380C18181818181818181818181850
:1055F000380CF80FD803180018001800180018000D
:105600000000000000000000000000000000C01BBF
:10561000F01F301C1818181818181818181818180F
:10562000301CF01FC01B00180018001800180018CC
:105630000000000000000000000000000000B007B3
:10564000F0037000300030003000300030003000D7
:1056500030003000300000000000000000000000BA
:105660000000000000000000000000000000E00357
:10567000F003380E180C3800F003C007000C180CAB
:10568000380EF007E00300000000000000000000FA
:105690000000000000008000C000C000C000F00753
:1056A000F007C000C000C000C000C000C000C000C3
:1056B000C000C007800700000000000000000000DC
:1056C00000000000000000000000000000001818AA
:1056D000181818181818181818181818181818184A
:1056E000381CF01FE019000000000000000000005E
:1056F00000000000000000000000000000000C1886
:10570000180C180C180C30063006300660036003C5
:105710006003C001C00100000000000000000000A4
:105720000000000000000000000000000000C14177
:10573000C141C361636363636363363636363636AD
:105740001C1C1C1C1C1C00000000000000000000B1
:1057500000000000000000000000000000001C38F5
:10576000381C300C60066003600360036003600651
:10577000300C381C1C380000000000000000000045
:1057800000000000000000000000000000001830D1
:10579000301830187018600C600CE00CC006C006A1
:1057A00080038003800380018001C001F00070004D
:1057B0000000000000000000000000000000FC1FCE
:1057C000FC1F000C000600038001C00060003000D8
:1057D0001800FC1FFC1F000000000000000000007B
:1057E0000000000000038001C000C000C000C00035
:1057F000C000C00060006000300060004000C000D9
:10580000C000C000C000C000C00080010003000054
:105810000000000080018001800180018001800182
:105820008001800180018001800180018001800170
:105830008001800180018001800180018001800160
:10584000000000006000C000C001800180018001F4
:1058500080018001000300030006000300018001B5
:1058600080018001800180018001C0006000000093
:105870000000000000000000000000000000000028
:105880000000F010F81F080F0000000000000000EA
:105890000000000000000000000000000000000008
:1058A0000000000002400000000000A00000000016
:1058B00005400000000000C8000000000C4000008F
:1058C0000000409C00000000194000000020BCBE09
:1058D0000000000034400000BFC91B8E000000041F
:1058E000B5400000504BCFD06607E2CF010000006A
:1058F0006C4100003E8251AADFEEA7340100000097
:10590000D9420000DCB5A0E23A301F97FFFFFFFF4D
:10591000B4450000FD25A0C8E9A3C14FFFFFFFFF6C
:10592000FF3F00000000008000000000FF3F00007B
:1059300000000080000000007459000800000020F2
:1059400020000000140200089459000820000020E4
:1059500068070000300200081C000000430000003F
:10596000F8FFFFFF0C0000000E0000000F00000019
:105970002E000000100000000100000000000000E8
:105980000024F40001000000FFFF00000000000000
:045990000000000013
:04000005080001D915
:00000001FF
