:020000040800F2
:1000000010050020ED0100085B170008E716000846
:1000100059170008F90200085122000800000000EA
:100020000000000000000000000000005F17000852
:10003000FB020008000000005D17000861170008BF
:10004000070200080702000807020008070200086C
:10005000070200080702000807020008070200085C
:10006000070200080702000807020008070200084C
:10007000070200080702000807020008070200083C
:10008000070200080000000007020008070200083D
:10009000070200080702000807020008070200081C
:1000A000070200080702000807020008070200080C
:1000B00007020008070200080702000807020008FC
:1000C00007020008070200080702000807020008EC
:1000D000070200084522000807020008070200087E
:1000E00007020008070200080702000807020008CC
:1000F00007020008070200080702000800000000CD
:1001000000000000070200080000000007020008CD
:1001100007020008000000000702000807020008AC
:10012000070200080702000807020008070200088B
:10013000070200080000000000000000070200089D
:10014000070200080702000800000000000000008D
:10015000000000000000000000000000000000009F
:10016000000000000000000000000000070200087E
:10017000070200080000000000000000000000006E
:10018000000000000702000800000000000000005E
:10019000000000000000000000000000000000005F
:1001A000000000000000000007020008070200082D
:1001B000070200080702000807020008000000000C
:1001C000000000000702000800000000000000001E
:1001D0000702000807020008DFF80CD000F07AF8E8
:1001E000004800479D23000810050020064880476E
:1001F00006480047FEE7FEE7FEE7FEE7FEE7FEE70C
:10020000FEE7FEE7FEE7FEE7DD170008D90100087C
:100210002DE9F05F0546002092469B46884606463B
:10022000814640241BE0284641464746224600F0CE
:1002300041F853465A46C01A914110D31146184608
:10024000224600F028F82D1A67EB01084F46224697
:100250000120002100F01FF817EB00094E41201E7D
:10026000A4F10104DFDC484631462A464346BDE896
:10027000F09FD2B201E000F8012B491EFBD270477B
:100280000022F6E710B513460A4604461946FFF762
:10029000F0FF204610BD202A04DB203A00FA02F1CC
:1002A000002070479140C2F1200320FA03F3194364
:1002B00090407047202A04DB203A21FA02F0002106
:1002C000704721FA02F3D040C2F120029140084366
:1002D00019467047064C074D06E0E06840F0010300
:1002E00094E8070098471034AC42F6D3FFF778FF44
:1002F00098240008B8240008FEE7704772B6FEE7AD
:1003000010B590F8253000210122022B03D00421E2
:10031000C163012122E003681C6824F00E041C6004
:10032000836C1C6824F480741C6003681C6824F0CF
:1003300001041C6090F84430046C03F01F0302FABF
:1003400003F36360D0E913345C60436D33B11C6820
:1003500024F480741C60D0E916345C6080F8252099
:10036000002280F82420084610BD70B590F82520A2
:10037000002401212346022A07D00422C26380F808
:10038000251080F82430012429E00268156825F042
:100390000E0515600268156825F001051560826C70
:1003A000156825F48075156090F84420056C02F0FE
:1003B0001F0201FA02F26A60D0E913255560426D0E
:1003C00032B1156825F480751560D0E916255560A1
:1003D00080F8251080F82430816B01B188472046D1
:1003E00070BD00002DE9F04FDFF8209200230126B8
:1003F0000324A9F1040B85B00F2709F1040AABF11E
:10040000040EFAE006FA03F52A407CD091F804C005
:100410000CF0030CBCF1010F02D0BCF1020F26D18D
:10042000D0F808C0CDF800C04FEA430C04FA0CF82D
:10043000CDF810C0DDF800C02CEA080CCDF800C0E3
:10044000D1F80C80DDF810C008FA0CF8DDF800C017
:1004500048EA0C08C0F80880D0F804C02CEA050C63
:100460000D79C5F300159D4045EA0C0545600D79F1
:10047000ED43AD070ED0C5684FEA430804FA08FC07
:1004800025EA0C05D1F808C00CFA08FC4CEA050C6A
:10049000C0F80CC00D7905F00305022D16D1DD085A
:1004A00000EB850CCDF808C0DCF820805D074FEA32
:1004B000D56C07FA0CF528EA05080D6905FA0CF564
:1004C000DDF808C045EA0805CCF8205005684FEA79
:1004D000430CCDF808C004FA0CFC25EA0C0591F891
:1004E00004C00CF00308DDF808C008FA0CF848EA6C
:1004F0000508C0F800804D6815F4403F7CD0444D9D
:10050000D5F860C000E077E04CF0010CC5F860C0A1
:100510002D6E23F0030C05F0010500953D4D65445B
:100520000295AD684FEA837C4FEA1C7807FA08FC15
:1005300025EA0C05B0F1904F06D0DFF8DCC060452D
:1005400005D14FF0010C20E04FF0000C1DE0DFF86A
:10055000CCC0604502D14FF0020C16E0DFF8C0C0FD
:10056000604502D14FF0030C0FE0DFF8B8C06045E2
:1005700002D14FF0040C08E0DFF8ACC0604502D1B6
:100580004FF0050C01E04FF0060C0CFA08FC4CEAA9
:10059000050C029DC5F808C0D9F80050CC46D1F82A
:1005A000048095435FEAC82800D51543CCF8005075
:1005B000DAF80050D446D1F8048095435FEA8828E1
:1005C00000D51543CCF80050DBF80050DC46D1F8DC
:1005D000048095435FEA883800D51543CCF8005075
:1005E000DEF80050F446D1F8048095435FEAC8383D
:1005F00000D51543CCF800505B1C0A6832FA03F5AD
:100600007FF400AF05B0BDE8F08F000008040140A2
:1006100000100240000001400004004800080048AB
:10062000000C004800100048001400480069084011
:1006300000D001207047426921EA02030A4043EAE0
:100640000241816170470AB18161704781627047E0
:10065000014880687047000004000020024881685B
:1006600042681144816070470400002010B50024E6
:10067000032000F073F80F2000F008F808B10124FF
:1006800001E000F025F8204610BD000070B50E4EC8
:1006900005460024706898B14FF47A71B1FBF0F010
:1006A0000A490968B1FBF0F000F064FD40B9102D73
:1006B00006D200222946501E00F030F8356000E0D6
:1006C0000124204670BD000004000020100000201E
:1006D0000A4882B0016E41F001010166016E01F02D
:1006E00001010091816D41F080518165806D00F0C4
:1006F0008050009002B000F0A1B80000001002404D
:10070000002809DB00F01F02012191404009800010
:1007100000F1E020C0F8001170470000F0B40E4B6B
:100720001B680C46C3F30223C3F10705042D00D94F
:100730000425191D072901D2002300E0DB1E012634
:1007400006FA05F1491E214099409E40761E16404A
:100750003143F0BC01F07DBD0CED00E0064900F036
:10076000070208684FF6FF03184040EA0220034AD8
:1007700010430860704700000CED00E00000FA052F
:100780002B492C4B0A6832214A432B4940B1B0F522
:10079000007F086829D020F4C06040F480602CE01D
:1007A0000868C0F34120022804D051F8800F20F4DB
:1007B000807022E0D1F8800020F48070C1F88000C1
:1007C000086820F4C06040F400700860B2FBF3F0E9
:1007D000401C00E0401E4A69520501D50028F9D1AD
:1007E000486940050AD503207047C0F3412002281C
:1007F00006D051F8800F40F48070086000207047E8
:10080000D1F8800040F48070C1F88000086820F4BE
:10081000C06040F400700860B2FBF3F0401C00E0E0
:10082000401E4A695205DBD50028F9D1D8E70000FF
:100830001000002040420F00007000400248816814
:1008400041F4804181607047007000402DE9F84319
:100850000446006800269D4D00035ED5A86D002764
:10086000C00008D4A86D40F08050A865A86D01278D
:1008700000F080500090DFF85892D9F8001041F451
:100880008071C9F80010FFF7E3FE804606E000BF64
:10089000FFF7DEFEA0EB080002282BD8D9F80000F5
:1008A000C005F5D5D5F8900010F4407014D0216C37
:1008B000814211D0D5F89000D5F8901020F4407006
:1008C00041F48031C5F89010D5F8901021F48031B2
:1008D000C5F89010C5F89000C00711D0FFF7B8FE1A
:1008E000804641F2883907E0FFF7B2FEA0EB08012D
:1008F000494501D903260BE0D5F890008007F3D5D0
:10090000D5F89000216C20F440700843C5F89000A1
:100910001FB1A86D20F08050A8652078C00707D0CF
:10092000D5F88800616820F003000843C5F8880006
:100930002078800707D5D5F88800A16820F00C0042
:100940000843C5F888002078400707D5D5F8880007
:10095000E16820F030000843C5F8880020780007DF
:1009600007D5D5F88800216920F0C0000843C5F8F4
:1009700088002078800607D5D5F88800616920F4C2
:1009800040600843C5F888002078400607D5D5F8B0
:100990008800A16920F440500843C5F888002078F9
:1009A000000607D5D5F88800E16920F440400843E7
:1009B000C5F888002088C00507D5D5F88800216AC9
:1009C00020F440300843C5F888002088800507D50A
:1009D000D5F88800616A20F440200843C5F88800F3
:1009E000208840050FD5D5F88800A16A20F4401072
:1009F0000843C5F88800A06AB0F5801F03D1E868F5
:100A000040F48010E860208800050FD5D5F88800F4
:100A1000E16A20F440000843C5F88800E06AB0F5B8
:100A2000800F03D1E86840F48010E8602088C0049B
:100A30000FD5D5F88800216B20F040700843C5F829
:100A40008800206BB0F1807F03D1E86840F480100B
:100A5000E86020884FF0006180040ED5D5F888004A
:100A6000626B20F040601043C5F88800606B8842DC
:100A700003D1E86840F48010E860208840040ED577
:100A8000D5F88800A26B20F040601043C5F88800BC
:100A9000A06B884203D1E86840F48010E8602088A9
:100AA00000040FD5D5F88800E16B20F040500843D2
:100AB000C5F88800E06BB0F1805F03D1E86840F4CE
:100AC0008030E8603046BDE8F88300000010024046
:100AD000007000402DE9F0470E4605004FF000077A
:100AE00025D0DFF8AC81D8F8000000F00F00B0424C
:100AF0000CD2D8F8001021F00F013143C8F80010D3
:100B0000D8F8000000F00F00B04210D12968614C05
:100B1000C80741F2883A5AD06868DFF87C91032808
:100B200008D0022820682DD0400500282CDB0120A9
:100B3000BDE8F08720688001F9D5E06800F0030285
:100B4000E068C0F30310401C032A19D0534A00BFC9
:100B5000B2FBF0F0E268C2F306225043E268C2F34F
:100B60004162521C5200B0FBF2F0484517D9A06810
:100B700010F0F00F0CD0880711D5A86840B10EE036
:100B8000474AE5E78003D0E700F0B6F8484506D9C4
:100B9000A06820F0F00040F08000A0608027A068EE
:100BA000696820F003000843A060FFF751FD81460B
:100BB00006E000BFFFF74CFDA0EB090151453AD814
:100BC000A068696800F00C00B0EB810FF2D12868D2
:100BD000810714D5400703D5A06840F4E060A06009
:100BE0002878000705D5A06820F4605040F4E06044
:100BF000A060A068A96820F0F000084304E0802FFE
:100C000003D1A06820F0F000A060D8F800104046A2
:100C100001F00F01B14216D9016821F00F013143F3
:100C20000160FFF715FD074607E000BFFFF710FD65
:100C3000C11B514501D903207AE7D8F8000000F024
:100C40000F00B042F2D12878400705D5A068E968C6
:100C500020F4E0600843A0602878000706D5A0686B
:100C6000296920F4605040EAC100A06000F044F817
:100C7000A1680C4AC1F30311515C01F01F01C84087
:100C80000949086009480068BDE8F047FFF7FEBC65
:100C9000002002400010024000B4C4040024F4000C
:100CA00000366E018024000810000020040000209F
:100CB0000548064900688968054AC1F30221515C6C
:100CC00001F01F01C84070471000002000100240D2
:100CD000902400080548064900688968054AC1F360
:100CE000C221515C01F01F01C84070471000002074
:100CF0000010024090240008184910B58868C0F31D
:100D000081021748012A0BD08A68164BC2F3810270
:100D1000022A06D08A68C2F38102032A03D0002087
:100D200010BD184610BDCA6802F00304CA68C2F3B9
:100D30000312521C032C02D0B0FBF2F001E0B3FB13
:100D4000F2F0CA68C968C2F306225043C1F3416198
:100D5000491C4900B0FBF1F010BD0000001002403A
:100D60000024F40000366E012DE9F84304007AD027
:100D70002078FA4DC00747D0A868E96800F00C0059
:100D800001F003010C2802D0082817D001E0032944
:100D900014D06068B0F5803F17D0B0F5A02F286858
:100DA00017D020F480302860286820F48020286044
:100DB0006068E0B1FFF74CFC064614E02868800349
:100DC00022D560680028D2D01EE0286840F4803028
:100DD000EDE740F480202860F7E700BFFFF738FC1C
:100DE000801B642870D828688003F7D50CE0FFF7D3
:100DF0002FFC064605E000BFFFF72AFC801B642895
:100E0000F0D828688003F7D4207880074CD5A868EC
:100E1000E96800F00C0001F003010C2802D004285E
:100E20000DD001E002290AD0E068002828682BD004
:100E300040F480702860FFF70BFC064619E0286834
:100E4000400502D5E068002891D06868217C20F038
:100E5000FE4040EA01606860C1480068FFF716FC88
:100E6000002800D120E076E1FFF7F2FB801B02288A
:100E7000B8D828684005F7D56868217C20F0FE4086
:100E800040EA016068600FE020F480702860FFF79E
:100E9000DFFB064605E000BFFFF7DAFB801B0228F8
:100EA000A0D828684005F7D42078000729D56069C4
:100EB0000028D5F8940013D040F00100C5F8940044
:100EC000FFF7C6FB064606E090E000BFFFF7C0FB59
:100ED000801B022886D8D5F894008007F6D510E04C
:100EE00020F00100C5F89400FFF7B2FB064604E0CD
:100EF000FFF7AEFB801B022878D8D5F89400800756
:100F0000F6D42078400761D5A86D0026C00008D42B
:100F1000A86D40F08050A865A86D012600F08050B3
:100F2000009090480168C90511D40168804641F4D9
:100F300080710160FFF78CFB074604E0FFF788FB38
:100F4000C01B022852D8D8F80000C005F6D5A0680A
:100F5000012815D00528D5F8900016D020F0010002
:100F6000C5F89000D5F8900020F00400C5F8900076
:100F7000A06841F28838B8B1FFF76AFB07460EE077
:100F8000D5F8900040F00100F0E740F00400C5F80B
:100F90009000F5E7FFF75CFBC11B414526D8D5F86B
:100FA00090008007F6D50CE0FFF752FB074604E0FF
:100FB000FFF74EFBC11B414518D8D5F890008007BC
:100FC000F6D41EB1A86D20F08050A8652078800668
:100FD00029D5A0690028D5F8980013D040F0010069
:100FE000C5F89800FFF734FB064606E077E000BF3F
:100FF000FFF72EFB801B022877D8D5F898008007D2
:10100000F6D510E020F00100C5F89800FFF720FBAE
:10101000064604E0FFF71CFB801B022865D8D5F8C4
:1010200098008007F6D4E069F0B3A968C1F38101A4
:10103000032961D00228286820F0807028600BD036
:10104000E86820F00300E860E86847490840E86085
:10105000FFF7FEFA04464BE0FFF7FAFA064604E013
:10106000FFF7F6FA801B02283FD828688001F7D4E2
:10107000F4E908016FF00F0202EB01110843218A25
:101080005204490802EB4151A26841EA0221084397
:10109000217D4FF07E42490802EB41610843217BEC
:1010A00040EAC160E96800E062E0304A114008436C
:1010B000E860286840F080702860E86840F0807040
:1010C000E860FFF7C5FA044605E000BFFFF7C0FA85
:1010D000001B022809D828688001F7D548E004E001
:1010E000FFF7B6FA001B022802D90320BDE8F883F7
:1010F00028688001F4D43BE00128F7D0E868226A30
:1011000000F00301914226D1616A00F0F00209016A
:10111000103991421FD1A26A00F4FE41B1EB022FB7
:1011200019D194F82C2000F07841B1EBC26F12D1A4
:10113000218E00F4C00249084905A1F50011914231
:1011400009D194F8341000F0C06049084906A1F1B3
:10115000007181420CD00120C8E70000001002405D
:101160000400002000700040FFFFEEFE0C809F0195
:101170000020BBE710B5401EB0F1807F01D30120F5
:1011800010BD4FF0E02460610F21601701F061F89D
:101190000020A06107202061002010BD90F8801081
:1011A000012918D0012180F880102421C0F8841072
:1011B00050F8641B0A680B6823F001030B6022F0EF
:1011C00000510022026050F8643C19602021016245
:1011D000027710467047022070477047704770B51D
:1011E000044690F8800001281DD0012084F880007A
:1011F0002420C4F8840020680568026822F00102F7
:1012000002602068826822F060620A4382602046A1
:1012100000F0ECFA206805602020C4F8840000206B
:1012200084F8800070BD022070BD70B5044690F84F
:10123000800001281DD0012084F880002420C4F8FB
:10124000840020680568026822F0010202602068BC
:10125000826822F060420A438260204600F0C6FAAB
:10126000206805602020C4F88400002084F88000F5
:1012700070BD022070BD7047704770472DE9F04186
:1012800003680446D86919689A6840F60F05284231
:101290004FF0000509D186067ED501F0200602F048
:1012A00080573E4378D0216F27E1A94EA94F1640C1
:1012B0000F40374370D0C70709D0CF0507D50127A6
:1012C0001F62D4F88C3043F00103C4F88C308307DC
:1012D0000AD5D30708D0276802233B62D4F88C30A4
:1012E00043F00403C4F88C3043070AD5D30708D071
:1012F000276804233B62D4F88C3043F00203C4F81F
:101300008C3003070CD501F02003334308D0266846
:1013100008233362D4F88C3043F00803C4F88C30CF
:1013200003050BD54B0109D526684FF400633362E2
:10133000D4F88C3043F02003C4F88C30D4F88C30CF
:10134000002B3AD0800609D501F0200002F0805130
:10135000084303D0216F09B120468847D4F88C0098
:1013600021688968490602D410F0280F27D020464A
:1013700000F0FCFA2068806840061BD52068083021
:1013800050E8001F21F0400140E80012002AF5D18A
:10139000E06F78B1704900E017E08163E06FFEF71D
:1013A000E4FF002809D0E06F816B00E02046BDE833
:1013B000F04108472046FFF760FFBDE8F081204676
:1013C000FFF75BFFC4F88C50F7E7E76E2026012F8C
:1013D0007ED1C7067CD5CF067AD51020186220684A
:1013E0008068400642D5E16F086840680004000C40
:1013F000E3D0B4F85C208242DFD9A4F85E0008682C
:10140000006880062BD4206850E8001F21F480710A
:1014100040E80012002AF6D12068083050E8001F8A
:1014200021F0010140E80012002AF5D120680830BF
:1014300050E8001F21F0400140E80012002AF5D1D9
:10144000C4F88860E566216851E8000F20F01000BC
:1014500041E80002002AF6D1E06FFEF751FFB4F830
:101460005C00B4F85E10401A81B22CE0B4F85C0065
:10147000B4F85E10401A81B2B4F85E0000289CD027
:1014800000299AD0226852E8000F20F4907042E8B8
:101490000003002BF6D12E4BDB432068083050E8C8
:1014A000002F1A4040E80027002FF6D1C4F88860CA
:1014B000E5662567226852E8000F20F0100042E838
:1014C0000003002BF6D12046FFF787FE75E7FFE704
:1014D000C70209D5570207D54FF48010186220467D
:1014E000BDE8F041FFF7C8BE03060AD501F080034E
:1014F00002F40002134304D0616F00297FF456AF59
:101500005BE7420611D54A060FD52046016851E82F
:10151000002F22F0400241E80023002BF6D1C0F852
:101520008460456700F0DEF847E7020206D54A000E
:1015300004D52046BDE8F041FFF79DBEC001C5D5EA
:101540000029C3DA2046BDE8F041FFF747BE00009E
:1015500001000010200100045919000810B5040012
:1015600003D0D4F8840010B107E0012010BD0020A2
:1015700084F88000204600F027F82420C4F8840076
:101580002068016821F001010160204600F030FC74
:101590000128EBD0A06A10B1204600F049F920687C
:1015A000416821F4904141602068816821F02A015E
:1015B00081602068016841F0010101602046BDE8BA
:1015C000104000F099B9000010B598B004461421FD
:1015D00011A8FEF755FE44216846FEF751FE1B494F
:1015E0002068884230D101200024CDE900046846FB
:1015F000FFF72CF908B1FEF781FE1548016E41F4A2
:1016000080410166016E01F480411691C16C41F088
:101610000101C164C06C11A900F0010016904FF4E3
:10162000C06011900220CDE912040720CDE91440DA
:101630004FF09040FEF7D6FE002211462520FFF71E
:101640006DF82520FFF75CF818B010BD0038014098
:101650000010024030B4D0F88830202B20D1E1B106
:10166000DAB190F88030012B1AD0012380F8803055
:101670000023C3660B4C0368A3420BD05B681B02BC
:1016800008D5046854E8003F43F0806344E800351F
:10169000002DF6D130BC00F0E5BC012030BC704715
:1016A0000220FBE70080004000680B49884212D10D
:1016B0000A480B4B0146027848881A54401C80B2F5
:1016C0006422B0FBF2F302FB1300488004480122BD
:1016D0009038FFF7BFBF7047003801401600002068
:1016E000AC0000207047FEE7194810B517490160AB
:1016F0004FF4E1314160002181600C22C160C0E9FA
:1017000004128161C161016241628162FFF726FFBB
:1017100008B1FEF7F3FD00210D48FFF786FD08B183
:10172000FEF7ECFD00210A48FFF759FD08B1FEF76E
:10173000E5FD0748FFF732FD08B1FEF7DFFDBDE824
:101740001040012203490248FFF784BF00380140DE
:101750001C00002016000020FEE7FEE770477047DF
:1017600010B5FEF77BFF02480188491C018010BDBF
:101770000000002010B594B038216846FEF780FDC7
:1017800014210EA8FEF77CFD4FF40070FEF7F8FF61
:10179000012000900004019002200324CDE90704F9
:1017A0001421CDE90A100C900D9009946846FFF7BA
:1017B000DBFA08B172B6FEE70F20CDE90E04002077
:1017C00010901190129002210EA8FFF783F90028C3
:1017D00001D072B6FEE714B010BD000002480168E7
:1017E00041F470010160704788ED00E030B5416E52
:1017F000B9B1026891689268C1F342610B4B520F14
:101800009C5CE50003F10804A25CB5FBF2F2A0F8D1
:101810006A205A5C615CD200B2FBF1F1A0F868105A
:1018200030BD0121A0F86A10F8E70000702400081C
:1018300090F82810C90706D001684A68C36A22F4E4
:1018400000321A434A6090F82810890706D50168CB
:101850004A68036B22F480321A434A6090F82810D9
:10186000490706D501684A68436B22F480221A436F
:101870004A6090F82810090706D501684A68836B0A
:1018800022F400421A434A6090F82810C90606D58F
:1018900001688A68C36B22F480521A438A6090F808
:1018A0002810890606D501688A68036C22F4005264
:1018B0001A438A6090F82810490611D501684A68D1
:1018C000436C22F480121A434A60416CB1F5801FC8
:1018D00006D101684A68836C22F4C0021A434A6048
:1018E00090F82810090606D501684A68C06C22F4F1
:1018F000002202434A607047F8B500260446C0F84B
:101900008C60FEF7A5FE0546206800686FF07E47F4
:10191000000708D52B4600224FF4001120460097FF
:1019200000F02CFC60B92068006840070AD52B46FF
:1019300000224FF480012046009700F01FFC08B100
:101940000320F8BD2020C4F88400C4F8880044F8BF
:101950006C6F00202675F8BD10B5806A0021A0F8D4
:101960005E10A0F85610FFF788FC10BD10B5026895
:1019700052E8001F21F4907142E80013002BF6D1C9
:101980000E4B0268083252E8001F194042E800146A
:10199000002CF6D1C16E012908D1016851E8002F51
:1019A00022F0100241E80023002BF6D12021C0F8DC
:1019B00088100021C166016710BD0000FEFFFFEF27
:1019C00010B5B0F86020D0F888300168222B04D020
:1019D000886940F00800886110BD496A836D114034
:1019E0001980816D891C8165B0F85E10491EA0F8D0
:1019F0005E10B0F85E100029EED1026852E8001FB8
:101A000021F4907142E80013002BF6D101680831EF
:101A100051E8002F22F0010241E80023002BF5D10C
:101A20002021C0F8881000210167C26E012A02D06F
:101A3000FFF73AFE10BDC166026852E8001F21F0B0
:101A4000100142E80013002BF6D10168CA69D243A5
:101A5000D20601D410220A62B0F85C10FFF7BDFB79
:101A600010BD00002DE9F0470446B0F86060006842
:101A7000C569D0F800A0D0F80880D4F888102229D1
:101A800005D0816941F008018161BDE8F087B4F8B3
:101A900068704FF0000963E02068406AA16D304033
:101AA0000880A06D801CA065B4F85E00401EA4F8FC
:101AB0005E002068C569690730D0E9070AD05FEA8F
:101AC000CA5107D501210162D4F88C0040F0010011
:101AD000C4F88C00A8070BD55FEAC87008D021684D
:101AE00002200862D4F88C0040F00400C4F88C0096
:101AF00068070BD55FEAC87008D021680420086227
:101B0000D4F88C0040F00200C4F88C00D4F88C00AB
:101B100020B12046FFF7B1FBC4F88C90B4F85E000A
:101B2000F0B9216851E8000F20F4807041E800020C
:101B3000002AF6D1264A2068083050E8001F1140DC
:101B400040E80013002BF6D12020C4F88800C4F828
:101B50007090E16E4846012923D02046FFF7A4FD8E
:101B60000FB1A80698D4B4F85E0000288DD0B4F860
:101B70006810814289D92068083050E8001F21F0A0
:101B8000805140E80012002AF5D1124820672068F1
:101B900050E8001F41F0200140E80012002AF6D171
:101BA00073E7E066216851E8000F20F0100041E87B
:101BB0000002002AF6D12068C169C943C90601D4D0
:101BC00010210162B4F85C102046FFF706FBC7E75E
:101BD000FEFFFFEFC119000810B5B0F86020D0F883
:101BE00088300168222B04D0886940F008008861A1
:101BF00010BD496A1140826D1170816D491C81656B
:101C0000B0F85E10491EA0F85E10B0F85E10002912
:101C1000EED1026852E8001F21F4907142E80013EF
:101C2000002BF6D10168083151E8002F22F00102A3
:101C300041E80023002BF5D12021C0F888100021B5
:101C40000167C26E012A02D0FFF72EFD10BDC166EA
:101C5000026852E8001F21F0100142E80013002B37
:101C6000F6D10168CA69D243D20601D410220A62B1
:101C7000B0F85C10FFF7B1FA10BD00002DE9F04795
:101C80000446B0F860600068C569D0F800A0D0F8DC
:101C90000880D4F88810222905D0816941F0080114
:101CA0008161BDE8F087B4F868704FF0000963E027
:101CB0002068406AA16D30400870A06D401CA0658E
:101CC000B4F85E00401EA4F85E002068C56969078C
:101CD00030D0E9070AD05FEACA5107D50121016275
:101CE000D4F88C0040F00100C4F88C00A8070BD594
:101CF0005FEAC87008D0216802200862D4F88C001E
:101D000040F00400C4F88C0068070BD55FEAC87087
:101D100008D0216804200862D4F88C0040F002004A
:101D2000C4F88C00D4F88C0020B12046FFF7A5FA47
:101D3000C4F88C90B4F85E00F0B9216851E8000F47
:101D400020F4807041E80002002AF6D1264A20687B
:101D5000083050E8001F114040E80013002BF6D176
:101D60002020C4F88800C4F87090E16E484601292C
:101D700023D02046FFF798FC0FB1A80698D4B4F8FA
:101D80005E0000288DD0B4F86810814289D920689F
:101D9000083050E8001F21F0805140E80012002A6E
:101DA000F5D112482067216851E8000F40F020006B
:101DB00041E80002002AF6D173E7E066216851E8A5
:101DC000000F20F0100041E80002002AF6D1206840
:101DD000C169C943C90601D410210162B4F85C107D
:101DE0002046FFF7FAF9C7E7FEFFFFEFD91B00080F
:101DF0002DE9F0410446016880682269E3691043D7
:101E0000626900251A431043DFF82CC20A688B4B25
:101E10001A4002430A6020684168E26821F4405198
:101E2000114341602168A069614501D0226A1043D5
:101E30008A68834B1A4002438A602068C16A626ADA
:101E400021F00F011143C1627E4923687E488B4215
:101E50000DD1D0F8880010F0030006D0012855D02D
:101E6000022842D003283FD152E001203DE07749CB
:101E70008B420BD1D0F8880010F00C0035D004282C
:101E800033D0082840D00C282ED141E070498B4235
:101E90000BD1D0F8880010F0300026D0102835D0B3
:101EA000202831D030281FD132E06A498B420BD133
:101EB000D0F8880010F0C00017D0402826D0802825
:101EC00022D0C02810D123E063450DD1D0F888007E
:101ED00010F4406009D0B0F5806F17D0B0F5006FF6
:101EE00012D0B0F5406F13D010205B495B4F002635
:101EF0004FF4004263453BD160B1022813D004285F
:101F00000BD0082872D10DE00220EEE70420ECE7A8
:101F10000820EAE7FEF7CCFE01E0FEF7EDFE010047
:101F200001D17CE01146606A37F810206768B1FB88
:101F3000F2F007EB4703834270D8B0EB073F6DD850
:101F4000002308461946FEF763F9090241EA1061C9
:101F500002027808101871413A460023FEF758F93A
:101F60003F4AA0F54071914258D82168C86056E0B8
:101F7000E3694FF6EF7893422CD109284ED2DFE87F
:101F800000F00508114D0D4D4D4D1000FEF790FE6F
:101F900001E0FEF79FFE010004D140E0FEF7ACFE39
:101FA000F9E71146606A37F81000B1FBF0F0410024
:101FB000606801EB5001B1FBF0F0A0F11001414568
:101FC0002CD84FF6F0710140C0F342000143206865
:101FD000C16024E0092821D2DFE800F005091220C1
:101FE0000E2020201100FEF763FE02E016E0FEF74F
:101FF00071FE010004D112E0FEF77EFEF9E7114602
:10200000606A37F81000B1FBF0F1606801EB500135
:10201000B1FBF0F0A0F1100141450AD901250120E2
:10202000A4F86A0024F8680F2846A660E660BDE8B8
:10203000F08180B299E7000000800040F369FFCF93
:10204000FFF4FF110038014000100240004400403E
:1020500000480040004C00400024F40058240008D0
:10206000FFFC0F0070B58165A0F85C20A0F85E2031
:102070000021016783684FF48055FF24AB4204D1EF
:102080000369FBB940F2FF1322E07F26C3B1B3F12D
:10209000805F1AD0A0F86010C0F88C102223C0F81E
:1020A00088300368083353E8004F44F0010443E8E4
:1020B0000046002EF5D1436EB3F1005F0ED032E042
:1020C000036943B9A0F86040E6E703691BB13F2309
:1020D000A0F86030E0E7A0F86060DDE7B0F86830B5
:1020E000934220D88268AA4201D10269CAB11F4A2C
:1020F000026780F88010016941B1026852E8001F50
:1021000041F4807142E80013002BF6D101680831D8
:1021100051E8002F42F0805241E80023002BF5D116
:1021200021E0134AE4E78268AA4201D102697AB148
:10213000104A026780F88010016959B1026852E8BC
:10214000001F41F4907142E80013002BF6D10AE021
:10215000094AEEE7026852E8001F41F0200142E818
:102160000013002BF6D1002070BD00007D1C00087C
:10217000651A0008D91B0008C11900082DE9F047AD
:102180009A4617460E4604464FF000094FF02008C5
:10219000089D4AE0681C48D0FEF75AFAA0EB0A00F6
:1021A000A8422AD84DB32068016849073DD5C069C7
:1021B000C043000539D421684FF4006008622068EC
:1021C00050E8001F21F4D07140E80012002AF6D137
:1021D0002068083050E8001F21F0010140E800129B
:1021E000002AF5D144F8848FC4F80480C4F808802C
:1021F00004F8049C0320BDE8F087216851E8000F33
:1022000020F4D07041E80002002AF6D1206808309E
:1022100050E8001F21F0010140E80012002AF5D12A
:1022200044F8848FC4F80480E2E72068C06936EA85
:10223000000004D00020B842ACD00020DBE7012031
:10224000F9E700000148FFF719B800001C00002062
:10225000FEE70907090E002804DB00F1E02080F802
:102260000014704700F00F0000F1E02080F8141D0A
:10227000704702E008C8121F08C1002AFAD170474F
:102280007047002001E001C1121F002AFBD17047F6
:1022900010B5012801D0012200E000224FF47F4157
:1022A0000748FEF7D0F9074C012204212046FEF72B
:1022B000CAF920460022BDE810400421FEF7C3B948
:1022C00000080048000C004870B5144C86B0E06C63
:1022D00040F00100E064E06C260100F00100059090
:1022E0000120CDE9000600250395694602954FF0CF
:1022F0009040FEF777F8E06C40F00200E064E06C9C
:10230000039500F0020005900720CDE9000669461C
:1023100002950348FEF766F806B070BD0010024053
:102320000004004830B51A4887B0C16C41F0040180
:10233000C164C16C01F004010591C16C41F0080158
:10234000C164C06C134D00F008004FF47F44059049
:10235000012221462846FEF776F90021012000944B
:102360000391CDE9010169462846FEF73BF80A4C86
:10237000002204212046FEF766F9042000906946F9
:102380002046FEF72FF80020FFF782FF07B030BD90
:102390000010024000080048000C0048FEF766F9F3
:1023A000FFF7E8F900F01AF800F022F8FCE7000067
:1023B00010B501460748FEF73EF9074C01220421FB
:1023C0002046FEF740F920460022BDE810400421D7
:1023D000FEF739B900080048000C004810B5FFF7B7
:1023E000A1FFFFF771FFBDE81040FFF77DB90000C6
:1023F000174810B50178174C491C0170012120467F
:10240000FEF714F918B94FF48070FFF7D1FF0221DD
:102410002046FEF70BF918B94FF40070FFF7C8FF1C
:1024200004212046FEF702F918B94FF48060FFF747
:10243000BFFF01214FF09040FEF7F8F8002805D1CA
:10244000BDE810404FF40060FFF7B2BF10BD0000C0
:1024500014000020000400480100020004000600EF
:1024600008000A000C00100020004000800000015D
:102470000101010307010000080402040801010131
:102480000000000000000000010203040607080924
:102490000000000001020304B8240008000000202E
:1024A0001C00000072220008D42400081C00002038
:1024B000F404000082220008000000001000000068
:1024C00001000000000000000024F40000000000F3
:0424D0000000000008
:04000005080001D915
:00000001FF
