:020000040800F2
:1000000080050020ED010008232300084B1D000897
:1000100021230008510300082934000800000000D3
:100020000000000000000000000000003B26000867
:100030005303000800000000252300083D260008A7
:10004000070200080702000807020008070200086C
:10005000070200080702000807020008070200085C
:10006000070200080702000807020008070200084C
:10007000070200080702000807020008070200083C
:10008000070200080000000007020008070200083D
:10009000070200080702000807020008070200081C
:1000A000070200080702000807020008070200080C
:1000B000ED260008F92600080702000807020008DC
:1000C00007020008070200080702000807020008EC
:1000D000070200081D340008070200080702000894
:1000E00007020008070200080702000807020008CC
:1000F00007020008070200080702000800000000CD
:1001000000000000070200080000000007020008CD
:1001100007020008000000000702000807020008AC
:10012000070200080702000807020008070200088B
:10013000070200080000000000000000070200089D
:10014000070200080702000800000000000000008D
:10015000000000000000000000000000000000009F
:10016000000000000000000000000000070200087E
:10017000070200080000000000000000000000006E
:10018000000000000702000800000000000000005E
:10019000000000000000000000000000000000005F
:1001A000000000000000000007020008070200082D
:1001B000070200080702000807020008000000000C
:1001C000000000000702000800000000000000001E
:1001D0000702000807020008DFF80CD000F0A6F8BC
:1001E000004800471D390008800500200648804768
:1001F00006480047FEE7FEE7FEE7FEE7FEE7FEE70C
:10020000FEE7FEE7FEE7FEE7DD260008D90100086D
:100210002DE9F05F0546002092469B46884606463B
:10022000814640241BE0284641464746224600F0CE
:100230006CF853465A46C01A914110D311461846DD
:10024000224600F053F82D1A67EB01084F4622466C
:100250000120002100F04AF817EB00094E41201E52
:10026000A4F10104DFDC484631462A464346BDE896
:10027000F09FD2B201E000F8012B491EFBD270477B
:100280000022F6E710B513460A4604461946FFF762
:10029000F0FF204610BD421C10F8011B0029FBD1C5
:1002A000801A704710B5002200E0521C835C8C5C01
:1002B000A34201D1002BF8D1D8B2E1B2401A10BD4F
:1002C00030B50B46014600202022012409E021FA26
:1002D00002F59D4205D303FA02F5491B04FA02F523
:1002E0002844151EA2F10102F1DC30BD202A04DBF6
:1002F000203A00FA02F1002070479140C2F1200339
:1003000020FA03F3194390407047202A04DB203A77
:1003100021FA02F00021704721FA02F3D040C2F125
:10032000200291400843194670470000064C074DD3
:1003300006E0E06840F0010394E8070098471034B5
:10034000AC42F6D3FFF74CFF184D0008384D0008BB
:10035000FEE77047002240F6B83306E00021491C52
:1003600089B29942FBD3521C92B28242F6D37047B3
:1003700072B6FEE710B590F8253000210122022B5D
:1003800003D00421C163012122E003681C6824F02A
:100390000E041C60836C1C6824F480741C60036869
:1003A0001C6824F001041C6090F84430046C03F0D5
:1003B0001F0302FA03F36360D0E913345C60436DFA
:1003C00033B11C6824F480741C60D0E916345C607E
:1003D00080F82520002280F82420084610BD70B542
:1003E00090F82520002401212346022A07D0042268
:1003F000C26380F8251080F82430012429E00268C7
:10040000156825F00E0515600268156825F00105D0
:100410001560826C156825F48075156090F844208D
:10042000056C02F01F0201FA02F26A60D0E913259E
:100430005560426D32B1156825F480751560D0E9BC
:100440001625556080F8251080F82430816B01B1A5
:100450008847204670BD000070B5044600F004F9DE
:100460000546601C02D004484068044400F0FCF8D3
:10047000401BA042FAD370BD000000202DE9FC4FC4
:10048000DFF8A0A1002301250AF1040B03244FF09B
:100490000F0C0BF1040EBDE005FA03F632406FD0ED
:1004A0004F68012F05D0022F03D0112F01D0122F3A
:1004B00017D1D0F808905F0004FA07F829EA080974
:1004C0000097D1F80C8008FA07F848EA0908C0F844
:1004D00008804768B7430E79C6F300169E403E4336
:1004E0004660C6684FEA430804FA08F7BE4301971E
:1004F0008F6807FA08F73743C7604E68022E01D0AD
:10050000122E13D1DE0800EB86060096366A5F07CE
:10051000FF0E0CFA07F926EA0906D1F8109009FA3D
:1005200007F949EA0609009EC6F820900668019F6F
:10053000BE430F7907F0030707FA08F73743076050
:100540004E68F60065D5384E376E47F001073766BE
:10055000366E23F0030706F001060096334E3E4444
:10056000B146B6689F074FEA17780CFA08F7BE4302
:10057000B0F1904F05D02E4FB84204D1012717E0BB
:1005800047E0002714E02B4FB84201D102270FE0CB
:10059000294FB84201D103270AE0284FB84201D1C0
:1005A000042705E0264FB84201D1052700E00627C1
:1005B00007FA08F73743C9F80870DAF800605746B9
:1005C000D1F8048096435FEAC83800D516433E60F0
:1005D000DBF800605F46D1F8048096435FEA883814
:1005E00000D516433E60DEF800607746D1F80480FF
:1005F00096435FEAC82800D516433E60094F0C3782
:100600003E68D1F8048096435FEA882800D51643F7
:100610003E605B1C0A6832FA03F67FF43DAFBDE82A
:10062000FC8F000000040140001002400000014067
:100630000004004800080048000C00480010004872
:10064000001400480069084000D00120704742694A
:1006500021EA02030A4043EA0241816170470AB17C
:10066000816170478162704701488068704700006F
:100670000000002002488168426811448160704790
:100680000000002010B50024032000F073F80020C3
:1006900000F008F808B1012401E000F025F8204638
:1006A00010BD000070B50E4E05460024706898B16C
:1006B0004FF47A71B1FBF0F00A490968B1FBF0F030
:1006C00000F064FD40B9102D06D200222946501ECC
:1006D00000F030F8356000E00124204670BD0000D5
:1006E000000000200C0000200A4882B0016E41F09A
:1006F00001010166016E01F001010091816D41F07F
:1007000080518165806D00F08050009002B000F053
:10071000A1B8000000100240002809DB00F01F0211
:10072000012191404009800000F1E020C0F8001153
:1007300070470000F0B40E4B1B680C46C3F3022355
:10074000C3F10705042D00D90425191D072901D27D
:10075000002300E0DB1E012606FA05F1491E2140B8
:1007600099409E40761E16403143F0BC02F072BEA6
:100770000CED00E0064900F0070208684FF6FF03A1
:10078000184040EA0220034A104308607047000006
:100790000CED00E00000FA052B492C4B0A683221D1
:1007A0004A432B4940B1B0F5007F086829D020F4B6
:1007B000C06040F480602CE00868C0F3412002284B
:1007C00004D051F8800F20F4807022E0D1F880002E
:1007D00020F48070C1F88000086820F4C06040F404
:1007E00000700860B2FBF3F0401C00E0401E4A6954
:1007F000520501D50028F9D1486940050AD50320E2
:100800007047C0F34120022806D051F8800F40F411
:100810008070086000207047D1F8800040F480703C
:10082000C1F88000086820F4C06040F400700860DF
:10083000B2FBF3F0401C00E0401E4A695205DBD5D4
:100840000028F9D1D8E700000C00002040420F003A
:10085000007000400248816841F480418160704727
:10086000007000402DE9F8430446006800269D4DC5
:1008700000035ED5A86D0027C00008D4A86D40F025
:100880008050A865A86D012700F080500090DFF827
:100890005892D9F8001041F48071C9F80010FFF7A0
:1008A000E3FE804606E000BFFFF7DEFEA0EB080097
:1008B00002282BD8D9F80000C005F5D5D5F890004E
:1008C00010F4407014D0216C814211D0D5F8900002
:1008D000D5F8901020F4407041F48031C5F89010A4
:1008E000D5F8901021F48031C5F89010C5F890002B
:1008F000C00711D0FFF7B8FE804641F2883907E003
:10090000FFF7B2FEA0EB0801494501D903260BE031
:10091000D5F890008007F3D5D5F89000216C20F42D
:1009200040700843C5F890001FB1A86D20F08050BA
:10093000A8652078C00707D0D5F88800616820F046
:1009400003000843C5F888002078800707D5D5F84C
:100950008800A16820F00C000843C5F888002078C2
:10096000400707D5D5F88800E16820F0300008433B
:10097000C5F888002078000707D5D5F888002169D8
:1009800020F0C0000843C5F888002078800607D50D
:10099000D5F88800616920F440600843C5F88800F4
:1009A0002078400607D5D5F88800A16920F440508A
:1009B0000843C5F888002078000607D5D5F88800D8
:1009C000E16920F440400843C5F888002088C0054C
:1009D00007D5D5F88800216A20F440300843C5F8CF
:1009E00088002088800507D5D5F88800616A20F442
:1009F00040200843C5F88800208840050FD5D5F869
:100A00008800A16A20F440100843C5F88800A06A55
:100A1000B0F5801F03D1E86840F48010E8602088BA
:100A200000050FD5D5F88800E16A20F4400008439E
:100A3000C5F88800E06AB0F5800F03D1E86840F49B
:100A40008010E8602088C0040FD5D5F88800216B9D
:100A500020F040700843C5F88800206BB0F1807F1B
:100A600003D1E86840F48010E86020884FF000610E
:100A700080040ED5D5F88800626B20F040601043EA
:100A8000C5F88800606B884203D1E86840F48010A4
:100A9000E860208840040ED5D5F88800A26B20F0CD
:100AA00040601043C5F88800A06B884203D1E86815
:100AB00040F48010E860208800040FD5D5F8880045
:100AC000E16B20F040500843C5F88800E06BB0F1BE
:100AD000805F03D1E86840F48030E8603046BDE8CC
:100AE000F883000000100240007000402DE9F0473C
:100AF0000E4605004FF0000725D0DFF8AC81D8F88E
:100B0000000000F00F00B0420CD2D8F8001021F025
:100B10000F013143C8F80010D8F8000000F00F00B2
:100B2000B04210D12968614CC80741F2883A5AD0C6
:100B30006868DFF87C91032808D0022820682DD04F
:100B4000400500282CDB0120BDE8F08720688001EB
:100B5000F9D5E06800F00302E068C0F30310401C20
:100B6000032A19D0534A00BFB2FBF0F0E268C2F387
:100B700006225043E268C2F34162521C5200B0FBAD
:100B8000F2F0484517D9A06810F0F00F0CD0880794
:100B900011D5A86840B10EE0474AE5E78003D0E7E9
:100BA00000F0B6F8484506D9A06820F0F00040F003
:100BB0008000A0608027A068696820F003000843D7
:100BC000A060FFF751FD814606E000BFFFF74CFD36
:100BD000A0EB090151453AD8A068696800F00C0003
:100BE000B0EB810FF2D12868810714D5400703D5F7
:100BF000A06840F4E060A0602878000705D5A068F0
:100C000020F4605040F4E060A060A068A96820F083
:100C1000F000084304E0802F03D1A06820F0F0002A
:100C2000A060D8F80010404601F00F01B14216D97B
:100C3000016821F00F0131430160FFF715FD074600
:100C400007E000BFFFF710FDC11B514501D903208C
:100C50007AE7D8F8000000F00F00B042F2D128780F
:100C6000400705D5A068E96820F4E0600843A0606B
:100C70002878000706D5A068296920F4605040EA6A
:100C8000C100A06000F044F8A1680C4AC1F3031150
:100C9000515C01F01F01C84009490860094800681B
:100CA000BDE8F047FFF7FEBC002002400010024004
:100CB00000B4C4040024F40000366E01303B000888
:100CC0000C000020000000200548064900688968E3
:100CD000054AC1F30221515C01F01F01C840704771
:100CE0000C00002000100240403B00080548064967
:100CF00000688968054AC1F3C221515C01F01F01F7
:100D0000C84070470C00002000100240403B000823
:100D1000184910B58868C0F381021748012A0BD022
:100D20008A68164BC2F38102022A06D08A68C2F38F
:100D30008102032A03D0002010BD184610BDCA68E6
:100D400002F00304CA68C2F30312521C032C02D03F
:100D5000B0FBF2F001E0B3FBF2F0CA68C968C2F37D
:100D600006225043C1F34161491C4900B0FBF1F038
:100D700010BD0000001002400024F40000366E0197
:100D80002DE9F84304007AD02078FA4DC00747D007
:100D9000A868E96800F00C0001F003010C2802D0FB
:100DA000082817D001E0032914D06068B0F5803F0F
:100DB00017D0B0F5A02F286817D020F48030286015
:100DC000286820F4802028606068E0B1FFF74CFCC0
:100DD000064614E02868800322D560680028D2D037
:100DE0001EE0286840F48030EDE740F48020286061
:100DF000F7E700BFFFF738FC801B642870D828682D
:100E00008003F7D50CE0FFF72FFC064605E000BF96
:100E1000FFF72AFC801B6428F0D828688003F7D4E9
:100E2000207880074CD5A868E96800F00C0001F034
:100E300003010C2802D004280DD001E002290AD0B9
:100E4000E068002828682BD040F480702860FFF705
:100E50000BFC064619E02868400502D5E06800282A
:100E600091D06868217C20F0FE4040EA0160686013
:100E7000C1480068FFF716FC002800D120E076E1A9
:100E8000FFF7F2FB801B0228B8D828684005F7D589
:100E90006868217C20F0FE4040EA016068600FE055
:100EA00020F480702860FFF7DFFB064605E000BFF6
:100EB000FFF7DAFB801B0228A0D828684005F7D48A
:100EC0002078000729D560690028D5F8940013D050
:100ED00040F00100C5F89400FFF7C6FB064606E0A7
:100EE00090E000BFFFF7C0FB801B022886D8D5F832
:100EF00094008007F6D510E020F00100C5F89400BA
:100F0000FFF7B2FB064604E0FFF7AEFB801B0228AA
:100F100078D8D5F894008007F6D42078400761D5BA
:100F2000A86D0026C00008D4A86D40F08050A865C8
:100F3000A86D012600F08050009090480168C90516
:100F400011D40168804641F480710160FFF78CFB89
:100F5000074604E0FFF788FBC01B022852D8D8F8E8
:100F60000000C005F6D5A068012815D00528D5F8E1
:100F7000900016D020F00100C5F89000D5F8900040
:100F800020F00400C5F89000A06841F28838B8B19C
:100F9000FFF76AFB07460EE0D5F8900040F001002D
:100FA000F0E740F00400C5F89000F5E7FFF75CFBC0
:100FB000C11B414526D8D5F890008007F6D50CE036
:100FC000FFF752FB074604E0FFF74EFBC11B41450C
:100FD00018D8D5F890008007F6D41EB1A86D20F07F
:100FE0008050A8652078800629D5A0690028D5F80A
:100FF000980013D040F00100C5F89800FFF734FBCB
:10100000064606E077E000BFFFF72EFB801B0228B4
:1010100077D8D5F898008007F6D510E020F00100C9
:10102000C5F89800FFF720FB064604E0FFF71CFB1D
:10103000801B022865D8D5F898008007F6D4E069AF
:10104000F0B3A968C1F38101032961D0022828689F
:1010500020F0807028600BD0E86820F00300E86082
:10106000E86847490840E860FFF7FEFA04464BE0AD
:10107000FFF7FAFA064604E0FFF7F6FA801B0228AB
:101080003FD828688001F7D4F4E908016FF00F0217
:1010900002EB01110843218A5204490802EB415135
:1010A000A26841EA02210843217D4FF07E424908AF
:1010B00002EB41610843217B40EAC160E96800E03E
:1010C00062E0304A11400843E860286840F08070D0
:1010D0002860E86840F08070E860FFF7C5FA0446D1
:1010E00005E000BFFFF7C0FA001B022809D82868F6
:1010F0008001F7D548E004E0FFF7B6FA001B0228AC
:1011000002D90320BDE8F88328688001F4D43BE0CD
:101110000128F7D0E868226A00F00301914226D145
:10112000616A00F0F0020901103991421FD1A26AF0
:1011300000F4FE41B1EB022F19D194F82C2000F0FD
:101140007841B1EBC26F12D1218E00F4C002490880
:101150004905A1F50011914209D194F8341000F02D
:10116000C06049084906A1F1007181420CD00120FC
:10117000C8E700000010024000000020007000409E
:10118000FFFFEEFE0C809F010020BBE710B5401E64
:10119000B0F1807F01D3012010BD4FF0E0246061E9
:1011A0000F21601702F056F90020A061072020618E
:1011B000002010BD704770477047704770477047F8
:1011C000F0B590F83C20012A3AD0012580F83C5037
:1011D000022280F83D2003685A689C68194E1A4F15
:1011E000B34201D0BB4204D122F4700C4A6842EAF7
:1011F0000C02DFF858C002EA0C02D1F800C04CEA39
:10120000020CC3F804C00268B2420DD0B2F1804FA4
:101210000AD00F4B9A4207D00E4B9A4204D0BA42E2
:1012200002D00D4B9A4204D1896824F080031943FF
:10123000916080F83D50002180F83C100846F0BDD8
:101240000220F0BD002C0140003401408FFFFFFD63
:10125000000400400008004000400140704790F842
:101260003C20012A0CD0012200F83C2F02234370BD
:1012700050F83C3C596142700021017008467047AB
:1012800002207047704770B50446006801694FF04E
:101290000005C943890715D4C168C943890711D41A
:1012A000E91E0161012020772068806980072046BF
:1012B00002D0FFF7E7FF04E000F01EF9204600F03F
:1012C0000DFA257720680169C943490717D4C16819
:1012D000C943490713D46FF004010161022020774C
:1012E0002068806910F4407F204602D0FFF7CAFFD3
:1012F00004E000F001F9204600F0F0F925772068BD
:101300000169C943090716D4C168C943090712D442
:101310006FF008010161042020772068C069800710
:10132000204602D0FFF7AEFF04E000F0E5F82046CB
:1013300000F0D4F9257720680169C943C90617D49C
:10134000C168C943C90613D46FF0100101610820B8
:1013500020772068C06910F4407F204602D0FFF754
:1013600091FF04E000F0C8F8204600F0B7F92577B7
:1013700020680169C943C90708D1C168C943C907C1
:1013800004D1891E0161204600F028FA2068016915
:10139000C943090609D4C168C943090605D46FF0D9
:1013A000800101612046FFF706FF20680169C943FB
:1013B000C90509D4C168C943090605D46FF4807111
:1013C00001612046FFF7F6FE20680169C94349061E
:1013D00009D4C168C943490605D46FF040010161D1
:1013E000204600F0FCF920680169C943890609D448
:1013F000C168C943890605D46FF020010161204608
:10140000FFF7DAFE20680169C943C90209D4C1683F
:10141000C943C90205D46FF4801101612046FFF76A
:10142000CDFE20680169C943890209D4C168C94356
:10143000890205D46FF4001101612046FFF7BDFE5B
:1014400020680169C943490209D4C168C9434902F6
:1014500005D46FF4800101612046FFF7B0FE2068DB
:101460000169C94309020BD4C168C943090207D401
:101470006FF4000101612046BDE87040FFF7EEBE49
:1014800070BD000030B587B0044614216846FEF7F1
:10149000F7FE24680021164A02234FF09040B4F171
:1014A000804F15D0134DAC4210D1D46C44F00104E0
:1014B000D464D26C02F00102059280220092CDE940
:1014C0000131CDE903136946FEF7D8FF07B030BDFF
:1014D000D46C44F00104D464D26C0093CDE90131A2
:1014E000039102F001020121CDE90412EBE70000B3
:1014F0000010024000040040704770B5044690F8A8
:101500003C000D4601280BD0012084F83C000C2A39
:1015100045D007DC5AB1042A1BD0082A78D12CE028
:10152000022070BD102A4ED0142A71D15DE02068CF
:1015300001F04EF92068816941F00801816120685D
:10154000816921F004018161206881692A69114360
:1015500011E0206801F08AF92068816941F4006196
:1015600081612068816921F48061816120688169DD
:101570002A6941EA022181614AE0206801F0BEF94E
:101580002068C16941F00801C1612068C16921F08A
:101590000401C1612068C1692A69114311E0206812
:1015A00001F0F4F92068C16941F40061C16120686B
:1015B000C16921F48061C1612068C1692A6941EA79
:1015C0000221C16124E0206801F028FA2068016D41
:1015D00041F0080101652068016D21F004010165F9
:1015E0002068016D2A69114311E0206801F04EFA6C
:1015F0002068016D41F4006101652068016D21F4EE
:10160000806101652068016D2A6941EA0221016556
:10161000002084F83C0070BD10B5040003D094F89D
:101620003D0010B107E0012010BD002084F83C000F
:10163000204600F023F8022084F83D00211D206898
:1016400001F060F8012084F8480084F83E0084F836
:101650003F0084F8400084F8410084F8420084F898
:10166000430084F8440084F8450084F8460084F878
:10167000470084F83D00002010BD000008B5016857
:101680001448B1F1804F14D0134A914220D1816D9A
:1016900041F002018165806D002200F0020000909F
:1016A00002211D20FFF746F81D20BDE80840FFF786
:1016B00033B8816D41F001018165806D002200F039
:1016C0000100009002211C20FFF734F81C20ECE7F9
:1016D00008BD0000001002400004004070470000F8
:1016E00030B50446022269B1042912D0082917D066
:1016F0000C291CD0102921D094F84300012824D0B3
:10170000012030BD94F83E000128F9D184F83E2034
:101710001DE094F83F000128F2D184F83F2016E044
:1017200094F840000128EBD184F840200FE094F8B1
:1017300041000128E4D184F8412008E094F84200F7
:101740000128DDD184F8422001E084F84320012201
:10175000206801F02FF8194B20681949194A98425E
:1017600009D0884207D0904205D0174DA84202D038
:10177000164DA84203D1456C45F4004545642068E8
:1017800098420CD0B0F1804F09D0114B984206D04E
:10179000104B984203D0884201D0904207D1816813
:1017A0000D4A1140062906D0B1F5803F03D00168EB
:1017B00041F001010160002030BD0000002C01401B
:1017C0000034014000400140004401400048014015
:1017D0000004004000080040070001007047704707
:1017E00090F88010012918D0012180F88010242160
:1017F000C0F8841050F8641B0A680B6823F00103DA
:101800000B6022F000510022026050F8643C196025
:10181000202101620277104670470220704770470E
:10182000704770B5044690F8800001281DD0012053
:1018300084F880002420C4F88400206805680268C9
:1018400022F0010202602068826822F060620A438E
:101850008260204601F052F9206805602020C4F81B
:101860008400002084F8800070BD022070BD70B537
:10187000044690F8800001281DD0012084F88000E3
:101880002420C4F8840020680568026822F0010260
:1018900002602068826822F060420A43826020462B
:1018A00001F02CF9206805602020C4F88400002095
:1018B00084F8800070BD022070BD7047704770478B
:1018C0002DE9F04103680446D86919689A6840F622
:1018D0000F0528424FF0000509D186067ED501F09C
:1018E000200602F080573E4378D0216FFFE0924EF1
:1018F000924F16400F40374370D0C70709D0CF052D
:1019000007D501271F62D4F88C3043F00103C4F8D7
:101910008C3083070AD5D30708D0276802233B629F
:10192000D4F88C3043F00403C4F88C3043070AD554
:10193000D30708D0276804233B62D4F88C3043F0E7
:101940000203C4F88C3003070CD501F020033343A5
:1019500008D0266808233362D4F88C3043F008039B
:10196000C4F88C3003050BD54B0109D526684FF41C
:1019700000633362D4F88C3043F02003C4F88C3019
:10198000D4F88C30002B34D0800609D501F020002B
:1019900002F08051084303D0216F09B120468847E7
:1019A000D4F88C0021688968490602D410F0280F09
:1019B00021D0204601F062F920688168490615D5DA
:1019C000816821F040018160E06F78B15C498163FA
:1019D000E06FFEF704FD00280BD000E011E0E06F9F
:1019E000816B00E02046BDE8F04108472046FFF744
:1019F00066FFBDE8F0812046FFF761FFC4F88C5018
:101A0000F7E7E76E2026012F5CD1C7065AD5CF062F
:101A100058D5102018622068816849062FD5E26FDA
:101A2000116849680904090CE3D0B4F85C308B42B2
:101A3000DFD9A4F85E1011680968890618D4016816
:101A400021F4807101602068816821F001018160CA
:101A50002068816821F040018160C4F88860E566F3
:101A60002068016821F010010160E06FFEF782FC40
:101A7000B4F85C00B4F85E10401A81B21EE0B4F80D
:101A80005C10B4F85E20891AB4F85E2089B2002A8E
:101A9000AFD00029ADD0026822F4907202602068B5
:101AA0008268254BDB431A408260C4F88860E56693
:101AB00025672068026822F0100202602046FFF7C6
:101AC000AEFE96E7C70209D5570207D54FF480103E
:101AD00018622046BDE8F041FFF7F0BE07060AD5C0
:101AE00001F0800702F40002174304D0616F00295F
:101AF0007FF478AF7DE742060CD54A060AD519680F
:101B0000204621F040011960C4F88460656700F048
:101B10001BF96EE7020206D54A0004D52046BDE84F
:101B2000F041FFF7CABEC001CBD50029C9DA204673
:101B3000BDE8F041FFF774BE010000102001000471
:101B4000692C000810B5040003D0D4F8840010B14B
:101B500007E0012010BD002084F88000204600F03E
:101B600027F82420C4F884002068016821F00101CE
:101B70000160204601F05AFA0128EBD0A06A10B1AA
:101B8000204600F0DDFF2068416821F4904141606B
:101B90002068816821F02A0181602068016841F095
:101BA000010101602046BDE8104001F02DB80000A1
:101BB00010B586B0044614216846FEF761FB17494C
:101BC0002068884227D11648016E41F480410166A1
:101BD000016E01F480410591C16C41F00101C164C5
:101BE000C06C694600F0010005904FF4C0600090A1
:101BF00002200190002002900390072004904FF0F3
:101C00009040FEF73BFC002201212520FEF792FDCB
:101C10002520FEF781FD06B010BD00000038014010
:101C20000010024010B4D0F88830202B1BD1B9B17D
:101C3000B2B190F88030012B15D0012380F88030AC
:101C40000023C366094C0368A34206D05C682402E3
:101C500003D51C6844F080641C6010BC01F020BBFC
:101C6000012010BC70470220FBE70000008000400C
:101C7000044A0168914203D101220349FFF7D2BF10
:101C80007047000000380140100000202DE9F843A3
:101C90000446D0F884001F4616460D46202851D130
:101CA000DDB1D6B194F8800001284BD0012084F832
:101CB00080004FF00008C4F88C802120C4F8840014
:101CC0001834FEF7D1FCA6878146E68754F8100C3D
:101CD000183CB0F5805F03D004E00120BDE8F88334
:101CE000206920B12E46002584F8808010E000266F
:101CF000FAE78021204601F03FFBB8B9C6B116F8DB
:101D0000010B21688862B4F85600401EA4F8560002
:101D1000B4F856004B464FF0000200970028E8D177
:101D20004FF04001204601F027FB30B10320D5E7FA
:101D300035F8020BC0F30800E3E72020C4F8840064
:101D40000020CBE70220C9E77047FEE700B585B069
:101D500014216846FEF794FA4FF6FF7000900020B9
:101D60000321CDE90201019069460248FEF786FB96
:101D700005B000BD0008004800B585B014216846D4
:101D8000FEF77EFA4FF6FF700090012001900320CD
:101D900003900020029069460248FEF76FFB05B0F1
:101DA00000BD00000008004870B50024064621462A
:101DB000204600F0FBF800F035F94FF49635304638
:101DC00000F000F9641CAC42F9D370BD30B587B0A7
:101DD00014216846FEF754FA1E48C16C41F0040114
:101DE000C164C16C01F004010591C16C41F00101B5
:101DF000C164C16C01F001010591C16C41F00201A7
:101E0000C164C06C012500F0020005904FF44870D9
:101E1000CDE9000500240394694602940E48FEF7BC
:101E20002DFB280203940090CDE901544FF090441B
:101E300069462046FEF722FBFFF79EFFA06940F4AB
:101E40008070A06104481830016841F40871016095
:101E500007B030BD0010024000040048203AD2B262
:101E6000034B02EB420203EB021200F019B8000030
:101E7000483B0008F0B50E460746002540F23F14E7
:101E800007E021463846FFF7E9FF103C6D1CA4B27D
:101E9000761C3278002A01D0142DF2D3F0BD000058
:101EA0002DE9F04791468A460026044600F07EF868
:101EB000DFF84080012700BF00F0B4F85FF00005B4
:101EC00039F8160007FA05F10842404601D140886A
:101ED00000E0008800F076F86D1C102DF0D3641C33
:101EE000E4B25146204600F061F8761C182EE3D388
:101EF000BDE8F0874E00002010B5FFF767FF002017
:101F000000F014F8084CA080A088A0F502413039F8
:101F100006D000F091FA002000F008F8A08010BD73
:101F200000F001FAF7E700004E00002070B51D49EF
:101F30000A6842F400720A600A6842F480720A6019
:101F4000184C103C226842F020022260164A1060B1
:101F5000086840F02000086000BF00BF00BF206894
:101F600040F020002060206840F480702060FFF77F
:101F7000EDFE4FF09041886A40F48070886200BFA7
:101F800000BF00BF0848001F006885B2886940F4A0
:101F900080708861FFF7F0FE206840F400702060D8
:101FA000284670BD280400481408004810B50C46A7
:101FB0000146202000F068F82146BDE810402120AD
:101FC00000F062B830B5154B1968154A8CB211682B
:101FD00041F400711160124910390D6845F48075A3
:101FE0000D600D6845F020050D601860106840F028
:101FF0002000106000BF00BF00BF086840F0200054
:102000000860086840F48070086000BF00BF00BF2F
:10201000086840F4007008601C6030BD1408004877
:1020200028040048164A10B51068164983B208689B
:1020300040F400700860086840F48070086011483F
:102040001038046844F020040460222414600C68F2
:1020500044F020040C6000BF00BF00BF016841F0E5
:1020600020010160016841F48071016000BF00BF80
:1020700000BF016841F400710160136010BD0000F1
:10208000140800482804004870B51A4C22681A4BFE
:1020900095B21A6842F400721A601A6842F48072AB
:1020A0001A60154A103A166846F02006166020603D
:1020B000186840F02000186000BF00BF00BF106823
:1020C00040F020001060106840F4807010602160C3
:1020D000186840F02000186000BF00BF00BF106803
:1020E00040F020001060106840F48070106025609F
:1020F00070BD00001408004828040048F0B587B0FF
:1021000014216846FEF7BCF82D48C16C41F004016B
:10211000C164C16C01F004010591C16C41F0200162
:10212000C164C16C01F020010591C16C41F0010155
:10213000C164C16C01F001010591C16C41F0020163
:10214000C164C16C01F002010591C16C41F008014C
:10215000C164C06C1B4E00F008004FF47F44059032
:10216000002221463046FEF77AFA174F002204215A
:102170003846FEF774FA0125CDE9004500240294A3
:10218000694630460394FEF779F9CDE90054694673
:102190004FF090400295FEF771F907208DE831006D
:1021A00069460A48FEF76AF904200090CDE9015417
:1021B000694638460394FEF761F907B0F0BD0000A8
:1021C0000010024000080048000C004800040048CD
:1021D00010B58AB00024079408941C21684609941D
:1021E000FEF74EF816484FF0804101604F21C0E9DC
:1021F000011440F2E731C0E903148461FFF70CFADF
:1022000008B1FEF7B5F8079407A90D480994FEF741
:10221000D7FF08B1FEF7ACF8602000906420CDE94C
:1022200001040422694606480494FFF766F908B1E0
:10223000FEF79EF80248FFF725F90AB010BD00002E
:102240005400002010B58AB00024079408941C2183
:1022500068460994FEF714F81648154901604F21A5
:10226000C0E9011440F2E731C0E903148461FFF7CB
:10227000D3F908B1FEF77CF8079407A90D48099433
:10228000FEF79EFF08B1FEF773F86020009064200F
:10229000CDE901040422694606480494FFF72DF9AC
:1022A00008B1FEF765F80348FFF7ECF80AB010BD77
:1022B00000040040A0000020184810B51649016035
:1022C0004FF416514160002181600C22C160C0E9C9
:1022D00004128161C161016241628162FFF732FCD7
:1022E00008B1FEF745F800210C48FFF7C0FA08B125
:1022F000FEF73EF800210948FFF793FA08B1FEF710
:1023000037F80648FFF76CFA002803D0BDE8104004
:10231000FEF72EB810BD000000380140EC00002090
:10232000FEE7FEE7704730B501210020FFF7ACFE65
:102330004FF47A70FEF70EF800210120FFF7A4FE9B
:1023400041F290711020FFF79FFE4FF41C51602066
:10235000FFF79AFE01216120FFF796FE0221462039
:10236000FFF792FE48F210011320FFF78DFE48F2AE
:10237000FE011220FFF788FE4FF4A0610220FFF754
:1023800083FE41F230010320FFF77EFE40F203346A
:1023900021463020FFF778FE21463120FFF774FEFA
:1023A00021463220FFF770FEE51E29463320FFF755
:1023B0006BFE03213420FFF767FE21463520FFF72F
:1023C00063FE14213620FFF75FFE21463720FFF71A
:1023D0005BFE21463820FFF757FE21463920FFF7E4
:1023E00053FE29463A20FFF74FFE03213B20FFF71B
:1023F0004BFE21463C20FFF747FE4FF4A0513D2005
:10240000FFF742FE4FF400719220FFF73DFE214698
:102410009320FFF739FE40F60D019020FFF734FEC0
:1024200041F218010320FFF72FFEBDE8304040F2D3
:1024300073110720FFF728BE10B543F20801E3200F
:10244000FFF722FE1221E720FFF71EFE41F23121A5
:10245000EF20FFF719FE00210120FFF715FE4FF4D2
:10246000E0610220FFF710FE41F230010320FFF788
:102470000BFE00210420FFF707FE40F20721082091
:10248000FFF702FE00210920FFF7FEFD00210A20D0
:10249000FFF7FAFD00210C20FFF7F6FD00210D20CB
:1024A000FFF7F2FD00210F20FFF7EEFD00211020C5
:1024B000FFF7EAFD07211120FFF7E6FD00211220BA
:1024C000FFF7E2FD00211320FFF7DEFDC820FDF736
:1024D000C3FF41F290611020FFF7D6FD40F22721A3
:1024E0001120FFF7D1FD3220FDF7B6FF1D2112208C
:1024F000FFF7CAFD3220FDF7AFFF4FF40061132054
:10250000FFF7C2FD14212920FFF7BEFD0B212B2070
:10251000FFF7BAFD3220FDF79FFF00212020FFF7D3
:10252000B3FD00212120FFF7AFFD07213020FFF789
:10253000ABFD40F207713120FFF7A6FD06213220E6
:10254000FFF7A2FD40F204713520FFF79DFD41F633
:1025500004713620FFF798FD04213720FFF794FD22
:1025600000213820FFF790FD40F206713920FFF777
:102570008BFD40F201713C20FFF786FD0F213D20CD
:10258000FFF782FD00215020FFF77EFDEF21512053
:10259000FFF77AFD00215220FFF776FD40F23F1150
:1025A0005320FFF771FD4FF41C516020FFF76CFDC5
:1025B00001216120FFF768FD00216A20FFF764FD1B
:1025C00000218020FFF760FD00218120FFF75CFDE6
:1025D00000218220FFF758FD00218320FFF754FDE2
:1025E00000218420FFF750FD00218520FFF74CFDDE
:1025F00010219020FFF748FD00219220FFF744FDB5
:1026000003219320FFF740FD4FF488719520FFF7D9
:102610003BFD00219720FFF737FD00219820FFF7B1
:1026200033FD41F218010320FFF72EFDBDE81040F5
:1026300040F273110720FFF727BD7047064908884D
:10264000642801D2401C08804888642801D2401CBC
:102650004880FEF70FB800001800002030B5A5B084
:1026600038216846FDF70CFE14211FA8FDF708FE6F
:1026700044210EA8FDF704FE4FF40070FEF78CF81D
:1026800001252804CDE9005002200324CDE90704E8
:102690001421CDE90A100C900D9009946846FEF7BC
:1026A0006FFB08B172B6FEE70F20CDE91F040024CE
:1026B0002194229402211FA82394FEF717FA08B14F
:1026C00072B6FEE7CDE90E540EA8FEF7CBF800284F
:1026D00001D072B6FEE725B030BD000002480168A7
:1026E00041F470010160704788ED00E00148FEF799
:1026F000CABD0000540000200148FEF7C4BD000020
:10270000A00000202DE9F0430268234B234D244E06
:10271000244C4FF08049984207D0484505D0A84244
:1027200003D0B04201D0A04203D122F070074A6822
:102730003A431D4FDFF874C0DFF8748098420DD023
:1027400048450BD0A84209D0B04207D0A04205D0DE
:10275000B84203D0604501D0404503D122F4407512
:10276000CA682A434D6922F080022A4302608A68BF
:10277000C2620A688262984207D0A04205D0B8427D
:1027800003D0604501D0404501D1096901630121B1
:102790004161BDE8F0830000002C014000040040CE
:1027A0000008004000340140004001400044014066
:1027B0000048014010B501F01F030121046A99404F
:1027C0008C430462016A9A401143016210BD00000B
:1027D0002DE9F043026A22F001020262056A4368B1
:1027E00082691C4C25F0020522400C6822F003028D
:1027F00014438A68194E2A43174D194FDFF864C0F5
:10280000DFF86490A84207D0B04205D0B84203D0A8
:10281000604501D0484506D122F00808CA6842EA5E
:10282000080222F00402A84207D0B04205D0B84204
:1028300003D0604501D0484505D14D6923F440736C
:102840001D438B692B434360846149684163026285
:10285000BDE8F0838FFFFEFF002C014000340140F3
:10286000004001400044014000480140F0B5026AC8
:1028700022F010020262056A42688369194C1B4EFD
:1028800023400C6823F4407343EA042425F020031A
:102890008D6843EA0513144DA84201D0B04206D119
:1028A000CF6823F0800343EA071323F04003A842D4
:1028B0000AD0B04208D00E4DA84205D00D4DA84216
:1028C00002D00D4DA84207D14D6922F4406242EA80
:1028D00085028D6942EA85024260846149688163AC
:1028E0000362F0BDFF8FFFFE002C01400034014069
:1028F000004001400044014000480140F0B5026A38
:1029000022F480720262056A4368C269194C1B4E48
:1029100022400C6822F00302144325F400728D68F3
:1029200042EA0522144DA84201D0B04206D1CF6838
:1029300022F4006242EA072222F48062A8420AD00E
:10294000B04208D00E4DA84205D00E4DA84202D08C
:102950000D4DA84207D14D6923F4405343EA0513B6
:102960008D6943EA05134360C4614968C16302622B
:10297000F0BD00008FFFFEFF002C0140003401403D
:10298000004001400044014000480140F0B5026AA7
:1029900022F480520262056A4268C369194C1B4ED8
:1029A00023400C6823F4407343EA042425F40053C5
:1029B0008D6843EA0533144DA84201D0B04206D1D8
:1029C000CF6823F4004343EA073323F48043A8424B
:1029D0000AD0B04208D00E4DA84205D00D4DA842F5
:1029E00002D00D4DA84207D14D6922F4404242EA7F
:1029F00085128D6942EA85124260C46149680164AA
:102A00000362F0BDFF8FFFFE002C01400034014047
:102A100000400140004401400048014030B5026AD6
:102A200022F480320262046A4268036D114D2B4029
:102A30000D681D4324F400330C8943EA04430E4C13
:102A4000A0420BD00D4CA04208D00D4CA04205D0A6
:102A50000C4CA04202D00C4CA04204D14C6922F490
:102A6000803242EA0422426005654968816403625B
:102A700030BD00008FFFFEFF002C014000340140FC
:102A800000400140004401400048014030B5026A66
:102A900022F480120262046A4268036D114D24F42C
:102AA00000142B400D6843EA05230D8944EA0554C0
:102AB0000D4DA8420BD00D4DA84208D00C4DA84298
:102AC00005D00C4DA84202D00B4DA84204D14D694F
:102AD00022F4802242EA8522426003654968C1648B
:102AE000046230BDFF8FFFFE002C01400034014026
:102AF00000400140004401400048014030B5416EB3
:102B0000B9B1026891689268C1F342610B4B520FF0
:102B10009C5CE50003F10804A25CB5FBF2F2A0F8AE
:102B20006A205A5C615CD200B2FBF1F1A0F8681037
:102B300030BD0121A0F86A10F8E70000203B000832
:102B400090F82810C90706D001684A68C36A22F4C1
:102B500000321A434A6090F82810890706D50168A8
:102B60004A68036B22F480321A434A6090F82810B6
:102B7000490706D501684A68436B22F480221A434C
:102B80004A6090F82810090706D501684A68836BE7
:102B900022F400421A434A6090F82810C90606D56C
:102BA00001688A68C36B22F480521A438A6090F8E5
:102BB0002810890606D501688A68036C22F4005241
:102BC0001A438A6090F82810490611D501684A68AE
:102BD000436C22F480121A434A60416CB1F5801FA5
:102BE00006D101684A68836C22F4C0021A434A6025
:102BF00090F82810090606D501684A68C06C22F4CE
:102C0000002202434A607047F8B500260446C0F827
:102C10008C60FDF729FD0546206800686FF07E474F
:102C2000000708D52B4600224FF4001120460097DC
:102C300000F0A2FB60B92068006840070AD52B4667
:102C400000224FF480012046009700F095FB08B168
:102C50000320F8BD2020C4F88400C4F8880044F89C
:102C60006C6F00202675F8BD10B5806A0021A0F8B1
:102C70005E10A0F85610FEF722FE10BD01680A682B
:102C800022F490720A6001688A68094B1A408A60CF
:102C9000C16E012904D101680A6822F010020A609D
:102CA0002021C0F888100021C1660167704700002C
:102CB000FEFFFFEF70B5B0F86010D0F88820044632
:102CC0000068222A04D0816941F00801816170BD49
:102CD000406AA26D08401080A06D801CA065B4F809
:102CE0005E00401EA4F85E00B4F85E000028EED13D
:102CF0002068016821F4907101602068816821F0EA
:102D0000010181602020C4F8880000252567E06E5D
:102D1000012804D02046FEF7ABFFE56670BD2068B1
:102D2000016821F010010160B4F85C102046FEF744
:102D300076FDF2E72DE9F0470446B0F860600068E0
:102D4000C569D0F800A0D0F80880D4F888102229EE
:102D500005D0816941F008018161BDE8F087B4F8D0
:102D600068704FF000095BE02068406AA16D304058
:102D70000880A06D801CA065B4F85E00401EA4F819
:102D80005E002068C569690730D0E9070AD05FEAAC
:102D9000CA5107D501210162D4F88C0040F001002E
:102DA000C4F88C00A8070BD55FEAC87008D021686A
:102DB00002200862D4F88C0040F00400C4F88C00B3
:102DC00068070BD55FEAC87008D021680420086244
:102DD000D4F88C0040F00200C4F88C00D4F88C00C9
:102DE00020B12046FEF76BFDC4F88C90B4F85E006D
:102DF000B0B92068016821F48071016020688168A1
:102E0000194A114081602020C4F88800C4F87090ED
:102E1000E06E01281CD02046FEF72AFFC4F86C9013
:102E20000FB1A806A0D4B4F85E00002895D0B4F87D
:102E30006810814291D92068816821F080518160B9
:102E40000A4820672068016841F02001016084E79A
:102E50002068016821F010010160B4F85C10204680
:102E6000FEF7DDFCDAE70000FEFFFFEFB52C0008FF
:102E700070B5B0F86010D0F8882004460068222AA7
:102E800004D0816941F00801816170BD406A084049
:102E9000A16D0870A06D401CA065B4F85E00401ED6
:102EA000A4F85E00B4F85E000028EED12068016846
:102EB00021F4907101602068816821F00101816036
:102EC0002020C4F8880000252567E06E012804D082
:102ED0002046FEF7CDFEE56670BD2068016821F052
:102EE00010010160B4F85C102046FEF798FCF2E790
:102EF0002DE9F0470446B0F860600068C569D0F875
:102F000000A0D0F80880D4F88810222905D0816963
:102F100041F008018161BDE8F087B4F868704FF0B6
:102F200000095BE02068406AA16D30400870A06D28
:102F3000401CA065B4F85E00401EA4F85E00206846
:102F4000C569690730D0E9070AD05FEACA5107D5D9
:102F500001210162D4F88C0040F00100C4F88C001B
:102F6000A8070BD55FEAC87008D021680220086264
:102F7000D4F88C0040F00400C4F88C0068070BD52E
:102F80005FEAC87008D0216804200862D4F88C0079
:102F900040F00200C4F88C00D4F88C0020B1204628
:102FA000FEF78DFCC4F88C90B4F85E00B0B92068D0
:102FB000016821F48071016020688168194A11401C
:102FC00081602020C4F88800C4F87090E06E012869
:102FD0001CD02046FEF74CFEC4F86C900FB1A8063A
:102FE000A0D4B4F85E00002895D0B4F868108142EF
:102FF00091D92068816821F0805181600A4820675A
:103000002068016841F02001016084E720680168C0
:1030100021F010010160B4F85C102046FEF7FFFBC0
:10302000DAE70000FEFFFFEF712E00082DE9F04106
:103030000446016880682269E369104362690025DB
:103040001A431043DFF82CC20A688B4B1A40024324
:103050000A6020684168E26821F4405111434160F0
:103060002168A069614501D0226A10438A68834BB8
:103070001A4002438A602068C16A626A21F00F0127
:103080001143C1627E4923687E488B420DD1D0F83E
:10309000880010F0030006D0012855D0022842D045
:1030A00003283FD152E001203DE077498B420BD10C
:1030B000D0F8880010F00C0035D0042833D0082850
:1030C00040D00C282ED141E070498B420BD1D0F872
:1030D000880010F0300026D0102835D0202831D0BC
:1030E00030281FD132E06A498B420BD1D0F88800DA
:1030F00010F0C00017D0402826D0802822D0C02849
:1031000010D123E063450DD1D0F8880010F4406061
:1031100009D0B0F5806F17D0B0F5006F12D0B0F5C0
:10312000406F13D010205B4A5B4F00264FF40041E4
:10313000634539D160B102280DD004280DD008288C
:1031400031D10EE00220EEE70420ECE70820EAE7A8
:10315000FDF7BAFD03E0114603E0FDF7D9FD0100DC
:103160007DD0606A37F810206768B1FBF2F007EB9A
:10317000470383426CD8B0EB073F69D80023084669
:103180001946FDF745F8090241EA10610202780884
:10319000101871413A460023FDF73AF83F4AA0F56E
:1031A0004071914259D953E0E3694FF6EF788B4271
:1031B0002DD109284CD2DFE800F005080D4B274B34
:1031C0004B4B0E00FDF780FD01E0FDF78FFD010088
:1031D00001D144E01146606A37F81000B1FBF0F00D
:1031E0004100606801EB5001B1FBF0F080B2A0F14A
:1031F000100141452CD84FF6F0710140C0F3420058
:1032000001432068C1602AE0FDF782FDDFE709285D
:103210001ED2DFE800F005080D1D1F1D1D1D0E004C
:10322000FDF752FD01E0FDF761FD010001D116E05F
:103230001146606A37F81000B1FBF0F1606801EBED
:103240005001B1FBF0F080B2A0F11001414504D96A
:10325000012504E0FDF75CFDE7E72168C860012077
:10326000A4F86A0024F8680F2846A660E660BDE866
:10327000F081000000800040F369FFCFFFF4FF11F0
:103280000038014000100240004400400048004067
:10329000004C00400024F400083B0008FFFC0F0035
:1032A00070B58165A0F85C20A0F85E200021016760
:1032B00083684FF48056FF24B34204D10369D3B925
:1032C00040F2FF131DE07F259BB1B3F1805F15D065
:1032D000A0F86010C0F88C102223C0F88830036872
:1032E0009C6844F001049C60436EB3F1005F0ED013
:1032F00027E0036943B9A0F86040EBE703691BB11D
:103300003F23A0F86030E5E7A0F86050E2E7B0F8AE
:103310006830934215D88268B24201D1026972B115
:10332000114A026780F8801001680A6842F48072CE
:103330000A600068816841F0805181600FE00B4AAB
:10334000EFE78268B24201D1026952B1084A0267CE
:1033500080F880100068016841F4907101600020DD
:1033600070BD044AF3E70000F12E0008352D000877
:10337000712E0008B52C00082DE9F0479A46174633
:103380000E4604464FF000094FF02008089D39E032
:10339000681C37D0FDF768F9A0EB0A00A84222D8D4
:1033A0000DB32068016849072CD5C069C0430005EA
:1033B00028D421684FF4006008622068016821F475
:1033C000D07101602068816821F001018160C4F83A
:1033D0008480C4F88880C4F88C8000BF84F8809012
:1033E0000320BDE8F0872068016821F4D0710160F6
:1033F0002068816821F001018160C4F88480C4F8EC
:103400008880EBE72068C06936EA000004D000201D
:10341000B842BDD00020E4E70120F9E70148FEF7FB
:103420004FBA0000EC000020FEE700000FB4084B8C
:1034300010B504A902AA039800F02CF8044602A9CA
:10344000002000F0D1F8204610BC5DF814FB00000D
:10345000E93500080907090E002804DB00F1E02027
:1034600080F80014704700F00F0000F1E02080F8B1
:10347000141D704702E008C8121F08C1002AFAD1C3
:1034800070477047002001E001C1121F002AFBD1E4
:10349000704700002DE9FF4F89B09B460446002588
:1034A00006E025280BD05A460B999047641C6D1CEA
:1034B00020780028F5D10DB02846BDE8F08F002710
:1034C000B8460122474900E0074314F8013F203B7A
:1034D00002FA03F00842F7D120782E2819D114F807
:1034E000010F47F004072A280ED06FF02F02207832
:1034F000A0F1300109290CD808EB880102EB410149
:1035000000EB0108641CF2E70A98641C50F8048B75
:103510000A9020780028CED0642808D0692806D0E8
:1035200075281ED05A460B9990476D1C58E00A9991
:103530004FF00A0901C90A91002802DA40422D2100
:1035400002E0390504D52B218DF82010012103E07C
:10355000F90704D02021F7E78A4608AE0DE00021E4
:10356000FAE70A994FF00A0901C90A91F7E74946B3
:10357000FCF7A6FE303106F8011D0028F7D1ADEBAF
:10358000060000F12009780701D44FF00108C84572
:1035900002DDA8EB090000E000208046002706E0DD
:1035A00008A85A46C05D0B9990476D1C7F1C574573
:1035B000F6DB04E030205A460B9990476D1CB8F1B9
:1035C0000001A8F10108F5DC05E016F8010B5A46E8
:1035D0000B9990476D1CB9F10001A9F10109F4DCC8
:1035E000641C65E7092801000A68531C0B60107011
:1035F0007047000010B5012801D0012200E0002230
:103600004FF47F410748FDF72AF8074C01220421B7
:103610002046FDF724F820460022BDE81040042192
:10362000FDF71DB800080048000C004810B501293E
:1036300001D0012200E0002201460848FDF70FF802
:10364000074C012204212046FDF709F820460022FC
:10365000BDE810400421FDF702B800000008004852
:10366000000C00482DE9F041274D284EA5F1180423
:1036700021466A68606889686427824202D1AA6824
:103680008A421BD096FBF0F3214A5B1ED2F800C0A1
:10369000CCF82C3096FBF0F396FBF0F05B1E401C50
:1036A000484390FBF7F0D36011688863012110460E
:1036B000FDF7D5FDA068A860606868602969206989
:1036C000814203D16969626991421AD096FBF0F296
:1036D0001049521E0B68DA6296FBF0F2521E96FBFE
:1036E000F0F0CA606269401C504390FBF7F0096833
:1036F000886301210748FDF7B2FD206928616069F0
:103700006861BDE8F08100003400002040420F00F5
:1037100054000020A000002010B500F027F91E4A38
:103720000128A2F108010AD002281CD003282AD0BF
:10373000042803D1487880F00100487010BD487813
:103740000028FBD1087800EB400002EB80004168C4
:1037500001F57A71A1F528524160F83AEED14FF4A3
:103760007A71416010BD48780028FBD1087800EBE1
:10377000400002EB800081680A3181606429F1D148
:103780000A21816010BD48780028FBD1087880F0BC
:103790000100087010BD00001C00002030B51A4860
:1037A00085B0418864292DD30021041F41802078F1
:1037B00004F1080500EB400014A115F8202068462C
:1037C000FFF734FE69461820FEF754FB207812A15B
:1037D00000EB400005EB800042686846FFF726FEDC
:1037E00069464820FEF746FB20780FA100EB400019
:1037F00005EB800082686846FFF718FE6946602086
:10380000FEF738FB05B030BD180000202020202036
:10381000202020504125640020202020463A2564A5
:10382000487A20200000000020202020443A25640F
:103830002525200008B5FEF75FFB0020FEF7B4FA4F
:103840004FF6FF70ADF80000BDF80010044801808D
:103850000021ADF80010BDF80010418008BD000047
:103860004E0000202DE9F0412B4C4FF480764FF4B0
:103870000078207810B1012805D00EE0A07801284A
:1038800017D0012103E0A07801280DD00021304697
:10389000FFF7CCFE2078012803D010F0FF0F05D0F1
:1038A0000BE0A078022808D0012103E0A0780228CC
:1038B00003D000214046FFF7B9FE61784FF48060E5
:1038C00009B30021FFF7B2FE1348134D083000275B
:1038D000416800692D1D814217DD4FF00100A07085
:1038E000288864280DD3304600F02AF82F80A0786D
:1038F000022806D12888642803D3404600F020F827
:103900002F80BDE8F0810121DCE702DA0220A070FF
:10391000F0E7A770F5E7000014000020FCF7B2FE06
:10392000FEF79CFEFEF7EAFBFEF752FCFEF78AFC70
:10393000FEF7C2FC00F07AF800F096F8FCE7000011
:1039400010B501460748FCF782FE074C012204210E
:103950002046FCF784FE20460022BDE810400421EA
:10396000FCF77DBE00080048000C004870B52D4DE6
:1039700001212846FCF766FE2B4C4FF0904670B1B3
:1039800002212846FCF75EFE48B104212846FCF7D8
:1039900059FE20B101213046FCF754FED8B92078F9
:1039A000012818D1002020700A20FCF755FD0121C4
:1039B0002846FCF747FEA8B102212846FCF742FE44
:1039C00090B104212846FCF73DFE78B10121304634
:1039D000FCF738FE60B101212846FCF733FE0128D0
:1039E00008D01DE0012070BD022070BD032070BD15
:1039F000042070BD02212846FCF724FE01280FD1C7
:103A000004212846FCF71EFE012809D10121304679
:103A1000FCF718FE012803D1207808B90120207096
:103A2000002070BD000400484C00002010B5FFF7D6
:103A300001FF0020FFF7DEFD04210748FDF750FEDF
:103A400004210648FDF74CFEBDE810400122044960
:103A50000448FEF7E7B8000054000020A000002052
:103A600010000020EC00002010B5FFF755FEFFF716
:103A7000F9FDFFF793FE00F005F8BDE81040FFF7F1
:103A8000F1BE000070B51548FCF705FC00281ED0FB
:103A9000134C607828B914230E2212A11548FEF7A2
:103AA000F5F86078002501280FD113A10B48FCF729
:103AB000F9FB68B111A10948FCF7F4FB50B10A23E6
:103AC00008220FA10B48FEF7E1F80448056070BD1D
:103AD0002570FAE701202070F7E7000010000020B1
:103AE000140000204B455920434F4E54524F4C0D6B
:103AF0000A000000EC00002040000000230000004D
:103B00004552524F520D0A00010002000400060007
:103B100008000A000C001000200040008000000196
:103B2000010101030701000008040204080101016A
:103B3000000000000000000001020304060708095D
:103B4000000000000102030400000000000000006B
:103B50000000000000000000000000000000000065
:103B60000000000000000000000000000000000055
:103B700000000000000000000000800180018001C2
:103B8000800180018001800180018001800180012D
:103B90008001800100000000800180010000000021
:103BA000000000000000000000000000CC00CC007D
:103BB000CC00CC00CC00CC000000000000000000D5
:103BC00000000000000000000000000000000000F5
:103BD00000000000000000000000000000000000E5
:103BE00000000000600C600C600C30063006FE1F08
:103BF000FE1F300638071803FE1FFE1F18031803A8
:103C00008C018C018C01000000008000E003F80FA3
:103C10009C0E8C1C8C188C009800F801E007800E1C
:103C2000801C8C188C189C18B80CF00FE0038000D6
:103C300080000000000000000000000000000E18DE
:103C40001B0C110C11061106110311039B018E01AF
:103C5000C038C06C60446044304430441844186C30
:103C60000C380000000000000000E001F0033807FD
:103C7000180618063003F001F000F8009C310E33EE
:103C8000061E061C061C063FFC73F0210000000007
:103C90000000000000000000000000000C000C000C
:103CA0000C000C000C000C000000000000000000E4
:103CB0000000000000000000000000000000000004
:103CC000000000000000000000000002000380016E
:103CD000C000C000600060003000300030003000E4
:103CE000300030003000300060006000C000C000D4
:103CF0008001000300020000000020006000C000FE
:103D00008001800100030003000600060006000693
:103D10000006000600060006000300038001800183
:103D2000C000600020000000000000000000000053
:103D300000000000C000C000D806F807E001300312
:103D40003807000000000000000000000000000034
:103D50000000000000000000000000000000000063
:103D60000000000080018001800180018001FC3F93
:103D7000FC3F800180018001800180010000000083
:103D80000000000000000000000000000000000033
:103D90000000000000000000000000000000000023
:103DA0000000000000000000000080018001000110
:103DB0000001800000000000000000000000000082
:103DC00000000000000000000000000000000000F3
:103DD000E007E00700000000000000000000000015
:103DE00000000000000000000000000000000000D3
:103DF00000000000000000000000000000000000C3
:103E000000000000000000000000C000C000000032
:103E100000000000000000000000000C000C000684
:103E200000060006000300030003800380018001F8
:103E30008001C000C000C000600060000000000001
:103E400000000000000000000000E003F007380E52
:103E5000180C0C180C180C180C180C180C180C1842
:103E60000C180C18180C380EF007E00300000000C6
:103E70000000000000000000000000018001C001FF
:103E8000F00198018801800180018001800180019A
:103E9000800180018001800180018001000000001C
:103EA00000000000000000000000E003F80F180C04
:103EB0000C180C1800180018000C000600038001F4
:103EC000C000600030001800FC1FFC1F0000000054
:103ED00000000000000000000000E001F807180EDC
:103EE0000C0C0C0C000C0006C003C007000C0018E2
:103EF00000180C180C18180CF807E003000000005C
:103F000000000000000000000000000C000E000F88
:103F1000000F800DC00C600C600C300C180C0C0CE9
:103F2000FC3FFC3F000C000C000C000C00000000EB
:103F300000000000000000000000F80FF80F18005B
:103F400018000C00EC03FC071C0E001C00180018E5
:103F500000180C181C0C180EF807E00300000000F5
:103F600000000000000000000000C007F00F381C37
:103F7000181818000C00CC03EC0F3C0E1C1C0C187D
:103F80000C180C18181C380EF007E0030000000095
:103F900000000000000000000000FC1FFC1F000CDF
:103FA00000060006000380038001C001C000E0009D
:103FB0006000600070003000300030000000000041
:103FC00000000000000000000000E003F007380ED1
:103FD000180C180C180C3806F007F007180C0C1801
:103FE0000C180C180C18380CF80FE0030000000037
:103FF00000000000000000000000E003F007380EA1
:104000001C0C0C180C180C181C1C381EF81BE01982
:104010000018000C000C1C0EF807F0010000000056
:104020000000000000000000000000000000000090
:10403000000000008001800100000000000000007E
:10404000000000000000000080018001000000006E
:104050000000000000000000000000000000000060
:10406000000000008001800100000000000000004E
:10407000000000000000000080018001000100013C
:1040800080000000000000000000000000000000B0
:1040900000000000000000000010001C800FE00382
:1040A000F8001800F800E003800F001C001000006A
:1040B0000000000000000000000000000000000000
:1040C0000000000000000000F81F000000000000D9
:1040D000F81F0000000000000000000000000000C9
:1040E00000000000000000000000000000000000D0
:1040F000000000000000000008003800F001C007C8
:10410000001F0018001FC007F00138000800000061
:1041100000000000000000000000E003F80F180C91
:104120000C180C180018000C000600038001C000D9
:10413000C000C00000000000C000C000000000007F
:10414000000000000000000000000000E007181858
:104150000420C229224A114409440944094409227D
:104160001113E20C024004201818E00700000000C0
:104170000000000000000000000080038003C00673
:10418000C006C006600C600C301830183018F83FBC
:10419000F83F1C700C600C6006C006C000000000F8
:1041A00000000000000000000000FC03FC0F0C0CED
:1041B0000C180C180C180C0CFC07FC0F0C180C300D
:1041C0000C300C300C300C18FC1FFC0700000000F9
:1041D00000000000000000000000C007F01F383899
:1041E0001C300C7006600600060006000600060083
:1041F000060006600C701C30F01FE0070000000095
:1042000000000000000000000000FE03FE0F060E8C
:10421000061806180630063006300630063006301E
:10422000063006180618060EFE0FFE0300000000FA
:1042300000000000000000000000FC3FFC3F0C00FC
:104240000C000C000C000C00FC1FFC1F0C000C00F0
:104250000C000C000C000C00FC3FFC3F00000000B8
:1042600000000000000000000000F83FF83F1800C8
:104270001800180018001800F81FF81F1800180080
:10428000180018001800180018001800000000009E
:1042900000000000000000000000E00FF83F3C7844
:1042A0000E6006E007C00300030003FE03FE03C028
:1042B00007C006C00EC03CF0F83FE00F0000000051
:1042C000000000000000000000000C300C300C303A
:1042D0000C300C300C300C30FC3FFC3F0C300C3000
:1042E0000C300C300C300C300C300C300000000066
:1042F000000000000000000000008001800180013B
:1043000080018001800180018001800180018001A5
:104310008001800180018001800180010000000097
:10432000000000000000000000000006000600067B
:10433000000600060006000600060006000600064D
:104340000006180618063807F003E0010000000018
:104350000000000000000000000006300618060CF7
:10436000060606038601C60066007600DE008E01A2
:1043700006030606060C061806300660000000005C
:1043800000000000000000000000180018001800E5
:10439000180018001800180018001800180018005D
:1043A0001800180018001800F81FF81F000000007F
:1043B000000000000000000000000EE01EF01EF0F3
:1043C0001EF036D836D836D836D866CC66CC66CC11
:1043D000C6C6C6C6C6C6C6C686C386C3000000001B
:1043E000000000000000000000000C301C303C30D9
:1043F0003C306C306C30CC30CC308C310C330C33E6
:104400000C360C360C3C0C3C0C380C300000000018
:1044100000000000000000000000E007F81F1C384A
:104420000E70066003C003C003C003C003C003C016
:1044300003C006600E701C38F81FE0070000000083
:1044400000000000000000000000FC0FFC1F0C3802
:104450000C300C300C300C300C18FC1FFC070C001E
:104460000C000C000C000C000C000C000000000004
:1044700000000000000000000000E007F81F1C38EA
:104480000E70066003E003C003C003C003C003C096
:1044900007E006630E3F1C3CF83FE0F700C0000059
:1044A00000000000000000000000FE0FFE1F0638A4
:1044B0000630063006300638FE1FFE0706030606E5
:1044C000060C0618061806300630066000000000CC
:1044D00000000000000000000000E003F80F1C0CCA
:1044E0000C180C180C001C00F803E00F001E00381C
:1044F000063006300E301C1CF80FE00700000000EC
:1045000000000000000000000000FE7FFE7F800130
:104510008001800180018001800180018001800193
:104520008001800180018001800180010000000085
:10453000000000000000000000000C300C300C30C7
:104540000C300C300C300C300C300C300C300C308B
:104550000C300C300C301818F81FE0070000000079
:10456000000000000000000000000360063006307C
:1045700006300C180C180C18180C180C380E3006D5
:104580003006700760036003C001C0010000000036
:10459000000000000000000000000360C361C36170
:1045A000C3616633663366336633663366336C1BCA
:1045B0006C1B6C1B2C1A3C1E380E380E00000000C1
:1045C000000000000000000000000FE00C70183038
:1045D0003018700C600EC00780038003C003E00633
:1045E000700C301C18180C300E6007E00000000042
:1045F0000000000000000000000003C006600C3056
:104600001C383818300C6006E007C00380018001B8
:104610008001800180018001800180010000000094
:1046200000000000000000000000FC7FFC7F006034
:1046300000300018000C000600038001C00060007C
:10464000300018000C000600FE7FFE7F0000000016
:1046500000000000000000000000E003E003600034
:10466000600060006000600060006000600060004A
:10467000600060006000600060006000600060003A
:104680006000E003E0030000000030003000600044
:1046900060006000C000C000C000C0018001800157
:1046A0008001000300030003000600060000000074
:1046B00000000000000000000000E003E003000331
:1046C00000030003000300030003000300030003D2
:1046D00000030003000300030003000300030003C2
:1046E0000003E003E003000000000000C001C0017F
:1046F00060036003600330063006180C180C0000DD
:1047000000000000000000000000000000000000A9
:104710000000000000000000000000000000000099
:104720000000000000000000000000000000000089
:1047300000000000000000000000FFFFFFFF00007D
:10474000000000000000000000000C000C000C0045
:104750000C000C000C000000000000000000000035
:104760000000000000000000000000000000000049
:104770000000000000000000000000000000000039
:1047800000000000F003F8071C0C0C0C000FF00FE9
:10479000F80C0C0C0C0C1C0FF80FF01800000000AB
:1047A00000000000000000000000180018001800C1
:1047B00018001800D803F80F380C18181818181813
:1047C000181818181818380CF80FD8030000000033
:1047D00000000000000000000000000000000000D9
:1047E00000000000C003F007300E180C180018007D
:1047F00018001800180C300EF007C003000000006D
:104800000000000000000000000000180018001860
:1048100000180018C01BF01F301C181818181818A2
:10482000181818181818301CF01FC01B00000000C2
:104830000000000000000000000000000000000078
:1048400000000000C003F00F300C1818F81FF81F0C
:10485000180018003818301CF00FC00700000000C6
:1048600000000000000000000000800FC00FC0002A
:10487000C000C000F007F007C000C000C000C000CA
:10488000C000C000C000C000C000C00000000000A8
:104890000000000000000000000000000000000018
:1048A00000000000E00DF80F180E0C0C0C0C0C0CA6
:1048B0000C0C0C0C0C0C180EF80FE00D000C0C0C72
:1048C0001C06F807F001000000001800180018008E
:1048D00018001800D807F80F381C181818181818DE
:1048E00018181818181818181818181800000000A8
:1048F00000000000000000000000C000C000000038
:1049000000000000C000C000C000C000C000C00027
:10491000C000C000C000C000C000C0000000000017
:1049200000000000000000000000C000C000000007
:1049300000000000C000C000C000C000C000C000F7
:10494000C000C000C000C000C000C000C000C00067
:10495000C000F8007800000000000C000C000C0003
:104960000C000C000C0C0C060C038C01CC006C0031
:10497000FC009C018C030C030C060C0C00000000D6
:1049800000000000000000000000C000C000C000E7
:10499000C000C000C000C000C000C000C000C00017
:1049A000C000C000C000C000C000C0000000000087
:1049B00000000000000000000000000000000000F7
:1049C000000000007C3CFF7EC7E383C183C183C13C
:1049D00083C183C183C183C183C183C1000000003F
:1049E00000000000000000000000000000000000C7
:1049F000000000009807F80F381C1818181818182D
:104A00001818181818181818181818180000000086
:104A10000000000000000000000000000000000096
:104A200000000000C003F00F300C181818181818F8
:104A3000181818181818300CF00FC00300000000E8
:104A40000000000000000000000000000000000066
:104A500000000000D803F80F380C181818181818A0
:104A6000181818181818380CF80FD8031800180060
:104A700018001800180000000000000000000000EE
:104A800000000000C01BF01F301C18181818181860
:104A9000181818181818301CF01FC01B0018001820
:104AA00000180018001800000000000000000000BE
:104AB00000000000B007F00370003000300030004C
:104AC00030003000300030003000300000000000C6
:104AD00000000000000000000000000000000000D6
:104AE00000000000E003F003380E180C3800F0035B
:104AF000C007000C180C380EF007E003000000009F
:104B00000000000000000000000000008000C00065
:104B1000C000C000F007F007C000C000C000C00027
:104B2000C000C000C000C000C00780070000000037
:104B30000000000000000000000000000000000075
:104B40000000000018181818181818181818181845
:104B5000181818181818381CF01FE0190000000069
:104B60000000000000000000000000000000000045
:104B7000000000000C18180C180C180C3006300639
:104B80003006600360036003C001C0010000000044
:104B90000000000000000000000000000000000015
:104BA00000000000C141C141C3616363636363638B
:104BB0003636363636361C1C1C1C1C1C0000000009
:104BC00000000000000000000000000000000000E5
:104BD000000000001C38381C300C600660036003C5
:104BE000600360036006300C381C1C3800000000B5
:104BF00000000000000000000000000000000000B5
:104C0000000000001830301830187018600C600C6C
:104C1000E00CC006C0068003800380038001800191
:104C2000C001F00070000000000000000000000063
:104C300000000000FC1FFC1F000C000600038001A8
:104C4000C000600030001800FC1FFC1F00000000C6
:104C50000000000000000000000000038001C00010
:104C6000C000C000C000C000C00060006000300094
:104C700060004000C000C000C000C000C000C00014
:104C8000800100030000000000008001800180011D
:104C9000800180018001800180018001800180010C
:104CA00080018001800180018001800180018001FC
:104CB000800180018001000000006000C000C00190
:104CC0008001800180018001800100030003000653
:104CD00000030001800180018001800180018001CA
:104CE000C0006000000000000000000000000000A4
:104CF0000000000000000000F010F81F080F000086
:104D000000000000000000000000000000000000A3
:104D10000000000000000000384D000800000020E6
:104D200054000000743400088C4D0008540000202A
:104D30002C05000084340008100000000100000071
:104D4000000000000024F40000000000000000004B
:104D50006400000001000000E80300000A000000F9
:104D600002000000E80300000A000000010000004B
:104D7000E80300000A00000002000000E803000051
:0C4D80000A00000001000000FFFF00001E
:04000005080001D915
:00000001FF
