:020000040800F2
:1000000098050020ED010008EF2E00089328000855
:10001000ED2E00080D090008D53E00080000000084
:10002000000000000000000000000000073200088F
:100030000F09000800000000F12E00080932000836
:10004000070200080702000807020008070200086C
:10005000070200080702000807020008070200085C
:10006000070200080702000807020008070200084C
:10007000070200080702000807020008070200083C
:10008000070200080000000007020008070200083D
:10009000070200080702000807020008070200081C
:1000A000070200080702000807020008070200080C
:1000B00007020008070200080702000807020008FC
:1000C00007020008070200080702000807020008EC
:1000D00007020008C93E00080702000807020008DE
:1000E00007020008070200080702000807020008CC
:1000F00007020008070200080702000800000000CD
:1001000000000000070200080000000007020008CD
:1001100007020008000000000702000807020008AC
:10012000070200080702000807020008070200088B
:10013000070200080000000000000000070200089D
:10014000070200080702000800000000000000008D
:10015000000000000000000000000000000000009F
:10016000000000000000000000000000070200087E
:10017000070200080000000000000000000000006E
:10018000000000000702000800000000000000005E
:10019000000000000000000000000000000000005F
:1001A000000000000000000007020008070200082D
:1001B000070200080702000807020008000000000C
:1001C000000000000702000800000000000000001E
:1001D0000702000807020008DFF80CD000F050FB0F
:1001E00000480047D94B0008980500200648804782
:1001F00006480047FEE7FEE7FEE7FEE7FEE7FEE70C
:10020000FEE7FEE7FEE7FEE7A5320008D901000899
:100210002DE9F05F0546002092469B46884606463B
:10022000814640241BE0284641464746224600F0CE
:1002300041FA53465A46C01A914110D31146184606
:10024000224600F028FA2D1A67EB01084F46224695
:100250000120002100F01FFA17EB00094E41201E7B
:10026000A4F10104DFDC484631462A464346BDE896
:10027000F09FD2B201E000F8012B491EFBD270477B
:100280000022F6E710B513460A4604461946FFF762
:10029000F0FF204610BD421C10F8011B0029FBD1C5
:1002A000801A70472DE9FE4F804681EA0300C00F97
:1002B0000C46009021F0004123F00045B8EB02000D
:1002C000A94105D24046214690461C460B460246AF
:1002D00023F00040104347D0270DC7F30A00C3F3B3
:1002E0000A510290401A019040286BDAC3F31300C0
:1002F00040F4801B0098924620B10023D2EB030A01
:1003000063EB0B0B01985946C0F14002504600F0D8
:10031000C2F906460D4650465946019A00F0DAF9F0
:1003200010EB08006141002487EA115284EAE77368
:100330001A4340D0009A62B3019A012A4FEA075249
:1003400015DC001B61EB02014FF0004202EA07528C
:10035000CDE90042001C41F5801132462B4600F0E9
:1003600011FA03B0BDE8F08F40462146F9E7001BC3
:1003700061EB0201001C41F5801300185B4120185D
:10038000A2F5001747EB030140EAD570B6196D419D
:1003900011E06D084FEA360645EAC0754FEA07528C
:1003A000001B61EB0201001C41F5801149084FEA76
:1003B00030000019514132462B4603B0BDE8F04FE2
:1003C00000F0D1B90098012240000023D0EB0202D6
:1003D00063EBE073009821464FEAE074B8EB00004D
:1003E00061EB0401E9E783F000435BE781F0004142
:1003F00058E72DE9FE4F81EA030404F0004421F0A0
:10040000004100944FF0000B23F0004350EA010438
:100410005ED052EA03045BD0C3F30A54C1F30A5519
:100420002C44A4F2F3340194A0FB0254C1F3130151
:1004300041F48011C3F3130343F4801301FB02441E
:1004400000FB034E840A970A44EA815447EA835723
:10045000A4FB076802958D0A05FB07854FEA932CDC
:1004600004FB0C542705029D4FEA065847EA16374D
:10047000B5EB08056EEB070C870E920E47EA811765
:1004800042EA8312A7FB0201B6EB0B0164EB000406
:100490002B0D43EA0C335E1844EB1C50DA465146F0
:1004A000E7FB0201C5F313044FEA0B3343EA14538D
:1004B0004FEA0432019C43EA0603A4F10C040294BF
:1004C000009CCDE900B400F05DF903B0BDE8F08F09
:1004D00000200146F9E72DE9F04D81EA030404F01C
:1004E000004B21F0004514464FF0000A23F0004174
:1004F00050EA050220D054EA01021DD0C5F30A5784
:100500000246C5F31303C1F31300C1F30A5640F4C6
:10051000801543F48013A7EB0608101BD64608F29B
:10052000FD3873EB050002D308F1010801E09218D1
:100530005B41B8F1000F03DA00200146BDE8F08D01
:1005400000204FF48011064684460EE0171B73EB23
:10055000050705D3121B63EB050306434CEA010CA8
:1005600049084FEA300092185B4150EA0107EDD18B
:1005700052EA030012D082EA040083EA050108432C
:1005800005D0101BAB4106D20122002306E0002259
:100590004FF0004302E06FF0010253101AEB060027
:1005A0004CEB085110EB0A0041EB0B01BDE8F04D9C
:1005B00000F0D9B80EB540F2334102910021CDE9E7
:1005C00000110A460B4600F0DDF803B000BD70B51F
:1005D000C1F30A5201F000450024C1F3130140F2B7
:1005E000FF3341F480119A4201DA002070BD40F2DD
:1005F00033439A42A2F2334203DC524200F05AF8EB
:1006000000E090402C43F1D0404270BD00F0004229
:1006100030F000400AD0C10D01F56071C0F3160042
:1006200042EA0151C20840071143704700200146C9
:10063000704701F0004330B421F0004150EA01025C
:1006400006D00A0DA2F56072C1F31301002A02DC84
:1006500030BC00207047440F44EAC104C100E018D8
:1006600030BC00EBC25000F047B830B50B46014635
:1006700000202022012409E021FA02F59D4205D341
:1006800003FA02F5491B04FA02F52844151EA2F1EB
:100690000102F1DC30BD202A04DB203A00FA02F12D
:1006A000002070479140C2F1200320FA03F3194360
:1006B00090407047202A04DB203A21FA02F0002102
:1006C000704721FA02F3D040C2F120029140084362
:1006D00019467047202A06DBCB17203A41FA02F070
:1006E00043EAE07306E041FA02F3D040C2F120028F
:1006F00091400843194670470029A8BF7047401C25
:10070000490008BF20F00100704710B4B0FA80FC27
:1007100000FA0CF050EA010404BF10BC704749B164
:10072000CCF1200421FA04F411FA0CF118BF0121D4
:1007300021430843A3EB0C01CB1D4FEA00614FEAB4
:10074000102042BF002010BC704700EBC350104483
:100750000029A4BF10BC7047401C490008BF20F00E
:10076000010010BC704710B5141E73F1000408DAC4
:10077000401C41F1000192185B411A4301D120F065
:10078000010010BD2DE9F04D92469B4611B1B1FA22
:1007900081F202E0B0FA80F220329046FFF77BFF50
:1007A00004460F4640EA0A0041EA0B0153465A4606
:1007B000084313D0114653EA010019D0C8F1400292
:1007C0005046FFF777FF05460E46504659464246CB
:1007D000FFF761FF084305D0012004E020463946B9
:1007E000BDE8F08D0020054346EAE0762C43374310
:1007F0000A986305E40AA0EB08000022FD0A44EA17
:1008000047540A3002D500200146E9E701051019D6
:100810006941DDE9084500196941BDE8F04DA2E7ED
:10082000C1F30A52C1F3130140F2FF3341F48011C6
:100830009A4202DA00200146704740F233439A425E
:10084000A2F2334202DC5242FFF734BFFFF723BF6C
:1008500030B5041E71F1000404DB4FF00044404247
:1008600064EB0101141E73F1000405DB1C464FF01C
:100870000043524263EB0403994208BF904230BDEB
:10088000064C074D06E0E06840F0010394E80700DD
:1008900098471034AC42F6D3FFF7A2FC145F00086F
:1008A000345F000870B504460068816811F0010FDC
:1008B00028D18168144A114215D18168D543294055
:1008C000491C816000F0ACFD064616E0816811F01D
:1008D000010F03D181682940491C816000F0A0FD0F
:1008E000801B022809D9E06D40F01000E065206E01
:1008F00040F001002066012070BD20680168C943F6
:10090000C907E3D1002070BD3F000080FEE77047BB
:10091000002240F6B83306E00021491C89B2994212
:10092000FBD3521C92B28242F6D3704772B6FEE7F6
:100930002DE9F84F00270446009790F85800DFF89B
:10094000DC930D46B846012811D0012684F8586082
:10095000206802F091F960B1E06D40F02000E065A0
:100960005FF0010784F858803846BDE8F88F022010
:10097000FBE7D5E900210C23206803EA9113184412
:10098000036B01F01F014FF01F0C0CFA01FCC2F3C6
:10099000846223EA0C038A4013430363206802F055
:1009A0006BF98246206802F063F95AEA00003CD1F4
:1009B000AA6829682068B2F1004F37D002F068F9C0
:1009C0002068416921F00041416120686969C2687D
:1009D000C2F3C102520091402A69042A31D000EBCF
:1009E00082002B68026EDFF838C303F0F84302EA96
:1009F0000C020B431A4342F0004101662268286949
:100A0000A96902EB8000026E22F080720A4302663E
:100A1000297F20682A69012910D0002100EB82007B
:100A2000026E22F000720A4302667DE0002202F0AC
:100A30002FF92068416941F00041C5E74FF000718E
:100A4000ECE7002102F00EF9400320684FF00001AE
:100A500072D002F007F990FAA0F0B0FA80F128689D
:100A600042036ED090FAA0F0B0FA80F0814204D137
:100A700000221146206802F01AF90121206802F0D4
:100A8000F1F8400320684FF001015DD002F0EAF870
:100A900090FAA0F0B0FA80F12868420359D090FA99
:100AA000A0F0B0FA80F0814204D100220121206838
:100AB00002F0FDF80221206802F0D4F8400320681B
:100AC0004FF0020148D002F0CDF890FAA0F0B0FA51
:100AD00080F12868420344D090FAA0F0B0FA80F088
:100AE000814204D100220221206802F0E0F80321B3
:100AF000206802F0B7F8400320684FF0030133D0BC
:100B000002F0B0F890FAA0F0B0FA80F12868420341
:100B10002FD090FAA0F0B0FA80F0814204D10022E8
:100B20000321206802F0C3F82068816811F0010FEA
:100B300022D0ACE000E004E002F094F8C0F384615D
:100B40008DE7C0F3846091E702F08CF8C0F3846114
:100B5000A2E7C0F38460A6E702F084F8C0F38461E2
:100B6000B7E7C0F38460BBE702F07CF8C0F38461B0
:100B7000CCE7C0F38460D0E72A7B296850F8B03F07
:100B8000C1F3120C23EA0C0302F0180C654A22FA96
:100B90000CF20A4013430360E968494577D128689D
:100BA00041031CD090FAA0F1B1FA81F1491C01F087
:100BB0001F0109294FEA403132D8002912D000BF65
:100BC00090FAA0F1B1FA81F101F1010101F01F01E8
:100BD00006FA01F609D100BFC0F3846109E0C0F351
:100BE0008461E3E7C0F38461EEE790FAA0F1B1FA23
:100BF00081F101F1010101F01F0146EA816102D199
:100C0000C0F3846003E090FAA0F0B0FA80F000F145
:100C1000010000F01F0000EB400041EA005132E00B
:100C200000290ED090FAA0F1B1FA81F101F1010191
:100C300001F01F0106FA01F606D100BFC0F384617E
:100C400006E0C0F38461F1E790FAA0F1B1FA81F116
:100C500001F1010101F01F0146EA816102D1C0F3F7
:100C6000846003E090FAA0F0B0FA80F000F1010097
:100C700000F01F002C4A00EB400002EB005041EA5C
:100C8000000141F00071AA68206802F001F82748CD
:100C90002A6802423FF466AE25488168254B01F080
:100CA000E0719A4202D0244B9A421BD10B0219D414
:100CB0002268B2F1A04F7FF455AE826841F4000182
:100CC00022F0E0720A4382601C481D490068B0FBB4
:100CD000F1F000EB4000800000E0401E0090002892
:100CE000FBD13FE6174D184BAA4207D1CD0105D4E1
:100CF00022689A42F5D041F0807109E0134DAA4272
:100D0000EFD14A02EDD422689A42EAD041F4800140
:100D1000826822F0E0720A43826023E600007F408E
:100D200000F0FF03FFFF0700000020FE0000088026
:100D300000030050000021C31000C09010000020EC
:100D4000400D0300000052C700010050000084CB9A
:100D50000068006C70470000F8B54FF00005040013
:100D60002E46009502D0E06D10B107E00120F8BDDD
:100D7000204600F0EDF8266684F858602068816807
:100D8000C1F3407119B18168694A114081602068DE
:100D90008168C1F3007179B98168664A114041F0F8
:100DA00080518160644865490068B0FBF1F000E063
:100DB000401E00900028FBD120688168C1F30071BB
:100DC00041B9E16D41F01001E165216E41F0010191
:100DD0002166012501F050FFE16DC90600D430B154
:100DE000E06D40F01000E06501252846F8BDE06D9B
:100DF00020F4807040F00200E0652068806810F008
:100E0000010F11D14FF0A04080684D4900F0010062
:100E1000896801F00101084306D14A486168826887
:100E200022F47C120A438260E168E06B627F08432F
:100E3000A16841EA4231084394F8241040EA014095
:100E4000012904D1218D404A02EB41410843E16A66
:100E500029B101F47871226B014342EA0100216853
:100E6000CA683A4B1A400243CA6020680169626B43
:100E700021F0406111430161206801F0FDFE06464A
:100E8000206801F0F5FE30432ED1207F94F8381011
:100E9000800340EA41022068C16844F2020399439A
:100EA0001143C16020690028206801690AD041F41B
:100EB00080310161206850F8C01F22696FF30D0175
:100EC000114307E021F480310161206850F8C01F10
:100ED0006FF30D01016094F8400001280CD02068E8
:100EE000016921F001010161606901282068016B3D
:100EF00021F00F0111D013E0D4E911010843D4E926
:100F000013121143084321680A6940F2FC739A43A3
:100F1000104340F001000861E6E7226A521E1143C7
:100F20000163E06D20F0020040F00100E0655CE745
:100F3000C0FFFF5FC0FFFF7F10000020400D0300D7
:100F400000010050000300500000FEFF0740F0FFCA
:100F500010B586B0044614216846FFF791F911498F
:100F6000206888421BD11048C16C41F40051C16413
:100F7000C16C01F400510591C16C41F00201C164E2
:100F8000C06C694600F0020005904FF400400090EC
:100F90000320019000200290044800F04BF906B0B5
:100FA00010BD000000010050001002400004004885
:100FB0002DE9F041044639480F46816801F01F05CC
:100FC000A16908290FD085B1052D0ED0092D0CD0AF
:100FD000806800F4604060B1E06D40F02000E065A2
:100FE0000120BDE8F081082604E02068C068C00741
:100FF000F1E7042600F014FA804608E0781C06D0D9
:1010000000F00EFAA0EB0800B8420FD877B12068C4
:1010100000683042F2D0E06D40F40070E065206876
:1010200001F02EFED0B1607F48B117E0E06D40F0D6
:101030000400E065002084F858000320D1E7206810
:10104000006800070AD5E06D20F48070E065E06D6F
:10105000C00403D4E06D40F00100E065104A206850
:101060004FF0A041904201D10B4600E0034683427D
:1010700010D07DB1052D0DD0092D0BD0904200D0A0
:101080000146C968082E07D0490401D40C2101602B
:101090000020A6E7C168F5E70821F8E70003005043
:1010A000000100502DE9F04104463848806800F006
:1010B0001F05206801F0E0FD18B102210846BDE8D7
:1010C000F08194F8580001280CD0012084F85800D1
:1010D0002046FFF7E7FB01004FF0000304D084F83F
:1010E0005830EBE70220EAE7E06D40F601629043FA
:1010F00040F48070E065264A20684FF0A046904298
:1011000001D1374600E00746874200D01DB9E76DA0
:1011100027F48017E765E76DFF0404D5276E27F0F5
:101120000607276600E023661C27076084F858300E
:101130002068904201D1334600E00346834215D037
:10114000A5B1052D12D0092D10D0E36D43F4801305
:10115000E365904200D13046C0688001AED5E06DB5
:1011600020F4005040F48050E065A7E7C268920187
:1011700005D5E26D22F4005242F48052E2658268A5
:10118000044B1A40121D826098E7000000030050D3
:1011900000010050C0FFFF7F70B590F825200024AB
:1011A00001212346022A07D00422C26380F82510B9
:1011B00080F82430012429E00268156825F00E0526
:1011C00015600268156825F001051560826C1568C8
:1011D00025F48075156090F84420056C02F01F021C
:1011E00001FA02F26A60D0E913255560426D32B10E
:1011F000156825F480751560D0E91625556080F8CE
:10120000251080F82430816B01B18847204670BDDD
:1012100070B5044600F004F90546601C02D004488D
:101220004068044400F0FCF8401BA042FAD370BDB3
:10123000040000202DE9FC4FDFF8A0A100230125C8
:101240000AF1040B03244FF00F0C0BF1040EBDE068
:1012500005FA03F632406FD04F68012F05D0022FF8
:1012600003D0112F01D0122F17D1D0F808905F00B2
:1012700004FA07F829EA08090097D1F80C8008FA5F
:1012800007F848EA0908C0F808804768B7430E79AC
:10129000C6F300169E403E434660C6684FEA4308C8
:1012A00004FA08F7BE4301978F6807FA08F7374337
:1012B000C7604E68022E01D0122E13D1DE0800EB5B
:1012C00086060096366A5F07FF0E0CFA07F926EAD3
:1012D0000906D1F8109009FA07F949EA0609009EB3
:1012E000C6F820900668019FBE430F7907F00307F8
:1012F00007FA08F7374307604E68F60065D5384EA1
:10130000376E47F001073766366E23F0030706F0A5
:1013100001060096334E3E44B146B6689F074FEA39
:1013200017780CFA08F7BE43B0F1904F05D02E4F56
:10133000B84204D1012717E047E0002714E02B4F03
:10134000B84201D102270FE0294FB84201D103274B
:101350000AE0284FB84201D1042705E0264FB842E1
:1013600001D1052700E0062707FA08F73743C9F837
:101370000870DAF800605746D1F8048096435FEAB7
:10138000C83800D516433E60DBF800605F46D1F8F0
:10139000048096435FEA883800D516433E60DEF845
:1013A00000607746D1F8048096435FEAC82800D5EC
:1013B00016433E60094F0C373E68D1F804809643CF
:1013C0005FEA882800D516433E605B1C0A6832FA43
:1013D00003F67FF43DAFBDE8FC8F00000004014040
:1013E00000100240000001400004004800080048CE
:1013F000000C004800100048001400480069084034
:1014000000D001207047426921EA02030A4043EA02
:101410000241816170470AB1816170478162704702
:10142000014880687047000004000020024881687D
:1014300042681144816070470400002010B5002408
:10144000032000F073F8002000F008F808B1012430
:1014500001E000F025F8204610BD000070B50E4EEA
:1014600005460024706898B14FF47A71B1FBF0F032
:101470000A490968B1FBF0F000F064FD40B9102D95
:1014800006D200222946501E00F030F8356000E0F8
:101490000124204670BD0000040000201000002040
:1014A0000A4882B0016E41F001010166016E01F04F
:1014B00001010091816D41F080518165806D00F0E6
:1014C0008050009002B000F0A1B80000001002406F
:1014D000002809DB00F01F02012191404009800033
:1014E00000F1E020C0F8001170470000F0B40E4B8E
:1014F0001B680C46C3F30223C3F10705042D00D972
:101500000425191D072901D2002300E0DB1E012656
:1015100006FA05F1491E214099409E40761E16406C
:101520003143F0BC02F0ECBC0CED00E0064900F0E9
:10153000070208684FF6FF03184040EA0220034AFA
:1015400010430860704700000CED00E00000FA0551
:101550002B492C4B0A6832214A432B4940B1B0F544
:10156000007F086829D020F4C06040F480602CE03F
:101570000868C0F34120022804D051F8800F20F4FD
:10158000807022E0D1F8800020F48070C1F88000E3
:10159000086820F4C06040F400700860B2FBF3F00B
:1015A000401C00E0401E4A69520501D50028F9D1CF
:1015B000486940050AD503207047C0F3412002283E
:1015C00006D051F8800F40F480700860002070470A
:1015D000D1F8800040F48070C1F88000086820F4E1
:1015E000C06040F400700860B2FBF3F0401C00E003
:1015F000401E4A695205DBD50028F9D1D8E7000022
:101600001000002040420F00007000400248816836
:1016100041F4804181607047007000402DE9F8433B
:101620000446006800269D4D00035ED5A86D002786
:10163000C00008D4A86D40F08050A865A86D0127AF
:1016400000F080500090DFF85892D9F8001041F473
:101650008071C9F80010FFF7E3FE804606E000BF86
:10166000FFF7DEFEA0EB080002282BD8D9F8000017
:10167000C005F5D5D5F8900010F4407014D0216C59
:10168000814211D0D5F89000D5F8901020F4407028
:1016900041F48031C5F89010D5F8901021F48031D4
:1016A000C5F89010C5F89000C00711D0FFF7B8FE3C
:1016B000804641F2883907E0FFF7B2FEA0EB08014F
:1016C000494501D903260BE0D5F890008007F3D5F2
:1016D000D5F89000216C20F440700843C5F89000C4
:1016E0001FB1A86D20F08050A8652078C00707D0F2
:1016F000D5F88800616820F003000843C5F8880029
:101700002078800707D5D5F88800A16820F00C0064
:101710000843C5F888002078400707D5D5F8880029
:10172000E16820F030000843C5F888002078000701
:1017300007D5D5F88800216920F0C0000843C5F816
:1017400088002078800607D5D5F88800616920F4E4
:1017500040600843C5F888002078400607D5D5F8D2
:101760008800A16920F440500843C5F8880020781B
:10177000000607D5D5F88800E16920F44040084309
:10178000C5F888002088C00507D5D5F88800216AEB
:1017900020F440300843C5F888002088800507D52C
:1017A000D5F88800616A20F440200843C5F8880015
:1017B000208840050FD5D5F88800A16A20F4401094
:1017C0000843C5F88800A06AB0F5801F03D1E86817
:1017D00040F48010E860208800050FD5D5F8880017
:1017E000E16A20F440000843C5F88800E06AB0F5DB
:1017F000800F03D1E86840F48010E8602088C004BE
:101800000FD5D5F88800216B20F040700843C5F84B
:101810008800206BB0F1807F03D1E86840F480102D
:10182000E86020884FF0006180040ED5D5F888006C
:10183000626B20F040601043C5F88800606B8842FE
:1018400003D1E86840F48010E860208840040ED599
:10185000D5F88800A26B20F040601043C5F88800DE
:10186000A06B884203D1E86840F48010E8602088CB
:1018700000040FD5D5F88800E16B20F040500843F4
:10188000C5F88800E06BB0F1805F03D1E86840F4F0
:101890008030E8603046BDE8F88300000010024068
:1018A000007000402DE9F0470E4605004FF000079C
:1018B00025D0DFF8AC81D8F8000000F00F00B0426E
:1018C0000CD2D8F8001021F00F013143C8F80010F5
:1018D000D8F8000000F00F00B04210D12968614C28
:1018E000C80741F2883A5AD06868DFF87C9103282B
:1018F00008D0022820682DD0400500282CDB0120CC
:10190000BDE8F08720688001F9D5E06800F00302A7
:10191000E068C0F30310401C032A19D0534A00BFEB
:10192000B2FBF0F0E268C2F306225043E268C2F371
:101930004162521C5200B0FBF2F0484517D9A06832
:1019400010F0F00F0CD0880711D5A86840B10EE058
:10195000474AE5E78003D0E700F0B6F8484506D9E6
:10196000A06820F0F00040F08000A0608027A06810
:10197000696820F003000843A060FFF751FD81462D
:1019800006E000BFFFF74CFDA0EB090151453AD836
:10199000A068696800F00C00B0EB810FF2D12868F4
:1019A000810714D5400703D5A06840F4E060A0602B
:1019B0002878000705D5A06820F4605040F4E06066
:1019C000A060A068A96820F0F000084304E0802F20
:1019D00003D1A06820F0F000A060D8F800104046C5
:1019E00001F00F01B14216D9016821F00F01314316
:1019F0000160FFF715FD074607E000BFFFF710FD88
:101A0000C11B514501D903207AE7D8F8000000F046
:101A10000F00B042F2D12878400705D5A068E968E8
:101A200020F4E0600843A0602878000706D5A0688D
:101A3000296920F4605040EAC100A06000F044F839
:101A4000A1680C4AC1F30311515C01F01F01C840A9
:101A50000949086009480068BDE8F047FFF7FEBC87
:101A6000002002400010024000B4C4040024F4002E
:101A700000366E012C4D00081000002004000020EC
:101A80000548064900688968054AC1F30221515C8E
:101A900001F01F01C84070471000002000100240F4
:101AA0003C4D00080548064900688968054AC1F3AD
:101AB000C221515C01F01F01C84070471000002096
:101AC000001002403C4D0008184910B58868C0F36A
:101AD00081021748012A0BD08A68164BC2F3810293
:101AE000022A06D08A68C2F38102032A03D00020AA
:101AF00010BD184610BDCA6802F00304CA68C2F3DC
:101B00000312521C032C02D0B0FBF2F001E0B3FB35
:101B1000F2F0CA68C968C2F306225043C1F34161BA
:101B2000491C4900B0FBF1F010BD0000001002405C
:101B30000024F40000366E012DE9F84304007AD049
:101B40002078FA4DC00747D0A868E96800F00C007B
:101B500001F003010C2802D0082817D001E0032966
:101B600014D06068B0F5803F17D0B0F5A02F28687A
:101B700017D020F480302860286820F48020286066
:101B80006068E0B1FFF74CFC064614E0286880036B
:101B900022D560680028D2D01EE0286840F480304A
:101BA000EDE740F480202860F7E700BFFFF738FC3E
:101BB000801B642870D828688003F7D50CE0FFF7F5
:101BC0002FFC064605E000BFFFF72AFC801B6428B7
:101BD000F0D828688003F7D4207880074CD5A8680F
:101BE000E96800F00C0001F003010C2802D0042881
:101BF0000DD001E002290AD0E068002828682BD027
:101C000040F480702860FFF70BFC064619E0286856
:101C1000400502D5E068002891D06868217C20F05A
:101C2000FE4040EA01606860C1480068FFF716FCAA
:101C3000002800D120E076E1FFF7F2FB801B0228AC
:101C4000B8D828684005F7D56868217C20F0FE40A8
:101C500040EA016068600FE020F480702860FFF7C0
:101C6000DFFB064605E000BFFFF7DAFB801B02281A
:101C7000A0D828684005F7D42078000729D56069E6
:101C80000028D5F8940013D040F00100C5F8940066
:101C9000FFF7C6FB064606E090E000BFFFF7C0FB7B
:101CA000801B022886D8D5F894008007F6D510E06E
:101CB00020F00100C5F89400FFF7B2FB064604E0EF
:101CC000FFF7AEFB801B022878D8D5F89400800778
:101CD000F6D42078400761D5A86D0026C00008D44E
:101CE000A86D40F08050A865A86D012600F08050D6
:101CF000009090480168C90511D40168804641F4FC
:101D000080710160FFF78CFB074604E0FFF788FB5A
:101D1000C01B022852D8D8F80000C005F6D5A0682C
:101D2000012815D00528D5F8900016D020F0010024
:101D3000C5F89000D5F8900020F00400C5F8900098
:101D4000A06841F28838B8B1FFF76AFB07460EE099
:101D5000D5F8900040F00100F0E740F00400C5F82D
:101D60009000F5E7FFF75CFBC11B414526D8D5F88D
:101D700090008007F6D50CE0FFF752FB074604E021
:101D8000FFF74EFBC11B414518D8D5F890008007DE
:101D9000F6D41EB1A86D20F08050A865207880068A
:101DA00029D5A0690028D5F8980013D040F001008B
:101DB000C5F89800FFF734FB064606E077E000BF61
:101DC000FFF72EFB801B022877D8D5F898008007F4
:101DD000F6D510E020F00100C5F89800FFF720FBD1
:101DE000064604E0FFF71CFB801B022865D8D5F8E7
:101DF00098008007F6D4E069F0B3A968C1F38101C7
:101E0000032961D00228286820F0807028600BD058
:101E1000E86820F00300E860E86847490840E860A7
:101E2000FFF7FEFA04464BE0FFF7FAFA064604E035
:101E3000FFF7F6FA801B02283FD828688001F7D404
:101E4000F4E908016FF00F0202EB01110843218A47
:101E50005204490802EB4151A26841EA02210843B9
:101E6000217D4FF07E42490802EB41610843217B0E
:101E700040EAC160E96800E062E0304A114008438E
:101E8000E860286840F080702860E86840F0807062
:101E9000E860FFF7C5FA044605E000BFFFF7C0FAA7
:101EA000001B022809D828688001F7D548E004E023
:101EB000FFF7B6FA001B022802D90320BDE8F88319
:101EC00028688001F4D43BE00128F7D0E868226A52
:101ED00000F00301914226D1616A00F0F00209018D
:101EE000103991421FD1A26A00F4FE41B1EB022FDA
:101EF00019D194F82C2000F07841B1EBC26F12D1C7
:101F0000218E00F4C00249084905A1F50011914253
:101F100009D194F8341000F0C06049084906A1F1D5
:101F2000007181420CD00120C8E70000001002407F
:101F30000400002000700040FFFFEEFE0C809F01B7
:101F40000020BBE710B5401EB0F1807F01D3012017
:101F500010BD4FF0E02460610F21601701F0D0FF49
:101F60000020A06107202061002010BDF0B590F88E
:101F70003C20012A3AD0012580F83C50022280F80A
:101F80003D2003685A689C68194E1A4FB34201D02D
:101F9000BB4204D122F4700C4A6842EA0C02DFF81A
:101FA00058C002EA0C02D1F800C04CEA020CC3F897
:101FB00004C00268B2420DD0B2F1804F0AD00F4B7C
:101FC0009A4207D00E4B9A4204D0BA4202D00D4B2F
:101FD0009A4204D1896824F080031943916080F803
:101FE0003D50002180F83C100846F0BD0220F0BDB5
:101FF000002C0140003401408FFFFFFD0004004031
:10200000000800400040014090F83C20012A0CD01C
:10201000012200F83C2F0223437050F83C3C5961E8
:10202000427000210170084670470220704700008E
:1020300010B586B0044614216846FEF721F912490E
:10204000206888421DD11148C16C41F00101C16472
:10205000C06C002100F0010005908020009002205B
:10206000CDE90101CDE9031069464FF09040FFF73B
:10207000E1F8002202211D20FFF738FA1D20FFF7AA
:1020800027FA06B010BD0000000400400010024016
:1020900070B5044690F83C000D4601280BD0012095
:1020A00084F83C000C2A45D007DC5AB1042A1BD026
:1020B000082A78D12CE0022070BD102A4ED0142AB4
:1020C00071D15DE0206801F061F92068816941F01B
:1020D000080181612068816921F004018161206823
:1020E00081692A69114311E0206801F09DF9206897
:1020F000816941F4006181612068816921F4806116
:102100008161206881692A6941EA022181614AE08E
:10211000206801F0D1F92068C16941F00801C1616E
:102120002068C16921F00401C1612068C1692A6980
:10213000114311E0206801F007FA2068C16941F4F9
:102140000061C1612068C16921F48061C1612068BA
:10215000C1692A6941EA0221C16124E0206801F0D5
:102160003BFA2068016D41F0080101652068016DAE
:1021700021F0040101652068016D2A69114311E015
:10218000206801F061FA2068016D41F40061016589
:102190002068016D21F4806101652068016D2A6964
:1021A00041EA02210165002084F83C0070BD10B5B1
:1021B000040003D094F83D0010B107E0012010BDE9
:1021C000002084F83C00204600F022F8022084F829
:1021D0003D00211D206801F073F8012084F84800BB
:1021E00084F83E0084F83F0084F8400084F8410001
:1021F00084F8420084F8430084F8440084F84500E1
:1022000084F8460084F8470084F83D00002010BDA3
:1022100008B500680649884208D10648816D41F03A
:1022200002018165806D00F00200009008BD000091
:10223000000400400010024030B50446022269B19B
:10224000042912D0082917D00C291CD0102921D01C
:1022500094F84300012824D0012030BD94F83E00BA
:102260000128F9D184F83E201DE094F83F000128B0
:10227000F2D184F83F2016E094F840000128EBD119
:1022800084F840200FE094F841000128E4D184F85C
:10229000412008E094F842000128DDD184F8422072
:1022A00001E084F843200122206801F061F8194B15
:1022B00020681949194A984209D0884207D09042AB
:1022C00005D0174DA84202D0164DA84203D1456C47
:1022D00045F400454564206898420CD0B0F1804F29
:1022E00009D0114B984206D0104B984203D0884237
:1022F00001D0904207D181680D4A1140062906D0CD
:10230000B1F5803F03D0016841F001010160002078
:1023100030BD0000002C014000340140004001406D
:102320000044014000480140000400400008004013
:102330000700010090F87C10012918D0012180F8D5
:102340007C102421C0F8801050F8601B0A680B68CC
:1023500023F001030B6022F000510022426050F88C
:10236000603C19602021016202771046704702200C
:102370007047704770B5044690F87C0001281DD066
:10238000012084F87C002420C4F8800020680568BF
:10239000026822F0010202602068826822F0606216
:1023A0000A438260204601F087F9206805602020FA
:1023B000C4F88000002084F87C0070BD022070BD4D
:1023C00070B5044690F87C0001281DD0012084F8E7
:1023D0007C002420C4F8800020680568026822F090
:1023E000010202602068826822F060420A43826033
:1023F000204601F061F9206805602020C4F88000C3
:10240000002084F87C0070BD022070BD70477047CA
:10241000704700002DE9F04103680446D869196847
:102420009A6840F60F0528424FF0000509D186064C
:102430007ED501F0200602F080573E4378D0E16E51
:102440009EE0624E624F16400F40374370D0C70780
:1024500009D0CF0507D501271F62D4F8883043F093
:102460000103C4F8883083070AD5D30708D027684A
:1024700002233B62D4F8883043F00403C4F8883068
:1024800043070AD5D30708D0276804233B62D4F852
:10249000883043F00203C4F8883003070CD501F0FC
:1024A0002003334308D0266808233362D4F88830E9
:1024B00043F00803C4F8883003050BD54B0109D558
:1024C00026684FF400633362D4F8883043F0200369
:1024D000C4F88830D4F88830002B34D0800609D571
:1024E00001F0200002F08051084303D0E16E09B1F1
:1024F00020468847D4F8880021688968490602D4B4
:1025000010F0280F21D0204601F0A6F9206881683C
:10251000490615D5816821F040018160A06F78B12E
:102520002C498163A06FFEF737FE00280BD000E036
:1025300011E0A06F816B00E02046BDE8F041084744
:102540002046FFF765FFBDE8F0812046FFF760FFFA
:10255000C4F88850F7E7C60209D5560207D54FF4EC
:10256000801018622046BDE8F041FFF750BF060614
:1025700009D501F0800602F40002164303D0216F52
:102580000029D9D1DFE742060DD54A060BD51968D7
:10259000204621F0400119602021C4F880102567F1
:1025A00000F076F9CFE7020206D54A0004D52046AE
:1025B000BDE8F041FFF72ABFC001C4D50029C2DA47
:1025C0002046BDE8F041FFF7D4BE00000100001036
:1025D000200100044338000810B5040003D0D4F8EB
:1025E000800010B107E0012010BD002084F87C00BD
:1025F000204600F027F82420C4F8800020680168F5
:1026000021F001010160204601F038FA0128EBD0E9
:10261000A06A10B1204601F081F82068416821F4D9
:10262000904141602068816821F02A018160206822
:10263000016841F0010101602046BDE8104001F051
:10264000D1B8000010B586B0044614216846FDF7E5
:1026500017FE17492068884227D11648016E41F4B9
:1026600080410166016E01F480410591C16C41F029
:102670000101C164C06C694600F0010005904FF48F
:10268000C06000900220019000200290039007207B
:1026900004904FF09040FEF7CDFD0022032125204D
:1026A000FEF724FF2520FEF713FF06B010BD000043
:1026B000003801400010024070B5D0F88430202B63
:1026C0006DD1B9B1B2B190F87C30012B67D0012344
:1026D00080F87C308165A0F85C20A0F85E200021A5
:1026E000C16683684FF48056FF24B34207D1036963
:1026F00013B11CE0012070BD40F2FF131DE07F25E7
:102700009BB1B3F1805F15D0A0F86010C0F88810BD
:102710002223C0F8843003689C6844F001049C6064
:10272000436EB3F1005F0ED027E0036943B9A0F810
:102730006040EBE703691BB13F23A0F86030E5E799
:10274000A0F86050E2E7B0F86830934215D882688C
:10275000B24201D1026972B1124AC26680F87C109D
:1027600001680A6842F480720A600068816841F07A
:10277000805181600FE00C4AEFE78268B24201D1DC
:10278000026952B1094AC26680F87C10006801688B
:1027900041F490710160002070BD054AF3E702200A
:1027A00070BD0000DD390008DD3800087D39000803
:1027B0007D38000830B40C4A0168914212D10B4AAE
:1027C0000A23551C11782D78B1FBF3F403FB141385
:1027D000074C491CE55411700449012230BC491CC6
:1027E000FFF76ABF30BC704700380140400000204E
:1027F00088010020D0F88030202B3ED149B342B36D
:1028000090F87C30012B38D0012380F87C300165B2
:10281000A0F85420A0F8562000210167C0F88810C5
:102820002122C0F88020436E4FF48052B3F1005F44
:10283000836810D0934201D10269E2B1104A026765
:1028400080F87C100068016841F080010160002080
:10285000704701207047934201D102694AB1094A89
:10286000026780F87C100068816841F40001816093
:10287000EDE7054AF4E7054AE1E70220704700006A
:10288000913D0008D13D0008393D0008F53C0008A5
:102890007047FEE700B585B014216846FDF7F0FCEF
:1028A0004FF6FF70009000200321CDE90201019056
:1028B00069460248FEF7BEFC05B000BD00080048AE
:1028C00000B585B014216846FDF7DAFC4FF6FF70BD
:1028D000009001200190032003900020029069469F
:1028E0000248FEF7A7FC05B000BD00000008004844
:1028F00070B5002406462146204600F00BF900F092
:1029000045F94FF49635304600F010F9641CAC429E
:10291000F9D370BD01A100F061B800002020202093
:1029200020202020202020202020202020202020A7
:102930000000000030B587B014216846FDF7A0FC08
:102940001E48C16C41F00401C164C16C01F0040176
:102950000591C16C41F00101C164C16C01F001013C
:102960000591C16C41F00201C164C06C012500F009
:10297000020005904FF44870CDE90005002403944F
:10298000694602940E48FEF755FC28020394009015
:10299000CDE901544FF0904469462046FEF74AFCC9
:1029A000FFF78EFFA06940F48070A06104481830E2
:1029B000016841F40871016007B030BD00100240A9
:1029C00000040048203AD2B2034B02EB420203EB70
:1029D000021200F019B80000444D0008F0B50E4690
:1029E0000746002540F23F1407E021463846FFF72E
:1029F000E9FF103C6D1CA4B2761C3278002A01D08D
:102A0000142DF2D3F0BD00002DE9F04791468A461F
:102A10000026044600F07EF8DFF84080012700BF62
:102A200000F0B4F85FF0000539F8160007FA05F178
:102A30000842404601D1408800E0008800F076F866
:102A40006D1C102DF0D3641CE4B25146204600F0FA
:102A500061F8761C182EE3D3BDE8F087240000202F
:102A600010B5FFF767FF002000F014F8084CA080B5
:102A7000A088A0F50241303906D000F0C3FA00204A
:102A800000F008F8A08010BD00F033FAF7E700006E
:102A90002400002070B51D490A6842F400720A60E3
:102AA0000A6842F480720A60184C103C226842F0B6
:102AB00020022260164A1060086840F0200008607A
:102AC00000BF00BF00BF206840F0200020602068E9
:102AD00040F480702060FFF7DDFE4FF09041886A7F
:102AE00040F48070886200BF00BF00BF0848001F2C
:102AF000006885B2886940F480708861FFF7E0FE65
:102B0000206840F400702060284670BD280400480A
:102B10001408004810B50C460146202000F068F863
:102B20002146BDE81040212000F062B830B5154BB9
:102B30001968154A8CB2116841F40071116012498C
:102B400010390D6845F480750D600D6845F020055D
:102B50000D601860106840F02000106000BF00BFDA
:102B600000BF086840F020000860086840F48070EA
:102B7000086000BF00BF00BF086840F40070086034
:102B80001C6030BD1408004828040048164A10B5DF
:102B90001068164983B2086840F40070086008683D
:102BA00040F48070086011481038046844F0200434
:102BB0000460222414600C6844F020040C6000BF00
:102BC00000BF00BF016841F020010160016841F4CD
:102BD0008071016000BF00BF00BF016841F4007157
:102BE0000160136010BD000014080048280400486C
:102BF00070B51A4C22681A4B95B21A6842F40072EA
:102C00001A601A6842F480721A60154A103A1668FF
:102C100046F0200616602060186840F0200018601A
:102C200000BF00BF00BF106840F0200010601068B7
:102C300040F4807010602160186840F02000186037
:102C400000BF00BF00BF106840F020001060106897
:102C500040F480701060256070BD000014080048CA
:102C60002804004800EB8100006E00F0F840704737
:102C70008068C0F3C00070478068C0F38000704770
:102C8000C06810F4406F01D00020704701207047E9
:102C9000042303EAD15310B518444369C1F3045126
:102CA00007248C40A3438A401343436110BD00EBCB
:102CB0008100016E21F00041114301667047000060
:102CC00030B589B020216846FDF7DAFA194818496D
:102CD000002401604902C0E90114C46004250461B4
:102CE000C0E90545047744770121016280F824405A
:102CF000C462046380F83840C46380F84040FEF743
:102D00002BF808B1FDF712FE0B4800900620CDE924
:102D100001047F200594CDE9030569460548FDF7C8
:102D200007FE002801D0FDF701FE09B030BD00000C
:102D300000010050440000200080F03EF0B587B054
:102D400014216846FDF79CFA2D48C16C41F004013E
:102D5000C164C16C01F004010591C16C41F0200116
:102D6000C164C16C01F020010591C16C41F0010109
:102D7000C164C16C01F001010591C16C41F0020117
:102D8000C164C16C01F002010591C16C41F0080100
:102D9000C164C06C1B4E00F008004FF47F440590E6
:102DA000002221463046FEF736FB174F0022042151
:102DB0003846FEF730FB0125CDE90045002402949A
:102DC000694630460394FEF735FACDE9005469466A
:102DD0004FF090400295FEF72DFA07208DE8310064
:102DE00069460A48FEF726FA04200090CDE901540E
:102DF000694638460394FEF71DFA07B0F0BD00009F
:102E00000010024000080048000C00480004004880
:102E100010B58AB00024079408941C2168460994D0
:102E2000FDF72EFA1648154901604F21C0E901143B
:102E300040F2E731C0E903148461FFF7B8F908B143
:102E4000FDF774FD079407A90D480994FFF78EF864
:102E500008B1FDF76BFD602000906420CDE901040E
:102E60000422694606480494FFF712F908B1FDF7F9
:102E70005DFD0348FFF7DCF80AB010BD0004004018
:102E8000B0000020184810B5164901604FF41651E3
:102E90004160002181600C22C160C0E9041281619F
:102EA000C161016241628162FFF796FB08B1FDF7E3
:102EB0003DFD00210C48FFF783FA08B1FDF736FD10
:102EC00000210948FFF756FA08B1FDF72FFD064823
:102ED000FFF730FA002803D0BDE81040FDF726BD0B
:102EE00010BD000000380140FC000020FEE7FEE7B6
:102EF000704730B501210020FFF77AFE4FF47A7059
:102F0000FDF706FD00210120FFF772FE41F29071EE
:102F10001020FFF76DFE4FF41C516020FFF768FE94
:102F200001216120FFF764FE02214620FFF760FEC9
:102F300048F210011320FFF75BFE48F2FE01122059
:102F4000FFF756FE4FF4A0610220FFF751FE41F259
:102F500030010320FFF74CFE40F2033421463020BD
:102F6000FFF746FE21463120FFF742FE2146322080
:102F7000FFF73EFEE51E29463320FFF739FE032109
:102F80003420FFF735FE21463520FFF731FE1421AE
:102F90003620FFF72DFE21463720FFF729FE214678
:102FA0003820FFF725FE21463920FFF721FE29466C
:102FB0003A20FFF71DFE03213B20FFF719FE2146B3
:102FC0003C20FFF715FE4FF4A0513D20FFF710FE07
:102FD0004FF400719220FFF70BFE21469320FFF77C
:102FE00007FE40F60D019020FFF702FE41F21801A6
:102FF0000320FFF7FDFDBDE8304040F273110720CC
:10300000FFF7F6BD10B543F20801E320FFF7F0FD2E
:103010001221E720FFF7ECFD41F23121EF20FFF70D
:10302000E7FD00210120FFF7E3FD4FF4E0610220FE
:10303000FFF7DEFD41F230010320FFF7D9FD00214B
:103040000420FFF7D5FD40F207210820FFF7D0FD4F
:1030500000210920FFF7CCFD00210A20FFF7C8FD61
:1030600000210C20FFF7C4FD00210D20FFF7C0FD5B
:1030700000210F20FFF7BCFD00211020FFF7B8FD55
:1030800007211120FFF7B4FD00211220FFF7B0FD4A
:1030900000211320FFF7ACFDC820FEF7B9F841F27C
:1030A00090611020FFF7A4FD40F227211120FFF7C7
:1030B0009FFD3220FEF7ACF81D211220FFF798FD8E
:1030C0003220FEF7A5F84FF400611320FFF790FDC2
:1030D00014212920FFF78CFD0B212B20FFF788FD01
:1030E0003220FEF795F800212020FFF781FD002116
:1030F0002120FFF77DFD07213020FFF779FD40F209
:1031000007713120FFF774FD06213220FFF770FDB3
:1031100040F204713520FFF76BFD41F60471362053
:10312000FFF766FD04213720FFF762FD00213820FC
:10313000FFF75EFD40F206713920FFF759FD40F2BE
:1031400001713C20FFF754FD0F213D20FFF750FD9A
:1031500000215020FFF74CFDEF215120FFF748FDE3
:1031600000215220FFF744FD40F23F115320FFF7AA
:103170003FFD4FF41C516020FFF73AFD0121612013
:10318000FFF736FD00216A20FFF732FD0021802085
:10319000FFF72EFD00218120FFF72AFD002182206C
:1031A000FFF726FD00218320FFF722FD0021842068
:1031B000FFF71EFD00218520FFF71AFD102190204A
:1031C000FFF716FD00219220FFF712FD0321932047
:1031D000FFF70EFD4FF488719520FFF709FD0021E0
:1031E0009720FFF705FD00219820FFF701FD41F230
:1031F00018010320FFF7FCFCBDE8104040F27311FA
:103200000720FFF7F5BC704703490888642801D2FE
:10321000401C0880FEF70AB90000002010B5A4B0D9
:1032200038216846FDF72CF814211FA8FDF728F86F
:1032300044210EA8FDF724F84FF40070FEF788F93A
:10324000012000900004019002200324CDE907042E
:103250001421CDE90A100C900D9009946846FEF7F0
:103260006BFC08B172B6FEE70F20CDE91F04002405
:103270002194229402211FA82394FEF713FB08B186
:1032800072B6FEE748F20100CDE90E0440071D903A
:103290000EA8FEF7C3F9002801D072B6FEE724B0ED
:1032A00010BD00000548016841F470010160034948
:1032B0004FF00060803908607047000088ED00E042
:1032C0002DE9F0430268234B234D244E244C4FF04C
:1032D0008049984207D0484505D0A84203D0B04263
:1032E00001D0A04203D122F070074A683A431D4F33
:1032F000DFF874C0DFF8748098420DD048450BD0D9
:10330000A84209D0B04207D0A04205D0B84203D0AD
:10331000604501D0404503D122F44075CA682A4374
:103320004D6922F080022A4302608A68C2620A68FC
:103330008262984207D0A04205D0B84203D06045CF
:1033400001D0404501D10969016301214161BDE816
:10335000F0830000002C0140000400400008004001
:103360000034014000400140004401400048014059
:1033700010B501F01F030121046A99408C430462D7
:10338000016A9A401143016210BD00002DE9F0432B
:10339000026A22F001020262056A436882691C4CDB
:1033A00025F0020522400C6822F0030214438A68CB
:1033B000194E2A43174D194FDFF864C0DFF86490A7
:1033C000A84207D0B04205D0B84203D0604501D032
:1033D000484506D122F00808CA6842EA080222F0ED
:1033E0000402A84207D0B04205D0B84203D06045DD
:1033F00001D0484505D14D6923F440731D438B69C5
:103400002B4343608461496841630262BDE8F083F5
:103410008FFFFEFF002C01400034014000400140BE
:103420000044014000480140F0B5026A22F0100259
:103430000262056A42688369194C1B4E23400C687E
:1034400023F4407343EA042425F020038D6843EA03
:103450000513144DA84201D0B04206D1CF6823F025
:10346000800343EA071323F04003A8420AD0B04286
:1034700008D00E4DA84205D00D4DA84202D00D4DEA
:10348000A84207D14D6922F4406242EA85028D6963
:1034900042EA850242608461496881630362F0BD4B
:1034A000FF8FFFFE002C014000340140004001402E
:1034B0000044014000480140F0B5026A22F48072E5
:1034C0000262056A4368C269194C1B4E22400C68AF
:1034D00022F00302144325F400728D6842EA0522AB
:1034E000144DA84201D0B04206D1CF6822F4006248
:1034F00042EA072222F48062A8420AD0B04208D0F1
:103500000E4DA84205D00E4DA84202D00D4DA84246
:1035100007D14D6923F4405343EA05138D6943EA0B
:1035200005134360C4614968C1630262F0BD0000D5
:103530008FFFFEFF002C014000340140004001409D
:103540000044014000480140F0B5026A22F4805274
:103550000262056A4268C369194C1B4E23400C681D
:1035600023F4407343EA042425F400538D6843EAAE
:103570000533144DA84201D0B04206D1CF6823F4E0
:10358000004343EA073323F48043A8420AD0B04201
:1035900008D00E4DA84205D00D4DA84202D00D4DC9
:1035A000A84207D14D6922F4404242EA85128D6952
:1035B00042EA85124260C461496801640362F0BD59
:1035C000FF8FFFFE002C014000340140004001400D
:1035D000004401400048014030B5026A22F48032C4
:1035E0000262046A4268036D114D2B400D681D4351
:1035F00024F400330C8943EA04430E4CA0420BD060
:103600000D4CA04208D00D4CA04205D00C4CA0425D
:1036100002D00C4CA04204D14C6922F4803242EA20
:1036200004224260056549688164036230BD000080
:103630008FFFFEFF002C014000340140004001409C
:10364000004401400048014030B5026A22F4801273
:103650000262046A4268036D114D24F400142B4089
:103660000D6843EA05230D8944EA05540D4DA8422F
:103670000BD00D4DA84208D00C4DA84205D00C4DE2
:10368000A84202D00B4DA84204D14D6922F48022F9
:1036900042EA8522426003654968C164046230BD24
:1036A000FF8FFFFE002C014000340140004001402C
:1036B00000440140004801403FB514A1D1E9002178
:1036C000CDE9002113A2D2E90012CDE90212416E28
:1036D000B9B1026891689268C1F34261520F1DF856
:1036E0000240E50002ACA25CB5FBF2F2A0F86A2051
:1036F0001DF80120615CD200B2FBF1F1A0F8681066
:103700003FBD0121A0F86A10F8E7000001010103A4
:1037100007010000080402040801010190F82810C4
:10372000C90706D001684A68C36A22F400321A4306
:103730004A6090F82810890706D501684A68036B2B
:1037400022F480321A434A6090F82810490706D5BF
:1037500001684A68436B22F480221A434A6090F859
:103760002810090706D501684A68836B22F40042D5
:103770001A434A6090F82810C90606D501688A687D
:10378000C36B22F480521A438A6090F8281089068D
:1037900006D501688A68036C22F400521A438A60D5
:1037A00090F82810490611D501684A68436C22F444
:1037B00080121A434A60416CB1F5801F06D101683E
:1037C0004A68836C22F4C0021A434A6090F82810B9
:1037D000090606D501684A68C06C22F4002202433B
:1037E0004A607047F8B500260446C0F88860FDF7C7
:1037F00017FE0546206800686FF07E47000708D571
:103800002B4600224FF400112046009700F00AFBDF
:1038100060B92068006840070AD52B4600224FF4A3
:1038200080012046009700F0FDFA08B10320F8BDA2
:103830002020C4F88000C4F8840084F87C60002054
:10384000F8BD10B5806A0021A0F85E10A0F85610EF
:10385000FEF7DEFD10BD000001680A6822F49072D8
:103860000A6001688A68044B1A408A602021C0F807
:1038700084100021C1667047FEFFFFEF10B5B0F85D
:103880006020D0F884300168222B04D0886940F091
:103890000800886110BD496A836D11401980816DEF
:1038A000891C8165B0F85E10491EA0F85E10B0F862
:1038B0005E100029EED101680A6822F490720A6055
:1038C00001688A6822F001028A602021C0F8841011
:1038D0000021C166FEF76EFF10BD000070B5044602
:1038E000B0F86060D0F88400222805D02068816993
:1038F00041F00801816170BDB4F8685023E0206890
:10390000406AA16D30400880A06D801CA065B4F8AD
:103910005E00401EA4F85E00B4F85E0088B920681E
:10392000016821F48071016020688168114A1140AA
:1039300081602020C4F884000020E0662046FEF765
:1039400039FF6D1EADB2002DD9D1B4F85E0000284C
:10395000D1D0B4F868108142CDD92068816821F0B7
:10396000805181600448E0662068016841F02001D0
:10397000016070BDFEFFFFEF7D38000810B5B0F8A4
:103980006020D0F884300168222B04D0886940F090
:103990000800886110BD496A1140826D1170816D07
:1039A000491C8165B0F85E10491EA0F85E10B0F8A1
:1039B0005E100029EED101680A6822F490720A6054
:1039C00001688A6822F001028A602021C0F8841010
:1039D0000021C166FEF7EEFE10BD000070B5044682
:1039E000B0F86060D0F88400222805D02068816992
:1039F00041F00801816170BDB4F8685023E020688F
:103A0000406AA16D30400870A06D401CA065B4F8FC
:103A10005E00401EA4F85E00B4F85E0088B920681D
:103A2000016821F48071016020688168114A1140A9
:103A300081602020C4F884000020E0662046FEF764
:103A4000B9FE6D1EADB2002DD9D1B4F85E000028CC
:103A5000D1D0B4F868108142CDD92068816821F0B6
:103A6000805181600448E0662068016841F02001CF
:103A7000016070BDFEFFFFEF7D3900082DE9F041C8
:103A80000446026880682169E3690843616900258A
:103A900019430843616EDFF830C2014310688B4B55
:103AA00018400843106020684168E26821F44051E2
:103AB000114341602168A069614501D0226A104329
:103AC0008A68834B1A4002438A602068C16A626A2E
:103AD00021F00F011143C1627E4923687E488B4269
:103AE0000DD1D0F8880010F0030006D0012855D081
:103AF000022842D003283FD152E001203DE077491F
:103B00008B420BD1D0F8880010F00C0035D004287F
:103B100033D0082840D00C282ED141E070498B4288
:103B20000BD1D0F8880010F0300026D0102835D006
:103B3000202831D030281FD132E06A498B420BD186
:103B4000D0F8880010F0C00017D0402826D0802878
:103B500022D0C02810D123E063450DD1D0F88800D1
:103B600010F4406009D0B0F5806F17D0B0F5006F49
:103B700012D0B0F5406F13D010205B495B4F002688
:103B80004FF40042634539D160B1022813D00428B4
:103B90000BD0082831D10DE00220EEE70420ECE73D
:103BA0000820EAE7FDF76CFF01E0FDF78DFF01005B
:103BB00001D17EE01146606A37F810206768B1FBDA
:103BC000F2F007EB470383426FD8B0EB073F6CD8A6
:103BD000002308461946FCF71BFB090241EA106165
:103BE00002027808101871413A460023FCF710FBD6
:103BF0003F4AA0F54071914259D956E0E3694FF62A
:103C0000EF7893422DD109284FD2DFE800F0050864
:103C1000114E0D4E4E4E1000FDF732FF01E0FDF744
:103C200041FF010004D144E0FDF74EFFF9E71146E2
:103C3000606A37F81000B1FBF0F04100606801EBFA
:103C40005001B1FBF0F080B2A0F1100141452CD839
:103C50004FF6F0710140C0F3420001432068C1609B
:103C600027E0092821D2DFE800F0050811200D2007
:103C700020201000FDF704FF01E0FDF713FF010015
:103C800004D116E0FDF720FFF9E71146606A37F826
:103C90001000B1FBF0F1606801EB5001B1FBF0F0F6
:103CA00080B2A0F11001414501D9012501E0216850
:103CB000C8600120A4F86A0024F8680F28466660EE
:103CC000A660BDE8F081000000800040F369FFCFEE
:103CD000FFF4FF1100380140001002400044004092
:103CE00000480040004C00400024F400144D00083F
:103CF000FFFC0F00D0F88010212910D1B0F8561029
:103D000071B1016D02680988C1F308019162016D0A
:103D1000891C0165B0F85610491EA0F8561070476E
:103D200001680A6822F080020A600068016841F0B8
:103D30004001016070470000D0F8801021291BD19C
:103D4000B0F86A1016E000BFB0F85620AAB10268B9
:103D5000D3691B060CD5036D1B88C3F3080393625C
:103D6000026D921C0265B0F85620521EA0F8562033
:103D7000491E89B20029E7D1704701688A6822F498
:103D800000028A600068016841F0400101607047EC
:103D9000D0F8801021290ED1B0F8561061B1016D14
:103DA000026809789162016D491C0165B0F85610EE
:103DB000491EA0F85610704701680A6822F0800278
:103DC0000A600068016841F040010160704700002E
:103DD000D0F88010212919D1B0F86A1014E000BF82
:103DE000B0F856209AB10268D3691B060AD5036D54
:103DF0001B789362026D521C0265B0F85620521E69
:103E0000A0F85620491E89B20029E9D170470168FF
:103E10008A6822F400028A600068016841F040016B
:103E2000016070472DE9F0479A4617460E46044652
:103E30004FF000094FF02008089D39E0681C37D08A
:103E4000FDF7EEFAA0EB0A00A84222D80DB32068D5
:103E5000016849072CD5C069C043000528D42168F2
:103E60004FF4006008622068016821F4D07101609D
:103E70002068816821F001018160C4F88080C4F865
:103E80008480C4F8888000BF84F87C900320BDE85B
:103E9000F0872068016821F4D07101602068816892
:103EA00021F001018160C4F88080C4F88480EBE7D0
:103EB0002068C06936EA000004D00020B842BDD0B6
:103EC0000020E4E70120F9E70148FEF7A3BA00006B
:103ED000FC000020FEE700000FB4084B10B504A959
:103EE00002AA039800F0EEF8044602A9002000F0B0
:103EF00080FC204610BC5DF814FB0000F34700086E
:103F00000907090E002804DB00F1E02080F8001406
:103F1000704700F00F0000F1E02080F8141D70479A
:103F200002E008C8121F08C1002AFAD17047704782
:103F3000002001E001C1121F002AFBD170470000E0
:103F40002DE9FF5F82B00021DDE90430020DDDF8CC
:103F500040B0034318D044F61050A2F2FF3242435F
:103F60001514119801281FD0A5EB0B00401C5FEA27
:103F7000000A4FF000064E4FDFF83891B046504629
:103F800015D5CAF1000413E0119801244AA30128B1
:103F900001D16FEA0B010298119AC0E90031C0E922
:103FA000024206B0BDE8F09FCBF10000DFE7044617
:103FB0000021404A491842EB0450CDE9001012E0BC
:103FC000E00707D032463B4640464946FCF711FA27
:103FD0008046894632463B4610461946FCF709FAA8
:103FE00006460F466410002CEAD1DDE90401DDE944
:103FF0000023BAF1000F06DAFCF7FBF942464B4604
:10400000FCF7F7F905E0FCF766FA42464B46FCF789
:1040100062FA04460E460022284BFCF719FC03D82E
:104020004FF0FF30014607E00022254B2046314685
:10403000FCF738F9FCF7F4FB102409E0002C0ADB4C
:104040000A220023FCF7E4F8039B30321A55641E61
:1040500050EA0102F2D1641C039AC4F11103144422
:10406000119A012A03D0012208430DD10AE0084326
:1040700004D000204FF0110B119072E7A3EB0B0559
:104080006D1E0DE05B4504DD4FF0000205F10105FA
:1040900004E003DA4FF00002A5F10105002AECD09C
:1040A00002981199C0E90231C0E9004579E70000A2
:1040B000000014400000F03F300000000000F0431A
:1040C0000000E03F2DE9FF4F95B09B46894606462C
:1040D00000250FE2252877D100242746F84A012140
:1040E000059400E0044316F8013F203B01FA03F079
:1040F0001042F7D130782A2811D06FF02F03307892
:10410000A0F13002092A16D8059A44F0020402EB05
:10411000820203EB42021044761C0590EFE759F847
:10412000042B0592002A03DA504244F4005405900F
:1041300044F00204761C30782E2816D116F8010FB0
:1041400044F004042A280DD06FF02F023078A0F13B
:104150003003092B09D807EB870302EB4303C71889
:10416000761CF3E759F8047B761C30786C280FD066
:1041700006DC4C2817D068280DD06A2814D104E03A
:10418000742810D07A280FD10DE044F400140AE00E
:1041900044F4801401E044F440147278824202D165
:1041A00004F58014761C761C307866280BD013DC5E
:1041B000582877D009DC002875D04528F6D0462845
:1041C000F4D047281AD19DE118E0632835D064283F
:1041D00079D0652812D195E1702873D008DC672862
:1041E000F1D069286FD06E280DD06F2806D1B5E0C8
:1041F00073282CD0752875D0782874D05A46179912
:1042000090476D1C75E1C4F30250022809D00328C1
:104210000DD0D9F8001004280DD00D6009F1040963
:1042200067E1D9F80010EA17C1E90052F6E7D9F8BA
:1042300000100D80F2E70D70F0E719F8041B8DF8FF
:10424000001000208DF80100EA46012003E059F833
:1042500004AB4FF0FF3061074FF0000102D40DE0D6
:1042600008F101018846B9420FDA8045F8DB1AF8F7
:1042700008100029F4D108E008F1010188468142C4
:10428000FADB1AF808100029F6D105985B46A0EB76
:10429000080721463846179A00F094FA284400EBA4
:1042A000080507E04DE029E10DE01AF8010B5A4638
:1042B00017999047B8F10108F7D25B462146384676
:1042C000179A13E142E00A220092C4F302524FF01F
:1042D000000A022A08D059F804CB032A4FEAEC71ED
:1042E0000AD00DE029E02AE009F1070121F00702D8
:1042F000F2E802C1914609E00FFA8CFC4FEAEC713A
:10430000042A03D14FFA8CFC4FEAEC71002907DA3A
:104310000A460021DCF1000C61EB02012D2202E0D3
:10432000220504D52B228DF80420012203E0E207A8
:1043300001D02022F7E7904659E00A2102E010223E
:104340000DE010214FF0000A00910BE010224FF019
:10435000000A44F004040827009203E008224FF00A
:10436000000A0092C4F30252022A05D059F804CB85
:104370000021032A08D009E009F1070121F0070212
:10438000F2E802C1914605E01FFA8CFC042A01D133
:104390000CF0FF0C4FF00008220728D5702806D03B
:1043A000009B83F0100353EA0A0305D00EE040227D
:1043B0008DF80420012208E05CEA010206D03022D8
:1043C0008DF804208DF8050002229046009B83F0B2
:1043D000080353EA0A030AD15CEA010201D1620729
:1043E00005D530228DF804204FF001087F1E582893
:1043F00004D034A003900EA802900DE036A0F9E797
:1044000053466046009AFBF703FF84460398825C9C
:104410000298401E029002705CEA0100F0D10298FE
:1044200006A9081A00F1200A600702D524F4803496
:1044300000E00127574502DDA7EB0A0000E000205D
:1044400000EB0A01009005984144401A0590E003F2
:1044500006D45B462146179A059800F0B3F9054447
:10446000002706E001A85A46C05D179990476D1CC9
:104470007F1C4745F6DBE0030CD55B462146179AC7
:10448000059800F09FF9054404E030205A4617993A
:1044900090476D1C0099481E00900029F5DC08E04B
:1044A000029802995A460078491C02911799904740
:1044B0006D1CBAF10001AAF1010AF1DC65E100000E
:1044C00009280100303132333435363738396162EA
:1044D00063646566000000003031323334353637AE
:1044E00038394142434445460000000000F058F985
:1044F0000544761C307800287FF4ECAD19B02846CE
:10450000BDE8F08F620700D4062709F1070222F008
:10451000070CFCE80223E14603F000485FEA080CC0
:1045200002D00FF2702C0DE05FEA045C02D50FF2AE
:10453000682C07E05FEAC47C02D00FF2602C01E037
:10454000AFF2700C4FF0FF3823F00043CDF850C0AD
:1045500065280CD006DC452809D046281DD0472800
:104560003DD13DE0662818D067287ED138E0002193
:10457000112F01DB112000E0781CCDE9000106A914
:104580000EA8FFF7DDFCDDE90F010E9A0391002173
:10459000009207F1010A04914DE04FF000400097AE
:1045A000CDE9011006A90EA8FFF7CAFCDDE90F024C
:1045B00003920E9B11990022DDF80CA00093049247
:1045C00011B9791C00EB010AB7EB0A0004D4C0F161
:1045D000FF3007F1010A0490AAEB0700019044E0C4
:1045E000012F00DA01270021112F01DD112000E049
:1045F0003846CDE9000106A90EA8FFF7A1FCDDE9C8
:104600000F010E9A0391002104910092BA462107EE
:104610000CD40399514500DA8A46BAF1010F05DD41
:10462000009AAAF10101515C302908D0B84202DA9F
:1046300010F1040F06DA0121CDE9011015E0AAF10D
:104640000101E9E7002805DC049901440491AAEB83
:10465000000102E0411C514500DD8A460499401AE0
:10466000401C01904FF000400290200704D40198B4
:10467000504501DBCDF8048000208DF84F000298F2
:104680000DF14F07B0F1004F25D02B200E9002986E
:104690004FF0020800280CDA404202902D200E90C4
:1046A00007E00A210298FBF7E0FF3031029007F89B
:1046B000011DB8F10001A8F10108F2DC0298002800
:1046C000EFD1791E0E980870307800F0200040F08D
:1046D000450007F8020D12A8C01B00F10708149846
:1046E000007800B1012000EB0A01019801EBE071B4
:1046F00005984144401A401E0590E00306D45B46ED
:104700002146179A059800F05DF805441498007842
:1047100018B15A46179990476D1CE00324D55B46A3
:104720002146179A059800F04DF805441CE00498BE
:10473000002807DBDDE90301884203DD0098405CC7
:10474000179901E0179930205A469047049805F1CF
:104750000105401C04900198401E019004D12E20B8
:104760005A46179990476D1CBAF10001AAF1010A47
:10477000DDDC05E017F8010B5A46179990476D1CD0
:10478000B8F10001A8F10108F4DC5B462146179A54
:104790000598ABE62D0000002B0000002000000073
:1047A0002DE9F041044600251E461746880404D42E
:1047B00005E039462020B0476D1C641EF9D5284617
:1047C000BDE8F0812DE9F041044600251E469046E3
:1047D000C80301D5302700E02027880404D505E070
:1047E00041463846B0476D1C641EF9D52846BDE8E1
:1047F000F0810A68531C0B601070704710B50128D7
:1048000001D0012200E000224FF47F410748FCF76D
:1048100002FE074C012204212046FCF7FCFD204645
:104820000022BDE810400421FCF7F5BD0008004857
:10483000000C004810B5012901D0012200E000223F
:1048400001460848FCF7E7FD074C012204212046F9
:10485000FCF7E1FD20460022BDE810400421FCF7F2
:10486000DABD000000080048000C00482DE9F041C6
:10487000214C224D224E2DED028B6088E18888422A
:104880000ED0B5FBF0F13268491ED162B5FBF0F0F5
:10489000401EF06001213046FDF7B6FB6088E080E5
:1048A000A7882089874203D16088E18888421ED08A
:1048B0006088B5FBF0F0FBF77DFE41EC180B384645
:1048C000FBF778FE9FED0F1B53EC112BFBF703FE5C
:1048D00053EC182BFBF78DFD9FED0C1B53EC112BAC
:1048E000FBF7E0FCFBF773FE316888632781BDECC2
:1048F000028BBDE8F08100002C00002040420F0038
:10490000B00000200000000000005940000000003E
:104910000000E03F10B50446FCF7C4FB0E490868F0
:10492000C0F38002002AFAD032212046FCF740FB77
:104930002046FCF70DFAFBF73DFE9FED081B53ECFC
:10494000112BFBF756FD9FED071B53EC112BFBF7CB
:1049500050FD41EC100B10BD00010050666666660C
:1049600066660A40000000000000303F10B500F00D
:104970003DF8194801781948012913D0022916D0A9
:1049800004290ED1017800290BD1418842F210721E
:1049900001F57A7189B24180914202D94FF47A715E
:1049A000418010BD017881F00101017010BD0178D6
:1049B0000029FBD090ED040ADFED090A094A30EE28
:1049C000200A10EE101A80ED040A9142EEDD9FEDF0
:1049D000060A80ED040A10BD160000202C000020FD
:1049E0009A99993E333353400000000070B5134D3F
:1049F00001212846FCF702FD044602212846FCF767
:104A0000FDFC44EA400404212846FCF7F7FC44EA94
:104A1000800401214FF09040FCF7F0FC084944EA83
:104A2000C00040F0F0000A78C04320EA0203424090
:104A30004B7082438A70087070BD0000000400480B
:104A40001400002010B51B4C86B02078C8B1012896
:104A500015D11820FDF75EFF17A14820FDF7BEFF16
:104A60002069FBF7D3FD41EC100B18A153EC102B80
:104A70006846FFF731FA69467820FDF7AFFF06B0C8
:104A800010BD17A11820FDF7A9FFE068FBF7BEFDD8
:104A900041EC100B16A153EC102B6846FFF71CFAE3
:104AA00069464820FDF79AFF628816A16846FFF71D
:104AB00013FAE0E72C0000202020202020202050A6
:104AC00041524120202020200000000020202020F2
:104AD000205650313A25332E3166562020200000D2
:104AE000202020202020204441544120202020004C
:104AF000202020565233373A25342E326656202055
:104B0000202000002020205041373A2564487A2098
:104B1000202020200000000008B5FDF7A1FF0020A4
:104B2000FDF7E6FE4FF6FF70ADF80000BDF800108F
:104B3000044801800021ADF80010BDF8001041804C
:104B400008BD0000240000202DE9F041204C4FF466
:104B50008076770020785A2530B9FCF761FCB0FBED
:104B6000F5F105FB110018B12078012806D014E0FA
:104B700001213046FFF75EFE00210BE0FCF750FC00
:104B8000B0FBF5F105FB110038B900213046FFF705
:104B900051FE01213846FFF74DFE94ED030AD4ED96
:104BA000040A4FF48060B4EEE00AF1EE10FA09DD79
:104BB000084C2188642903D300F020F800202080CD
:104BC000BDE8F081BDE8F0410021FFF733BE0000F1
:104BD0002C00002000000020FCF730FCFEF71EFB3C
:104BE000FEF7ACF8FEF74EF9FEF76AF8FEF710F99B
:104BF00000F01AF800F030F8FCE7000010B50146AC
:104C00000748FCF700FC074C012204212046FCF772
:104C100002FC20460022BDE810400421FCF7FBBB4B
:104C200000080048000C004810B5FFF775FF01228E
:104C300006490748FDF740FD04210648FDF7FCFA48
:104C4000BDE810400020FFF7D9BD00004100002062
:104C5000FC000020B000002010B5FFF787FE00F038
:104C600027F8FCF7DDFB1421B0FBF1F201FB120089
:104C700040B90D48FFF74EFE51EC100BFBF7D9FC85
:104C80000A49C860FFF7F2FDFFF75EFFFCF7C8FBBB
:104C90006921B0FBF1F201FB1200002803D1BDE84D
:104CA0001040FFF7CFBE10BD440000202C000020B4
:104CB00010B51248FBF7EFFA00281DD00F48FBF79C
:104CC000EAFA0E4C01280ED1207830280BD9392869
:104CD00009D8303800EB80004FF6FF7101EA400040
:104CE0000749888004E0042206A10848FDF782FDF8
:104CF000074900202060087010BD000088010020D6
:104D00002C0000206572726F720D0A00FC000020FA
:104D100040000020010002000400060008000A0014
:104D20000C00100020004000800000010000000086
:104D3000000000000102030406070809000000004B
:104D40000102030400000000000000000000000059
:104D50000000000000000000000000000000000053
:104D60000000000000000000000000000000000043
:104D700000000000000080018001800180018001AE
:104D8000800180018001800180018001800180011B
:104D90000000000080018001000000000000000011
:104DA0000000000000000000CC00CC00CC00CC00D3
:104DB000CC00CC000000000000000000000000005B
:104DC00000000000000000000000000000000000E3
:104DD00000000000000000000000000000000000D3
:104DE000600C600C600C30063006FE1FFE1F3006A3
:104DF00038071803FE1FFE1F180318038C018C01CF
:104E00008C01000000008000E003F80F9C0E8C1C59
:104E10008C188C009800F801E007800E801C8C181C
:104E20008C189C18B80CF00FE00380008000000084
:104E3000000000000000000000000E181B0C110C08
:104E400011061106110311039B018E01C038C06CBD
:104E500060446044304430441844186C0C380000FE
:104E6000000000000000E001F003380718061806F3
:104E70003003F001F000F8009C310E33061E061CD2
:104E8000061C063FFC73F02100000000000000003B
:104E900000000000000000000C000C000C000C00E2
:104EA0000C000C00000000000000000000000000EA
:104EB00000000000000000000000000000000000F2
:104EC000000000000000000200038001C000C000DC
:104ED00060006000300030003000300030003000F2
:104EE0003000300060006000C000C000800100039E
:104EF00000020000000020006000C000800180016E
:104F00000003000300060006000600060006000677
:104F1000000600060003000380018001C00060005D
:104F20002000000000000000000000000000000061
:104F3000C000C000D806F807E001300338070000C1
:104F40000000000000000000000000000000000061
:104F50000000000000000000000000000000000051
:104F600080018001800180018001FC3FFC3F8001C5
:104F7000800180018001800100000000000000002D
:104F80000000000000000000000000000000000021
:104F90000000000000000000000000000000000011
:104FA000000000000000800180010001000180007D
:104FB00000000000000000000000000000000000F1
:104FC000000000000000000000000000E007E00713
:104FD00000000000000000000000000000000000D1
:104FE00000000000000000000000000000000000C1
:104FF00000000000000000000000000000000000B1
:10500000000000000000C000C00000000000000020
:10501000000000000000000C000C00060006000666
:105020000003000300038003800180018001C000B1
:10503000C000C00060006000000000000000000030
:10504000000000000000E003F007380E180C0C18F8
:105050000C180C180C180C180C180C180C180C1830
:10506000180C380EF007E0030000000000000000FC
:1050700000000000000000018001C001F001980163
:105080008801800180018001800180018001800110
:10509000800180018001800100000000000000000C
:1050A000000000000000E003F80F180C0C180C18AA
:1050B00000180018000C000600038001C00060000A
:1050C00030001800FC1FFC1F000000000000000062
:1050D000000000000000E001F807180E0C0C0C0C9A
:1050E000000C0006C003C007000C001800180C18C4
:1050F0000C18180CF807E003000000000000000086
:10510000000000000000000C000E000F000F800DDA
:10511000C00C600C600C300C180C0C0CFC3FFC3FFD
:10512000000C000C000C000C00000000000000004F
:10513000000000000000F80FF80F180018000C0025
:10514000EC03FC071C0E001C0018001800180C18BB
:105150001C0C180EF807E00300000000000000001F
:10516000000000000000C007F00F381C18181800DD
:105170000C00CC03EC0F3C0E1C1C0C180C180C186B
:10518000181C380EF007E0030000000000000000CB
:10519000000000000000FC1FFC1F000C00060006C1
:1051A000000380038001C001C000E00060006000D7
:1051B00070003000300030000000000000000000EF
:1051C000000000000000E003F007380E180C180C77
:1051D000180C3806F007F007180C0C180C180C18EF
:1051E0000C18380CF80FE00300000000000000006D
:1051F000000000000000E003F007380E1C0C0C1843
:105200000C180C181C1C381EF81BE0190018000C98
:10521000000C1C0EF807F001000000000000000068
:10522000000000000000000000000000000000007E
:10523000800180010000000000000000000000006C
:10524000000000008001800100000000000000005C
:10525000000000000000000000000000000000004E
:10526000800180010000000000000000000000003C
:1052700000000000800180010001000180000000AA
:10528000000000000000000000000000000000001E
:10529000000000000010001C800FE003F800180060
:1052A000F800E003800F001C001000000000000068
:1052B00000000000000000000000000000000000EE
:1052C00000000000F81F000000000000F81F0000B0
:1052D00000000000000000000000000000000000CE
:1052E00000000000000000000000000000000000BE
:1052F0000000000008003800F001C007001F00187F
:10530000001FC007F0013800080000000000000086
:10531000000000000000E003F80F180C0C180C1837
:105320000018000C000600038001C000C000C0008F
:1053300000000000C000C0000000000000000000ED
:105340000000000000000000E00718180420C22937
:10535000224A114409440944094409221113E20C68
:10536000024004201818E0070000000000000000C0
:1053700000000000000080038003C006C006C006D5
:10538000600C600C301830183018F83FF83F1C7073
:105390000C600C6006C006C00000000000000000A9
:1053A000000000000000FC03FC0F0C0C0C180C1893
:1053B0000C180C0CFC07FC0F0C180C300C300C30CB
:1053C0000C300C18FC1FFC0700000000000000005F
:1053D000000000000000C007F01F38381C300C70BF
:1053E00006600600060006000600060006000660CD
:1053F0000C701C30F01FE0070000000000000000EF
:10540000000000000000FE03FE0F060E061806183E
:1054100006300630063006300630063006300618F4
:105420000618060EFE0FFE0300000000000000003C
:10543000000000000000FC3FFC3F0C000C000C00D2
:105440000C000C00FC1FFC1F0C000C000C000C00DE
:105450000C000C00FC3FFC3F0000000000000000BE
:10546000000000000000F83FF83F18001800180086
:1054700018001800F81FF81F18001800180018006E
:1054800018001800180018000000000000000000BC
:10549000000000000000E00FF83F3C780E6006E0DE
:1054A00007C00300030003FE03FE03C007C006C0DD
:1054B0000EC03CF0F83FE00F0000000000000000CC
:1054C0000000000000000C300C300C300C300C30B0
:1054D0000C300C30FC3FFC3F0C300C300C300C30EE
:1054E0000C300C300C300C300000000000000000CC
:1054F0000000000000008001800180018001800127
:105500008001800180018001800180018001800193
:105510008001800180018001000000000000000087
:10552000000000000000000600060006000600065D
:105530000006000600060006000600060006180623
:1055400018063807F003E00100000000000000002A
:1055500000000000000006300618060C06060603D0
:105560008601C60066007600DE008E010603060690
:10557000060C06180630066000000000000000005F
:1055800000000000000018001800180018001800A3
:10559000180018001800180018001800180018004B
:1055A00018001800F81FF81F00000000000000009D
:1055B0000000000000000EE01EF01EF01EF036D8C5
:1055C00036D836D836D866CC66CC66CCC6C6C6C603
:1055D000C6C6C6C686C386C3000000000000000021
:1055E0000000000000000C301C303C303C306C30BF
:1055F0006C30CC30CC308C310C330C330C360C3658
:105600000C3C0C3C0C380C3000000000000000008A
:10561000000000000000E007F81F1C380E70066054
:1056200003C003C003C003C003C003C003C00660BF
:105630000E701C38F81FE00700000000000000009A
:10564000000000000000FC0FFC1F0C380C300C3078
:105650000C300C300C18FC1FFC070C000C000C006C
:105660000C000C000C000C0000000000000000000A
:10567000000000000000E007F81F1C380E700660F4
:1056800003E003C003C003C003C003C007E0066318
:105690000E3F1C3CF83FE0F700C000000000000097
:1056A000000000000000FE0FFE1F06380630063026
:1056B00006300638FE1FFE0706030606060C06180F
:1056C00006180630063006600000000000000000EA
:1056D000000000000000E003F80F1C0C0C180C1870
:1056E0000C001C00F803E00F001E003806300630E6
:1056F0000E301C1CF80FE007000000000000000046
:10570000000000000000FE7FFE7F8001800180011C
:105710008001800180018001800180018001800181
:105720008001800180018001000000000000000075
:105730000000000000000C300C300C300C300C303D
:105740000C300C300C300C300C300C300C300C3079
:105750000C301818F81FE0070000000000000000DF
:1057600000000000000003600630063006300C1810
:105770000C180C18180C180C380E30063006700770
:1057800060036003C001C0010000000000000000D1
:105790000000000000000360C361C361C3616633A1
:1057A000663366336633663366336C1B6C1B6C1B67
:1057B0002C1A3C1E380E380E0000000000000000BD
:1057C0000000000000000FE00C7018303018700C62
:1057D000600EC00780038003C003E006700C301C1D
:1057E00018180C300E6007E00000000000000000F8
:1057F00000000000000003C006600C301C383818A0
:10580000300C6006E007C003800180018001800148
:105810008001800180018001000000000000000084
:10582000000000000000FC7FFC7F006000300018DA
:10583000000C000600038001C0006000300018006A
:105840000C000600FE7FFE7F00000000000000004C
:10585000000000000000E003E00360006000600062
:105860006000600060006000600060006000600038
:105870006000600060006000600060006000E003A5
:10588000E0030000000030003000600060006000B5
:10589000C000C000C000C001800180018001000381
:1058A00000030003000600060000000000000000E6
:1058B000000000000000E003E00300030003000319
:1058C00000030003000300030003000300030003C0
:1058D0000003000300030003000300030003E003D0
:1058E000E003000000000000C001C001600360038D
:1058F000600330063006180C180C00000000000091
:105900000000000000000000000000000000000097
:105910000000000000000000000000000000000087
:105920000000000000000000000000000000000077
:10593000000000000000FFFFFFFF0000000000006B
:105940000000000000000C000C000C000C000C001B
:105950000C0000000000000000000000000000003B
:105960000000000000000000000000000000000037
:105970000000000000000000000000000000000027
:10598000F003F8071C0C0C0C000FF00FF80C0C0CBB
:105990000C0C1C0FF80FF0180000000000000000B5
:1059A000000000000000180018001800180018007F
:1059B000D803F80F380C18181818181818181818D1
:1059C0001818380CF80FD803000000000000000081
:1059D00000000000000000000000000000000000C7
:1059E000C003F007300E180C18001800180018003B
:1059F000180C300EF007C00300000000000000008B
:105A0000000000000000001800180018001800181E
:105A1000C01BF01F301C1818181818181818181860
:105A20001818301CF01FC01B000000000000000010
:105A30000000000000000000000000000000000066
:105A4000C003F00F300C1818F81FF81F18001800CA
:105A50003818301CF00FC0070000000000000000E4
:105A6000000000000000800FC00FC000C000C00098
:105A7000F007F007C000C000C000C000C000C000B8
:105A8000C000C000C000C000000000000000000016
:105A90000000000000000000000000000000000006
:105AA000E00DF80F180E0C0C0C0C0C0C0C0C0C0C64
:105AB0000C0C180EF80FE00D000C0C0C1C06F8076F
:105AC000F00100000000180018001800180018006D
:105AD000D807F80F381C181818181818181818189C
