:020000040800F2
:10000000C006002081020008671E0008571900087A
:10001000651E00089F060008D122000800000000AD
:100020000000000000000000000000005322000853
:10003000A106000800000000691E00085522000803
:100040009B0200089B0200089B0200089B0200081C
:100050009B0200089B0200089B0200089B0200080C
:100060009B0200089B0200089B0200089B020008FC
:100070009B0200089B0200089B0200089B020008EC
:100080009B020008000000009B0200089B02000881
:100090009B0200089B0200089B0200089B020008CC
:1000A0009B0200089B0200089B0200089B020008BC
:1000B0009B0200089B0200089B0200089B020008AC
:1000C0009B0200089B0200089B0200089B0200089C
:1000D0009B0200089B0200089B0200089B0200088C
:1000E0009B020008812100089B0200089B02000877
:1000F0009B0200089B0200089B0200080000000011
:10010000000000009B020008000000009B020008A5
:100110009B020008000000009B0200089B020008F0
:100120009B0200089B0200089B0200089B0200083B
:100130009B02000800000000000000009B02000875
:100140009B0200089B020008000000000000000065
:10015000000000000000000000000000000000009F
:100160000000000000000000000000009B020008EA
:100170009B020008000000000000000000000000DA
:10018000000000009B0200080000000000000000CA
:10019000000000000000000000000000000000005F
:1001A00000000000000000009B0200089B02000805
:1001B0009B0200089B0200089B0200080000000050
:1001C000000000009B02000800000000000000008A
:1001D0009B0200089B02000800F002F800F041F8C2
:1001E0000AA090E8000C82448344AAF10107DA4592
:1001F00001D100F036F8AFF2090EBAE80F0013F0A3
:10020000010F18BFFB1A43F001031847B434000074
:10021000D4340000103A24BF78C878C1FAD8520705
:1002200024BF30C830C144BF04680C607047000070
:100230000023002400250026103A28BF78C1FBD8EF
:10024000520728BF30C148BF0B607047642900F0D7
:100250007380002070471FB502F034F91FBD10B540
:1002600010BD00F0E2F91146FFF7F5FF02F07CF84F
:1002700000F000FA03B4FFF7F2FF03BC00F008FA45
:100280000948804709480047FEE7FEE7FEE7FEE72A
:10029000FEE7FEE7FEE7FEE7FEE7FEE70448054966
:1002A000054A064B70470000C1220008D90100082A
:1002B000C0000020C0060020C0020020C0020020B4
:1002C0000FB41CB5074B06AA7B44694600900598FD
:1002D00000F093F90020694600F0A2F91CBC5DF81B
:1002E00014FB00005503000070B5044685690068E2
:1002F000C10601D5302600E02026C00707D070BD1A
:10030000D4E9012130469047206A401C20626D1ECE
:10031000F6D570BD70B5044685690078C00707D171
:1003200070BDD4E9012120209047206A401C206242
:100330006D1EF6D570BD00002DE9F0410646002483
:1003400010687529314616A510D0AFF3008000283B
:1003500002DA404213A507E031688A0701D512A5E9
:1003600002E0490704D511A5012401E0AFF30080A4
:1003700000210A2206F1240709E0B0FBF2FCB0FBE1
:10038000F2F302FB1C00303078541846491C002858
:10039000F3D123462A463046BDE8F04100F0CEB8FE
:1003A000000000002D0000002B00000020000000D5
:1003B0002DE9F05F894604464FF0000ADFF824B1CA
:1003C000FB44C0F820A02046E168884700287DD083
:1003D000252806D0D4E901219047206A401C2062DC
:1003E000F1E700255F462046E16888472028064659
:1003F00007DB312E05D2B81910F8200C08B10543DF
:10040000F1E7A80701D525F00405C4F81CA00027D2
:10041000C4F818A02A2E09D0304601F06AFF38B37C
:1004200004EB8708303EC8F8186019E059F8041B3F
:10043000204604EB87029161E1688847012F064658
:1004400018D1E069002820DA25F020051DE0D8F851
:10045000180000EB800006EB40003038C8F81800A8
:100460002046E1688847064601F043FF0028EED1A8
:10047000012F0AD02E2E08D12046E16888477F1C24
:100480000646022F45F02005C4DBA069002803DAE8
:10049000404245F00105A061E80701D025F01005B4
:1004A000A6B1A6F14100192802D8203645F400650E
:1004B0004A463146204625604D46FFF7C7FE60B1EB
:1004C000012807D0ED1D25F0070000E007E000F14E
:1004D000080978E705F1040975E730467AE7206AEC
:1004E000BDE8F09FEA3200004FF0000200B513466D
:1004F00094469646203922BFA0E80C50A0E80C5044
:10050000B1F12001BFF4F7AF090728BFA0E80C50F4
:1005100048BF0CC05DF804EB890028BF40F8042BED
:1005200008BF704748BF20F8022B11F0804F18BF5A
:1005300000F8012B70477047704770472DE9F0476E
:100540000D4699469246044600F124080168880643
:1005500004D5E06921F01001216000E00120A842EB
:1005600001DD471B00E00027A1697A1902EB0900B1
:10057000081AA0612078C00602D42046FFF7B4FE16
:10058000002608E0D4E901211AF806009047206A05
:10059000401C761C20624E45F4DB2078C0060AD54C
:1005A0002046FFF7A1FE06E0D4E901213020904764
:1005B000206A401C2062381EA7F10107F4DC07E026
:1005C000D4E9012118F805009047206A401C2062F8
:1005D000281EA5F10105F3DC2046FFF79BFE2078DD
:1005E000000602D50220BDE8F0870120FBE70000ED
:1005F00001694A1C02610878704700B58FB0CDE9E7
:1006000001310021059105497944CDE903101146D6
:100610006846FFF7CDFE0FB000BD0000E5FFFFFF0D
:100620000A6802F8010B0A607047754600F02CF862
:10063000AE4605006946534620F00700854618B0CF
:1006400020B5FFF72BFEBDE820404FF000064FF02D
:1006500000074FF000084FF0000B21F00701AC46F7
:10066000ACE8C009ACE8C009ACE8C009ACE8C00916
:100670008D46704710B50446AFF300802046BDE8B4
:100680001040FFF7F7BD0000004870475C000020F5
:1006900001491820ABBEFEE7260002007047FEE7C6
:1006A0007047002240F6B83306E00021491C89B2A9
:1006B0009942FBD3521C92B28242F6D3704772B673
:1006C000FEE7000070B5044600F040F90546601CE6
:1006D00002D004484068044400F038F9401BA042AE
:1006E000FAD370BD000000202DE9F04FDFF8209212
:1006F000002301260324A9F1040B85B00F2709F17B
:10070000040AABF1040EFAE006FA03F52A407CD0A5
:1007100091F804C00CF0030CBCF1010F02D0BCF145
:10072000020F26D1D0F808C0CDF800C04FEA430C24
:1007300004FA0CF8CDF810C0DDF800C02CEA080C63
:10074000CDF800C0D1F80C80DDF810C008FA0CF824
:10075000DDF800C048EA0C08C0F80880D0F804C0F2
:100760002CEA050C0D79C5F300159D4045EA0C05F2
:1007700045600D79ED43AD070ED0C5684FEA4308DB
:1007800004FA08FC25EA0C05D1F808C00CFA08FCAC
:100790004CEA050CC0F80CC00D7905F00305022DDC
:1007A00016D1DD0800EB850CCDF808C0DCF8208000
:1007B0005D074FEAD56C07FA0CF528EA05080D69C4
:1007C00005FA0CF5DDF808C045EA0805CCF820501C
:1007D00005684FEA430CCDF808C004FA0CFC25EA82
:1007E0000C0591F804C00CF00308DDF808C008FA05
:1007F0000CF848EA0508C0F800804D6815F4403F41
:100800007CD0444DD5F860C000E077E04CF0010C9E
:10081000C5F860C02D6E23F0030C05F001050095AE
:100820003D4D65440295AD684FEA837C4FEA1C78E4
:1008300007FA08FC25EA0C05B0F1904F06D0DFF866
:10084000DCC0604505D14FF0010C20E04FF0000CFA
:100850001DE0DFF8CCC0604502D14FF0020C16E07D
:10086000DFF8C0C0604502D14FF0030C0FE0DFF8A5
:10087000B8C0604502D14FF0040C08E0DFF8ACC00E
:10088000604502D14FF0050C01E04FF0060C0CFA68
:1008900008FC4CEA050C029DC5F808C0D9F80050C8
:1008A000CC46D1F8048095435FEAC82800D51543AB
:1008B000CCF80050DAF80050D446D1F804809543C3
:1008C0005FEA882800D51543CCF80050DBF80050CB
:1008D000DC46D1F8048095435FEA883800D515439B
:1008E000CCF80050DEF80050F446D1F8048095436F
:1008F0005FEAC83800D51543CCF800505B1C0A6885
:1009000032FA03F57FF400AF05B0BDE8F08F0000C8
:1009100008040140001002400000014000040048AB
:1009200000080048000C004800100048001400486F
:10093000426921EA02030A4043EA024181617047A9
:100940000AB1816170478162704700000148806888
:10095000704700000000002002488168426811448E
:10096000816070470000002010B50024032000F0D3
:1009700073F80F2000F008F808B1012401E000F03E
:1009800025F8204610BD000070B50E4E0546002427
:10099000706898B14FF47A71B1FBF0F00A490968B8
:1009A000B1FBF0F000F0C3FF40B9102D06D20022D9
:1009B0002946501E00F030F8356000E00124204642
:1009C00070BD0000000000200C0000200A4882B02A
:1009D000016E41F001010166016E01F0010100911B
:1009E000816D41F080518165806D00F080500090F4
:1009F00002B000F0A1B8000000100240002809DB9E
:100A000000F01F02012191404009800000F1E02028
:100A1000C0F8001170470000F0B40E4B1B680C4684
:100A2000C3F30223C3F10705042D00D90425191DC2
:100A3000072901D2002300E0DB1E012606FA05F19A
:100A4000491E214099409E40761E16403143F0BC1D
:100A500001F03FBC0CED00E0064900F00702086819
:100A60004FF6FF03184040EA0220034A1043086093
:100A7000704700000CED00E00000FA052B492C4BFC
:100A80000A6832214A432B4940B1B0F5007F08681B
:100A900029D020F4C06040F480602CE00868C0F3E6
:100AA0004120022804D051F8800F20F4807022E009
:100AB000D1F8800020F48070C1F88000086820F42C
:100AC000C06040F400700860B2FBF3F0401C00E02E
:100AD000401E4A69520501D50028F9D148694005F0
:100AE0000AD503207047C0F34120022806D051F8F0
:100AF000800F40F48070086000207047D1F88000BB
:100B000040F48070C1F88000086820F4C06040F4B0
:100B100000700860B2FBF3F0401C00E0401E4A6920
:100B20005205DBD50028F9D1D8E700000C000020E1
:100B300040420F00007000400248816841F480414B
:100B400081607047007000402DE9F843044600685A
:100B500000269D4D00035ED5A86D0027C00008D477
:100B6000A86D40F08050A865A86D012700F0805066
:100B70000090DFF85892D9F8001041F48071C9F85C
:100B80000010FFF7E3FE804606E000BFFFF7DEFE41
:100B9000A0EB080002282BD8D9F80000C005F5D535
:100BA000D5F8900010F4407014D0216C814211D01F
:100BB000D5F89000D5F8901020F4407041F48031C1
:100BC000C5F89010D5F8901021F48031C5F8901038
:100BD000C5F89000C00711D0FFF7B8FE804641F27B
:100BE000883907E0FFF7B2FEA0EB0801494501D9BB
:100BF00003260BE0D5F890008007F3D5D5F89000D8
:100C0000216C20F440700843C5F890001FB1A86D16
:100C100020F08050A8652078C00707D0D5F888005C
:100C2000616820F003000843C5F888002078800739
:100C300007D5D5F88800A16820F00C000843C5F856
:100C400088002078400707D5D5F88800E16820F0B3
:100C500030000843C5F888002078000707D5D5F88C
:100C60008800216920F0C0000843C5F8880020787A
:100C7000800607D5D5F88800616920F440600843F4
:100C8000C5F888002078400607D5D5F88800A16906
:100C900020F440500843C5F888002078000607D5A6
:100CA000D5F88800E16920F440400843C5F8880081
:100CB0002088C00507D5D5F88800216A20F4403087
:100CC0000843C5F888002088800507D5D5F8880036
:100CD000616A20F440200843C5F888002088400558
:100CE0000FD5D5F88800A16A20F440100843C5F854
:100CF0008800A06AB0F5801F03D1E86840F4801036
:100D0000E860208800050FD5D5F88800E16A20F456
:100D100040000843C5F88800E06AB0F5800F03D1B1
:100D2000E86840F48010E8602088C0040FD5D5F84A
:100D30008800216B20F040700843C5F88800206BC4
:100D4000B0F1807F03D1E86840F48010E86020882B
:100D50004FF0006180040ED5D5F88800626B20F05A
:100D600040601043C5F88800606B884203D1E86892
:100D700040F48010E860208840040ED5D5F8880043
:100D8000A26B20F040601043C5F88800A06B884239
:100D900003D1E86840F48010E860208800040FD593
:100DA000D5F88800E16B20F040500843C5F8880072
:100DB000E06BB0F1805F03D1E86840F48030E86018
:100DC0003046BDE8F883000000100240007000408B
:100DD0002DE9F0470E4605004FF0000725D0DFF85B
:100DE000AC81D8F8000000F00F00B0420CD2D8F867
:100DF000001021F00F013143C8F80010D8F80000AE
:100E000000F00F00B04210D12968614CC80741F2D0
:100E1000883A5AD06868DFF87C91032808D0022805
:100E200020682DD0400500282CDB0120BDE8F0878C
:100E300020688001F9D5E06800F00302E068C0F3A3
:100E40000310401C032A19D0534A00BFB2FBF0F034
:100E5000E268C2F306225043E268C2F34162521CC8
:100E60005200B0FBF2F0484517D9A06810F0F00F1F
:100E70000CD0880711D5A86840B10EE0474AE5E7D5
:100E80008003D0E700F092F8484506D9A06820F02A
:100E9000F00040F08000A0608027A068696820F022
:100EA00003000843A060FFF751FD814606E000BF44
:100EB000FFF74CFDA0EB090151453AD8A0686968DD
:100EC00000F00C00B0EB810FF2D12868810714D537
:100ED000400703D5A06840F4E060A06028780007D0
:100EE00005D5A06820F4605040F4E060A060A068E0
:100EF000A96820F0F000084304E0802F03D1A06827
:100F000020F0F000A060D8F80010404601F00F017A
:100F1000B14216D9016821F00F0131430160FFF79A
:100F200015FD074607E000BFFFF710FDC11B514547
:100F300001D903207AE7D8F8000000F00F00B04292
:100F4000F2D12878400705D5A068E96820F4E06070
:100F50000843A0602878000706D5A068296920F416
:100F6000605040EAC100A06000F020F8A1680C4A7F
:100F7000C1F30311515C01F01F01C8400949086029
:100F800009480068BDE8F047FFF7FEBC00200240BA
:100F90000010024000B4C4040024F40000366E01C6
:100FA000CE2400080C00002000000020184910B5D5
:100FB0008868C0F381021748012A0BD08A68164B53
:100FC000C2F38102022A06D08A68C2F38102032A90
:100FD00003D0002010BD184610BDCA6802F00304FB
:100FE000CA68C2F30312521C032C02D0B0FBF2F009
:100FF00001E0B3FBF2F0CA68C968C2F306225043AD
:10100000C1F34161491C4900B0FBF1F010BD000083
:10101000001002400024F40000366E012DE9F84370
:1010200004007AD02078FA4DC00747D0A868E96854
:1010300000F00C0001F003010C2802D0082817D0A2
:1010400001E0032914D06068B0F5803F17D0B0F5F7
:10105000A02F286817D020F480302860286820F45A
:10106000802028606068E0B1FFF770FC064614E05D
:101070002868800322D560680028D2D01EE0286846
:1010800040F48030EDE740F480202860F7E700BFAF
:10109000FFF75CFC801B642870D828688003F7D5B4
:1010A0000CE0FFF753FC064605E000BFFFF74EFCDF
:1010B000801B6428F0D828688003F7D42078800744
:1010C0004CD5A868E96800F00C0001F003010C2879
:1010D00002D004280DD001E002290AD0E0680028DF
:1010E00028682BD040F480702860FFF72FFC06465C
:1010F00019E02868400502D5E068002891D06868AA
:10110000217C20F0FE4040EA01606860C148006830
:10111000FFF73AFC002800D120E076E1FFF716FC4B
:10112000801B0228B8D828684005F7D56868217C5C
:1011300020F0FE4040EA016068600FE020F480701B
:101140002860FFF703FC064605E000BFFFF7FEFB43
:10115000801B0228A0D828684005F7D42078000713
:1011600029D560690028D5F8940013D040F001001B
:10117000C5F89400FFF7EAFB064606E090E000BFE2
:10118000FFF7E4FB801B022886D8D5F8940080077F
:10119000F6D510E020F00100C5F89400FFF7D6FB6B
:1011A000064604E0FFF7D2FB801B022878D8D5F86A
:1011B00094008007F6D42078400761D5A86D0026FA
:1011C000C00008D4A86D40F08050A865A86D012625
:1011D00000F08050009090480168C90511D4016862
:1011E000804641F480710160FFF7B0FB074604E0E0
:1011F000FFF7ACFBC01B022852D8D8F80000C0058E
:10120000F6D5A068012815D00528D5F8900016D08D
:1012100020F00100C5F89000D5F8900020F00400FF
:10122000C5F89000A06841F28838B8B1FFF78EFB8E
:1012300007460EE0D5F8900040F00100F0E740F0DE
:101240000400C5F89000F5E7FFF780FBC11B41459E
:1012500026D8D5F890008007F6D50CE0FFF776FB8E
:10126000074604E0FFF772FBC11B414518D8D5F8CB
:1012700090008007F6D41EB1A86D20F08050A865BC
:101280002078800629D5A0690028D5F8980013D0C9
:1012900040F00100C5F89800FFF758FB064606E04D
:1012A00077E000BFFFF752FB801B022877D8D5F804
:1012B00098008007F6D510E020F00100C5F89800EE
:1012C000FFF744FB064604E0FFF740FB801B0228C3
:1012D00065D8D5F898008007F6D4E069F0B3A9681E
:1012E000C1F38101032961D00228286820F08070B1
:1012F00028600BD0E86820F00300E860E868474900
:101300000840E860FFF722FB04464BE0FFF71EFBB6
:10131000064604E0FFF71AFB801B02283FD8286826
:101320008001F7D4F4E908016FF00F0202EB01111C
:101330000843218A5204490802EB4151A26841EA5C
:1013400002210843217D4FF07E42490802EB4161B2
:101350000843217B40EAC160E96800E062E0304A6E
:1013600011400843E860286840F080702860E86811
:1013700040F08070E860FFF7E9FA044605E000BF3E
:10138000FFF7E4FA001B022809D828688001F7D586
:1013900048E004E0FFF7DAFA001B022802D9032034
:1013A000BDE8F88328688001F4D43BE00128F7D039
:1013B000E868226A00F00301914226D1616A00F0D8
:1013C000F0020901103991421FD1A26A00F4FE41D6
:1013D000B1EB022F19D194F82C2000F07841B1EB39
:1013E000C26F12D1218E00F4C00249084905A1F54F
:1013F0000011914209D194F8341000F0C0604908FE
:101400004906A1F1007181420CD00120C8E700001B
:10141000001002400000002000700040FFFFEEFEC0
:101420000C809F010020BBE77047000001490120AC
:1014300048807047100000202DE9F0410446006804
:10144000456D0D4FE9074FF001084FF4003605D008
:10145000C0F85C803E602046FFF7E8FFA80706D58D
:1014600021680220C8653E602046FFF7DDFF84F852
:101470002580BDE8F08100001404014010B500682B
:101480000B4641680D480140080CD870C1F3042494
:101490005C7001F03F049C70C1F34231197052B985
:1014A00000F074FED870587800F070FE587098788C
:1014B00000F06CFE9870002010BD00003FFFFF00A0
:1014C00010B50B4601688968596001680969C1F364
:1014D0000E019960006801680D480140C1F30540A4
:1014E0001870C1F306245C7001F07F049C70890DB4
:1014F000D97052B900F04AFE1870587800F046FED4
:101500005870987800F042FE9870002010BD0000DE
:101510007F7F7F0070B504004FF0010040D094F849
:10152000250028B9002084F82400204600F03CF86B
:10153000022084F825002168CA20486221685320CF
:101540004862204600F038FE10BB20688169154AC9
:1015500011408161216888696268A369104322692A
:101560001A43104388612189E06840EA01402168FC
:101570000861204600F045FE50B9D4E90721114327
:1015800022686369956925F060452B431943916191
:101590002268FF215162002802D1012184F8251020
:1015A00070BD0000BFFF8FFB10B592B00446442110
:1015B0006846FEF799FF14492068884222D14FF40B
:1015C000002000904FF4407010906846FFF7BCFA7E
:1015D00008B1FFF774F80D4850F8901F41F400412E
:1015E00040F83819016841F4806101600068002208
:1015F00000F48060119001212920FFF70DFA2920C5
:10160000FFF7FCF912B010BD0028004000100240A6
:101610002DE9F05F044690F824000B46012844D0E1
:101620004FF0010984F824904FF0020A84F825A0B5
:101630002068002680694FEA4060AAB3002800DBDA
:10164000DE7098781978DA7840EA01405978090212
:1016500041EA8251084393F8201040EA0165D869B5
:101660005F68054358692168054398690743CA20A4
:1016700048622168532048625A6A4349B2F5807F24
:1016800022684FF400304FF0FF0893694FF47A7BE3
:1016900028D023F4085393612368C3F85CA0086042
:1016A000FFF754F982464CE002E00220BDE8F09FCB
:1016B000002800DBDE70187800F071FD0504587812
:1016C00000F06DFD45EA0025987800F068FD0543BF
:1016D000D87845EA805593F8200000F060FD45EA8F
:1016E0000065BCE723F4885393612368C3F85C90DA
:1016F0000860FFF72BF9824606E000BFFFF726F9E6
:10170000A0EB0A00584513D82068C068C007F5D080
:1017100020680564206847642068816941F4885125
:101720001BE000BFFFF712F9A0EB0A00584508D9EB
:101730002168C1F82480032084F8250084F82460FF
:10174000B4E72068C0688007ECD52068856420680D
:10175000C7642068816941F4085181610A481438DE
:10176000016841F40031016007480C38016841F418
:10177000003101602168C1F8248084F8259084F844
:101780002460002092E700001404014070B5044674
:1017900090F824000B4601281BD0012684F8246011
:1017A000022084F82500B2B19878D97840EA014542
:1017B00058781978000240EA413005432168CA2070
:1017C0004862216853204862204600F0F5FCD0B101
:1017D00020E0022070BD5878C10603D500F0EF006C
:1017E0000A305870D87800F0DAFC0504587800F018
:1017F000D6FC45EA0025987800F0D1FC054318781E
:1018000045EA4035DAE7084805402068456020464B
:1018100000F0F7FC2268FF21516208B984F82560C6
:10182000002184F8241070BD3FFFFF002DE9F04136
:10183000044690F8240090460D46012811D0012757
:1018400084F82470022084F825002168CA204862A8
:10185000216853204862204600F0AEFC002618B1F3
:1018600029E00220BDE8F0812068B8F1000F80690E
:101870004FEA406024D0002800DBEE70A878297879
:10188000EA7840EA01406978090241EA8251084356
:1018900018490840216808602068816921F4802186
:1018A0008161D5E90301084321688A691043886191
:1018B000204600F0A6FC2268FF215162A0B115E08D
:1018C000002800DBEE70287800F069FC03046878DB
:1018D00000F065FC43EA0023A87800F060FC0343B5
:1018E000E87843EA8050D3E784F8257084F82460D0
:1018F000B8E700007F7F7F0070B504460068C168CC
:1019000021F02001C160FFF721F805464FF47A76F7
:1019100007E000BFFFF71AF8401BB04201D90320CF
:1019200070BD2068C0688006F4D5002070BD10B579
:10193000401EB0F1807F01D3012010BD4FF0E024A4
:1019400060610F21601700F0C4FC0020A061072037
:101950002061002010BDFEE700B585B01421684667
:10196000FEF7C2FD4FF6FF70009000200321CDE985
:101970000201019069460248FEF7B6FE05B000BDBF
:101980000008004800B585B014216846FEF7ACFD9C
:101990004FF6FF700090012001900320039000207B
:1019A000029069460248FEF79FFE05B000BD0000A8
:1019B0000008004870B5002406462146204600F085
:1019C000FBF800F035F94FF49635304600F000F999
:1019D000641CAC42F9D370BD30B587B014216846A1
:1019E000FEF782FD1E48C16C41F00401C164C16C68
:1019F00001F004010591C16C41F00101C164C16CA9
:101A000001F001010591C16C41F00201C164C06C9B
:101A1000012500F0020005904FF44870CDE9000563
:101A200000240394694602940E48FEF75DFE2802E6
:101A300003940090CDE901544FF09044694620464C
:101A4000FEF752FEFFF79EFFA06940F48070A06190
:101A500004481830016841F40871016007B030BDD6
:101A60000010024000040048203AD2B2034B02EBBF
:101A7000420203EB021200F019B80000DE24000855
:101A8000F0B50E460746002540F23F1407E0214618
:101A90003846FFF7E9FF103C6D1CA4B2761C327883
:101AA000002A01D0142DF2D3F0BD00002DE9F0473B
:101AB00091468A460026044600F07EF8DFF8408012
:101AC000012700BF00F0B4F85FF0000539F81600F8
:101AD00007FA05F10842404601D1408800E000883D
:101AE00000F076F86D1C102DF0D3641CE4B2514662
:101AF000204600F061F8761C182EE3D3BDE8F0878D
:101B00001800002010B5FFF767FF002000F014F860
:101B1000084CA080A088A0F50241303906D000F022
:101B20002DFA002000F008F8A08010BD00F09DF90B
:101B3000F7E700001800002070B51D490A6842F45C
:101B400000720A600A6842F480720A60184C103C05
:101B5000226842F020022260164A1060086840F0B5
:101B60002000086000BF00BF00BF206840F02000D8
:101B70002060206840F480702060FFF7EDFE4FF099
:101B80009041886A40F48070886200BF00BF00BF47
:101B90000848001F006885B2886940F48070886139
:101BA000FFF7F0FE206840F400702060284670BD0A
:101BB000280400481408004810B50C4601462020AF
:101BC00000F068F82146BDE81040212000F062B81E
:101BD00030B5154B1968154A8CB2116841F4007183
:101BE0001160124910390D6845F480750D600D685B
:101BF00045F020050D601860106840F0200010606E
:101C000000BF00BF00BF086840F0200008600868FF
:101C100040F48070086000BF00BF00BF086840F457
:101C2000007008601C6030BD14080048280400489B
:101C3000164A10B51068164983B2086840F400705F
:101C40000860086840F48070086011481038046823
:101C500044F020040460222414600C6844F0200442
:101C60000C6000BF00BF00BF016841F020010160AF
:101C7000016841F48071016000BF00BF00BF0168CE
:101C800041F400710160136010BD000014080048A9
:101C90002804004870B51A4C22681A4B95B21A688D
:101CA00042F400721A601A6842F480721A60154A8F
:101CB000103A166846F0200616602060186840F05A
:101CC0002000186000BF00BF00BF106840F0200077
:101CD0001060106840F4807010602160186840F057
:101CE0002000186000BF00BF00BF106840F0200057
:101CF0001060106840F480701060256070BD0000B6
:101D00001408004828040048F0B587B0142168463C
:101D1000FEF7EAFB1D48C16C41F02001C164C16CB3
:101D200001F020010591C16C41F00401C164C16C56
:101D300001F004010591C16C41F00801C164C06C5F
:101D4000134E00F008004FF4F8540590002221468D
:101D50003046FEF7F5FD0F4F002204213846FEF70E
:101D6000EFFD0125CDE90045002402946946304687
:101D70000394FEF7B9FC04200090CDE901546946B4
:101D800038460394FEF7B0FC07B0F0BD00100240E7
:101D900000080048000C0048F0B591B014210AA8D2
:101DA000FEF7A2FB0024282168460F94FEF79CFB57
:101DB0002B482A49C0E900147D21816041F27071ED
:101DC000C0E903144FF080414461C0E90641046258
:101DD000FFF7A0FB08B1FEF772FC23258DF8285011
:101DE00059268DF829608DF82A400B940D94012214
:101DF0000AA91B480E94FFF719FD08B1FEF75FFC16
:101E000001208DF83C0003208DF83D0025278DF83A
:101E10003E708DF83F5001220FA91148FFF7B6FC24
:101E200008B1FEF74CFC8DF800508DF801600520DC
:101E30008DF802004FF48070019409900594069487
:101E400007948DF82070012269460548FFF7E0FBF2
:101E5000002801D0FEF733FC11B0F0BD002800408F
:101E600020000020FEE7FEE7704730B5012100208A
:101E7000FFF710FF4FF47A70FEF713FC00210120EA
:101E8000FFF708FF41F290711020FFF703FF4FF4B6
:101E90001C516020FFF7FEFE01216120FFF7FAFED2
:101EA00002214620FFF7F6FE48F210011320FFF74B
:101EB000F1FE48F2FE011220FFF7ECFE4FF4A061A4
:101EC0000220FFF7E7FE41F230010320FFF7E2FEB8
:101ED00040F2033421463020FFF7DCFE214631205A
:101EE000FFF7D8FE21463220FFF7D4FEE51E294633
:101EF0003320FFF7CFFE03213420FFF7CBFE21462E
:101F00003520FFF7C7FE14213620FFF7C3FE214618
:101F10003720FFF7BFFE21463820FFF7BBFE2146E2
:101F20003920FFF7B7FE29463A20FFF7B3FE032119
:101F30003B20FFF7AFFE21463C20FFF7ABFE4FF4FE
:101F4000A0513D20FFF7A6FE4FF400719220FFF74D
:101F5000A1FE21469320FFF79DFE40F60D01902043
:101F6000FFF798FE41F218010320FFF793FEBDE84A
:101F7000304040F273110720FFF78CBE10B543F2DA
:101F80000801E320FFF786FE1221E720FFF782FE1B
:101F900041F23121EF20FFF77DFE00210120FFF704
:101FA00079FE4FF4E0610220FFF774FE41F2300148
:101FB0000320FFF76FFE00210420FFF76BFE40F2C5
:101FC00007210820FFF766FE00210920FFF762FEC7
:101FD00000210A20FFF75EFE00210C20FFF75AFEC9
:101FE00000210D20FFF756FE00210F20FFF752FEC3
:101FF00000211020FFF74EFE07211120FFF74AFEB7
:1020000000211220FFF746FE00211320FFF742FEB9
:10201000C820FEF757FB41F290611020FFF73AFE0F
:1020200040F227211120FFF735FE3220FEF74AFB50
:102030001D211220FFF72EFE3220FEF743FB4FF446
:1020400000611320FFF726FE14212920FFF722FE4E
:102050000B212B20FFF71EFE3220FEF733FB002161
:102060002020FFF717FE00212120FFF713FE072194
:102070003020FFF70FFE40F207713120FFF70AFE14
:1020800006213220FFF706FE40F204713520FFF7EB
:1020900001FE41F604713620FFF7FCFD04213720D4
:1020A000FFF7F8FD00213820FFF7F4FD40F206713C
:1020B0003920FFF7EFFD40F201713C20FFF7EAFD08
:1020C0000F213D20FFF7E6FD00215020FFF7E2FD44
:1020D000EF215120FFF7DEFD00215220FFF7DAFD4E
:1020E00040F23F115320FFF7D5FD4FF41C51602003
:1020F000FFF7D0FD01216120FFF7CCFD00216A2010
:10210000FFF7C8FD00218020FFF7C4FD00218120DA
:10211000FFF7C0FD00218220FFF7BCFD00218320D6
:10212000FFF7B8FD00218420FFF7B4FD00218520D2
:10213000FFF7B0FD10219020FFF7ACFD00219220A9
:10214000FFF7A8FD03219320FFF7A4FD4FF488714A
:102150009520FFF79FFD00219720FFF79BFD0021B1
:102160009820FFF797FD41F218010320FFF792FD39
:10217000BDE8104040F273110720FFF78BBD00004F
:102180000148FFF759B9000020000020010901EBC8
:10219000810100F00F0000EB4100C0B27047002247
:1021A000014602E00A39C9B2521C0A29FAD21007C4
:1021B00041EA1060704700002DE9F04104460068D4
:1021C0000025C168490619D4C16841F08001C16089
:1021D000FEF7BCFB06464FF47A78032708E000BF01
:1021E000FEF7B4FB801B404502D9032584F8257017
:1021F0002068C068400601D4032DF1D12846BDE80F
:10220000F08170B5044600680025C16821F08001A6
:10221000C160206881694FF00306890607D4204613
:10222000FFF76AFB98B184F8256003250FE0816908
:1022300021F0200181612046FFF75EFB10B184F898
:10224000256003252068816941F0200181612846CD
:1022500070BD7047FEF780BB10B594B0382168465A
:10226000FEF742F914210EA8FEF73EF94FF4007074
:10227000FEF704FC012000900004019002200324DA
:10228000CDE907041421CDE90A100C900D900994B2
:102290006846FEF7C3FE08B172B6FEE70F20CDE92F
:1022A0000E04002010901190129002210EA8FEF74B
:1022B0008FFD002801D072B6FEE714B010BD0000FB
:1022C0000248016841F470010160704788ED00E048
:1022D000FEE70907090E002804DB00F1E02080F882
:1022E0000014704700F00F0000F1E02080F8141D8A
:1022F000704730380A2801D201207047002070470B
:1023000010B5012801D0012200E000224FF47F41E6
:102310000748FEF715FB074C012204212046FEF773
:102320000FFB20460022BDE810400421FEF708BB49
:1023300000080048000C004808B5FFF7E3FB002048
:10234000FFF738FB4FF6FF70ADF80000BDF8001046
:10235000044801800021ADF80010BDF80010418054
:1023600008BD000018000020FEF7FEFAFFF774FF1A
:10237000FFF7CAFCFFF710FD00F01AF800F020F894
:10238000FCE7000010B501460748FEF7D1FA074CFC
:10239000012204212046FEF7D3FA20460022BDE8A0
:1023A00010400421FEF7CCBA00080048000C004899
:1023B00010B5FFF7C1FFBDE810400020FFF7A0BF38
:1023C0002DE9F04190B000222F493048FFF778F80E
:1023D00000222F492D48FFF751F8DFF8B48002A8FA
:1023E00098F8002098F80210CDE9001298F8013012
:1023F00098F8032027A1FDF763FF02A93020FFF71B
:102400003FFB214C2AA1A07800906378227802A893
:10241000FDF756FF02A96020FFF732FBA8F1040583
:1024200000266888012800D16E80A0780721B0FBC3
:10243000F1F201FB1200012770B9162188F8031090
:102440000C2188F8011088F8021088F8007000222A
:102450000F490E48FFF79AF92878032808D127700A
:1024600004206070A670002207490848FFF7DEF9D3
:102470004FF48070FFF786FF4FF47A70FEF722F971
:1024800010B0BDE8F08100004800002020000020CE
:102490001400002064617465203230253032642DD0
:1024A000253032642D253032642D25640000000073
:1024B00074696D6520253032642D253032642D25F8
:1024C000303264004FF04070E1EE100A70470000B7
:1024D00000000000000001020304060708090000D4
:1024E00000000000000000000000000000000000EC
:1024F00000000000000000000000000000000000DC
:1025000000000000000000000000000000000000CB
:1025100080018001800180018001800180018001B3
:1025200080018001800180018001000000008001A5
:10253000800100000000000000000000000000001A
:102540000000CC00CC00CC00CC00CC00CC000000C3
:10255000000000000000000000000000000000007B
:10256000000000000000000000000000000000006B
:1025700000000000000000000000600C600C600C17
:1025800030063006FE1FFE1F300638071803FE1FF8
:10259000FE1F180318038C018C018C010000000041
:1025A0008000E003F80F9C0E8C1C8C188C009800A7
:1025B000F801E007800E801C8C188C189C18B80C51
:1025C000F00FE00380008000000000000000000029
:1025D000000000000E181B0C110C1106110611034F
:1025E00011039B018E01C038C06C604460443044CC
:1025F00030441844186C0C38000000000000000043
:10260000E001F0033807180618063003F001F00067
:10261000F8009C310E33061E061C061C063FFC7398
:10262000F021000000000000000000000000000099
:1026300000000C000C000C000C000C000C00000052
:10264000000000000000000000000000000000008A
:10265000000000000000000000000000000000007A
:10266000000200038001C000C00060006000300074
:1026700030003000300030003000300030006000AA
:102680006000C000C00080010003000200000000E4
:1026900020006000C00080018001000300030006EC
:1026A00000060006000600060006000600060003FD
:1026B000000380018001C0006000200000000000D5
:1026C00000000000000000000000C000C000D806AC
:1026D000F807E001300338070000000000000000A8
:1026E00000000000000000000000000000000000EA
:1026F0000000000000000000000080018001800157
:1027000080018001FC3FFC3F80018001800180014D
:102710008001000000000000000000000000000038
:1027200000000000000000000000000000000000A9
:102730000000000000000000000000000000000099
:102740008001800100010001800000000000000005
:102750000000000000000000000000000000000079
:10276000000000000000E007E0070000000000009B
:102770000000000000000000000000000000000059
:102780000000000000000000000000000000000049
:102790000000000000000000000000000000000039
:1027A000C000C000000000000000000000000000A9
:1027B000000C000C000600060006000300030003E6
:1027C0008003800180018001C000C000C000600063
:1027D0006000000000000000000000000000000099
:1027E000E003F007380E180C0C180C180C180C1815
:1027F0000C180C180C180C180C18180C380EF007C4
:10280000E0030000000000000000000000000000E5
:1028100000018001C001F001980188018001800160
:1028200080018001800180018001800180018001A0
:102830008001000000000000000000000000000017
:10284000E003F80F180C0C180C1800180018000CF6
:10285000000600038001C000600030001800FC1F6B
:10286000FC1F00000000000000000000000000004D
:10287000E001F807180E0C0C0C0C000C0006C0034D
:10288000C007000C001800180C180C18180CF807DA
:10289000E003000000000000000000000000000055
:1028A000000C000E000F000F800DC00C600C600CBF
:1028B000300C180C0C0CFC3FFC3F000C000C000C06
:1028C000000C0000000000000000000000000000FC
:1028D000F80FF80F180018000C00EC03FC071C0E92
:1028E000001C0018001800180C181C0C180EF80713
:1028F000E0030000000000000000000000000000F5
:10290000C007F00F381C181818000C00CC03EC0F8F
:102910003C0E1C1C0C180C180C18181C380EF00758
:10292000E0030000000000000000000000000000C4
:10293000FC1FFC1F000C0006000600038003800142
:10294000C001C000E0006000600070003000300096
:102950003000000000000000000000000000000047
:10296000E003F007380E180C180C180C3806F007A6
:10297000F007180C0C180C180C180C18380CF80F61
:10298000E003000000000000000000000000000064
:10299000E003F007380E1C0C0C180C180C181C1C4B
:1029A000381EF81BE0190018000C000C1C0EF8076C
:1029B000F001000000000000000000000000000026
:1029C0000000000000000000000080018001000005
:1029D0000000000000000000000000000000800176
:1029E0008001000000000000000000000000000066
:1029F00000000000000000000000800180010000D5
:102A00000000000000000000000000000000800145
:102A100080010001000180000000000000000000B3
:102A20000000000000000000000000000000001096
:102A3000001C800FE003F8001800F800E003800F8E
:102A4000001C00100000000000000000000000005A
:102A50000000000000000000000000000000F81F5F
:102A6000000000000000F81F00000000000000004F
:102A70000000000000000000000000000000000056
:102A8000000000000000000000000000000008003E
:102A90003800F001C007001F0018001FC007F00138
:102AA00038000800000000000000000000000000E6
:102AB000E003F80F180C0C180C180018000C000696
:102AC00000038001C000C000C00000000000C00082
:102AD000C000000000000000000000000000000036
:102AE0000000E00718180420C229224A11440944B2
:102AF0000944094409221113E20C02400420181869
:102B0000E0070000000000000000000000000000DE
:102B100080038003C006C006C006600C600C30183D
:102B200030183018F83FF83F1C700C600C6006C07D
:102B300006C00000000000000000000000000000CF
:102B4000FC03FC0F0C0C0C180C180C180C0CFC07DC
:102B5000FC0F0C180C300C300C300C300C18FC1F17
:102B6000FC07000000000000000000000000000062
:102B7000C007F01F38381C300C70066006000600D5
:102B8000060006000600060006600C701C30F01FF0
:102B9000E00700000000000000000000000000004E
:102BA000FE03FE0F060E0618061806300630063025
:102BB000063006300630063006180618060EFE0FE0
:102BC000FE03000000000000000000000000000004
:102BD000FC3FFC3F0C000C000C000C000C00FC1F28
:102BE000FC1F0C000C000C000C000C000C00FC3F47
:102BF000FC3F00000000000000000000000000009A
:102C0000F83FF83F18001800180018001800F81FC7
:102C1000F81F1800180018001800180018001800F5
:102C2000180000000000000000000000000000008C
:102C3000E00FF83F3C780E6006E007C00300030099
:102C400003FE03FE03C007C006C00EC03CF0F83F01
:102C5000E00F000000000000000000000000000085
:102C60000C300C300C300C300C300C300C30FC3F85
:102C7000FC3F0C300C300C300C300C300C300C3075
:102C80000C30000000000000000000000000000008
:102C9000800180018001800180018001800180012C
:102CA000800180018001800180018001800180011C
:102CB0008001000000000000000000000000000093
:102CC00000060006000600060006000600060006D4
:102CD0000006000600060006180618063807F0036E
:102CE000E001000000000000000000000000000003
:102CF00006300618060C060606038601C6006600A6
:102D00007600DE008E0106030606060C0618063065
:102D1000066000000000000000000000000000004D
:102D200018001800180018001800180018001800E3
:102D30001800180018001800180018001800F81FD4
:102D4000F81F00000000000000000000000000006C
:102D50000EE01EF01EF01EF036D836D836D836D823
:102D600066CC66CC66CCC6C6C6C6C6C6C6C686C354
:102D700086C300000000000000000000000000000A
:102D80000C301C303C303C306C306C30CC30CC30B3
:102D90008C310C330C330C360C360C3C0C3C0C38A0
:102DA0000C300000000000000000000000000000E7
:102DB000E007F81F1C380E70066003C003C003C094
:102DC00003C003C003C003C006600E701C38F81FA8
:102DD000E00700000000000000000000000000000C
:102DE000FC0FFC1F0C380C300C300C300C300C1865
:102DF000FC1FFC070C000C000C000C000C000C006D
:102E00000C000000000000000000000000000000B6
:102E1000E007F81F1C380E70066003E003C003C013
:102E200003C003C003C007E006630E3F1C3CF83F2D
:102E3000E0F700C0000000000000000000000000FB
:102E4000FE0FFE1F06380630063006300638FE1F1D
:102E5000FE0706030606060C06180618063006309E
:102E600006600000000000000000000000000000FC
:102E7000E003F80F1C0C0C180C180C001C00F803D5
:102E8000E00F001E0038063006300E301C1CF80F14
:102E9000E00700000000000000000000000000004B
:102EA000FE7FFE7F80018001800180018001800122
:102EB000800180018001800180018001800180010A
:102EC0008001000000000000000000000000000081
:102ED0000C300C300C300C300C300C300C300C3012
:102EE0000C300C300C300C300C300C301818F81F33
:102EF000E0070000000000000000000000000000EB
:102F000003600630063006300C180C180C18180C2C
:102F1000180C380E30063006700760036003C001DD
:102F2000C0010000000000000000000000000000E0
:102F30000360C361C361C36166336633663366335E
:102F4000663366336C1B6C1B6C1B2C1A3C1E380ED4
:102F5000380E00000000000000000000000000002B
:102F60000FE00C7018303018700C600EC007800332
:102F70008003C003E006700C301C18180C300E6083
:102F800007E000000000000000000000000000005A
:102F900003C006600C301C383818300C6006E0079F
:102FA000C0038001800180018001800180018001D7
:102FB0008001000000000000000000000000000090
:102FC000FC7FFC7F006000300018000C000600034E
:102FD0008001C0006000300018000C000600FE7F79
:102FE000FE7F000000000000000000000000000064
:102FF000E003E003600060006000600060006000CB
:1030000060006000600060006000600060006000C0
:103010006000600060006000E003E003000000006A
:1030200030003000600060006000C000C000C000E0
:10303000C00180018001800100030003000300063D
:10304000000600000000000000000000000000007A
:10305000E003E00300030003000300030003000398
:103060000003000300030003000300030003000348
:103070000003000300030003E003E003000000007E
:103080000000C001C0016003600360033006300629
:10309000180C180C000000000000000000000000E8
:1030A0000000000000000000000000000000000020
:1030B0000000000000000000000000000000000010
:1030C0000000000000000000000000000000000000
:1030D000FFFFFFFF000000000000000000000000F4
:1030E0000C000C000C000C000C000C000000000098
:1030F00000000000000000000000000000000000D0
:1031000000000000000000000000000000000000BF
:1031100000000000000000000000F003F8071C0C95
:103120000C0C000FF00FF80C0C0C0C0C1C0FF80F13
:10313000F018000000000000000000000000000087
:1031400018001800180018001800D803F80F380CE1
:10315000181818181818181818181818380CF80F04
:10316000D803000000000000000000000000000084
:1031700000000000000000000000C003F007300E57
:10318000180C1800180018001800180C300EF00762
:10319000C00300000000000000000000000000006C
:1031A00000180018001800180018C01BF01F301C71
:1031B000181818181818181818181818301CF01F94
:1031C000C01B000000000000000000000000000024
:1031D00000000000000000000000C003F00F300CF1
:1031E0001818F81FF81F180018003818301CF00FB6
:1031F000C007000000000000000000000000000008
:10320000800FC00FC000C000C000F007F007C00072
:10321000C000C000C000C000C000C000C000C000AE
:10322000C0000000000000000000000000000000DE
:1032300000000000000000000000E00DF80F180E74
:103240000C0C0C0C0C0C0C0C0C0C0C0C180EF80FC1
:10325000E00D000C0C0C1C06F807F001000000004B
:1032600018001800180018001800D807F80F381CAC
:1032700018181818181818181818181818181818CE
:10328000181800000000000000000000000000000E
:10329000C000C000000000000000C000C000C0006E
:1032A000C000C000C000C000C000C000C000C0001E
:1032B000C00000000000000000000000000000004E
:1032C000C000C000000000000000C000C000C0003E
:1032D000C000C000C000C000C000C000C000C000EE
:1032E000C000C000C000C000F8007800000000006E
:1032F0000C000C000C000C000C000C0C0C060C0359
:103300008C01CC006C00FC009C018C030C030C06AF
:103310000C0C000000000000000000000000000095
:10332000C000C000C000C000C000C000C000C0009D
:10333000C000C000C000C000C000C000C000C0008D
:10334000C0000000000000000000000000000000BD
:10335000000000000000000000007C3CFF7EC7E38E
:1033600083C183C183C183C183C183C183C183C13D
:1033700083C1000000000000000000000000000009
:10338000000000000000000000009807F80F381C43
:1033900018181818181818181818181818181818AD
:1033A00018180000000000000000000000000000ED
:1033B00000000000000000000000C003F00F300C0F
:1033C000181818181818181818181818300CF00FA2
:1033D000C00300000000000000000000000000002A
:1033E00000000000000000000000D803F80F380CB7
:1033F000181818181818181818181818380CF80F62
:10340000D803180018001800180018000000000069
:1034100000000000000000000000C01BF01F301C76
:10342000181818181818181818181818301CF01F21
:10343000C01B001800180018001800180000000039
:1034400000000000000000000000B007F003700062
:1034500030003000300030003000300030003000EC
:10346000300000000000000000000000000000002C
:1034700000000000000000000000E003F003380E30
:10348000180C3800F003C007000C180C380EF007B9
:10349000E003000000000000000000000000000049
:1034A00000008000C000C000C000F007F007C000AE
:1034B000C000C000C000C000C000C000C000C00705
:1034C0008007000000000000000000000000000075
:1034D000000000000000000000001818181818185C
:1034E000181818181818181818181818381CF01F59
:1034F000E0190000000000000000000000000000D3
:10350000000000000000000000000C18180C180C4F
:10351000180C300630063006600360036003C001FB
:10352000C0010000000000000000000000000000DA
:1035300000000000000000000000C141C141C36163
:103540006363636363633636363636361C1C1C1C75
:103550001C1C000000000000000000000000000033
:10356000000000000000000000001C38381C300C77
:10357000600660036003600360036006300C381C63
:103580001C380000000000000000000000000000E7
:103590000000000000000000000018303018301853
:1035A0007018600C600CE00CC006C006800380033D
:1035B000800380018001C001F00070000000000065
:1035C00000000000000000000000FC1FFC1F000CB9
:1035D000000600038001C000600030001800FC1FDE
:1035E000FC1F0000000000000000000000000000C0
:1035F00000038001C000C000C000C000C000C000C7
:1036000060006000300060004000C000C000C000EA
:10361000C000C000C00080010003000000000000E6
:103620008001800180018001800180018001800192
:103630008001800180018001800180018001800182
:103640008001800180018001800180010000000074
:103650006000C000C0018001800180018001800104
:1036600000030003000600030001800180018001C7
:10367000800180018001C0006000000000000000A7
:103680000000000000000000000000000000F0103A
:10369000F81F080F000000000000000000000000FC
:1036A0000000000000000000000000000000040016
:1036B00000080000000000000002000100001000EF
:1036C000E03600080000002020000000140200087E
:1036D0000037000820000020A0060000300200088B
:1036E0001000000001000000000000000024F400B1
:1036F00000000000000000000000FFFF00000000CC
:04000005080001D915
:00000001FF
