:020000040800F2
:1000000060080020A502000887390008F7330008BF
:1000100085390008DD180008914B00080000000039
:100020000000000000000000000000009F3C0008ED
:10003000DF1800080000000089390008A13C000812
:10004000BF020008BF020008BF020008BF0200088C
:10005000BF020008BF020008BF020008BF0200087C
:10006000BF020008BF020008BF020008BF0200086C
:10007000BF020008BF020008BF020008BF0200085C
:10008000BF02000800000000BF020008BF02000815
:10009000BF020008BF020008BF020008BF0200083C
:1000A000BF020008BF020008BF020008BF0200082C
:1000B000BF0200081D3D0008BF020008BF02000883
:1000C000BF020008BF020008BF020008BF0200080C
:1000D000BF020008854B0008BF020008BF020008ED
:1000E000BF020008BF020008BF020008BF020008EC
:1000F000BF020008BF020008BF02000800000000A5
:1001000000000000BF02000800000000BF0200085D
:10011000BF02000800000000BF020008293D0008DF
:10012000BF020008BF020008BF020008BF020008AB
:10013000BF0200080000000000000000BF0200082D
:10014000BF020008BF02000800000000000000001D
:10015000000000000000000000000000000000009F
:10016000000000000000000000000000BF020008C6
:10017000BF020008000000000000000000000000B6
:1001800000000000BF0200080000000000000000A6
:10019000000000000000000000000000000000005F
:1001A0000000000000000000BF020008BF020008BD
:1001B000BF020008BF020008BF02000800000000E4
:1001C00000000000BF020008000000000000000066
:1001D000BF020008BF02000800F002F800F053F868
:1001E0000AA090E8000C82448344AAF10107DA4592
:1001F00001D100F048F8AFF2090EBAE80F0013F091
:10020000010F18BFFB1A43F001031847006F0000ED
:10021000206F0000103A24BF78C878C1FAD852077E
:1002200024BF30C830C144BF04680C607047000070
:100230000023002400250026103A28BF78C1FBD8EF
:10024000520728BF30C148BF0B607047662905F0D0
:100250000886642900F05081732900F0CE850020C3
:1002600070471FB505F0F8FD9DE8030000F0D0FAD7
:1002700000F0CCFD04000020002105F051F9E06001
:100280001FBD10B510BD00F0DFFE1146FFF7E9FFFE
:1002900005F05AF800F0FDFE03B4FFF7F2FF03BCCF
:1002A00000F02EFF0948804709480047FEE7FEE7B7
:1002B000FEE7FEE7FEE7FEE7FEE7FEE7FEE7FEE716
:1002C00004480549054A064B704700000D3D0008EB
:1002D000D9010008600200206008002060040020AE
:1002E0006004002070B5064600F076FA056806F155
:1002F0000B0020F00704B4429CBF002070BD2B46C9
:100300006A68BAB11068A04210D304F108018842AB
:100310003CBF5068586007D351681019416011689C
:10032000091B016058601460101D70BD13465268AF
:10033000002AE7D12146284600F056FA0028DED1EF
:1003400070BD53EA020C00F069802DE9F04B4FF0CC
:100350000006002B1FBFB3FA83F503FA05F424FA55
:1003600005F65E4012BF1643B2FA82F502FA05F4B2
:10037000C5F120051EBF22FA05FC44EA0C04203515
:1003800056EA044C4FEA144418BF641C4FF00008AE
:100390004FF00009904271EB030C39D3002919BFCB
:1003A000B1FA81F701FA07F6B0FA80F700FA07F61A
:1003B000C7F120071EBF20FA07FC46EA0C062037CB
:1003C000B6FBF4FCA7EB0507103F07F01F0BCBF1C2
:1003D00020060CFA0BFB2CFA06F644BFB3460026A7
:1003E000202FA4BF5E464FF0000B5BEA060C08BF4F
:1003F0004FF0010B19EB0B09ABFB027C48EB060835
:10040000C01B06FB02CC0BFB03CC71EB0C01C1E75C
:100410000B46024641464846BDE8F08B13B54FF007
:1004200000004FF00001AFF30080BDE81C407047B2
:100430000FB41CB5074B06AA7B446946009005988B
:1004400000F0B1FC0020694600F0C0FC1CBC5DF867
:1004500014FB00009109000070B50446856900682E
:10046000C10601D5302600E02026C00707D070BDA8
:10047000D4E9012130469047206A401C20626D1E5D
:10048000F6D570BD70B5044685690078C00707D100
:1004900070BDD4E9012120209047206A401C2062D1
:1004A0006D1EF6D570BD70B50C460546012A05D007
:1004B0002878800600D5EA69002302E0012305E0E0
:1004C0005B1C934202D2E05C0028F9D1A869E618CF
:1004D000C01AA861286A184428622846FFF7BCFFA2
:1004E00004E0D5E9012114F8010B9047B442F8D398
:1004F0002846FFF7C7FF70BD2DE9F04106460024EE
:1005000010687529314616A510D0AFF30080002879
:1005100002DA404213A507E031688A0701D512A527
:1005200002E0490704D511A5012401E0AFF30080E2
:1005300000210A2206F1240709E0B0FBF2FCB0FB1F
:10054000F2F302FB1C00303078541846491C002896
:10055000F3D123462A463046BDE8F04100F0B5B954
:10056000000000002D0000002B0000002000000013
:100570002DE9F0474FF0000A89460446C0F820A054
:100580002046E1688847002876D0252806D0D4E99F
:1005900001219047206A401C2062F1E7E168204673
:1005A00000258847C4F81CA006460027C4F818A0F8
:1005B0002A2E09D0304604F001FC38B304EB87083A
:1005C000303EC8F8186019E059F8041B204604EBC7
:1005D00087029161E1688847012F064618D1E069DA
:1005E000002820DA25F020051DE0D8F8180000EBDF
:1005F000800006EB40003038C8F818002046E1685B
:100600008847064604F0DAFB0028EED1012F0AD015
:100610002E2E08D12046E16888477F1C0646022F0F
:1006200045F02005C4DBA069002803DA404245F00C
:100630000105A061E80701D025F01005B6B1A6F1CB
:100640004100192802D8203645F400654A46314653
:10065000204625604D46FFF7F9FD58B1012806D028
:10066000ED1D25F0070000F1080989E704E005F118
:10067000040985E730468AE7206ABDE8F08710B5AF
:10068000431C02E010F8011B71B18107FAD14FF051
:10069000013202C88C1A8C4314EAC211F9D0C01A74
:1006A0000A0603D0C01E10BDC01A10BD0A0401D036
:1006B000801E10BD0902FCD0401E10BD4FF000028C
:1006C0000429C0F0128010F0030C00F01B80CCF164
:1006D000040CBCF1020F18BF00F8012BA8BF20F8D2
:1006E000022BA1EB0C0100F00DB85FEAC17C24BF26
:1006F00000F8012B00F8012B48BF00F8012B7047D0
:100700004FF0000200B5134694469646203922BFAA
:10071000A0E80C50A0E80C50B1F12001BFF4F7AFF5
:10072000090728BFA0E80C5048BF0CC05DF804EBD7
:10073000890028BF40F8042B08BF704748BF20F845
:10074000022B11F0804F18BF00F8012B70470000FA
:100750004FF0013C50F8042B51F8043B9A4221D150
:10076000A2EB0C03934313EACC1317D150F8042BDC
:1007700051F8043B9A4215D1A2EB0C03934313EAC0
:10078000CC130BD150F8042B51F8043B9A4209D1F9
:10079000A2EB0C03934313EACC13DBD04FF0000021
:1007A000704700BFD01A01BAB1FA81F101F0180107
:1007B00022FA01F0CB40C1F12001DBB2C0B2C01A75
:1007C0002CFA01F3D11A914311EAC311E6D1704713
:1007D00070477047704700000048704704020020CF
:1007E000704770477047704738B504460A46002086
:1007F0006946AFF30080002808BF38BD0246009963
:10080000204600F007FB012038BD012000F014BC99
:10081000F8B5AFF30080054600200C46102000BF5D
:100820000646A819A0420DD9324669460020AFF30A
:100830000080070008BF00F0FFFB0098A04218BF2F
:100840000546C419FFF7C8FF05600746F01D20F0F4
:1008500007004619284600F00AF8B44208BFF8BD60
:10086000A21B31463868BDE8F84000F0D3BA002139
:100870000160C0E9011070471020704770B5044650
:10088000051FFFF7A9FF0068002C14BF446870BD66
:10089000002C18BFAC423CBF20466468F8D3016806
:1008A0000A18AA4218BF456003D12A6805461144B8
:1008B000016028684119A1421CBF6C6070BD61686D
:1008C000696021680844286070BD2DE9F0470D4635
:1008D00099469246044600F124080168880604D52A
:1008E000E06921F01001216000E00120A84201DD53
:1008F000471B00E00027A1697A1902EB0900081ADA
:10090000A0612078C00602D42046FFF7A5FD00268E
:1009100008E0D4E901211AF806009047206A401C3B
:10092000761C20624E45F4DB2078C0060AD52046AE
:10093000FFF792FD06E0D4E9012130209047206ABC
:10094000401C2062381EA7F10107F4DC07E0D4E95F
:10095000012118F805009047206A401C2062281EDB
:10096000A5F10105F3DC2046FFF78CFD2078000699
:1009700002D50220BDE8F0870120FBE770472DE992
:10098000FF4F0C461E464FF0FF378BB0D2E90001F7
:10099000DDF860800A908A46C1F30A5505B93D46E4
:1009A000002108464FF00000BAF1000F00F44000AB
:1009B00005DA00EB80004FF4400101EA50004FEAF5
:1009C0009059B9F1010F00DDB9460A9850EA4A0082
:1009D0000ED044F61050A5F2FF3545432F14B8F160
:1009E000000F1ED07542291E1EDDC9F100021CE059
:1009F000B8F1010F4FF0000001D0302103E0F243C5
:100A000005E02154401CB042FBDB304600220021AF
:100A100021540B99C1F80880C1E900200FB0BDE84E
:100A2000F08FBD1B6D1CDEE74A4600DA694206A85E
:100A300000F090FA06AB93E8070003AB83E80700E9
:100A400050460A9900F082FB8DE80700A0F500509F
:100A50001F3800900398002D0ADD42F21F014A461C
:100A60000844002303A90390684600F0EBFD09E069
:100A7000A0F500504A461F38002303A9039068469A
:100A800000F0F5FD8DE807000004000C03D04FF0E6
:100A9000FF30410800E01046B8F1000F03D00022FB
:100AA000009215461EE0751E05D400F0CDF93032D7
:100AB00062556D1EF9D5B3460122084302D00022CB
:100AC0007F1C04E02078302801D100227F1E002AFC
:100AD000099784D01DE0112D07DA00F0B5F9303206
:100AE00062556D1C50EA0102F5D1084302D000980E
:100AF000C8B10EE00021681E05E0235C625C63540F
:100B00002254401E491C8142F7DBAB46A81B401E05
:100B10000990002004F80B000B98099AC0F808808F
:100B2000C0E9002B7AE711264FF0000857E72DE9BE
:100B3000F04F88460446D21D22F0070191B0D1E95A
:100B40000001CDE90A0104F03FF802460B98C00FFE
:100B500001D02D2007E02068810701D52B2002E07D
:100B6000202101EAC000032A099001D0072A05DBF1
:100B700003464146204600F0ADF90BE1207880069F
:100B800001D5E06900E00620B8F1650F814606D086
:100B9000B8F1660F18D0B8F1670F70D131E00020BE
:100BA000B9F1110F009001DB112301E009F10103FC
:100BB0000AAA01A90CA8FFF7E2FEDDE90C700026E5
:100BC00009F10105834647E001204B4600904FF0B4
:100BD00000470AAA01A90CA8FFF7D1FEDDE90DB074
:100BE0000C995D46002610B909F101000D18B9EB0A
:100BF000050003D4C0F1FF3609F10105A5EB09009A
:100C00002BE0B9F1010F01DA4FF001090020B9F131
:100C1000110F0090484601DD112300E003460AAAA7
:100C200001A90CA8FFF7ABFEDDE90C704D460026CC
:100C30008346207800070AD4AB4500DA5D4601A858
:100C4000012D04DD411911F8011C302907D04F4551
:100C500002DA17F1040F04DA012082460FE06D1E5C
:100C6000EEE7002F02DCED1B3E4403E0781CA842B7
:100C700000DD7D1CB81B00F1010A4FF00047207811
:100C8000000703D4AA4501DB4FF0FF3A0021B7F17A
:100C9000004F0DF143088DF8431024D002202B2380
:100CA000002F01DA7F422D230A21021EA0F101004C
:100CB00000DC5FB197FBF1FC97FBF1F201FB1C7CC0
:100CC00017460CF1300C08F801CDEEE7A8F1010051
:100CD00003702188090501D5452100E06521A0F1B7
:100CE000010800F8011C09980FA9A1EB0807FF1DD6
:100CF00000B10120411901EBEA70A1693844081ADA
:100D0000401EA0612078C00602D42046FFF7A4FB55
:100D1000099828B1D4E901219047206A401C20623B
:100D20002078C00622D52046FFF796FB1EE0002E55
:100D300004DBB34502DD01A8805D00E03020D4E98A
:100D400001219047206A401C2062761CAAF1010014
:100D50005FEA000A0AD100F059F8C0680168405CF7
:100D6000D4E901219047206A401C2062281EA5F189
:100D70000105DCDC07E0D4E9012118F8010B9047FC
:100D8000206A401C2062381EA7F10107F3DC2046D0
:100D9000FFF778FB032011B041E6000001694A1C0F
:100DA00002610878704700B58FB0CDE901310021AC
:100DB000059105497944CDE9031011466846FFF7CE
:100DC000D7FB0FB000BD0000E5FFFFFF0A6802F887
:100DD000010B0A60704710B5436913B1AFF300808F
:100DE00001E0FFF760FB012010BD127800F1240143
:100DF0000A7000224A700122EDE711684FF0FF32BD
:100E0000E9E7000000487047FC01002000487047F7
:100E10001C020020034640688C46002818BF884208
:100E20003CBF03464068F8D318681844884207D08E
:100E30000CF1030020F00700001D411A521A014670
:100E4000081D0A60FFF71ABD30B5B0F10A024FEA7B
:100E5000900E71F100034EEA817EB0EB0E0061EB63
:100E600091014FEA101E4EEA017E10EB0E0041EB9D
:100E700011114FEA102E4EEA016E10EB0E0041EBFD
:100E800011214FEA104E4EEA014E10EB0E0041EBDD
:100E90001141401841F100014FEAD00040EA417091
:100EA0004FEAD10110EB80054FEA810444EA9074C7
:100EB00044EB01046D1944EB0404521BA3414FF0B1
:100EC000000348BF0A3200D530BD401C41F100018B
:100ED00030BD00002DE9F0411F460446032601689D
:100EE000072A01F4006004DB08B116A505E016A589
:100EF00003E008B115A500E015A521F01000206061
:100F0000A069C01EA0610FB1401EA0612046FFF77E
:100F1000A3FA4FB1D4E9012138469047206A401C1A
:100F20002062C01C206206E0206AFAE7D4E90121B1
:100F300015F8010B9047761EF8D22046FFF7A2FA6B
:100F4000BDE8F0814E414E006E616E00494E460094
:100F5000696E66002DE9F047814616468AB035482D
:100F600078440DC88DE80D0032487844801C03ACED
:100F70000DC884E80D0041F69B300844372190FBF2
:100F8000F1F290FBF1F5A5F1800501FB12041B3C89
:100F900002D56442012000E00020DFF898A08046DE
:100FA0000027FA44AAF1BE0A0EE0E0070AD0324652
:100FB000684607EB470101230AEB810100F057FB6C
:100FC0008DE8070064107F1C002CEED1194F7F4480
:100FD000AE3F19E0E80715D007EB04100DF1180A31
:100FE00090E80E008AE80E00C068F04201D198191E
:100FF00008903246012306A903A800F038FB03AB92
:1010000083E807006D10641C002DE3D14FF001034D
:1010100032466946B8F1000F03A802D000F012FB77
:1010200001E000F024FBC9E90001C9F808200AB07A
:10103000BDE8F0879061000010B500F039F8BDE818
:10104000104000F02FB870477546FFF7DBFEAE4644
:1010500005006946534620F00700854618B020B5C4
:10106000FFF72EF9BDE820404FF000064FF00007D3
:101070004FF000084FF0000B21F00701AC46ACE840
:10108000C009ACE8C009ACE8C009ACE8C0098D46AD
:10109000704710B50446AFF300802046BDE810400D
:1010A000FFF7FAB8002801D000F02AB87047000016
:1010B00010B5012805D0002103A000F027F8012079
:1010C00010BD09A1F8E7000053494752544D454D62
:1010D0003A204F7574206F662068656170206D65D9
:1010E0006D6F7279000000003A2048656170206DD4
:1010F000656D6F727920636F7272757074656400CC
:1011000001491820ABBEFEE72600020070B5054677
:101110000C460A2000E06D1C00F011F835B128786B
:101120000028F8D102E0641C00F009F814B120781E
:101130000028F8D1BDE870400A20AFF3008008B560
:1011400069468DF800000320ABBE08BD5FEA400C85
:1011500008BF91F0000F4FEA8C234FEAC12243EA07
:1011600051514FEA1C5018BF00F5F0404FEA3000D3
:1011700018BF41F000415FEA6C5C00F02980BCF1CF
:10118000FF3F08BF40F080407047130C06BF1204B9
:101190004FF0100C4FF0000C130E04BF12020CF1B4
:1011A000080C130F04BF12010CF1040C930F04BFC1
:1011B00092000CF1020CD30F04BF52000CF1010C91
:1011C00011464FF00002A0F11F00A0EB0C00704789
:1011D00011F0004F08BF704731F000413FF4D5AF28
:1011E0000B0C06BF09044FF0100C4FF0000C0B0E57
:1011F00004BF09020CF1080C0B0F04BF09010CF12C
:10120000040C8B0F04BF89000CF1020CCB0F04BF40
:1012100049000CF1010CCCF12003A0EB0C0022FAE8
:1012200003F302FA0CF241EA030100F101007047F6
:1012300020F07F4C80EA030023F07F47ACEB0703EC
:1012400003F57C5300F0004003F1FF032DE98049D2
:101250004FEA154B09B44FEA144325EA0B4E24EA32
:1012600003480FF2042606EB132749083E785FEA8D
:10127000320203FB0667C7F5000707FB06F64FEAD5
:1012800054374FEAD64606F1020607FB066CCCF14E
:10129000005C4FEA1C472CEA074C07FB06F40CFBEA
:1012A00006F504EB15464FEA961634BF00204FF0C2
:1012B00000404FEAD13706FB07FC4FEA1C4C0CFB01
:1012C0000BF7D21B03FB0CF761EB07010CFB0EF7CE
:1012D000B0EB074072EB17420CFB08F734BFA2EBF0
:1012E0000742B2EB074261EB17414FEA0C444FEA69
:1012F000910706FB07FC4FEA1C4C0CFB0BF7B0EB0D
:10130000C74072EB573203FB0CF734BFA2EBC74266
:10131000B2EBC74261EB57310CFB0EF7B0EBC700E5
:1013200072EB57720CFB08F734BFA2EBC702B2EBAB
:10133000C70261EB5771039F4FEA816141EA921145
:1013400004EBCC044FEAD1374FEA826206FB07FC7C
:1013500042EA90124FEA80604FEA1C4C0CFB0BF7FC
:10136000D21B03FB0CF761EB07010CFB0EF7B0EB94
:10137000074072EB17420CFB08F734BFA2EB0742A1
:10138000B2EB074261EB17414FEA8C554FEA9107E8
:1013900004EB9C2406FB07FC4FEA1C4C0CFB0BF7F0
:1013A000B0EBC74072EB573203FB0CF734BFA2EB34
:1013B000C742B2EBC74261EB57310CFB0EF7B0EB03
:1013C000C70072EB57720CFB08F734BFA2EBC702E1
:1013D000B2EBC70261EB577115EB4C254FEA816107
:1013E00041EA92114FEA82624FEAD13742EA901203
:1013F00006FB07FC44F100044FEA80604FEA1C4CF6
:101400000CFB0BF7D21B03FB0CF761EB07010CFB8A
:101410000EF7B0EB074072EB17420CFB08F734BF36
:10142000A2EB0742B2EB074261EB174115EB1C152B
:101430004FEA813141EA92414FEA823242EA9042D8
:101440004FEA80304FEA0C7644F1000448EA034347
:101450004EEA0B484FF0000EB2EB080C71EB03079D
:1014600024BF624639464EEB0E0E4FF0000B0018BB
:10147000524149414BEB0B0BB2EB080C71EB0307EC
:101480007BF1000B24BF624639464EEB0E0E4FF047
:10149000000B0018524149414BEB0B0BB2EB080C0F
:1014A00071EB03077BF1000B24BF624639464EEB1C
:1014B0000E0E51EA020718BF46F0010616EB0E7633
:1014C00055F1000254F1000103D5BDE88901BDE8E2
:1014D0000088BDE88901BDE80048B619524141EBDA
:1014E0000101A3F10103704780807F7E7D7C7B7AC0
:1014F0007978777676757473727171706F6E6E6DC0
:101500006C6C6B6A6A696868676666656464636365
:1015100062616160605F5F5E5E5D5D5C5C5B5B5AEB
:101520005A59595858575756565555555454535358
:1015300052525251515050504F4F4F4E4E4D4D4DB3
:101540004C4C4C4B4B4B4A4A4A49494948484847FE
:10155000474747464646454545444444444343433C
:101560004342424242414141002B9C4630D47700E5
:101570002BD01CB54FEA370703B44FF010004FF0E3
:101580001001BAF1000F06D0BCF1000FDCBF40F033
:10159000080040F008014FF000000FBCBDE810400B
:1015A0000BF1010BBBF1010F08BF5FEA170722BF68
:1015B00012F1010211F101014FF0004143F100036A
:1015C00000F0004043EA00007047F9D35708D0E725
:1015D00046EA064613F1400F4FEA16461FDD13F1A7
:1015E000200FDFBF16430A46002120335B42BED0E6
:1015F000C3F1200746EA064602FA07F74FEA164605
:1016000046EA0706C3F1200722FA03F201FA07F7B8
:1016100021FA03F14FF0000342EA0702A7E746EA86
:10162000020646EA06464FEA164646EA0106BCBFEF
:1016300046EA0646360C4FF000034FF000024FF02A
:10164000000194E72DE9804C9A46934670B491E8E6
:10165000380007C831EA400C48BF34EA430C03D5D0
:10166000FFF7E6FDFFF780FFF0BCBDE8008C2DE939
:10167000804C9A46934670B491E8380007C810F041
:10168000804F08BF13F0804F03D100F005F8FFF73B
:101690006BFFF0BCBDE8008C20F07F4780EA0300C0
:1016A00023F07F4C07EB0C03A3F57C5300F00040C4
:1016B000A3F1FE0392F0000F00F0B38095F0000F4D
:1016C00000F077802DE901494FEA11404FEA1446B6
:1016D00021EA004800FB06FC24EA064708FB06F660
:1016E00007FB08F800FB07F718EB06484CEB164C15
:1016F0004FEA124B18EB07484FEA15464CEB1740E0
:1017000022EA0B4E0BFB06FC25EA06470EFB06F60B
:1017100007FB0EFE0BFB07F71EEB064E4CEB164CC1
:101720004FF000061EEB074E4CEB174B18EB0B0867
:1017300040F1000018EB0E0B58EB000840F10000E0
:101740008F1A4FF000013CBFC943661B14BFB5EBB5
:10175000040C00213CBFC943F61B4FEA17444EEA74
:101760008E0E27EA04454FEA1C4704FB07622CEA69
:10177000074C05FB07F70CFB05F604FB0CFC16EB0E
:10178000074642EB174216EB0C4642EB1C421BEBA2
:10179000060658EB0202414146EA9E0601D5BDE825
:1017A0000189B619524141EB0101A3F10103BDE8E2
:1017B00001894FEA14454FEA114724EA054621EA18
:1017C000074C05FB07F406FB07F70CFB06F105FBCE
:1017D0000CFC11EB074144EB17444FEA124711EBA5
:1017E0000C4144EB1C4422EA074C05FB07F206FBC4
:1017F00007F70CFB06F605FB0CFC16EB074642EB65
:10180000174216EB0C4642EB1C456A1854F10001D6
:1018100048BF7047B619524141EB0101A3F10103E2
:10182000704795F0000F37D04FEA11424FEA144746
:1018300021EA024624EA074C02FB07F106FB07F700
:101840000CFB06F402FB0CFC14EB074441EB1741C4
:101850004FEA154714EB0C4441EB1C4125EA074CB9
:1018600002FB07F506FB07F70CFB06F602FB0CFC78
:1018700016EB074645EB174516EB0C4645EB1C42AD
:10188000121951F1000148BF7047B619524141EB9E
:101890000101A3F1010370474FEA14454FEA1147D4
:1018A00024EA054621EA074C05FB07F106FB07F78A
:1018B0000CFB06F24FF0000605FB0CFC12EB074296
:1018C00041EB174112EB0C4251EB1C4148BF7047F2
:1018D000921841EB0101A3F101037047FEE7704745
:1018E000002240F6B83306E00021491C89B2994233
:1018F000FBD3521C92B28242F6D3704772B6FEE717
:1019000010B590F8253000210122022B03D00421CC
:10191000C163012122E003681C6824F00E041C60EE
:10192000836C1C6824F480741C6003681C6824F0B9
:1019300001041C6090F84430046C03F01F0302FAA9
:1019400003F36360D0E913345C60436D33B11C680A
:1019500024F480741C60D0E916345C6080F8252083
:10196000002280F82420084610BD70B590F825208C
:10197000002401212346022A07D00422C26380F8F2
:10198000251080F82430012429E00268156825F02C
:101990000E0515600268156825F001051560826C5A
:1019A000156825F48075156090F84420056C02F0E8
:1019B0001F0201FA02F26A60D0E913255560426DF8
:1019C00032B1156825F480751560D0E9162555608B
:1019D00080F8251080F82430816B01B188472046BB
:1019E00070BD000070B5044600F03CF90546601C6F
:1019F00002D004484068044400F034F9401BA0427F
:101A0000FAD370BD000000202DE9F04FDFF82092DE
:101A1000002301260324A9F1040B85B00F2709F147
:101A2000040AABF1040EFAE006FA03F52A407CD072
:101A300091F804C00CF0030CBCF1010F02D0BCF112
:101A4000020F26D1D0F808C0CDF800C04FEA430CF1
:101A500004FA0CF8CDF810C0DDF800C02CEA080C30
:101A6000CDF800C0D1F80C80DDF810C008FA0CF8F1
:101A7000DDF800C048EA0C08C0F80880D0F804C0BF
:101A80002CEA050C0D79C5F300159D4045EA0C05BF
:101A900045600D79ED43AD070ED0C5684FEA4308A8
:101AA00004FA08FC25EA0C05D1F808C00CFA08FC79
:101AB0004CEA050CC0F80CC00D7905F00305022DA9
:101AC00016D1DD0800EB850CCDF808C0DCF82080CD
:101AD0005D074FEAD56C07FA0CF528EA05080D6991
:101AE00005FA0CF5DDF808C045EA0805CCF82050E9
:101AF00005684FEA430CCDF808C004FA0CFC25EA4F
:101B00000C0591F804C00CF00308DDF808C008FAD1
:101B10000CF848EA0508C0F800804D6815F4403F0D
:101B20007CD0444DD5F860C000E077E04CF0010C6B
:101B3000C5F860C02D6E23F0030C05F0010500957B
:101B40003D4D65440295AD684FEA837C4FEA1C78B1
:101B500007FA08FC25EA0C05B0F1904F06D0DFF833
:101B6000DCC0604505D14FF0010C20E04FF0000CC7
:101B70001DE0DFF8CCC0604502D14FF0020C16E04A
:101B8000DFF8C0C0604502D14FF0030C0FE0DFF872
:101B9000B8C0604502D14FF0040C08E0DFF8ACC0DB
:101BA000604502D14FF0050C01E04FF0060C0CFA35
:101BB00008FC4CEA050C029DC5F808C0D9F8005095
:101BC000CC46D1F8048095435FEAC82800D5154378
:101BD000CCF80050DAF80050D446D1F80480954390
:101BE0005FEA882800D51543CCF80050DBF8005098
:101BF000DC46D1F8048095435FEA883800D5154368
:101C0000CCF80050DEF80050F446D1F8048095433B
:101C10005FEAC83800D51543CCF800505B1C0A6851
:101C200032FA03F57FF400AF05B0BDE8F08F000095
:101C30000804014000100240000001400004004878
:101C400000080048000C004800100048001400483C
:101C50000069084000D0012070470AB181617047D7
:101C600081627047014880687047000000000020D2
:101C7000024881684268114481607047000000207A
:101C800010B50024032000F073F80F2000F008F8CE
:101C900008B1012401E000F025F8204610BD000045
:101CA00070B50E4E05460024706898B14FF47A71F5
:101CB000B1FBF0F00A490968B1FBF0F000F064FDF7
:101CC00040B9102D06D200222946501E00F030F8EF
:101CD000356000E00124204670BD000000000020B7
:101CE0000C0000200A4882B0016E41F0010101663B
:101CF000016E01F001010091816D41F0805181651B
:101D0000806D00F08050009002B000F0A1B800009B
:101D100000100240002809DB00F01F020121914061
:101D20004009800000F1E020C0F800117047000079
:101D3000F0B40E4B1B680C46C3F30223C3F1070536
:101D4000042D00D90425191D072901D2002300E024
:101D5000DB1E012606FA05F1491E214099409E40EE
:101D6000761E16403143F0BC02F046BF0CED00E099
:101D7000064900F0070208684FF6FF03184040EAE2
:101D80000220034A10430860704700000CED00E099
:101D90000000FA052B492C4B0A6832214A432B4993
:101DA00040B1B0F5007F086829D020F4C06040F44D
:101DB00080602CE00868C0F34120022804D051F86C
:101DC000800F20F4807022E0D1F8800020F4807031
:101DD000C1F88000086820F4C06040F4007008601A
:101DE000B2FBF3F0401C00E0401E4A69520501D5E9
:101DF0000028F9D1486940050AD503207047C0F38F
:101E00004120022806D051F8800F40F4807008600D
:101E100000207047D1F8800040F48070C1F8800045
:101E2000086820F4C06040F400700860B2FBF3F072
:101E3000401C00E0401E4A695205DBD50028F9D15C
:101E4000D8E700000C00002040420F000070004066
:101E50000248816841F48041816070470070004011
:101E60002DE9F8430446006800269D4D00035ED529
:101E7000A86D0027C00008D4A86D40F08050A86568
:101E8000A86D012700F080500090DFF85892D9F833
:101E9000001041F48071C9F80010FFF7E3FE80469E
:101EA00006E000BFFFF7DEFEA0EB080002282BD8FB
:101EB000D9F80000C005F5D5D5F8900010F44070B1
:101EC00014D0216C814211D0D5F89000D5F8901033
:101ED00020F4407041F48031C5F89010D5F890108E
:101EE00021F48031C5F89010C5F89000C00711D0DA
:101EF000FFF7B8FE804641F2883907E0FFF7B2FEEF
:101F0000A0EB0801494501D903260BE0D5F8900064
:101F10008007F3D5D5F89000216C20F44070084379
:101F2000C5F890001FB1A86D20F08050A8652078FA
:101F3000C00707D0D5F88800616820F00300084387
:101F4000C5F888002078800707D5D5F88800A168F3
:101F500020F00C000843C5F888002078400707D51A
:101F6000D5F88800E16820F030000843C5F8880003
:101F70002078000707D5D5F88800216920F0C00037
:101F80000843C5F888002078800607D5D5F8880072
:101F9000616920F440600843C5F888002078400655
:101FA00007D5D5F88800A16920F440500843C5F84A
:101FB00088002078000607D5D5F88800E16920F46C
:101FC00040400843C5F888002088C00507D5D5F8EB
:101FD0008800216A20F440300843C5F88800208832
:101FE000800507D5D5F88800616A20F440200843B1
:101FF000C5F88800208840050FD5D5F88800A16A6B
:1020000020F440100843C5F88800A06AB0F5801F8E
:1020100003D1E86840F48010E860208800050FD5FF
:10202000D5F88800E16A20F440000843C5F888002C
:10203000E06AB0F5800F03D1E86840F48010E860F2
:102040002088C0040FD5D5F88800216B20F040709F
:102050000843C5F88800206BB0F1807F03D1E868A1
:1020600040F48010E86020884FF0006180040ED5B5
:10207000D5F88800626B20F040601043C5F88800F6
:10208000606B884203D1E86840F48010E8602088E3
:1020900040040ED5D5F88800A26B20F040601043B4
:1020A000C5F88800A06B884203D1E86840F480102E
:1020B000E860208800040FD5D5F88800E16B20F097
:1020C00040500843C5F88800E06BB0F1805F03D151
:1020D000E86840F48030E8603046BDE8F8830000EE
:1020E00000100240007000402DE9F0470E46050048
:1020F0004FF0000725D0DFF8AC81D8F8000000F0E1
:102100000F00B0420CD2D8F8001021F00F0131437B
:10211000C8F80010D8F8000000F00F00B04210D14D
:102120002968614CC80741F2883A5AD06868DFF8DC
:102130007C91032808D0022820682DD04005002873
:102140002CDB0120BDE8F08720688001F9D5E0682C
:1021500000F00302E068C0F30310401C032A19D00A
:10216000534A00BFB2FBF0F0E268C2F306225043CC
:10217000E268C2F34162521C5200B0FBF2F04845E3
:1021800017D9A06810F0F00F0CD0880711D5A868F7
:1021900040B10EE0474AE5E78003D0E700F0B6F82B
:1021A000484506D9A06820F0F00040F08000A0600B
:1021B0008027A068696820F003000843A060FFF74B
:1021C00051FD814606E000BFFFF74CFDA0EB090181
:1021D00051453AD8A068696800F00C00B0EB810F57
:1021E000F2D12868810714D5400703D5A06840F4D0
:1021F000E060A0602878000705D5A06820F4605052
:1022000040F4E060A060A068A96820F0F0000843F6
:1022100004E0802F03D1A06820F0F000A060D8F87F
:102220000010404601F00F01B14216D9016821F0BB
:102230000F0131430160FFF715FD074607E000BFBE
:10224000FFF710FDC11B514501D903207AE7D8F8EB
:10225000000000F00F00B042F2D12878400705D509
:10226000A068E96820F4E0600843A06028780007CF
:1022700006D5A068296920F4605040EAC100A0603A
:1022800000F044F8A1680C4AC1F30311515C01F05D
:102290001F01C8400949086009480068BDE8F047C7
:1022A000FFF7FEBC002002400010024000B4C4044E
:1022B0000024F40000366E018E5E00080C00002041
:1022C000000000200548064900688968054AC1F3F6
:1022D0000221515C01F01F01C84070470C00002032
:1022E000001002409E5E00080548064900688968A3
:1022F000054AC1F3C221515C01F01F01C84070477B
:102300000C000020001002409E5E0008184910B525
:102310008868C0F381021748012A0BD08A68164BDF
:10232000C2F38102022A06D08A68C2F38102032A1C
:1023300003D0002010BD184610BDCA6802F0030487
:10234000CA68C2F30312521C032C02D0B0FBF2F095
:1023500001E0B3FBF2F0CA68C968C2F30622504339
:10236000C1F34161491C4900B0FBF1F010BD000010
:10237000001002400024F40000366E012DE9F843FD
:1023800004007AD02078FA4DC00747D0A868E968E1
:1023900000F00C0001F003010C2802D0082817D02F
:1023A00001E0032914D06068B0F5803F17D0B0F584
:1023B000A02F286817D020F480302860286820F4E7
:1023C000802028606068E0B1FFF74CFC064614E00E
:1023D0002868800322D560680028D2D01EE02868D3
:1023E00040F48030EDE740F480202860F7E700BF3C
:1023F000FFF738FC801B642870D828688003F7D565
:102400000CE0FFF72FFC064605E000BFFFF72AFCB3
:10241000801B6428F0D828688003F7D420788007D0
:102420004CD5A868E96800F00C0001F003010C2805
:1024300002D004280DD001E002290AD0E06800286B
:1024400028682BD040F480702860FFF70BFC06460C
:1024500019E02868400502D5E068002891D0686836
:10246000217C20F0FE4040EA01606860C1480068BD
:10247000FFF716FC002800D120E076E1FFF7F2FB21
:10248000801B0228B8D828684005F7D56868217CE9
:1024900020F0FE4040EA016068600FE020F48070A8
:1024A0002860FFF7DFFB064605E000BFFFF7DAFB19
:1024B000801B0228A0D828684005F7D420780007A0
:1024C00029D560690028D5F8940013D040F00100A8
:1024D000C5F89400FFF7C6FB064606E090E000BF93
:1024E000FFF7C0FB801B022886D8D5F89400800730
:1024F000F6D510E020F00100C5F89400FFF7B2FB1C
:10250000064604E0FFF7AEFB801B022878D8D5F81A
:1025100094008007F6D42078400761D5A86D002686
:10252000C00008D4A86D40F08050A865A86D0126B1
:1025300000F08050009090480168C90511D40168EE
:10254000804641F480710160FFF78CFB074604E090
:10255000FFF788FBC01B022852D8D8F80000C0053E
:10256000F6D5A068012815D00528D5F8900016D01A
:1025700020F00100C5F89000D5F8900020F004008C
:10258000C5F89000A06841F28838B8B1FFF76AFB3F
:1025900007460EE0D5F8900040F00100F0E740F06B
:1025A0000400C5F89000F5E7FFF75CFBC11B41454F
:1025B00026D8D5F890008007F6D50CE0FFF752FB3F
:1025C000074604E0FFF74EFBC11B414518D8D5F87C
:1025D00090008007F6D41EB1A86D20F08050A86549
:1025E0002078800629D5A0690028D5F8980013D056
:1025F00040F00100C5F89800FFF734FB064606E0FE
:1026000077E000BFFFF72EFB801B022877D8D5F8B4
:1026100098008007F6D510E020F00100C5F898007A
:10262000FFF720FB064604E0FFF71CFB801B022897
:1026300065D8D5F898008007F6D4E069F0B3A968AA
:10264000C1F38101032961D00228286820F080703D
:1026500028600BD0E86820F00300E860E86847498C
:102660000840E860FFF7FEFA04464BE0FFF7FAFA8D
:10267000064604E0FFF7F6FA801B02283FD82868D8
:102680008001F7D4F4E908016FF00F0202EB0111A9
:102690000843218A5204490802EB4151A26841EAE9
:1026A00002210843217D4FF07E42490802EB41613F
:1026B0000843217B40EAC160E96800E062E0304AFB
:1026C00011400843E860286840F080702860E8689E
:1026D00040F08070E860FFF7C5FA044605E000BFEF
:1026E000FFF7C0FA001B022809D828688001F7D537
:1026F00048E004E0FFF7B6FA001B022802D90320E5
:10270000BDE8F88328688001F4D43BE00128F7D0C5
:10271000E868226A00F00301914226D1616A00F064
:10272000F0020901103991421FD1A26A00F4FE4162
:10273000B1EB022F19D194F82C2000F07841B1EBC5
:10274000C26F12D1218E00F4C00249084905A1F5DB
:102750000011914209D194F8341000F0C06049088A
:102760004906A1F1007181420CD00120C8E70000A8
:10277000001002400000002000700040FFFFEEFE4D
:102780000C809F010020BBE710B5401EB0F1807F98
:1027900001D3012010BD4FF0E02460610F216017CC
:1027A00002F02AFA0020A06107202061002010BD5D
:1027B0007047704770470000F0B590F83C20012A40
:1027C0004AD0012280F83C20CA688B6822F440720B
:1027D0001A434B6822F480621A430B6822F40062A9
:1027E0001A430B6922F480521A434B6922F40052B7
:1027F0001A430B6B22F480421A430B8B22F4702293
:1028000042EA0342154C03680026154DA34201D04D
:10281000AB4203D1CF6922F080523A43A34201D0A8
:10282000AB4214D10F8D22F4700242EA07520F6AB4
:1028300022F080723A434F6A22F000723A43A34278
:1028400001D0AB4203D1C96A22F000520A435A6454
:1028500080F83C600020F0BD0220F0BD002C01405B
:1028600000340140704770477047704710B504004E
:1028700003D094F83D0010B107E0012010BD002006
:1028800084F83C00204600F023F8022084F83D0044
:10289000211D206801F04EFA012084F8480084F8D8
:1028A0003E0084F83F0084F8400084F8410084F83A
:1028B000420084F8430084F8440084F8450084F81A
:1028C000460084F8470084F83D00002010BD000059
:1028D00008B5114A01681148914211D1816D41F04A
:1028E00020018165806D002200F02000009003210E
:1028F0003720FFF71DFABDE808403720FFF70ABA76
:10290000074A914207D1016E41F480210166006EB1
:1029100000F48020009008BD001400400010024028
:1029200000480140704770B50446006801694FF0E7
:102930000005C943890715D4C168C943890711D463
:10294000E91E016101202077206880698007204608
:1029500002D0FFF7E7FF04E000F00CF9204600F09A
:10296000CEF9257720680169C943490717D4C168A2
:10297000C943490713D46FF0040101610220207795
:102980002068806910F4407F204602D0FFF7CAFF1C
:1029900004E000F0EFF8204600F0B1F92577206858
:1029A0000169C943090716D4C168C943090712D48C
:1029B0006FF008010161042020772068C06980075A
:1029C000204602D0FFF7AEFF04E000F0D3F8204627
:1029D00000F095F9257720680169C943C90617D425
:1029E000C168C943C90613D46FF010010161082002
:1029F00020772068C06910F4407F204602D0FFF79E
:102A000091FF04E000F0B6F8204600F078F9257751
:102A100020680169C943C90708D1C168C943C9070A
:102A200004D1891E0161204600F0E8F9206801699F
:102A3000C943090609D4C168C943090605D46FF022
:102A4000800101612046FFF7B4FE20680169C94397
:102A5000C90509D4C168C943090605D46FF480715A
:102A600001612046FFF7A4FE20680169C9434906B9
:102A700009D4C168C943490605D46FF0400101611A
:102A8000204600F0BCF920680169C943890609D4D1
:102A9000C168C943890605D46FF020010161204651
:102AA000FFF788FE20680169C943C90209D4C168DB
:102AB000C943C90205D46FF4801101612046FFF7B4
:102AC000D2FE20680169C943890209D4C168C9439B
:102AD000890205D46FF4001101612046FFF7C2FEA0
:102AE00020680169C943490209D4C168C943490240
:102AF00005D46FF4800101612046FFF7B5FE206820
:102B00000169C94309020BD4C168C943090207D44A
:102B10006FF4000101612046BDE87040FFF7A5BEDB
:102B200070BD000010B586B0044614216846FDF75C
:102B3000E7FD0E492068884216D10D48C16C41F06E
:102B40000101C164C06C694600F00100059080205D
:102B50000090022001900020029003900120049038
:102B60004FF09040FEF750FF06B010BD0048014006
:102B700000100240704770B5044690F83C000026F3
:102B80000D4601280BD0012084F83C000C2A4AD0C5
:102B900007DC82B1042A20D0082A06D131E00220C5
:102BA00070BD102A53D0142A63D00126002084F867
:102BB0003C00304670BD206801F022F92068816930
:102BC00041F0080181612068816921F0040181617F
:102BD000206881692A69114311E0206801F05EF9DB
:102BE0002068816941F4006181612068816921F474
:102BF00080618161206881692A6941EA02218161DD
:102C0000D4E7206801F092F92068C16941F0080119
:102C1000C1612068C16921F00401C1612068C169F6
:102C20002A69114311E0206801F0C8F92068C169E0
:102C300041F40061C1612068C16921F48061C16112
:102C40002068C1692A6941EA0221C161AEE72068B2
:102C500001F0FCF92068016D41F008010165206870
:102C6000016D21F0040101652068016D2A6911439D
:102C700011E0206801F022FA2068016D41F4006142
:102C800001652068016D21F4806101652068016D96
:102C90002A6941EA0221016588E710B5040003D0E2
:102CA00094F83D0010B107E0012010BD002084F829
:102CB0003C00204600F022F8022084F83D00211D4F
:102CC000206801F037F8012084F8480084F83E00BD
:102CD00084F83F0084F8400084F8410084F8420002
:102CE00084F8430084F8440084F8450084F84600E2
:102CF00084F8470084F83D00002010BD70477047FD
:102D000030B50446022269B1042912D0082917D02F
:102D10000C291CD0102921D094F84300012824D07C
:102D2000012030BD94F83E000128F9D184F83E20FE
:102D30001DE094F83F000128F2D184F83F2016E00E
:102D400094F840000128EBD184F840200FE094F87B
:102D500041000128E4D184F8412008E094F84200C1
:102D60000128DDD184F8422001E084F843200122CB
:102D7000206801F037F8194B20681949194A984220
:102D800009D0884207D0904205D0174DA84202D002
:102D9000164DA84203D1456C45F4004545642068B2
:102DA00098420CD0B0F1804F09D0114B984206D018
:102DB000104B984203D0884201D0904207D18168DD
:102DC0000D4A1140062906D0B1F5803F03D00168B5
:102DD00041F001010160002030BD0000002C0140E5
:102DE00000340140004001400044014000480140DF
:102DF00000040040000800400700010070477047D1
:102E000090F88010012918D0012180F88010242129
:102E1000C0F8841050F8641B0A680B6823F00103A3
:102E20000B6022F000510022026050F8643C1960EF
:102E300020210162027710467047022070477047D8
:102E4000704770B5044690F8800001281DD001201D
:102E500084F880002420C4F8840020680568026893
:102E600022F0010202602068826822F060620A4358
:102E70008260204601F05AF9206805602020C4F8DD
:102E80008400002084F8800070BD022070BD70B501
:102E9000044690F8800001281DD0012084F88000AD
:102EA0002420C4F8840020680568026822F001022A
:102EB00002602068826822F060420A4382602046F5
:102EC00001F034F9206805602020C4F88400002057
:102ED00084F8800070BD022070BD70477047704755
:102EE0002DE9F04103680446D86919689A6840F6EC
:102EF0000F0528424FF0000509D186067ED501F066
:102F0000200602F080573E4378D0216F27E1A94E7A
:102F1000A94F16400F40374370D0C70709D0CF05DF
:102F200007D501271F62D4F88C3043F00103C4F8A1
:102F30008C3083070AD5D30708D0276802233B6269
:102F4000D4F88C3043F00403C4F88C3043070AD51E
:102F5000D30708D0276804233B62D4F88C3043F0B1
:102F60000203C4F88C3003070CD501F0200333436F
:102F700008D0266808233362D4F88C3043F0080365
:102F8000C4F88C3003050BD54B0109D526684FF4E6
:102F900000633362D4F88C3043F02003C4F88C30E3
:102FA000D4F88C30002B3AD0800609D501F02000EF
:102FB00002F08051084303D0216F09B120468847B1
:102FC000D4F88C0021688968490602D410F0280FD3
:102FD00027D0204601F06AF92068806840061BD59A
:102FE0002068083050E8001F21F0400140E800123E
:102FF000002AF5D1E06F78B1704900E017E08163F5
:10300000E06FFEF7B2FC002809D0E06F816B00E0B2
:103010002046BDE8F04108472046FFF760FFBDE8C5
:10302000F0812046FFF75BFFC4F88C50F7E7E76EAE
:103030002026012F7ED1C7067CD5CF067AD5102059
:10304000186220688068400642D5E16F08684068D1
:103050000004000CE3D0B4F85C208242DFD9A4F86D
:103060005E000868006880062BD4206850E8001FC6
:1030700021F4807140E80012002AF6D1206808305F
:1030800050E8001F21F0010140E80012002AF5D1AC
:103090002068083050E8001F21F0400140E800128D
:1030A000002AF5D1C4F88860E566216851E8000F70
:1030B00020F0100041E80002002AF6D1E06FFEF790
:1030C0001FFCB4F85C00B4F85E10401A81B22CE02A
:1030D000B4F85C00B4F85E10401A81B2B4F85E0037
:1030E00000289CD000299AD0226852E8000F20F4D2
:1030F000907042E80003002BF6D12E4BDB43206892
:10310000083050E8002F1A4040E80027002FF6D181
:10311000C4F88860E5662567226852E8000F20F051
:10312000100042E80003002BF6D12046FFF787FE8F
:1031300075E7FFE7C70209D5570207D54FF480109E
:1031400018622046BDE8F041FFF7C8BE03060AD565
:1031500001F0800302F40002134304D0616F0029E0
:103160007FF456AF5BE7420611D54A060FD52046DD
:10317000016851E8002F22F0400241E80023002BB3
:10318000F6D1C0F88460456700F034F947E70202E1
:1031900006D54A0004D52046BDE8F041FFF79DBEA4
:1031A000C001C5D50029C3DA2046BDE8F041FFF7CC
:1031B00047BE0000010000102001000499420008F1
:1031C00010B5040003D0D4F8840010B107E001204A
:1031D00010BD002084F88000204600F027F824204D
:1031E000C4F884002068016821F0010101602046D4
:1031F00001F09EFA0128EBD0A06A10B1204600F041
:10320000B7FF2068416821F49041416020688168DF
:1032100021F02A0181602068016841F0010101600C
:103220002046BDE8104001F007B8000010B598B086
:103230000446142111A8FDF763FA44216846FDF7FE
:103240005FFA1B492068884230D101200024CDE973
:1032500000046846FEF704FE08B1FEF74FFB154870
:10326000016E41F480410166016E01F480411691C6
:10327000C16C41F00101C164C06C11A900F00100F2
:1032800016904FF4C06011900220CDE9120407207F
:10329000CDE914404FF09040FEF7B6FB002201212B
:1032A0002520FEF745FD2520FEF734FD18B010BDA2
:1032B000003801400010024030B4D0F88830202B94
:1032C00020D1E1B1DAB190F88030012B1AD001237E
:1032D00080F880300023C3660B4C0368A3420BD0F8
:1032E0005B681B0208D5046854E8003F43F0806324
:1032F00044E80035002DF6D130BC01F053BB01206D
:1033000030BC70470220FBE70080004010B5074A40
:103310000168914209D1064C2168002905D1162285
:103320000449FFF7C9FF0120206010BD00380140AB
:103330004C000020E40100202DE9F8430446D0F8B9
:1033400084001F4616460D46202851D1DDB1D6B166
:1033500094F8800001284BD0012084F880004FF0C1
:103360000008C4F88C802120C4F884001834FEF7CB
:1033700079FCA6878146E68754F8100C183CB0F516
:10338000805F03D004E00120BDE8F883206920B10C
:103390002E46002584F8808010E00026FAE7802180
:1033A000204601F08BFBB8B9C6B116F8010B2168B5
:1033B0008862B4F85600401EA4F85600B4F85600CF
:1033C0004B464FF0000200970028E8D14FF0400133
:1033D000204601F073FB30B10320D5E735F8020B2E
:1033E000C0F30800E3E72020C4F884000020CBE706
:1033F0000220C9E77047FEE700B585B01421684692
:10340000FDF77EF94FF6FF70009000200321CDE913
:103410000201019069460248FEF7F6FA05B000BDC8
:103420000008004800B585B014216846FDF768F92A
:103430004FF6FF70009001200190032003900020C0
:10344000029069460248FEF7DFFA05B000BD0000B1
:103450000008004870B5002406462146204600F0CA
:103460000BF900F041F94FF49635304600F010F9B1
:10347000641CAC42F9D370BD01A100F061B800003A
:10348000202020202020202020202020202020203C
:10349000202020200000000030B587B014216846AD
:1034A000FDF72EF91E48C16C41F00401C164C16CE6
:1034B00001F004010591C16C41F00101C164C16CCE
:1034C00001F001010591C16C41F00201C164C06CC1
:1034D000012500F0020005904FF44870CDE9000589
:1034E00000240394694602940E48FEF78DFA2802E0
:1034F00003940090CDE901544FF090446946204672
:10350000FEF782FAFFF78EFFA06940F48070A06199
:1035100004481830016841F40871016007B030BDFB
:103520000010024000040048203AD2B2034B02EBE4
:10353000420203EB021200F019B80000A65E000878
:10354000F0B50E460746002540F23F1407E021463D
:103550003846FFF7E9FF103C6D1CA4B2761C3278A8
:10356000002A01D0142DF2D3F0BD00002DE9F04760
:1035700091468A460026044600F07EF8DFF8408037
:10358000012700BF00F0B0F85FF0000539F8160021
:1035900007FA05F10842404601D1408800E0008862
:1035A00000F076F86D1C102DF0D3641CE4B2514687
:1035B000204600F061F8761C182EE3D3BDE8F087B2
:1035C0001200002010B5FFF767FF002000F014F88C
:1035D000084CA080A088A0F50241303906D000F048
:1035E0005DFA002000F008F8A08010BD00F0CDF9D1
:1035F000F7E700001200002070B51D490A6842F488
:1036000000720A600A6842F480720A60184C103C2A
:10361000226842F020022260164A1060086840F0DA
:103620002000086000BF00BF00BF206840F02000FD
:103630002060206840F480702060FFF7DDFE4FF0CE
:103640009041886A40F48070886200BF00BF00BF6C
:103650000848001F006885B2886940F4807088615E
:10366000FFF7E0FE206840F400702060284670BD3F
:10367000280400481408004810B50C4601462020D4
:1036800000F060F82146BDE81040212000F05AB853
:10369000134A116841F400711160114910390B6827
:1036A00043F480730B600B6843F020030B600D4BF9
:1036B0001860106840F02000106000BF00BF00BF1D
:1036C000086840F020000860086840F480700860D6
:1036D00000BF00BF00BF086840F40070086070477A
:1036E00028040048140800481449086840F4007091
:1036F0000860086840F4807008601048103802685C
:1037000042F0200202600E4B22221A600A6842F048
:1037100020020A6000BF00BF00BF016841F0200125
:103720000160016841F48071016000BF00BF00BF0B
:10373000016841F4007101607047000028040048EE
:1037400014080048184B10B51A6842F400721A6049
:103750001A6842F480721A60134A103A146844F0EE
:1037600020041460114C2060186840F0200018609C
:1037700000BF00BF00BF106840F02000106010685C
:1037800040F4807010602160186840F020001860DC
:1037900000BF00BF00BF106840F02000106010683C
:1037A00040F48070106010BD2804004814080048E0
:1037B000F0B587B014216846FCF7A2FF2D48C16C14
:1037C00041F00401C164C16C01F004010591C16CB8
:1037D00041F02001C164C16C01F020010591C16C70
:1037E00041F00101C164C16C01F001010591C16C9E
:1037F00041F00201C164C16C01F002010591C16C8C
:1038000041F00801C164C06C1B4E00F008004FF489
:103810007F440590002221463046FEF71EFA174FDE
:10382000002204213846FEF718FA0125CDE90045AB
:1038300000240294694630460394FEF7E5F8CDE98A
:10384000005469464FF090400295FEF7DDF80720DE
:103850008DE8310069460A48FEF7D6F8042000904A
:10386000CDE90154694638460394FEF7CDF807B018
:10387000F0BD00000010024000080048000C0048A5
:103880000004004810B594B01C210DA8FCF738FFC7
:1038900034216846FCF734FF1F481E4900240160AC
:1038A0004F21C0E9011440F2F311C0E9031444614F
:1038B0008461FEF7DBFF08B1FEF720F81648FFF73A
:1038C000ECF908B1FEF71AF86020CDE90D040F9469
:1038D00010941194129400220DA90F481394FFF72D
:1038E0004AF908B1FEF70AF800944FF40050CDE908
:1038F00004400194029403940694694606480C948B
:10390000FEF75AFF08B1FDF7F9FF0348FFF70AF980
:1039100014B010BD0048014008010020184810B53F
:10392000164901604FF416514160002181600C225C
:10393000C160C0E904128161C161016241628162BA
:10394000FFF73EFC08B1FDF7D9FF00210C48FFF757
:103950009EFA08B1FDF7D2FF00210948FFF771FA7E
:1039600008B1FDF7CBFF0648FFF74AFA002803D05D
:10397000BDE81040FDF7C2BF10BD00000038014097
:1039800054010020FEE7FEE7704730B5012100201A
:10399000FFF7D8FE4FF47A70FDF7A2FF0021012057
:1039A000FFF7D0FE41F290711020FFF7CBFE4FF4ED
:1039B0001C516020FFF7C6FE01216120FFF7C2FE07
:1039C00002214620FFF7BEFE48F210011320FFF748
:1039D000B9FE48F2FE011220FFF7B4FE4FF4A061D9
:1039E0000220FFF7AFFE41F230010320FFF7AAFEED
:1039F00040F2033421463020FFF7A4FE2146312057
:103A0000FFF7A0FE21463220FFF79CFEE51E294667
:103A10003320FFF797FE03213420FFF793FE214662
:103A20003520FFF78FFE14213620FFF78BFE21464D
:103A30003720FFF787FE21463820FFF783FE214617
:103A40003920FFF77FFE29463A20FFF77BFE03214E
:103A50003B20FFF777FE21463C20FFF773FE4FF433
:103A6000A0513D20FFF76EFE4FF400719220FFF74A
:103A700069FE21469320FFF765FE40F60D01902078
:103A8000FFF760FE41F218010320FFF75BFEBDE87F
:103A9000304040F273110720FFF754BE10B543F2D7
:103AA0000801E320FFF74EFE1221E720FFF74AFE50
:103AB00041F23121EF20FFF745FE00210120FFF701
:103AC00041FE4FF4E0610220FFF73CFE41F230017D
:103AD0000320FFF737FE00210420FFF733FE40F2FA
:103AE00007210820FFF72EFE00210920FFF72AFEFC
:103AF00000210A20FFF726FE00210C20FFF722FEFE
:103B000000210D20FFF71EFE00210F20FFF71AFEF7
:103B100000211020FFF716FE07211120FFF712FEEB
:103B200000211220FFF70EFE00211320FFF70AFEEE
:103B3000C820FDF757FF41F290611020FFF702FE09
:103B400040F227211120FFF7FDFD3220FDF74AFF4B
:103B50001D211220FFF7F6FD3220FDF743FF4FF441
:103B600000611320FFF7EEFD14212920FFF7EAFD85
:103B70000B212B20FFF7E6FD3220FDF733FF00215C
:103B80002020FFF7DFFD00212120FFF7DBFD0721CB
:103B90003020FFF7D7FD40F207713120FFF7D2FD4B
:103BA00006213220FFF7CEFD40F204713520FFF7E9
:103BB000C9FD41F604713620FFF7C4FD042137200A
:103BC000FFF7C0FD00213820FFF7BCFD40F2067171
:103BD0003920FFF7B7FD40F201713C20FFF7B2FD3D
:103BE0000F213D20FFF7AEFD00215020FFF7AAFD79
:103BF000EF215120FFF7A6FD00215220FFF7A2FD83
:103C000040F23F115320FFF79DFD4FF41C516020FF
:103C1000FFF798FD01216120FFF794FD00216A2044
:103C2000FFF790FD00218020FFF78CFD002181200F
:103C3000FFF788FD00218220FFF784FD002183200B
:103C4000FFF780FD00218420FFF77CFD0021852007
:103C5000FFF778FD10219020FFF774FD00219220DE
:103C6000FFF770FD03219320FFF76CFD4FF488717F
:103C70009520FFF767FD00219720FFF763FD0021E6
:103C80009820FFF75FFD41F218010320FFF75AFD6E
:103C9000BDE8104040F273110720FFF753BD704795
:103CA000FDF7E6BF10B594B038216846FCF728FD53
:103CB00014210EA8FCF724FD4FF40070FEF76AF8FB
:103CC000012000900004019002200324CDE90704A4
:103CD0001421CDE90A100C900D9009946846FEF766
:103CE0004DFB08B172B6FEE70F20CDE90E040020AF
:103CF00010901190129002210EA8FEF7F5F90028FD
:103D000001D072B6FEE714B010BD00000248016891
:103D100041F470010160704788ED00E00148FEF752
:103D200002BE0000700000200148FEF7FCBD00004C
:103D3000BC0000202DE9F0430268234B234D244EA4
:103D4000244C4FF08049984207D0484505D0A842FE
:103D500003D0B04201D0A04203D122F070074A68DC
:103D60003A431D4FDFF874C0DFF8748098420DD0DD
:103D700048450BD0A84209D0B04207D0A04205D098
:103D8000B84203D0604501D0404503D122F44075CC
:103D9000CA682A434D6922F080022A4302608A6879
:103DA000C2620A688262984207D0A04205D0B84237
:103DB00003D0604501D0404501D10969016301216B
:103DC0004161BDE8F0830000002C01400004004088
:103DD0000008004000340140004001400044014020
:103DE0000048014010B501F01F030121046A994009
:103DF0008C430462016A9A401143016210BD0000C5
:103E00002DE9F043026A22F001020262056A43686A
:103E100082691C4C25F0020522400C6822F0030246
:103E200014438A68194E2A43174D194FDFF864C0AE
:103E3000DFF86490A84207D0B04205D0B84203D062
:103E4000604501D0484506D122F00808CA6842EA18
:103E5000080222F00402A84207D0B04205D0B842BE
:103E600003D0604501D0484505D14D6923F4407326
:103E70001D438B692B43436084614968416302623F
:103E8000BDE8F0838FFFFEFF002C014000340140AD
:103E9000004001400044014000480140F0B5026A82
:103EA00022F010020262056A42688369194C1B4EB7
:103EB00023400C6823F4407343EA042425F02003D4
:103EC0008D6843EA0513144DA84201D0B04206D1D3
:103ED000CF6823F0800343EA071323F04003A8428E
:103EE0000AD0B04208D00E4DA84205D00D4DA842D0
:103EF00002D00D4DA84207D14D6922F4406242EA3A
:103F000085028D6942EA8502426084614968816365
:103F10000362F0BDFF8FFFFE002C01400034014022
:103F2000004001400044014000480140F0B5026AF1
:103F300022F480720262056A4368C269194C1B4E02
:103F400022400C6822F00302144325F400728D68AD
:103F500042EA0522144DA84201D0B04206D1CF68F2
:103F600022F4006242EA072222F48062A8420AD0C8
:103F7000B04208D00E4DA84205D00E4DA84202D046
:103F80000D4DA84207D14D6923F4405343EA051370
:103F90008D6943EA05134360C4614968C1630262E5
:103FA000F0BD00008FFFFEFF002C014000340140F7
:103FB000004001400044014000480140F0B5026A61
:103FC00022F480520262056A4268C369194C1B4E92
:103FD00023400C6823F4407343EA042425F400537F
:103FE0008D6843EA0533144DA84201D0B04206D192
:103FF000CF6823F4004343EA073323F48043A84205
:104000000AD0B04208D00E4DA84205D00D4DA842AE
:1040100002D00D4DA84207D14D6922F4404242EA38
:1040200085128D6942EA85124260C4614968016463
:104030000362F0BDFF8FFFFE002C01400034014001
:1040400000400140004401400048014030B5026A90
:1040500022F480320262046A4268036D114D2B40E3
:104060000D681D4324F400330C8943EA04430E4CCD
:10407000A0420BD00D4CA04208D00D4CA04205D060
:104080000C4CA04202D00C4CA04204D14C6922F44A
:10409000803242EA04224260056549688164036215
:1040A00030BD00008FFFFEFF002C014000340140B6
:1040B00000400140004401400048014030B5026A20
:1040C00022F480120262046A4268036D114D24F4E6
:1040D00000142B400D6843EA05230D8944EA05547A
:1040E0000D4DA8420BD00D4DA84208D00C4DA84252
:1040F00005D00C4DA84202D00B4DA84204D14D6909
:1041000022F4802242EA8522426003654968C16444
:10411000046230BDFF8FFFFE002C014000340140DF
:1041200000400140004401400048014030B5416E6C
:10413000B9B1026891689268C1F342610B4B520FAA
:104140009C5CE50003F10804A25CB5FBF2F2A0F868
:104150006A205A5C615CD200B2FBF1F1A0F86810F1
:1041600030BD0121A0F86A10F8E700007E5E00086B
:1041700090F82810C90706D001684A68C36A22F47B
:1041800000321A434A6090F82810890706D5016862
:104190004A68036B22F480321A434A6090F8281070
:1041A000490706D501684A68436B22F480221A4306
:1041B0004A6090F82810090706D501684A68836BA1
:1041C00022F400421A434A6090F82810C90606D526
:1041D00001688A68C36B22F480521A438A6090F89F
:1041E0002810890606D501688A68036C22F40052FB
:1041F0001A438A6090F82810490611D501684A6868
:10420000436C22F480121A434A60416CB1F5801F5E
:1042100006D101684A68836C22F4C0021A434A60DE
:1042200090F82810090606D501684A68C06C22F487
:10423000002202434A607047F8B500260446C0F8E1
:104240008C60FDF70FFD0546206800686FF07E4723
:10425000000708D52B4600224FF400112046009796
:1042600000F02CFC60B92068006840070AD52B4696
:1042700000224FF480012046009700F01FFC08B197
:104280000320F8BD2020C4F88400C4F8880044F856
:104290006C6F00202675F8BD10B5806A0021A0F86B
:1042A0005E10A0F85610FEF71AFE10BD10B5026899
:1042B00052E8001F21F4907142E80013002BF6D160
:1042C0000E4B0268083252E8001F194042E8001401
:1042D000002CF6D1C16E012908D1016851E8002FE8
:1042E00022F0100241E80023002BF6D12021C0F873
:1042F00088100021C166016710BD0000FEFFFFEFBE
:1043000010B5B0F86020D0F888300168222B04D0B6
:10431000886940F00800886110BD496A836D1140CA
:104320001980816D891C8165B0F85E10491EA0F866
:104330005E10B0F85E100029EED1026852E8001F4E
:1043400021F4907142E80013002BF6D10168083186
:1043500051E8002F22F0010241E80023002BF5D1A3
:104360002021C0F8881000210167C26E012A02D006
:10437000FEF7CCFF10BDC166026852E8001F21F0B5
:10438000100142E80013002BF6D10168CA69D2433C
:10439000D20601D410220A62B0F85C10FEF74FFD7D
:1043A00010BD00002DE9F0470446B0F860600068D9
:1043B000C569D0F800A0D0F80880D4F88810222968
:1043C00005D0816941F008018161BDE8F087B4F84A
:1043D00068704FF0000963E02068406AA16D3040CA
:1043E0000880A06D801CA065B4F85E00401EA4F893
:1043F0005E002068C569690730D0E9070AD05FEA26
:10440000CA5107D501210162D4F88C0040F00100A7
:10441000C4F88C00A8070BD55FEAC87008D02168E3
:1044200002200862D4F88C0040F00400C4F88C002C
:1044300068070BD55FEAC87008D0216804200862BD
:10444000D4F88C0040F00200C4F88C00D4F88C0042
:1044500020B12046FEF743FDC4F88C90B4F85E000E
:10446000F0B9216851E8000F20F4807041E80002A3
:10447000002AF6D1264A2068083050E8001F114073
:1044800040E80013002BF6D12020C4F88800C4F8BF
:104490007090E16E4846012923D02046FEF736FF92
:1044A0000FB1A80698D4B4F85E0000288DD0B4F8F7
:1044B0006810814289D92068083050E8001F21F037
:1044C000805140E80012002AF5D112482067206888
:1044D00050E8001F41F0200140E80012002AF6D108
:1044E00073E7E066216851E8000F20F0100041E812
:1044F0000002002AF6D12068C169C943C90601D467
:1045000010210162B4F85C102046FEF798FCC7E762
:10451000FEFFFFEF0143000810B5B0F86020D0F8AF
:1045200088300168222B04D0886940F00800886137
:1045300010BD496A1140826D1170816D491C816501
:10454000B0F85E10491EA0F85E10B0F85E100029A9
:10455000EED1026852E8001F21F4907142E8001386
:10456000002BF6D10168083151E8002F22F001023A
:1045700041E80023002BF5D12021C0F8881000214C
:104580000167C26E012A02D0FEF7C0FE10BDC166EF
:10459000026852E8001F21F0100142E80013002BCE
:1045A000F6D10168CA69D243D20601D410220A6248
:1045B000B0F85C10FEF743FC10BD00002DE9F04799
:1045C0000446B0F860600068C569D0F800A0D0F873
:1045D0000880D4F88810222905D0816941F00801AB
:1045E0008161BDE8F087B4F868704FF0000963E0BE
:1045F0002068406AA16D30400870A06D401CA06525
:10460000B4F85E00401EA4F85E002068C569690722
:1046100030D0E9070AD05FEACA5107D5012101620B
:10462000D4F88C0040F00100C4F88C00A8070BD52A
:104630005FEAC87008D0216802200862D4F88C00B4
:1046400040F00400C4F88C0068070BD55FEAC8701E
:1046500008D0216804200862D4F88C0040F00200E1
:10466000C4F88C00D4F88C0020B12046FEF737FC4B
:10467000C4F88C90B4F85E00F0B9216851E8000FDE
:1046800020F4807041E80002002AF6D1264A206812
:10469000083050E8001F114040E80013002BF6D10D
:1046A0002020C4F88800C4F87090E16E48460129C3
:1046B00023D02046FEF72AFE0FB1A80698D4B4F8FE
:1046C0005E0000288DD0B4F86810814289D9206836
:1046D000083050E8001F21F0805140E80012002A05
:1046E000F5D112482067216851E8000F40F0200002
:1046F00041E80002002AF6D173E7E066216851E83C
:10470000000F20F0100041E80002002AF6D12068D6
:10471000C169C943C90601D410210162B4F85C1013
:104720002046FEF78CFBC7E7FEFFFFEF19450008A8
:104730002DE9F0410446016880682269E36910436D
:10474000626900251A431043DFF82CC20A688B4BBC
:104750001A4002430A6020684168E26821F440512F
:10476000114341602168A069614501D0226A10436C
:104770008A68834B1A4002438A602068C16A626A71
:1047800021F00F011143C1627E4923687E488B42AC
:104790000DD1D0F8880010F0030006D0012855D0C4
:1047A000022842D003283FD152E001203DE0774962
:1047B0008B420BD1D0F8880010F00C0035D00428C3
:1047C00033D0082840D00C282ED141E070498B42CC
:1047D0000BD1D0F8880010F0300026D0102835D04A
:1047E000202831D030281FD132E06A498B420BD1CA
:1047F000D0F8880010F0C00017D0402826D08028BC
:1048000022D0C02810D123E063450DD1D0F8880014
:1048100010F4406009D0B0F5806F17D0B0F5006F8C
:1048200012D0B0F5406F13D010205B495B4F0026CB
:104830004FF4004263453BD160B1022813D00428F5
:104840000BD0082872D10DE00220EEE70420ECE73F
:104850000820EAE7FDF736FD01E0FDF757FD01000E
:1048600001D17CE01146606A37F810206768B1FB1F
:10487000F2F007EB4703834270D8B0EB073F6DD8E7
:10488000002308461946FBF75CFD090241EA106166
:1048900002027808101871413A460023FBF751FDD7
:1048A0003F4AA0F54071914258D82168C86056E04F
:1048B000E3694FF6EF7893422CD109284ED2DFE816
:1048C00000F00508114D0D4D4D4D1000FDF7FAFC9F
:1048D00001E0FDF709FD010004D140E0FDF716FD00
:1048E000F9E71146606A37F81000B1FBF0F04100BB
:1048F000606801EB5001B1FBF0F0A0F110014145FF
:104900002CD84FF6F0710140C0F3420001432068FB
:10491000C16024E0092821D2DFE800F00509122057
:104920000E2020201100FDF7CDFC02E016E0FDF77F
:10493000DBFC010004D112E0FDF7E8FCF9E71146C9
:10494000606A37F81000B1FBF0F1606801EB5001CC
:10495000B1FBF0F0A0F1100141450AD90125012079
:10496000A4F86A0024F8680F2846A660E660BDE84F
:10497000F08180B299E7000000800040F369FFCF2A
:10498000FFF4FF11003801400010024000440040D5
:1049900000480040004C00400024F400665E00081F
:1049A000FFFC0F0070B58165A0F85C20A0F85E20C8
:1049B0000021016783684FF48055FF24AB4204D186
:1049C0000369FBB940F2FF1322E07F26C3B1B3F1C4
:1049D000805F1AD0A0F86010C0F88C102223C0F8B5
:1049E00088300368083353E8004F44F0010443E87B
:1049F0000046002EF5D1436EB3F1005F0ED032E0D9
:104A0000036943B9A0F86040E6E703691BB13F239F
:104A1000A0F86030E0E7A0F86060DDE7B0F868304B
:104A2000934220D88268AA4201D10269CAB11F4AC2
:104A3000026780F88010016941B1026852E8001FE6
:104A400041F4807142E80013002BF6D1016808316F
:104A500051E8002F42F0805241E80023002BF5D1AD
:104A600021E0134AE4E78268AA4201D102697AB1DF
:104A7000104A026780F88010016959B1026852E853
:104A8000001F41F4907142E80013002BF6D10AE0B8
:104A9000094AEEE7026852E8001F41F0200142E8AF
:104AA0000013002BF6D1002070BD0000BD450008AA
:104AB000A543000819450008014300082DE9F04707
:104AC0009A4617460E4604464FF000094FF020085C
:104AD000089D4AE0681C48D0FDF7C4F8A0EB0A0026
:104AE000A8422AD84DB32068016849073DD5C0695E
:104AF000C043000539D421684FF400600862206883
:104B000050E8001F21F4D07140E80012002AF6D1CD
:104B10002068083050E8001F21F0010140E8001231
:104B2000002AF5D144F8848FC4F80480C4F80880C2
:104B300004F8049C0320BDE8F087216851E8000FC9
:104B400020F4D07041E80002002AF6D12068083035
:104B500050E8001F21F0010140E80012002AF5D1C1
:104B600044F8848FC4F80480E2E72068C06936EA1C
:104B7000000004D00020B842ACD00020DBE70120C8
:104B8000F9E700000148FEF7ABB90000540100202E
:104B9000FEE7000010B5002000F0EAFA094C206999
:104BA0004068002803DD0121080200F0FDFAE068FA
:104BB000002805D00121BDE81040480200F0F4BAF9
:104BC00010BD00004800002003B401984100009887
:104BD00050EAC12018BF04204A0D18BF40F0010060
:104BE00040F2FF72B2EB515F08BF40F002000128B3
:104BF00008BF052002B070470907090E002804DB32
:104C000000F1E02080F80014704700F00F0000F180
:104C1000E02080F8141D70472DE9F0412DED020BC6
:104C20009FED3D0B2DED028B9FED3D8BDDE9025499
:104C3000C4F30A50A0F2FF36142E37DA002E18DA29
:104C400053EC102B9DED020B51EC100B00F07EFC91
:104C500053EC182B00F0D4FF57D2002CBCBF4FF000
:104C60000044002551DB54EA050018BF2E4C1BD12F
:104C70004BE02E4820FA06F704EA070028431FD02D
:104C800053EC102B9DED020B51EC100B00F05EFC71
:104C900053EC182B00F0B4FF37D2002C03DD4FF497
:104CA0008010F0400444BC4300252EE0332E07DC86
:104CB000A6F114004FF0FF3121FA00F73D4206D172
:104CC0009DED020BBDEC028B02B0BDE8F08153EC10
:104CD000102B9DED020B51EC100B00F0C7FF53ECB5
:104CE000182B00F08DFF10D2002C0DDD142E08BF04
:104CF000641C09D0C6F13400012101FA00F02844F7
:104D0000A84238BF641C0546BD43CDE902549DED61
:104D1000020BD7E7000000009C7500883CE4377E5A
:104D200000000000000000000000F03FFFFF0F0047
:104D300010B586B012A11820FEF702FC134C14A186
:104D4000206982686846FBF773FB69464820FEF7D6
:104D5000F7FB206912A1C2686846FBF769FB694648
:104D60007820FEF7EDFB206911A142686846FBF749
:104D70005FFB6946A820FEF7E3FB06B010BD00000C
:104D80002020202020202044617461004800002061
:104D9000202020434E42523A253364202000000058
:104DA000202020564E42523A253364202000000035
:104DB00020202049444C453A2533640030380A28E5
:104DC00001D20120704700207047000010B52DED82
:104DD000028B00F0F9FA274C012820700FD002282E
:104DE0009FED258B10D0032823D004283ED1E06806
:104DF000234990F00100E06032D0C82032E0A06882
:104E000080F00100A0602FE0A06840BB94ED060B8D
:104E100053EC182B51EC100B00F098FBC4E9060181
:104E200094ED080B53EC182B51EC100B00F08EFB9B
:104E300013E0A06898B994ED060B53EC182B51ECD5
:104E4000100B00F01FFFC4E9060194ED080B53ECB2
:104E5000182B51EC100B00F015FFC4E9080103E01A
:104E60004FF4FA700968486300202070BDEC028B93
:104E700010BD000048000020000000000000E03FDE
:104E80000801002010B586B010A11820FEF758FBCD
:104E9000114C12A1684694ED080B53EC102BFBF754
:104EA000C7FA69464820FEF74BFB94ED060B0FA1AD
:104EB00053EC102B6846FBF7BBFA69467820FEF7E7
:104EC0003FFBA820FEF7D8FA06B010BD2020202016
:104ED00020202050617261004800002020202043E3
:104EE0004E42523A252E3266000000002020205605
:104EF0004E42523A252E3266000000002DE9F04164
:104F0000824E2DED028B8AB0706800287ED08048DA
:104F1000FBF7B5FB0027162879D10923052204A940
:104F20007B4800F0EDF904A9306900F0ADFA050006
:104F30004FF028006CD0FBF7D5F904460146042356
:104F40000022734800F0DCF90C220A21704800F0BE
:104F5000C7F9E0600E220C216D4800F0C1F9206114
:104F600010220E216A4800F0BBF960611222102164
:104F7000674800F0B5F9A06114221221644800F0DE
:104F8000AFF9E06116221421614800F0A9F9014649
:104F90002062D4E90602CDE90002029104F10C017D
:104FA00028460EC900F01CF9002830D029462046BA
:104FB000FBF7CEFB0028AFD1D5E90701CDE9000111
:104FC00005F10C000FC800F5FA6000F0CDF980463D
:104FD000D4E907010C34CDE9000194E80F0000F595
:104FE000FA6000F0C1F9A0EB080000F0BBFC9FEDF7
:104FF000491B53EC112B00F05DFB41EC100BFFF74C
:105000000BFEB0EE408AF0EE608A02E071E075E0DF
:1050100022E0287843281CD096ED060B51EC180BA3
:1050200053EC102B00F0EEFCCDE902018DED008B6E
:105030006B1D2A4639A104A8FBF7FAF9962313221F
:1050400004A93B48FEF778F9691D306900F01CF9A6
:105050004AE096ED080BE1E7FBF744F90446014608
:105060004762042300222A4800F04AF90923052256
:10507000611D274800F044F90C220A21244800F061
:105080002FF9E0600E220C21214800F029F920615F
:1050900010220E211E4800F023F960611222102117
:1050A0001B4800F01DF9A06114221221184800F0DD
:1050B00017F9E06116221421154800F011F9014694
:1050C0002062D4E90602CDE90002029104F10C014C
:1050D00020460EC900F084F880B13069416801298A
:1050E0000CD4214600F02AF816210948FBF7E6FA0D
:1050F00077600AB0BDEC028BBDE8F0813223082254
:105100000CA10B48FEF718F9EEE70000480000205C
:10511000E4010020000000000020AC4025733A2587
:10512000733A252E30662C252E32660D0A000000BB
:10513000540100204572726F720D0A0002680AB9AC
:1051400005E01A46536A002BFBD1516200E0016072
:105150000978432908D0562905D1C168491CC16086
:105160004168491E416070478168491C8160F7E7CA
:1051700010B5012801D0012200E000224FF47F4148
:105180000748FCF76AFD074C012204212046FCF782
:1051900064FD20460022BDE810400421FCF75DBDFF
:1051A00000080048000C004810B5012901D0012278
:1051B00000E0002201460848FCF74FFD074C0122A1
:1051C00004212046FCF749FD20460022BDE810409E
:1051D0000421FCF742BD000000080048000C004814
:1051E0002DE9F0471D46DDE90987DDF820901646D8
:1051F0000C00824639D4002E37DB002D35DB5FEA08
:10520000090032D45FEA08002FD4002F2DDB19A14A
:105210005046FBF79DFA20B118A15046FBF798FACB
:1052200018BB632C21DC0C2E1FDC1648A10705D10E
:10523000642194FBF1F201FB124131B94FF4C871C2
:1052400094FBF1F201FB124119B94168491CA942D2
:105250000BDB50F82600A84207DBB9F1180F04DA7F
:10526000B8F13C0F01DA3C2F02DB0020BDE8F087EB
:105270000120FBE7434E425200000000564E4252CE
:10528000000000001800002070B5044600680E46BB
:10529000002820D00546401DFBF75AFA08B90CE05B
:1052A0006D6A686A28B13146401DFBF751FA002843
:1052B000F6D1686A416A696202E02068416A216049
:1052C0000078432808D0562805D1E068401EE060E9
:1052D0006068401C606070BDA068401EA060F7E779
:1052E00030B5034600206FF02F0406E05D5C00EB54
:1052F000800004EB40002844491C9142F6DB30BD9D
:1053000030B5002403E0855C0D55521C641C9A42A4
:10531000F9DB0020085530BD08B5FEF753F9002031
:10532000FEF798F84FF6FF70ADF80000BDF80010DA
:10533000044801800021ADF80010BDF80010418044
:1053400008BD000012000020FCF79AFCFEF7AAFC42
:10535000FEF72EFAFEF796FAFEF7E0FA00F0A4F850
:1053600000F0CAF8FCE70000F0B5891EDDE905543D
:10537000002901DC401E0C316426B0FBF6F64FF428
:10538000C877B0FBF7F7C6EB90063E4440F26F17C4
:1053900079430C27B1FBF7F13144114440F26D120F
:1053A00000FB02100749084400EB400003EBC0007B
:1053B000C0EB001005EB8000C0EB001004EB800098
:1053C000F0BD00007505F5FF70B52D4D0121284693
:1053D000FCF73EFC2B4C4FF0904670B10221284662
:1053E000FCF736FC48B104212846FCF731FC20B11B
:1053F00001213046FCF72CFCD8B92078012818D1BF
:10540000002020700A20FCF7EDFA01212846FCF765
:105410001FFCA8B102212846FCF71AFC90B1042118
:105420002846FCF715FC78B101213046FCF710FC4A
:1054300060B101212846FCF70BFC012808D01DE0D3
:10544000012070BD022070BD032070BD042070BD1E
:1054500002212846FCF7FCFB01280FD10421284635
:10546000FCF7F6FB012809D101213046FCF7F0FBDF
:10547000012803D1207808B901202070002070BDD8
:10548000000400481000002070B50D46046805E0D7
:105490002946601DFBF75CF920B1646A002CF7D146
:1054A000002070BD204670BD10B5FFF735FF00200D
:1054B000FFF75EFE16220C490C48FDF7FDFE0021A9
:1054C0000B48FDF71DFC0A494FF4FA700968486360
:1054D0001020FAF707FF0749086108214160002101
:1054E0008160C16010BD0000E40100205401002073
:1054F000080100204800002010B5FFF767FCFFF707
:10550000FDFC0648806810B1FFF712FC01E0FFF7D0
:10551000B9FCBDE81040FFF73DBB0000480000208B
:1055200010B500290AD00878002807D0054878442B
:10553000FBF70EF9002801D0002010BD0248784486
:1055400010BD0000FE1B0000F61B000010B591EA24
:10555000030F48BF83F0004300F19C83841A71EB72
:10556000030C05D2121943EB0C03001B61EB0C0179
:10557000DFF824E14FEA1154A4EB135C1EEA430F59
:1055800018BF9EEA445F73D023EA0E03DCF1200EBD
:1055900021EA045143F4801332D322FA0CFE10EBBB
:1055A0000E0023FA0CFE41EB0E01CCF1200E03FAA3
:1055B0000EFE10EB0E0051F10001B1F5801FCCF191
:1055C000200E32D201EB045112FA0EF2BDE8104067
:1055D00058BF7047401C38BF5FEA420218BF70478F
:1055E000002814BF20F0010041F100014FEA4103FF
:1055F00013F5001F38BF7047A1F1C04100F0FABA9F
:10560000012A43EB0302ACF1200CDCF11F0E32BF88
:105610004FF0000E23FA0CF310EB030041EB0451A2
:10562000B4EB115FD0D0A1EB045101F58011490812
:105630005FEA300001EB04510ED350F1000038BF97
:1056400012FA0EFE08D1BDE81040C9E7401C38BF71
:105650005FEA4202CAD1C3E7BDE810404FEA410306
:1056600013F5001F38BF7047A1F1C04100F0C2BA66
:105670009EEA445F08D011EA5E0FBDE8104004BF07
:1056800001F0004100207047BDE8104070B500F007
:1056900063FA00BF64FBBE3E0000E0FF491058BF44
:1056A000C1F140415B1058BFC3F140438B42EFF35F
:1056B000008070472DE9C04130B4DFF8A0C23CEA59
:1056C000111418BF3CEA131400F0EC8081EA0305C2
:1056D0001CEA111444EAD57418BF1CEA131500F033
:1056E000C780A4EB05044FF0004545EAC12145EA17
:1056F000C32341EA505143EA525304F17F74994263
:1057000004F500344FEAC0204FEAC22208BF90429D
:1057100000F09C804FEA13650FF24016765D4FEA69
:10572000134506FB05F7C7F1807706FB07F74FEA3D
:10573000D737A7FB03687642C8F58038A7FB06CEAB
:1057400038BFA8F1010807FB08E64FF0000EA6FBE2
:10575000028CE6FB03CEDCF1000CCEF1004E38BF2C
:10576000AEF1010EA6FB0C584FF000074FF00005FC
:10577000E6FB0E87A1FB08C6A0FB07CE16EB0E06C4
:1057800045F10005E1FB076515F1E04E7EBFA4F58C
:1057900080345FEA46066D4116F1800745F1000549
:1057A0004FEA17274FEA066647EA0567A6F1DE4685
:1057B000B6F1805F4FEA15251FD9384624F0010C59
:1057C00005EBC471BCF1FE6F01EB0C1102D8F0BC0B
:1057D000BDE8008124425CBF01F5801E9EEAC47FC3
:1057E00002D4F0BCBDE80081244238D4F0BCA1F161
:1057F000C041BDE8004100F0FDB94FEAD22242EAC3
:1058000043524FEAD323A7FB02864FEAD02040EA57
:10581000415007FB03661EEA0E0F4FEAD12105FB3C
:10582000026658BFA6EB0056B6EB00564FEA520E82
:105830004EEAC37E18EB0E0E56EB530EBDD518EB99
:1058400002085E417F1C55F10005B6E74FF4801554
:105850004FF000074FF000064FF00008ADE7F0BC36
:105860004FF0000001F1C04101F00041BDE80081AE
:1058700011EA0C1F0CEA131500D00CE013EA0C1F00
:1058800000F025804FF00000F0BC81EA030101F038
:105890000041BDE80081F0BCBDE8004181EA0301A0
:1058A00000F0A8B9F0BCBDE8004170B500F054F9B3
:1058B000097EFC3E00F007B881EA03014FF00000CA
:1058C00001F00041704781EA030100F093B9F0BC98
:1058D000BDE800414FF0000021497047FFFDFBF992
:1058E000F7F5F4F2F0EEEDEBE9E8E6E4E3E1E0DE13
:1058F000DDDBDAD8D7D5D4D3D1D0CFCDCCCBCAC885
:10590000C7C6C5C4C2C1C0BFBEBDBCBBBAB9B8B7AB
:10591000B6B5B4B3B2B1B0AFAEADACABAAA9A8A89E
:10592000A7A6A5A4A3A3A2A1A09F9F9E9D9C9C9B6C
:105930009A99999897979695959493939291919017
:105940008F8F8E8E8D8C8C8B8B8A898988888787A8
:105950008685858484838382828181800000FF071D
:105960000000F87FB0FA80F310FA03F10AD0C3F117
:105970001D0303F580634FEA41504FEA035202EBE7
:10598000D12170474FF000007047000051EA030C2E
:1059900017D41CF5801F58BFBCF5801F00F106808E
:1059A000994218BF704708BF9042704707D711F55A
:1059B000801F58BF13F5801F19D499427047894240
:1059C00070471CF5801F08D5BCF5801FF7D58B42AA
:1059D00018BF704708BF824270474FF4001C1CEB91
:1059E000410F38BF1CEB430F01D28B42704770B59B
:1059F00000F0B2F8922449004FF000514FF080536C
:105A0000FFF74CBEDFF848C170B51CEA111E1EBF7F
:105A10001CEA13159EEA0C0F95EA0C0F00F06F803C
:105A200081EA030423EA4C134EEAD47E21EA4C11A6
:105A300041F4801143F48013AE44A1FB024CA0FB5F
:105A40000365AEF17F7E361955EB0C05A1FB034CC7
:105A50004CF10003A0FB021C16EB0C06654153F150
:105A60000003094218BF46F0010613F4007F0BD172
:105A70004FEA03314FEA0530340341EA155140EA59
:105A800016506FF003020AE04FEAC3214FEAC52027
:105A9000F40241EA555140EA56506FF0020202EB1F
:105AA0002E4201EB025585EACE710AD05FEA440C22
:105AB00018BF24F0004450F1000041F1000120EA39
:105AC000D47040F2FE7C624500D270BDA84214BF83
:105AD0004FF080444FF04044002E08BF0024BEF138
