:020000040800F2
:1000000088050020ED0100081B1C0008AD16000843
:10001000191C00083503000829260008000000000C
:10002000000000000000000000000000331F000876
:10003000F7030008000000001D1C0008351F000821
:10004000070200080702000807020008070200086C
:10005000070200080702000807020008070200085C
:100060000702000807020008070200083903000819
:1000700045030008070200080702000807020008FD
:10008000070200080000000007020008070200083D
:10009000070200080702000807020008070200081C
:1000A000070200080702000807020008070200080C
:1000B00007020008070200080702000807020008FC
:1000C00007020008070200080702000807020008EC
:1000D00007020008070200080702000807020008DC
:1000E00007020008070200080702000807020008CC
:1000F00007020008070200080702000800000000CD
:1001000000000000070200080000000007020008CD
:1001100007020008000000000702000807020008AC
:10012000070200080702000807020008070200088B
:10013000070200080000000000000000070200089D
:10014000070200080702000800000000000000008D
:10015000000000000000000000000000000000009F
:10016000000000000000000000000000070200087E
:10017000070200080000000000000000000000006E
:10018000000000000702000800000000000000005E
:10019000000000000000000000000000000000005F
:1001A000000000000000000007020008070200082D
:1001B00007020008070200085103000800000000C1
:1001C000000000000702000800000000000000001E
:1001D0000702000807020008DFF80CD000F098F8CA
:1001E00000480047B52800088805002006488047D9
:1001F00006480047FEE7FEE7FEE7FEE7FEE7FEE70C
:10020000FEE7FEE7FEE7FEE7B91F0008D901000898
:100210002DE9F05F0546002092469B46884606463B
:10022000814640241BE0284641464746224600F0CE
:100230005EF853465A46C01A914110D311461846EB
:10024000224600F045F82D1A67EB01084F4622467A
:100250000120002100F03CF817EB00094E41201E60
:10026000A4F10104DFDC484631462A464346BDE896
:10027000F09FD2B201E000F8012B491EFBD270477B
:100280000022F6E710B513460A4604461946FFF762
:10029000F0FF204610BD421C10F8011B0029FBD1C5
:1002A000801A704730B50B460146002020220124F9
:1002B00009E021FA02F59D4205D303FA02F5491B34
:1002C00004FA02F52844151EA2F10102F1DC30BD4A
:1002D000202A04DB203A00FA02F100207047914006
:1002E000C2F1200320FA03F3194390407047202AFB
:1002F00004DB203A21FA02F00021704721FA02F3D0
:10030000D040C2F1200291400843194670470000D6
:10031000064C074D06E0E06840F0010394E8070052
:1003200098471034AC42F6D3FFF75AFFFC3B000865
:100330001C3C0008FEE70000014800F06DB800001A
:10034000BC000020014800F067B800001C0100203C
:10035000704700000D4902688A4201D20C4901E051
:100360000B492031D2B21423083AB2FBF3F2436CAA
:1003700002F01F0223F00303194481640449803111
:10038000C1640121914001657047000008040240EA
:10039000000802400179074A02EB81024265054AE2
:1003A0004432491E826501F01F0201219140C1655E
:1003B00070470000FC08024030B5D0E91345656085
:1003C000446D14B1D0E91645656090F8444004F0DE
:1003D0001F050124AC40056C6C6004686360836891
:1003E000102B036803D099600068C26030BD9A602A
:1003F0000068C16030BD7047002240F6B83306E0A7
:100400000021491C89B29942FBD3521C92B282420C
:10041000F6D3704772B6FEE7F0B4016C0C68016861
:100420000D6890F8442002F01F06042202FA06F339
:10043000234211D06B070FD50B689B0603D40B68C2
:1004400023F004030B6090F8441001F01F018A4070
:10045000016C4A60016B1DE0022303FA06F7274294
:100460004FF0000C4FF0010218D0AF0716D50C6802
:10047000A40605D40C6824F00A040C6080F825203A
:1004800090F8441001F01F018B40016C4B6080F824
:1004900024C0C16A00291AD0F0BC08470823B34021
:1004A000234214D02B0712D50B6823F00E030B60E8
:1004B00090F84410036C01F01F0102FA01F1596039
:1004C000C26380F8252080F824C0416BE2E7F0BCCD
:1004D0007047000070B504000CD02B4A216814202E
:1004E000914209D2294A0A44B2FBF0F080006064CC
:1004F00027480AE0012070BD234A52420A44B2FB59
:10050000F0F080006064204808382064022084F8FD
:1005100025000A6847F6F0708243D4E902031843C5
:10052000D4E904352B431843A3691843E3691843FE
:10053000236A1843104308602046FFF70BFFA068AA
:100540000025B0F5804F00D16560A16C207908606E
:10055000D4E9130141606068401E032808D8204692
:10056000FFF718FF606D0560D4E91601416002E0F5
:100570006565A565E565E563012084F8250084F8D7
:100580002450002070BD000008040240F8FFFDBFA9
:100590000000024070B5044690F8240000250128B0
:1005A0000CD0012084F8240094F825600020012E4E
:1005B00006D084F824000225284670BD022070BDB4
:1005C000022684F82560E0632068066826F00106AC
:1005D00006602046FFF7F0FE206B002820680168C7
:1005E00002D041F00E0106E021F004010160206814
:1005F000016841F00A010160A06C0168C90303D5DC
:10060000016841F480710160606D18B1016841F4C6
:10061000807101602068016841F001010160CBE751
:1006200070B5044600F004F90546601C02D0044889
:100630004068044400F0FCF8401BA042FAD370BDAF
:10064000000000202DE9FC4FDFF8A0A100230125C8
:100650000AF1040B03244FF00F0C0BF1040EBDE064
:1006600005FA03F632406FD04F68012F05D0022FF4
:1006700003D0112F01D0122F17D1D0F808905F00AE
:1006800004FA07F829EA08090097D1F80C8008FA5B
:1006900007F848EA0908C0F808804768B7430E79A8
:1006A000C6F300169E403E434660C6684FEA4308C4
:1006B00004FA08F7BE4301978F6807FA08F7374333
:1006C000C7604E68022E01D0122E13D1DE0800EB57
:1006D00086060096366A5F07FF0E0CFA07F926EACF
:1006E0000906D1F8109009FA07F949EA0609009EAF
:1006F000C6F820900668019FBE430F7907F00307F4
:1007000007FA08F7374307604E68F60065D5384E9C
:10071000376E47F001073766366E23F0030706F0A1
:1007200001060096334E3E44B146B6689F074FEA35
:1007300017780CFA08F7BE43B0F1904F05D02E4F52
:10074000B84204D1012717E047E0002714E02B4FFF
:10075000B84201D102270FE0294FB84201D1032747
:100760000AE0284FB84201D1042705E0264FB842DD
:1007700001D1052700E0062707FA08F73743C9F833
:100780000870DAF800605746D1F8048096435FEAB3
:10079000C83800D516433E60DBF800605F46D1F8EC
:1007A000048096435FEA883800D516433E60DEF841
:1007B00000607746D1F8048096435FEAC82800D5E8
:1007C00016433E60094F0C373E68D1F804809643CB
:1007D0005FEA882800D516433E605B1C0A6832FA3F
:1007E00003F67FF43DAFBDE8FC8F0000000401403C
:1007F00000100240000001400004004800080048CA
:10080000000C00480010004800140048006908402F
:1008100000D001207047426921EA02030A4043EAFE
:100820000241816170470AB18161704781627047FE
:10083000014880687047000000000020024881687D
:1008400042681144816070470000002010B5002408
:10085000032000F073F8002000F008F808B101242C
:1008600001E000F025F8204610BD000070B50E4EE6
:1008700005460024706898B14FF47A71B1FBF0F02E
:100880000A490968B1FBF0F000F064FD40B9102D91
:1008900006D200222946501E00F030F8356000E0F4
:1008A0000124204670BD0000000000200C00002044
:1008B0000A4882B0016E41F001010166016E01F04B
:1008C00001010091816D41F080518165806D00F0E2
:1008D0008050009002B000F0A1B80000001002406B
:1008E000002809DB00F01F0201219140400980002F
:1008F00000F1E020C0F8001170470000F0B40E4B8A
:100900001B680C46C3F30223C3F10705042D00D96D
:100910000425191D072901D2002300E0DB1E012652
:1009200006FA05F1491E214099409E40761E164068
:100930003143F0BC01F08EBE0CED00E0064900F042
:10094000070208684FF6FF03184040EA0220034AF6
:1009500010430860704700000CED00E00000FA054D
:100960002B492C4B0A6832214A432B4940B1B0F540
:10097000007F086829D020F4C06040F480602CE03B
:100980000868C0F34120022804D051F8800F20F4F9
:10099000807022E0D1F8800020F48070C1F88000DF
:1009A000086820F4C06040F400700860B2FBF3F007
:1009B000401C00E0401E4A69520501D50028F9D1CB
:1009C000486940050AD503207047C0F3412002283A
:1009D00006D051F8800F40F4807008600020704706
:1009E000D1F8800040F48070C1F88000086820F4DD
:1009F000C06040F400700860B2FBF3F0401C00E0FF
:100A0000401E4A695205DBD50028F9D1D8E700001D
:100A10000C00002040420F00007000400248816836
:100A200041F4804181607047007000402DE9F84337
:100A30000446006800269D4D00035ED5A86D002782
:100A4000C00008D4A86D40F08050A865A86D0127AB
:100A500000F080500090DFF85892D9F8001041F46F
:100A60008071C9F80010FFF7E3FE804606E000BF82
:100A7000FFF7DEFEA0EB080002282BD8D9F8000013
:100A8000C005F5D5D5F8900010F4407014D0216C55
:100A9000814211D0D5F89000D5F8901020F4407024
:100AA00041F48031C5F89010D5F8901021F48031D0
:100AB000C5F89010C5F89000C00711D0FFF7B8FE38
:100AC000804641F2883907E0FFF7B2FEA0EB08014B
:100AD000494501D903260BE0D5F890008007F3D5EE
:100AE000D5F89000216C20F440700843C5F89000C0
:100AF0001FB1A86D20F08050A8652078C00707D0EE
:100B0000D5F88800616820F003000843C5F8880024
:100B10002078800707D5D5F88800A16820F00C0060
:100B20000843C5F888002078400707D5D5F8880025
:100B3000E16820F030000843C5F8880020780007FD
:100B400007D5D5F88800216920F0C0000843C5F812
:100B500088002078800607D5D5F88800616920F4E0
:100B600040600843C5F888002078400607D5D5F8CE
:100B70008800A16920F440500843C5F88800207817
:100B8000000607D5D5F88800E16920F44040084305
:100B9000C5F888002088C00507D5D5F88800216AE7
:100BA00020F440300843C5F888002088800507D528
:100BB000D5F88800616A20F440200843C5F8880011
:100BC000208840050FD5D5F88800A16A20F4401090
:100BD0000843C5F88800A06AB0F5801F03D1E86813
:100BE00040F48010E860208800050FD5D5F8880013
:100BF000E16A20F440000843C5F88800E06AB0F5D7
:100C0000800F03D1E86840F48010E8602088C004B9
:100C10000FD5D5F88800216B20F040700843C5F847
:100C20008800206BB0F1807F03D1E86840F4801029
:100C3000E86020884FF0006180040ED5D5F8880068
:100C4000626B20F040601043C5F88800606B8842FA
:100C500003D1E86840F48010E860208840040ED595
:100C6000D5F88800A26B20F040601043C5F88800DA
:100C7000A06B884203D1E86840F48010E8602088C7
:100C800000040FD5D5F88800E16B20F040500843F0
:100C9000C5F88800E06BB0F1805F03D1E86840F4EC
:100CA0008030E8603046BDE8F88300000010024064
:100CB000007000402DE9F0470E4605004FF0000798
:100CC00025D0DFF8AC81D8F8000000F00F00B0426A
:100CD0000CD2D8F8001021F00F013143C8F80010F1
:100CE000D8F8000000F00F00B04210D12968614C24
:100CF000C80741F2883A5AD06868DFF87C91032827
:100D000008D0022820682DD0400500282CDB0120C7
:100D1000BDE8F08720688001F9D5E06800F00302A3
:100D2000E068C0F30310401C032A19D0534A00BFE7
:100D3000B2FBF0F0E268C2F306225043E268C2F36D
:100D40004162521C5200B0FBF2F0484517D9A0682E
:100D500010F0F00F0CD0880711D5A86840B10EE054
:100D6000474AE5E78003D0E700F0B6F8484506D9E2
:100D7000A06820F0F00040F08000A0608027A0680C
:100D8000696820F003000843A060FFF751FD814629
:100D900006E000BFFFF74CFDA0EB090151453AD832
:100DA000A068696800F00C00B0EB810FF2D12868F0
:100DB000810714D5400703D5A06840F4E060A06027
:100DC0002878000705D5A06820F4605040F4E06062
:100DD000A060A068A96820F0F000084304E0802F1C
:100DE00003D1A06820F0F000A060D8F800104046C1
:100DF00001F00F01B14216D9016821F00F01314312
:100E00000160FFF715FD074607E000BFFFF710FD83
:100E1000C11B514501D903207AE7D8F8000000F042
:100E20000F00B042F2D12878400705D5A068E968E4
:100E300020F4E0600843A0602878000706D5A06889
:100E4000296920F4605040EAC100A06000F044F835
:100E5000A1680C4AC1F30311515C01F01F01C840A5
:100E60000949086009480068BDE8F047FFF7FEBC83
:100E7000002002400010024000B4C4040024F4002A
:100E800000366E01142A00080C000020000000202B
:100E90000548064900688968054AC1F30221515C8A
:100EA00001F01F01C84070470C00002000100240F4
:100EB000242A00080548064900688968054AC1F3E4
:100EC000C221515C01F01F01C84070470C00002096
:100ED00000100240242A0008184910B58868C0F3A1
:100EE00081021748012A0BD08A68164BC2F381028F
:100EF000022A06D08A68C2F38102032A03D00020A6
:100F000010BD184610BDCA6802F00304CA68C2F3D7
:100F10000312521C032C02D0B0FBF2F001E0B3FB31
:100F2000F2F0CA68C968C2F306225043C1F34161B6
:100F3000491C4900B0FBF1F010BD00000010024058
:100F40000024F40000366E012DE9F84304007AD045
:100F50002078FA4DC00747D0A868E96800F00C0077
:100F600001F003010C2802D0082817D001E0032962
:100F700014D06068B0F5803F17D0B0F5A02F286876
:100F800017D020F480302860286820F48020286062
:100F90006068E0B1FFF74CFC064614E02868800367
:100FA00022D560680028D2D01EE0286840F4803046
:100FB000EDE740F480202860F7E700BFFFF738FC3A
:100FC000801B642870D828688003F7D50CE0FFF7F1
:100FD0002FFC064605E000BFFFF72AFC801B6428B3
:100FE000F0D828688003F7D4207880074CD5A8680B
:100FF000E96800F00C0001F003010C2802D004287D
:101000000DD001E002290AD0E068002828682BD022
:1010100040F480702860FFF70BFC064619E0286852
:10102000400502D5E068002891D06868217C20F056
:10103000FE4040EA01606860C1480068FFF716FCA6
:10104000002800D120E076E1FFF7F2FB801B0228A8
:10105000B8D828684005F7D56868217C20F0FE40A4
:1010600040EA016068600FE020F480702860FFF7BC
:10107000DFFB064605E000BFFFF7DAFB801B022816
:10108000A0D828684005F7D42078000729D56069E2
:101090000028D5F8940013D040F00100C5F8940062
:1010A000FFF7C6FB064606E090E000BFFFF7C0FB77
:1010B000801B022886D8D5F894008007F6D510E06A
:1010C00020F00100C5F89400FFF7B2FB064604E0EB
:1010D000FFF7AEFB801B022878D8D5F89400800774
:1010E000F6D42078400761D5A86D0026C00008D44A
:1010F000A86D40F08050A865A86D012600F08050D2
:10110000009090480168C90511D40168804641F4F7
:1011100080710160FFF78CFB074604E0FFF788FB56
:10112000C01B022852D8D8F80000C005F6D5A06828
:10113000012815D00528D5F8900016D020F0010020
:10114000C5F89000D5F8900020F00400C5F8900094
:10115000A06841F28838B8B1FFF76AFB07460EE095
:10116000D5F8900040F00100F0E740F00400C5F829
:101170009000F5E7FFF75CFBC11B414526D8D5F889
:1011800090008007F6D50CE0FFF752FB074604E01D
:10119000FFF74EFBC11B414518D8D5F890008007DA
:1011A000F6D41EB1A86D20F08050A8652078800686
:1011B00029D5A0690028D5F8980013D040F0010087
:1011C000C5F89800FFF734FB064606E077E000BF5D
:1011D000FFF72EFB801B022877D8D5F898008007F0
:1011E000F6D510E020F00100C5F89800FFF720FBCD
:1011F000064604E0FFF71CFB801B022865D8D5F8E3
:1012000098008007F6D4E069F0B3A968C1F38101C2
:10121000032961D00228286820F0807028600BD054
:10122000E86820F00300E860E86847490840E860A3
:10123000FFF7FEFA04464BE0FFF7FAFA064604E031
:10124000FFF7F6FA801B02283FD828688001F7D400
:10125000F4E908016FF00F0202EB01110843218A43
:101260005204490802EB4151A26841EA02210843B5
:10127000217D4FF07E42490802EB41610843217B0A
:1012800040EAC160E96800E062E0304A114008438A
:10129000E860286840F080702860E86840F080705E
:1012A000E860FFF7C5FA044605E000BFFFF7C0FAA3
:1012B000001B022809D828688001F7D548E004E01F
:1012C000FFF7B6FA001B022802D90320BDE8F88315
:1012D00028688001F4D43BE00128F7D0E868226A4E
:1012E00000F00301914226D1616A00F0F002090189
:1012F000103991421FD1A26A00F4FE41B1EB022FD6
:1013000019D194F82C2000F07841B1EBC26F12D1C2
:10131000218E00F4C00249084905A1F5001191424F
:1013200009D194F8341000F0C06049084906A1F1D1
:10133000007181420CD00120C8E70000001002407B
:101340000000002000700040FFFFEEFE0C809F01B7
:101350000020BBE710B5401EB0F1807F01D3012013
:1013600010BD4FF0E02460610F21601701F072F9A9
:101370000020A06107202061002010BD90F880109F
:10138000012918D0012180F880102421C0F8841090
:1013900050F8641B0A680B6823F001030B6022F00D
:1013A00000510022026050F8643C19602021016263
:1013B00002771046704702207047704770B50446A8
:1013C00090F8800001281DD0012084F8800024209E
:1013D000C4F8840020680568026822F001020260F7
:1013E0002068826822F060620A438260204600F032
:1013F000EBFD206805602020C4F88400002084F8FC
:10140000800070BD022070BD70B5044690F8800069
:1014100001281DD0012084F880002420C4F8840015
:1014200020680568026822F0010202602068826874
:1014300022F060420A438260204600F0C5FD206829
:1014400005602020C4F88400002084F8800070BD6E
:10145000022070BD704710B5040003D0D4F884009A
:1014600010B107E0012010BD002084F88000204664
:1014700000F026F82420C4F884002068016821F0D8
:1014800001010160204600F001FF0128EBD0A06AB5
:1014900010B1204600F0BAFD2068416821F4904167
:1014A00041602068816821F02A018160206801681C
:1014B00041F0010101602046BDE8104000F00ABE85
:1014C0002DE9F04186B0064614216846FEF7D8FEA5
:1014D0002A49306888424ED12948016E41F4804142
:1014E0000166016E01F480410591C16C41F001017A
:1014F000C164C06C002400F0010005904FF4C0608E
:1015000000900220CDE901040720CDE9034069469F
:101510004FF09040FFF796F81B4D1A48802728603F
:101520001820C5E90104C5E903474FF020086C61A4
:10153000C5E9064828462C62FEF7CCFF08B1FEF745
:1015400069FFF567AE62104D0E48603514302860B3
:101550001920686005F10801102081E891006C6194
:10156000C5E9064828462C62FEF7B4FF08B1FEF72D
:1015700051FFB567AE6206B0BDE8F08100380140AA
:101580000010024008000240BC00002030B4D0F837
:101590008830202B1BD1B9B1B2B190F88030012B2B
:1015A00015D0012380F880300023C366094C0368FE
:1015B000A34206D05C68240203D51C6844F0806412
:1015C0001C6030BC00F09CBF012030BC7047022082
:1015D000FBE700000080004010B500680849884221
:1015E0000CD108490A224C1C08782478B0FBF2F38D
:1015F00002FB1302044B401C9C54087010BD0000F9
:1016000000380140280000207C01002070470000C5
:1016100070B50446D0F8840020283DD171B36AB378
:1016200094F88000012837D0012084F880002165DB
:10163000A4F85420A4F856200025C4F88C5021208A
:10164000C4F88400A06FD8B11449C162A16F1448D6
:1016500013460863A16F13484863A06F856326682B
:10166000216D06F12802A06FFEF794FF40B1102013
:10167000C4F88C0004F8805F20206060012070BDF9
:1016800021684020086284F880502068816841F019
:1016900080018160002070BD022070BDFF21000824
:1016A0002F2200083521000870477047FEE7000030
:1016B00000B585B014216846FEF7E2FD4FF6FF70D5
:1016C000009000200321CDE9020101906946024803
:1016D000FEF7B8FF05B000BD0008004800B585B0B2
:1016E00014216846FEF7CCFD4FF6FF7000900120F4
:1016F0000190032003900020029069460248FEF703
:10170000A1FF05B000BD00000008004870B500242E
:1017100006462146204600F00BF900F045F94FF44B
:101720009635304600F010F9641CAC42F9D370BD18
:1017300001A100F061B800002020202020202020FE
:101740002020202020202020202020200000000019
:1017500030B587B014216846FEF792FD1E48C16C73
:1017600041F00401C164C16C01F004010591C16C38
:1017700041F00101C164C16C01F001010591C16C2E
:1017800041F00201C164C06C012500F00200059027
:101790004FF44870CDE90005002403946946029493
:1017A0000E48FEF74FFF280203940090CDE9015444
:1017B0004FF0904469462046FEF744FFFFF78EFF46
:1017C000A06940F48070A06104481830016841F4B9
:1017D0000871016007B030BD0010024000040048ED
:1017E000203AD2B2034B02EB420203EB021200F0AA
:1017F00019B800002C2A0008F0B50E46074600254F
:1018000040F23F1407E021463846FFF7E9FF103C5D
:101810006D1CA4B2761C3278002A01D0142DF2D3AC
:10182000F0BD00002DE9F04791468A4600260446A7
:1018300000F07EF8DFF84080012700BF00F0B4F828
:101840005FF0000539F8160007FA05F10842404636
:1018500001D1408800E0008800F076F86D1C102D62
:10186000F0D3641CE4B25146204600F061F8761CC7
:10187000182EE3D3BDE8F0872000002010B5FFF755
:1018800067FF002000F014F8084CA080A088A0F5A5
:101890000241303906D000F04BFA002000F008F881
:1018A000A08010BD00F0BBF9F7E700002000002089
:1018B00070B51D490A6842F400720A600A6842F471
:1018C00080720A60184C103C226842F020022260AC
:1018D000164A1060086840F02000086000BF00BF92
:1018E00000BF206840F020002060206840F4807035
:1018F0002060FFF7DDFE4FF09041886A40F4807071
:10190000886200BF00BF00BF0848001F006885B2A2
:10191000886940F480708861FFF7E0FE206840F439
:1019200000702060284670BD280400481408004854
:1019300010B50C460146202000F068F82146BDE8AD
:101940001040212000F062B830B5154B1968154AD7
:101950008CB2116841F400711160124910390D68A0
:1019600045F480750D600D6845F020050D60186028
:10197000106840F02000106000BF00BF00BF086882
:1019800040F020000860086840F48070086000BFE4
:1019900000BF00BF086840F4007008601C6030BDE4
:1019A0001408004828040048164A10B51068164963
:1019B00083B2086840F400700860086840F48070E2
:1019C000086011481038046844F0200404602224A0
:1019D00014600C6844F020040C6000BF00BF00BF1E
:1019E000016841F020010160016841F480710160EB
:1019F00000BF00BF00BF016841F4007101601360C7
:101A000010BD0000140800482804004870B51A4CA6
:101A100022681A4B95B21A6842F400721A601A686A
:101A200042F480721A60154A103A166846F0200691
:101A300016602060186840F02000186000BF00BFEA
:101A400000BF106840F020001060106840F4807003
:101A500010602160186840F02000186000BF00BFCF
:101A600000BF106840F020001060106840F48070E3
:101A70001060256070BD000014080048280400486C
:101A8000154808B5816C41F004018164816C01F056
:101A900004010091816C41F001018164806C00229D
:101AA00000F00100009005210B20FEF727FF0B201E
:101AB000FEF716FF002206210C20FEF71FFF0C2068
:101AC000FEF70EFF002211465E20FEF717FFBDE86D
:101AD00008405E20FEF704BF00100240F0B587B05A
:101AE00014216846FEF7CCFB2D48C16C41F004017F
:101AF000C164C16C01F004010591C16C41F0200189
:101B0000C164C16C01F020010591C16C41F001017B
:101B1000C164C16C01F001010591C16C41F0020189
:101B2000C164C16C01F002010591C16C41F0080172
:101B3000C164C06C1B4E00F008004FF47F44059058
:101B4000002221463046FEF76EFE174F0022042188
:101B50003846FEF768FE0125CDE9004500240294D1
:101B6000694630460394FEF76DFDCDE900546946A1
:101B70004FF090400295FEF765FD07208DE831009B
:101B800069460A48FEF75EFD04200090CDE9015445
:101B9000694638460394FEF755FD07B0F0BD0000D6
:101BA0000010024000080048000C004800040048F3
:101BB000184810B5164901604FF4165141600021D4
:101BC00081600C22C160C0E904128161C1610162BF
:101BD00041628162FFF73FFC08B1FEF71BFC002168
:101BE0000C48FFF711FC08B1FEF714FC002109486E
:101BF000FFF7E4FB08B1FEF70DFC0648FFF7BEFB5C
:101C0000002803D0BDE81040FEF704BC10BD000062
:101C1000003801402C000020FEE7FEE7704730B599
:101C200001210020FFF7F2FE4FF47A70FEF7E4FB8B
:101C300000210120FFF7EAFE41F290711020FFF72A
:101C4000E5FE4FF41C516020FFF7E0FE012161200A
:101C5000FFF7DCFE02214620FFF7D8FE48F2100114
:101C60001320FFF7D3FE48F2FE011220FFF7CEFE4D
:101C70004FF4A0610220FFF7C9FE41F230010320BA
:101C8000FFF7C4FE40F2033421463020FFF7BEFECA
:101C900021463120FFF7BAFE21463220FFF7B6FE7B
:101CA000E51E29463320FFF7B1FE03213420FFF75C
:101CB000ADFE21463520FFF7A9FE14213620FFF79F
:101CC000A5FE21463720FFF7A1FE21463820FFF769
:101CD0009DFE21463920FFF799FE29463A20FFF75D
:101CE00095FE03213B20FFF791FE21463C20FFF7A4
:101CF0008DFE4FF4A0513D20FFF788FE4FF4007198
:101D00009220FFF783FE21469320FFF77FFE40F6E7
:101D10000D019020FFF77AFE41F218010320FFF732
:101D200075FEBDE8304040F273110720FFF76EBE2C
:101D300010B543F20801E320FFF768FE1221E72007
:101D4000FFF764FE41F23121EF20FFF75FFE002133
:101D50000120FFF75BFE4FF4E0610220FFF756FE23
:101D600041F230010320FFF751FE00210420FFF76C
:101D70004DFE40F207210820FFF748FE0021092010
:101D8000FFF744FE00210A20FFF740FE00210C204F
:101D9000FFF73CFE00210D20FFF738FE00210F2049
:101DA000FFF734FE00211020FFF730FE072111203D
:101DB000FFF72CFE00211220FFF728FE0021132040
:101DC000FFF724FEC820FEF72BFC41F290611020A3
:101DD000FFF71CFE40F227211120FFF717FE3220EB
:101DE000FEF71EFC1D211220FFF710FE3220FEF729
:101DF00017FC4FF400611320FFF708FE142129207F
:101E0000FFF704FE0B212B20FFF700FE3220FEF728
:101E100007FC00212020FFF7F9FD00212120FFF71A
:101E2000F5FD07213020FFF7F1FD40F20771312069
:101E3000FFF7ECFD06213220FFF7E8FD40F20471C8
:101E40003520FFF7E3FD41F604713620FFF7DEFD94
:101E500004213720FFF7DAFD00213820FFF7D6FDF7
:101E600040F206713920FFF7D1FD40F201713C20AC
:101E7000FFF7CCFD0F213D20FFF7C8FD00215020CA
:101E8000FFF7C4FDEF215120FFF7C0FD00215220D4
:101E9000FFF7BCFD40F23F115320FFF7B7FD4FF4B1
:101EA0001C516020FFF7B2FD01216120FFF7AEFD5C
:101EB00000216A20FFF7AAFD00218020FFF7A6FD80
:101EC00000218120FFF7A2FD00218220FFF79EFD67
:101ED00000218320FFF79AFD00218420FFF796FD63
:101EE00000218520FFF792FD10219020FFF78EFD45
:101EF00000219220FFF78AFD03219320FFF786FD42
:101F00004FF488719520FFF781FD00219720FFF79E
:101F10007DFD00219820FFF779FD41F21801032093
:101F2000FFF774FDBDE8104040F273110720FFF782
:101F30006DBD7047FEF782BC30B5A5B0382168464C
:101F4000FEF79EF914211FA8FEF79AF944210EA866
:101F5000FEF796F94FF40070FEF702FD0125280404
:101F6000CDE9005002200324CDE907041421CDE976
:101F70000A100C900D9009946846FEF7E5FF08B131
:101F800072B6FEE70F20CDE91F04002421942294AD
:101F900002211FA82394FEF78DFE08B172B6FEE75A
:101FA000CDE90E540EA8FEF741FD002801D072B60F
:101FB000FEE725B030BD00000248016841F4700121
:101FC0000160704788ED00E030B5416EB9B102683C
:101FD00091689268C1F342610B4B520F9C5CE50023
:101FE00003F10804A25CB5FBF2F2A0F86A205A5C87
:101FF000615CD200B2FBF1F1A0F8681030BD0121A4
:10200000A0F86A10F8E70000042A000890F82810E9
:10201000C90706D001684A68C36A22F400321A432D
:102020004A6090F82810890706D501684A68036B52
:1020300022F480321A434A6090F82810490706D5E6
:1020400001684A68436B22F480221A434A6090F880
:102050002810090706D501684A68836B22F40042FC
:102060001A434A6090F82810C90606D501688A68A4
:10207000C36B22F480521A438A6090F828108906B4
:1020800006D501688A68036C22F400521A438A60FC
:1020900090F82810490611D501684A68436C22F46B
:1020A00080121A434A60416CB1F5801F06D1016865
:1020B0004A68836C22F4C0021A434A6090F82810E0
:1020C000090606D501684A68C06C22F40022024362
:1020D0004A607047F8B500260446C0F88C60FEF7E9
:1020E000A7FB0546206800686FF07E47000708D50B
:1020F0002B4600224FF400112046009700F042FAD0
:1021000060B92068006840070AD52B4600224FF4CA
:1021100080012046009700F035FA08B10320F8BD91
:102120002020C4F88400C4F8880044F86C6F0020B4
:102130002675F8BD70B5846AD4F88400D4F8885048
:10214000216889684FF00006090606D5212804D1C8
:10215000A4F85660204600F08BF82068806840069E
:1021600006D5222D04D1A4F85E60204600F064F864
:10217000D4F88C0040F01000C4F88C002046FFF723
:1021800069F970BD10B50146806A09680968890659
:102190001CD40021A0F85E1001680A6822F4807245
:1021A0000A6001688A6822F001028A6001688A6810
:1021B00022F040028A602021C0F88810C16E0129F7
:1021C00004D101680A6822F010020A60C16E012978
:1021D00002D0FFF701FA10BDB0F85C10FFF7EDF880
:1021E00010BD10B5806AC16E012902D0FFF70EFA4A
:1021F00010BDB0F85C104908FFF7DFF810BD10B54E
:102200000146806A0968096889060DD40021A0F892
:10221000561001688A6822F080028A6000680168AE
:1022200041F04001016010BDFFF73EFA10BD10B54E
:10223000806AFFF73AFA10BD01680A6822F49072CA
:102240000A6001688A68094B1A408A60C16E0129D8
:1022500004D101680A6822F010020A602021C0F847
:1022600088100021C166016770470000FEFFFFEF84
:1022700001680A6822F0C0020A6001688A6822F4D4
:1022800000028A602021C0F8841070472DE9F041D7
:102290000446016880682269E36910436269002589
:1022A0001A431043DFF82CC20A688B4B1A400243D2
:1022B0000A6020684168E26821F44051114341609E
:1022C0002168A069614501D0226A10438A68834B66
:1022D0001A4002438A602068C16A626A21F00F01D5
:1022E0001143C1627E4923687E488B420DD1D0F8EC
:1022F000880010F0030006D0012855D0022842D0F3
:1023000003283FD152E001203DE077498B420BD1B9
:10231000D0F8880010F00C0035D0042833D00828FD
:1023200040D00C282ED141E070498B420BD1D0F81F
:10233000880010F0300026D0102835D0202831D069
:1023400030281FD132E06A498B420BD1D0F8880087
:1023500010F0C00017D0402826D0802822D0C028F6
:1023600010D123E063450DD1D0F8880010F440600F
:1023700009D0B0F5806F17D0B0F5006F12D0B0F56E
:10238000406F13D010205B4A5B4F00264FF4004192
:10239000634539D160B102280DD004280DD008283A
:1023A00031D10EE00220EEE70420ECE70820EAE756
:1023B000FEF76EFD03E0114603E0FEF78DFD010020
:1023C0007DD0606A37F810206768B1FBF2F007EB48
:1023D000470383426CD8B0EB073F69D80023084617
:1023E0001946FDF715FF090241EA1061020278085B
:1023F000101871413A460023FDF70AFF3F4AA0F545
:102400004071914259D953E0E3694FF6EF788B421E
:102410002DD109284CD2DFE800F005080D4B274BE1
:102420004B4B0E00FEF734FD01E0FEF743FD0100CB
:1024300001D144E01146606A37F81000B1FBF0F0BA
:102440004100606801EB5001B1FBF0F080B2A0F1F7
:10245000100141452CD84FF6F0710140C0F3420005
:1024600001432068C1602AE0FEF736FDDFE7092856
:102470001ED2DFE800F005080D1D1F1D1D1D0E00FA
:10248000FEF706FD01E0FEF715FD010001D116E0A3
:102490001146606A37F81000B1FBF0F1606801EB9B
:1024A0005001B1FBF0F080B2A0F11001414504D918
:1024B000012504E0FEF710FDE7E72168C860012070
:1024C000A4F86A0024F8680F2846A660E660BDE814
:1024D000F081000000800040F369FFCFFFF4FF119E
:1024E0000038014000100240004400400048004015
:1024F000004C00400024F400EC290008FFFC0F0011
:1025000070B58165A0F85C2000250446C0F88C50A9
:102510002220C4F88800E06FD8B11749C162E16F8A
:10252000164813460863E16F15484863E06F8563FA
:10253000A66D216832462431E06FFEF72BF840B1DA
:102540001020C4F88C0004F8805F20206060012017
:1025500070BD84F880502068016841F4807101608A
:102560002068816841F0010181602068816841F044
:1025700040018160002070BD85210008E321000832
:10258000352100082DE9F0479A4617460E460446C5
:102590004FF000094FF02008089D39E0681C37D043
:1025A000FEF746F9A0EB0A00A84222D80DB3206836
:1025B000016849072CD5C069C043000528D42168AB
:1025C0004FF4006008622068016821F4D071016056
:1025D0002068816821F001018160C4F88480C4F81A
:1025E0008880C4F88C8000BF84F880900320BDE808
:1025F000F0872068016821F4D0710160206881684B
:1026000021F001018160C4F88480C4F88880EBE780
:102610002068C06936EA000004D00020B842BDD06E
:102620000020E4E70120F9E7FEE700000FB4084BC3
:1026300010B504A902AA039800F02CF8044602A9D8
:10264000002000F0D1F8204610BC5DF814FB00001B
:10265000E92700080907090E002804DB00F1E02043
:1026600080F80014704700F00F0000F1E02080F8BF
:10267000141D704702E008C8121F08C1002AFAD1D1
:1026800070477047002001E001C1121F002AFBD1F2
:10269000704700002DE9FF4F89B09B460446002596
:1026A00006E025280BD05A460B999047641C6D1CF8
:1026B00020780028F5D10DB02846BDE8F08F00271E
:1026C000B8460122474900E0074314F8013F203B88
:1026D00002FA03F00842F7D120782E2819D114F815
:1026E000010F47F004072A280ED06FF02F02207840
:1026F000A0F1300109290CD808EB880102EB410157
:1027000000EB0108641CF2E70A98641C50F8048B83
:102710000A9020780028CED0642808D0692806D0F6
:1027200075281ED05A460B9990476D1C58E00A999F
:102730004FF00A0901C90A91002802DA40422D210E
:1027400002E0390504D52B218DF82010012103E08A
:10275000F90704D02021F7E78A4608AE0DE00021F2
:10276000FAE70A994FF00A0901C90A91F7E74946C1
:10277000FDF798FD303106F8011D0028F7D1ADEBCB
:10278000060000F12009780701D44FF00108C84580
:1027900002DDA8EB090000E000208046002706E0EB
:1027A00008A85A46C05D0B9990476D1C7F1C574581
:1027B000F6DB04E030205A460B9990476D1CB8F1C7
:1027C0000001A8F10108F5DC05E016F8010B5A46F6
:1027D0000B9990476D1CB9F10001A9F10109F4DCD6
:1027E000641C65E7092801000A68531C0B6010701F
:1027F0007047000010B5012801D0012200E000223E
:102800004FF47F410748FEF70EF8074C01220421E0
:102810002046FEF708F820460022BDE810400421BB
:10282000FEF701B800080048000C004870B5134DD1
:1028300001212846FDF7EAFF044602212846FDF75C
:10284000E5FF44EA400404212846FDF7DFFF44EA9F
:10285000800401214FF09040FDF7D8FF084944EA79
:10286000C00040F0F0000A78C04320EA0203424072
:102870004B7082438A70087070BD000000040048ED
:102880001000002008B5FEF7F9FF0020FEF73EFF1C
:102890004FF6FF70ADF80000BDF80010044801804D
:1028A0000021ADF80010BDF80010418008BD000007
:1028B00020000020FDF7CAFFFFF73EFBFFF70EF9EF
:1028C000FFF7DEF8FFF774F900F01AF800F02AF8C5
:1028D000FCE7000010B501460748FDF79CFF074CD8
:1028E000012204212046FDF79EFF20460022BDE87C
:1028F00010400421FDF797BF00080048000C004875
:1029000010B5FFF7BFFF0020FFF774FFBDE81040D0
:10291000012202490248FEF739BE000029000020CA
:102920002C00002000B585B0FFF780FF2448007818
:10293000012813D0022802D004280FD105E00A2272
:1029400020A12348FEF764FE08E00A22214920481E
:10295000FEF71CFE4FF48070FFF7BCFFFDF768FF29
:102960000F21B0FBF1F0FDF763FF0A21B0FBF1F09E
:1029700019480288511C018018A16846FFF756FECD
:1029800069461820FEF738FF1248FDF784FC68B14D
:102990003020FEF7CDFE0F493020FEF72DFF0D4908
:1029A00000200860486008810F4908704FF400401B
:1029B000FFF790FF4FF47A70FDF732FE05B000BDCF
:1029C000120000203233343536370D0A0000000083
:1029D0002C0000207C01002026000020636F756E13
:1029E000743A256400000000280000200100020065
:1029F0000400060008000A000C001000200040003F
:102A00008000000101010103070100000804020425
:102A100008010101000000000000000001020304A1
:102A2000060708090000000001020304000000007E
:102A30000000000000000000000000000000000096
:102A40000000000000000000000000000000000086
:102A500000000000000000000000000000008001F5
:102A6000800180018001800180018001800180015E
:102A70008001800180018001000000008001800150
:102A80000000000000000000000000000000000046
:102A9000CC00CC00CC00CC00CC00CC00000000006E
:102AA0000000000000000000000000000000000026
:102AB0000000000000000000000000000000000016
:102AC0000000000000000000600C600C600C30068C
:102AD0003006FE1FFE1F300638071803FE1FFE1FBC
:102AE000180318038C018C018C0100000000800089
:102AF000E003F80F9C0E8C1C8C188C009800F801D9
:102B0000E007800E801C8C188C189C18B80CF00FF5
:102B1000E0038000800000000000000000000000D2
:102B200000000E181B0C110C1106110611031103E5
:102B30009B018E01C038C06C604460443044304416
:102B40001844186C0C380000000000000000E00180
:102B5000F0033807180618063003F001F000F800FB
:102B60009C310E33061E061C061C063FFC73F0212A
:102B70000000000000000000000000000000000055
:102B80000C000C000C000C000C000C0000000000FD
:102B90000000000000000000000000000000000035
:102BA0000000000000000000000000000000000223
:102BB00000038001C000C0006000600030003000F1
:102BC0003000300030003000300030006000600025
:102BD000C000C000800100030002000000002000CF
:102BE0006000C000800180010003000300060006B1
:102BF00000060006000600060006000600030003AB
:102C000080018001C0006000200000000000000082
:102C10000000000000000000C000C000D806F80757
:102C2000E001300338070000000000000000000051
:102C30000000000000000000000000000000000094
:102C40000000000000000000800180018001800180
:102C50008001FC3FFC3F80018001800180018001F8
:102C60000000000000000000000000000000000064
:102C70000000000000000000000000000000000054
:102C800000000000000000000000000000008001C3
:102C90008001000100018000000000000000000031
:102CA0000000000000000000000000000000000024
:102CB00000000000E007E007000000000000000046
:102CC0000000000000000000000000000000000004
:102CD00000000000000000000000000000000000F4
:102CE0000000000000000000000000000000C00024
:102CF000C000000000000000000000000000000C08
:102D0000000C000600060006000300030003800319
:102D1000800180018001C000C000C0006000600030
:102D20000000000000000000000000000000E003C0
:102D3000F007380E180C0C180C180C180C180C187E
:102D40000C180C180C180C18180C380EF007E003AF
:102D50000000000000000000000000000000000172
:102D60008001C001F001980188018001800180018B
:102D7000800180018001800180018001800180014B
:102D80000000000000000000000000000000E00360
:102D9000F80F180C0C180C1800180018000C00067E
:102DA00000038001C000600030001800FC1FFC1F01
:102DB0000000000000000000000000000000E00132
:102DC000F807180E0C0C0C0C000C0006C003C00712
:102DD000000C001800180C180C18180CF807E00369
:102DE0000000000000000000000000000000000CD7
:102DF000000E000F000F800DC00C600C600C300C3A
:102E0000180C0C0CFC3FFC3F000C000C000C000CE0
:102E10000000000000000000000000000000F80FAB
:102E2000F80F180018000C00EC03FC071C0E001C27
:102E30000018001800180C181C0C180EF807E003F6
:102E40000000000000000000000000000000C007BB
:102E5000F00F381C181818000C00CC03EC0F3C0EB7
:102E60001C1C0C180C180C18181C380EF007E0036A
:102E70000000000000000000000000000000FC1F37
:102E8000FC1F000C00060006000380038001C00147
:102E9000C000E000600060007000300030003000D2
:102EA0000000000000000000000000000000E0033F
:102EB000F007380E180C180C180C3806F007F0073D
:102EC000180C0C180C180C180C18380CF80FE00320
:102ED0000000000000000000000000000000E0030F
:102EE000F007380E1C0C0C180C180C181C1C381E83
:102EF000F81BE0190018000C000C1C0EF807F0017C
:102F000000000000000000000000000000000000C1
:102F100000000000000000008001800100000000AF
:102F2000000000000000000000000000800180019F
:102F30000000000000000000000000000000000091
:102F4000000000000000000080018001000000007F
:102F5000000000000000000000000000800180016F
:102F600000010001800000000000000000000000DF
:102F70000000000000000000000000000010001C25
:102F8000800FE003F8001800F800E003800F001C39
:102F90000010000000000000000000000000000021
:102FA000000000000000000000000000F81F00000A
:102FB00000000000F81F00000000000000000000FA
:102FC0000000000000000000000000000000000001
:102FD00000000000000000000000000008003800B1
:102FE000F001C007001F0018001FC007F0013800E3
:102FF0000800000000000000000000000000E003E6
:10300000F80F180C0C180C180018000C0006000320
:103010008001C000C000C00000000000C000C0006F
:1030200000000000000000000000000000000000A0
:10303000E00718180420C229224A1144094409440F
:10304000094409221113E20C024004201818E00779
:1030500000000000000000000000000000008003ED
:103060008003C006C006C006600C600C3018301823
:103070003018F83FF83F1C700C600C6006C006C0AA
:103080000000000000000000000000000000FC0341
:10309000FC0F0C0C0C180C180C180C0CFC07FC0F7B
:1030A0000C180C300C300C300C300C18FC1FFC07CA
:1030B0000000000000000000000000000000C00749
:1030C000F01F38381C300C70066006000600060041
:1030D00006000600060006600C701C30F01FE007BA
:1030E0000000000000000000000000000000FE03DF
:1030F000FE0F060E0618061806300630063006309B
:1031000006300630063006180618060EFE0FFE03BF
:103110000000000000000000000000000000FC3F74
:10312000FC3F0C000C000C000C000C00FC1FFC1FF2
:103130000C000C000C000C000C000C00FC3FFC3FD1
:103140000000000000000000000000000000F83F48
:10315000F83F18001800180018001800F81FF81F92
:10316000180018001800180018001800180018009F
:103170000000000000000000000000000000E00F60
:10318000F83F3C780E6006E007C00300030003FE32
:1031900003FE03C007C006C00EC03CF0F83FE00FBE
:1031A00000000000000000000000000000000C30E3
:1031B0000C300C300C300C300C300C30FC3FFC3F31
:1031C0000C300C300C300C300C300C300C300C301F
:1031D000000000000000000000000000000080016E
:1031E00080018001800180018001800180018001D7
:1031F00080018001800180018001800180018001C7
:1032000000000000000000000000000000000006B8
:10321000000600060006000600060006000600067E
:10322000000600060006180618063807F003E0013D
:103230000000000000000000000000000000063058
:103240000618060C060606038601C6006600760010
:10325000DE008E0106030606060C06180630066020
:103260000000000000000000000000000000180046
:10327000180018001800180018001800180018008E
:10328000180018001800180018001800F81FF81F80
:1032900000000000000000000000000000000EE040
:1032A0001EF01EF01EF036D836D836D836D866CC8A
:1032B00066CC66CCC6C6C6C6C6C6C6C686C386C3E8
:1032C00000000000000000000000000000000C30C2
:1032D0001C303C303C306C306C30CC30CC308C31DD
:1032E0000C330C330C360C360C3C0C3C0C380C30CC
:1032F0000000000000000000000000000000E007E7
:10330000F81F1C380E70066003C003C003C003C062
:1033100003C003C003C006600E701C38F81FE0072E
:103320000000000000000000000000000000FC0F92
:10333000FC1F0C380C300C300C300C300C18FC1FFF
:10334000FC070C000C000C000C000C000C000C0026
:103350000000000000000000000000000000E00786
:10336000F81F1C380E70066003E003C003C003C0E2
:1033700003C003C007E006630E3F1C3CF83FE0F7C4
:1033800000C0000000000000000000000000FE0F70
:10339000FE1F06380630063006300638FE1FFE07D0
:1033A00006030606060C06180618063006300660E8
:1033B0000000000000000000000000000000E0032A
:1033C000F80F1C0C0C180C180C001C00F803E00F74
:1033D000001E0038063006300E301C1CF80FE007C7
:1033E0000000000000000000000000000000FE7F60
:1033F000FE7F8001800180018001800180018001C9
:1034000080018001800180018001800180018001B4
:1034100000000000000000000000000000000C3070
:103420000C300C300C300C300C300C300C300C30BC
:103430000C300C300C300C300C301818F81FE00732
:103440000000000000000000000000000000036019
:103450000630063006300C180C180C18180C180C16
:10346000380E30063006700760036003C001C001EB
:1034700000000000000000000000000000000360E9
:10348000C361C361C36166336633663366336633D3
:1034900066336C1B6C1B6C1B2C1A3C1E380E380ED2
:1034A00000000000000000000000000000000FE02D
:1034B0000C7018303018700C600EC0078003800349
:1034C000C003E006700C301C18180C300E6007E0CA
:1034D000000000000000000000000000000003C029
:1034E00006600C301C383818300C6006E007C0034A
:1034F00080018001800180018001800180018001C4
:103500000000000000000000000000000000FC7F40
:10351000FC7F006000300018000C000600038001F2
:10352000C0006000300018000C000600FE7FFE7F27
:103530000000000000000000000000000000E003A8
:10354000E0036000600060006000600060006000F8
:10355000600060006000600060006000600060006B
:10356000600060006000E003E00300000000300045
:103570003000600060006000C000C000C000C001FA
:1035800080018001800100030003000300060006A3
:103590000000000000000000000000000000E00348
:1035A000E003000300030003000300030003000323
:1035B00000030003000300030003000300030003F3
:1035C000000300030003E003E0030000000000002C
:1035D000C001C00160036003600330063006180CB0
:1035E000180C0000000000000000000000000000B7
:1035F00000000000000000000000000000000000CB
:1036000000000000000000000000000000000000BA
:103610000000000000000000000000000000FFFFAC
:10362000FFFF0000000000000000000000000C0090
:103630000C000C000C000C000C000000000000004E
:10364000000000000000000000000000000000007A
:10365000000000000000000000000000000000006A
:103660000000000000000000F003F8071C0C0C0C28
:10367000000FF00FF80C0C0C0C0C1C0FF80FF018CE
:103680000000000000000000000000000000180022
:103690001800180018001800D803F80F380C181874
:1036A00018181818181818181818380CF80FD80304
:1036B000000000000000000000000000000000000A
:1036C0000000000000000000C003F007300E180CDE
:1036D0001800180018001800180C300EF007C0036E
:1036E00000000000000000000000000000000018C2
:1036F0000018001800180018C01BF01F301C181804
:1037000018181818181818181818301CF01FC01B93
:1037100000000000000000000000000000000000A9
:103720000000000000000000C003F00F300C18186B
:10373000F81FF81F180018003818301CF00FC007C9
:103740000000000000000000000000000000800FEA
:10375000C00FC000C000C000F007F007C000C000EC
:10376000C000C000C000C000C000C000C000C00059
:103770000000000000000000000000000000000049
:103780000000000000000000E00DF80F180E0C0C07
:103790000C0C0C0C0C0C0C0C0C0C180EF80FE00D97
:1037A000000C0C0C1C06F807F001000000001800CB
:1037B0001800180018001800D807F80F381C18183F
:1037C0001818181818181818181818181818181879
:1037D0000000000000000000000000000000C00029
:1037E000C000000000000000C000C000C000C00019
:1037F000C000C000C000C000C000C000C000C000C9
:103800000000000000000000000000000000C000F8
:10381000C000000000000000C000C000C000C000E8
:10382000C000C000C000C000C000C000C000C00098
:10383000C000C000C000F8007800000000000C00CC
:103840000C000C000C000C000C0C0C060C038C0182
:10385000CC006C00FC009C018C030C030C060C0CCF
:103860000000000000000000000000000000C00098
:10387000C000C000C000C000C000C000C000C00048
:10388000C000C000C000C000C000C000C000C00038
:103890000000000000000000000000000000000028
:1038A00000000000000000007C3CFF7EC7E383C1F5
:1038B00083C183C183C183C183C183C183C183C1E8
:1038C00000000000000000000000000000000000F8
:1038D00000000000000000009807F80F381C1818BE
:1038E0001818181818181818181818181818181858
:1038F00000000000000000000000000000000000C8
:103900000000000000000000C003F00F300C181889
:1039100018181818181818181818300CF00FC003B9
:103920000000000000000000000000000000000097
:103930000000000000000000D803F80F380C181831
:1039400018181818181818181818380CF80FD80361
:1039500018001800180018001800000000000000EF
:103960000000000000000000C01BF01F301C1818F1
:1039700018181818181818181818301CF01FC01B21
:1039800000180018001800180018000000000000BF
:103990000000000000000000B007F00370003000DD
:1039A0003000300030003000300030003000300097
:1039B0000000000000000000000000000000000007
:1039C0000000000000000000E003F003380E180CB7
:1039D0003800F003C007000C180C380EF007E003A5
:1039E00000000000000000000000000000000000D7
:1039F0008000C000C000C000F007F007C000C00099
:103A0000C000C000C000C000C000C000C0078007E8
:103A100000000000000000000000000000000000A6
:103A200000000000000000001818181818181818D6
:103A300018181818181818181818381CF01FE0193A
:103A40000000000000000000000000000000000076
:103A500000000000000000000C18180C180C180CD6
:103A6000300630063006600360036003C001C00109
:103A70000000000000000000000000000000000046
:103A80000000000000000000C141C141C361636348
:103A9000636363633636363636361C1C1C1C1C1CAE
:103AA0000000000000000000000000000000000016
:103AB00000000000000000001C38381C300C6006BC
:103AC00060036003600360036006300C381C1C3820
:103AD00000000000000000000000000000000000E6
:103AE0000000000000000000183030183018701876
:103AF000600C600CE00CC006C006800380038003ED
:103B000080018001C001F000700000000000000092
:103B10000000000000000000FC1FFC1F000C00065D
:103B200000038001C000600030001800FC1FFC1F73
:103B30000000000000000000000000000000000382
:103B40008001C000C000C000C000C000C000600014
:103B50006000300060004000C000C000C000C00035
:103B6000C000C000800100030000000000008001D0
:103B7000800180018001800180018001800180013D
:103B8000800180018001800180018001800180012D
:103B90008001800180018001800100000000600040
:103BA000C000C0018001800180018001800100030C
:103BB00000030006000300018001800180018001F4
:103BC00080018001C00060000000000000000000D3
:103BD000000000000000000000000000F010F81FCE
:103BE000080F0000000000000000000000000000BE
:103BF0000000000000000000000000001C3C000865
:103C0000000000202C00000074260008483C00083A
:103C10002C0000205C050000842600081000000035
:103C200001000000000000000024F400000000017A
:103C30000000000000000000000000000000FFFF86
:083C400000000000000000007C
:04000005080001D915
:00000001FF
